:020000040800F2
:1000000000000120CD1E0008611E0008671E0008C8
:100010006D1E0008731E0008791E00080000000015
:10002000000000000000000000000000015A00086D
:100030007F1E000800000000515C00088D1E0008B3
:100040001D1F00081D1F00081D1F00081D1F0008A0
:100050001D1F00081D1F00081D1F00081D1F000890
:100060001D1F00081D1F00081D1F00081D1F000880
:100070001D1F00081D1F00081D1F00081D1F000870
:100080001D1F00081D1F00081D1F00081D1F000860
:100090001D1F00081D1F00081D1F00081D1F000850
:1000A0001D1F00081D1F00081D1F00081D1F000840
:1000B0001D1F000800000000000000001D1F0008B8
:1000C0001D1F00081D1F00081D1F00081D1F000820
:1000D0001D1F00081D1F00081D1F00081D1F000810
:1000E0001D1F00081D1F0008000000000000000088
:1000F0000000000000000000000000000000000000
:10010000000000001D1F0008000000001D1F000867
:1001100000000000000000001D1F00081D1F000857
:100120001D1F00081D1F00081D1F00081D1F0008BF
:100130001D1F00080000000000000000000000007B
:100140001D1F00081D1F00081D1F000800000000E3
:100150001D1F00081D1F00081D1F00081D1F00088F
:100160001D1F00081D1F00081D1F000800000000C3
:100170001D1F00081D1F00080000000000000000F7
:0C0180001D1F00081D1F00081D1F0008A7
:1001900010B5054C237833B9044B13B10448AFF3C1
:1001A00000800123237010BD7800002000000000B3
:1001B0004099000808B5034B1BB103490348AFF34E
:1001C000008008BD000000007C000020409900086D
:1001D00081F0004102E000BF83F0004330B54FEAF8
:1001E00041044FEA430594EA050F08BF90EA020F65
:1001F0001FBF54EA000C55EA020C7FEA645C7FEAF8
:10020000655C00F0E2804FEA5454D4EB5555B8BF1A
:100210006D420CDD2C4480EA020281EA030382EA8B
:10022000000083EA010180EA020281EA0303362D1D
:1002300088BF30BD11F0004F4FEA01314FF4801CF0
:100240004CEA113102D0404261EB410113F0004F02
:100250004FEA03334CEA133302D0524263EB4303B9
:1002600094EA050F00F0A780A4F10104D5F1200E57
:100270000DDB02FA0EFC22FA05F2801841F10001B2
:1002800003FA0EF2801843FA05F359410EE0A5F186
:1002900020050EF1200E012A03FA0EFC28BF4CF0B7
:1002A000020C43FA05F3C01851EBE37101F000456D
:1002B00007D54FF0000EDCF1000C7EEB00006EEB7A
:1002C0000101B1F5801F1BD3B1F5001F0CD3490804
:1002D0005FEA30004FEA3C0C04F101044FEA44525B
:1002E00012F5800F80F09A80BCF1004F08BF5FEAE2
:1002F000500C50F1000041EB045141EA050130BDC2
:100300005FEA4C0C404141EB0101013C28BFB1F5D3
:10031000801FE9D291F0000F04BF01460020B1FA1E
:1003200081F308BF2033A3F10B03B3F120020CDAF1
:100330000C3208DD02F1140CC2F10C0201FA0CF0CF
:1003400021FA02F10CE002F11402D8BFC2F1200C34
:1003500001FA02F120FA0CFCDCBF41EA0C019040EA
:10036000E41AA2BF01EB0451294330BD6FEA040433
:100370001F3C1CDA0C340EDC04F11404C4F120021E
:1003800020FA04F001FA02F340EA030021FA04F330
:1003900045EA030130BDC4F10C04C4F1200220FA87
:1003A00002F001FA04F340EA0300294630BD21FAC5
:1003B00004F0294630BD94F0000F83F4801306BF8B
:1003C00081F480110134013D4EE77FEA645C18BF7F
:1003D0007FEA655C29D094EA050F08BF90EA020F16
:1003E00005D054EA000C04BF1946104630BD91EA0E
:1003F000030F1EBF0021002030BD5FEA545C05D111
:100400004000494128BF41F0004130BD14F580044F
:100410003CBF01F5801130BD01F0004545F0FE41C3
:1004200041F470014FF0000030BD7FEA645C1ABFF8
:10043000194610467FEA655C1CBF0B46024650EA2F
:10044000013406BF52EA033591EA030F41F400215B
:1004500030BD00BF90F0000F04BF0021704730B5E1
:100460004FF4806404F132044FF000054FF00001B6
:1004700050E700BF90F0000F04BF0021704730B577
:100480004FF4806404F1320410F0004548BF40424C
:100490004FF000013EE700BF42004FEAE2014FEAA1
:1004A00031014FEA02701FBF12F07F4393F07F4F7C
:1004B00081F06051704732F07F4208BF704793F07F
:1004C0007F4F04BF41F40021704730B54FF4607492
:1004D00001F0004521F000411CE700BF50EA010295
:1004E00008BF704730B54FF000050AE050EA01023E
:1004F00008BF704730B511F0004502D5404261EBAE
:1005000041014FF4806404F132045FEA915C3FF4EE
:10051000D8AE4FF003025FEADC0C18BF03325FEA8B
:10052000DC0C18BF033202EBDC02C2F1200300FA3C
:1005300003FC20FA02F001FA03FE40EA0E0021FA61
:1005400002F11444BDE600BF70B54FF0FF0C4CF44F
:10055000E06C1CEA11541DBF1CEA135594EA0C0F01
:1005600095EA0C0F00F0DEF82C4481EA030621EA3C
:100570004C5123EA4C5350EA013518BF52EA033577
:1005800041F4801143F4801338D0A0FB02CE4FF029
:100590000005E1FB02E506F00042E0FB03E54FF059
:1005A0000006E1FB03569CF0000F18BF4EF0010E51
:1005B000A4F1FF04B6F5007F64F5407404D25FEA4D
:1005C0004E0E6D4146EB060642EAC62141EA555100
:1005D0004FEAC52040EA5E504FEACE2EB4F1FD0C42
:1005E00088BFBCF5E06F1ED8BEF1004F08BF5FEAC0
:1005F000500E50F1000041EB045170BD06F0004672
:1006000046EA010140EA020081EA0301B4EB5C041E
:10061000C2BFD4EB0C0541EA045170BD41F4801116
:100620004FF0000E013C00F3AB8014F1360FDEBF3B
:10063000002001F0004170BDC4F10004203C35DA17
:100640000C341BDC04F11404C4F1200500FA05F39A
:1006500020FA04F001FA05F240EA020001F000423B
:1006600021F0004110EBD37021FA04F642EB0601B1
:100670005EEA430E08BF20EAD37070BDC4F10C04DB
:10068000C4F1200500FA04F320FA05F001FA04F29F
:1006900040EA020001F0004110EBD37041F100018B
:1006A0005EEA430E08BF20EAD37070BDC4F1200596
:1006B00000FA05F24EEA020E20FA04F301FA05F2FE
:1006C00043EA020321FA04F001F0004121FA04F2A6
:1006D00020EA020000EBD3705EEA430E08BF20EA76
:1006E000D37070BD94F0000F0FD101F000464000B0
:1006F00041EB010111F4801F08BF013CF7D041EA32
:10070000060195F0000F18BF704703F00046520035
:1007100043EB030313F4801F08BF013DF7D043EA06
:100720000603704794EA0C0F0CEA135518BF95EABC
:100730000C0F0CD050EA410618BF52EA4306D1D143
:1007400081EA030101F000414FF0000070BD50EA62
:10075000410606BF1046194652EA430619D094EAEC
:100760000C0F02D150EA013613D195EA0C0F05D1D6
:1007700052EA03361CBF104619460AD181EA03012A
:1007800001F0004141F0FE4141F470014FF00000E2
:1007900070BD41F0FE4141F4780170BD70B54FF07D
:1007A000FF0C4CF4E06C1CEA11541DBF1CEA1355FD
:1007B00094EA0C0F95EA0C0F00F0A7F8A4EB0504DF
:1007C00081EA030E52EA03354FEA013100F08880D6
:1007D0004FEA03334FF0805545EA131343EA12639F
:1007E0004FEA022245EA111545EA10654FEA002654
:1007F0000EF000419D4208BF964244F1FD0404F50D
:10080000407402D25B084FEA3202B61A65EB030568
:100810005B084FEA32024FF480104FF4002CB6EB25
:10082000020E75EB030E22BFB61A754640EA0C00A5
:100830005B084FEA3202B6EB020E75EB030E22BFE5
:10084000B61A754640EA5C005B084FEA3202B6EB26
:10085000020E75EB030E22BFB61A754640EA9C00E5
:100860005B084FEA3202B6EB020E75EB030E22BFB5
:10087000B61A754640EADC0055EA060E18D04FEA73
:10088000051545EA16754FEA06164FEAC30343EA13
:1008900052734FEAC2025FEA1C1CC0D111F4801FE0
:1008A0000BD141EA00014FF000004FF0004CB6E7D9
:1008B00011F4801F04BF01430020B4F1FD0C88BF78
:1008C000BCF5E06F3FF6AFAEB5EB030C04BFB6EB83
:1008D000020C5FEA500C50F1000041EB045170BD76
:1008E0000EF0004E4EEA113114EB5C04C2BFD4EBA3
:1008F0000C0541EA045170BD41F480114FF0000E27
:10090000013C90E645EA060E8DE60CEA135594EAA2
:100910000C0F08BF95EA0C0F3FF43BAF94EA0C0FA5
:100920000AD150EA01347FF434AF95EA0C0F7FF41A
:1009300025AF104619462CE795EA0C0F06D152EA6E
:1009400003353FF4FDAE1046194622E750EA410652
:1009500018BF52EA43067FF4C5AE50EA41047FF463
:100960000DAF52EA43057FF4EBAE12E74FEA4102C6
:10097000B2F1E04324BFB3F5001CDCF1FE5C0DD9FD
:1009800001F0004C4FEAC0024CEA5070B2F1004F47
:1009900040EB830008BF20F00100704711F0804F4A
:1009A00021D113F13872BCBF01F00040704741F40F
:1009B00080114FEA5252C2F11802C2F1200C10FA13
:1009C0000CF320FA02F018BF40F001004FEAC123F7
:1009D0004FEAD32303FA0CFC40EA0C0023FA02F39B
:1009E0004FEA4303CCE77FEA625307D150EA013371
:1009F0001EBF4FF0FE4040F44000704701F0004041
:100A000040F0FE4040F40000704700BF034613F87A
:100A1000012B002AFBD1181A0138704780B582B02B
:100A200000AF0A4B1B7899B20A230322084802F050
:100A3000A5FD0346FB71FB79002B02D1054B01227A
:100A40001A7000BF0837BD4680BD00BF00000020FF
:100A5000DC0000203A01002080B588B002AFBA6007
:100A60007B600346FB730B46BB737B68202B01D96D
:100A700000F0BEFBFB7B1B015AB297F90E3003F06E
:100A800003035BB213435BB2DAB2104B1A70104B24
:100A90007A68B968184608F067FE0E4B1B7899B261
:100AA0007B689BB201339BB24FF0FF320092074A42
:100AB000094802F041FA0346FB75FB7D002B01D08B
:100AC00000F096FB00BF1837BD4680BD94000020A3
:100AD0009500002000000020DC00002080B584B0DC
:100AE00000AF0346B9607A60FB73F87B7B68BA6835
:100AF0000021FFF7B1FF00BF1037BD4680BD0000E9
:100B000080B584B000AF78600B46FB701346BB70B5
:100B1000584B1B78002B00F0A8807F23FB7307F154
:100B20000F03012219460020FFF7D8FF7B6800223F
:100B30001A707B6801225A707B6802229A707B6867
:100B40001B78DBB2FA789A4209D17B685B78DBB21A
:100B5000BA789A4203D17B6867229A807EE07B68EC
:100B60005B78DBB2FA789A4209D17B689B78DBB27A
:100B7000BA789A4203D17B6868229A806EE07B68DB
:100B80005B78DBB2FA789A4209D17B685B78DBB29A
:100B9000BA789A4203D17B6869229A805EE07B68CA
:100BA0009B78DBB2FA789A4209D17B689B78DBB2FA
:100BB000BA789A4203D17B686A229A804EE07B68B9
:100BC0001B78DBB2FA789A4209D17B689B78DBB25A
:100BD000BA789A4203D17B686B229A803EE07B68A8
:100BE0005B78DBB2FA789A4209D17B681B78DBB27A
:100BF000BA789A4203D17B686C229A802EE07B6897
:100C00009B78DBB2FA789A4209D17B685B78DBB2D9
:100C1000BA789A4203D17B686D229A801EE07B6885
:100C20009B78DBB2FA789A4209D17B681B78DBB2F9
:100C3000BA789A4203D17B686E229A800EE07B6874
:100C40001B78DBB2FA789A4208D17B681B78DBB25A
:100C5000BA789A4202D17B686F229A807B689B881F
:100C60009BB25B009AB27B689A8000BF1037BD468A
:100C700080BD00BF3A01002080B58CB004AFF860A1
:100C8000B96011461A460B46FB801346BB80BB6811
:100C90009B8899B2FA884FF0FF330293BB88019387
:100CA00007F1100300930123F86802F04DFBBB88A5
:100CB000012B02D13B7CFB610CE0BB88022B09D1EC
:100CC0003B7CBB617B7C7B61BB691A017B691B0937
:100CD0001343FB61FB6918462037BD4680BD80B5D4
:100CE0008CB004AFF860B9601346FB800023FB773B
:100CF00018E0BB689B8899B2FA884FF0FF330293E3
:100D00000223019307F1140300930123F86802F012
:100D10001BFB7B7D03F00803002B0CBF012300238A
:100D2000DBB2FB77FB7F002BE3D03B7D1B017A7DA1
:100D30001209D2B21343BB61BB6918462037BD46C6
:100D400080BD80B58AB004AFF860B9601346FB710E
:100D5000FB793B75BB689B8899B24FF0FF330293D8
:100D60000123019307F11403009301230622F8687D
:100D700002F0D6F900BF1837BD4680BD80B582B0FD
:100D800000AF786039600123062239687868FFF780
:100D900073FF0346DBB218460837BD4680BD80B5F9
:100DA00084B000AFF860B9601346FB71FB7903F0C3
:100DB0008003002B11DDFB7903F07F03FB71FB79CE
:100DC00023F02003FB71FB7923F04003FB71FB79D7
:100DD0001A46B968F868FFF7B4FF00BF1037BD4680
:100DE00080BD00000000000080B584B000AF7860D6
:100DF000396039687868FFF7C1FF0346FB73FB7BF6
:100E00001A4639687868FFF7CAFFFB7B43F0200376
:100E1000FB73FB7B1A4639687868FFF792FF022262
:100E200039687868FFF75BFF03461846FFF722FB37
:100E30000EA3D3E90023FFF787FB02460B461046BB
:100E400019464FF00002084BFFF7A8FC02460B467C
:100E500043EC172BB0EE470AF0EE670A1037BD4699
:100E600080BD00BFAFF300800000B0409A9999990F
:100E700099995940F0B589B008AF04F09BF800F09B
:100E80003DF800F003F900F08BF800F0BFF8164EC3
:100E9000092306936D4606F110040FCC0FC594E8A4
:100EA000030085E8030096E80F0008F06BF908F0EE
:100EB00047F807F01BFE07F0A3FCFFF7AFFD002289
:100EC00000210A48FFF71CFE00F068FE04F01AF942
:100ED000074A0021074804F05FF90346064A1360F9
:100EE00004F034F9FEE700BFB40000203401002014
:100EF000D49A0008E11100083001002080B596B0B6
:100F000000AF07F1140344220021184608F03AFC10
:100F10003B4600221A605A609A60DA601A614FF408
:100F2000007002F0E7FE0346002B01D000F060F9EC
:100F300010237B610123FB6200233B6360237B63FF
:100F40000223FB6301233B6401237B642823BB64EE
:100F50000723FB6402233B6502237B6507F114032F
:100F6000184603F027FA0346002B01D000F040F9A1
:100F70000F233B6003237B600023BB600023FB60E7
:100F800000233B613B460421184603F027FE03463D
:100F9000002B01D000F02CF900BF5837BD4680BDB2
:100FA00080B500AF174B184A1A60164B32225A60B0
:100FB000144B00229A60134B0022DA60114B4FF45D
:100FC00040221A610F4B4FF480125A610D4B0022E0
:100FD0001A760C4B00225A760A4B00229A76094B5D
:100FE0000022DA76074B00221A77064B00225A7746
:100FF000044800F094FF0346002B01D000F0F8F8FD
:1010000000BF80BDB40000200064004080B500AF88
:101010001B4B1C4A1A601A4B1B4A5A60184B002281
:101020009A60174B0122DA60154B00221A61144BAB
:1010300000225A61124B00229A61114B0022DA61A0
:101040000F4B00221A620E4801F0E7FE0346002B08
:1010500001D000F0CDF80021094801F047FE034619
:10106000002B01D000F0C4F80021054801F089FEF2
:101070000346002B01D000F0BBF800BF80BD00BFCD
:10108000DC00002000540040EC9C901080B58AB039
:1010900000AF07F1140300221A605A609A60DA6008
:1010A0001A614B4BDB6C4A4A43F00403D364484B50
:1010B000DB6C03F004033B613B69454BDB6C444A4A
:1010C00043F00103D364424BDB6C03F00103FB608C
:1010D000FB683F4BDB6C3E4A43F00203D3643C4B5E
:1010E000DB6C03F00203BB60BB68394BDB6C384A36
:1010F00043F00803D364364BDB6C03F008037B60DA
:101100007B6800224FF4FC71324801F0D7FD0022C9
:1011100040F23F114FF0904001F0D0FD002248F224
:1011200037312D4801F0CAFD002204212B4801F07F
:10113000C5FD4FF4FC737B610123BB610023FB61A0
:1011400000233B6207F114031946224801F03CFCDE
:1011500040F23F137B610123BB610023FB6100234D
:101160003B6207F1140319464FF0904001F02CFC4C
:1011700048F237337B610123BB610023FB6100230D
:101180003B6207F114031946134801F01DFC4FF4AC
:1011900000737B614FF48813BB610023FB6107F18F
:1011A000140319460B4801F00FFC04237B61012353
:1011B000BB610023FB6100233B6207F11403194666
:1011C000064801F001FC00BF2837BD4680BD00BFC6
:1011D000001002400008004800040048000C0048CD
:1011E00080B582B000AF7860012004F067F8FBE7BB
:1011F00080B400AF72B600BFFEE780B586B000AF26
:1012000078600023FB7514233B61C823FB60012237
:101210004FF480714FF0904001F050FD0A2004F02F
:101220004DF8F4E780B590B002AF78600023FB750D
:10123000002387F823301423FB61C823BB6107F127
:1012400017030122009200220521102007F096FDCD
:10125000FB7D102B3FD1012204214FF0904001F083
:101260002DFD012202214FF0904001F027FD0122C7
:1012700001214FF0904001F021FD01220221AF48F1
:1012800001F01CFDB86904F019F8002204214FF0A8
:10129000904001F013FD002202214FF0904001F038
:1012A0000DFD002201214FF0904001F007FD0022CA
:1012B0000221A24801F002FDB86903F0FFFF0523F7
:1012C0003B7300237B7307F10C02022305211020DE
:1012D00007F0C2FC2DE1FB7D112B2AD10122042154
:1012E0004FF0904001F0EAFC012202214FF09040C3
:1012F00001F0E4FC012220214FF0904001F0DEFCDF
:10130000F86903F0DBFF002204214FF0904001F068
:10131000D5FC002202214FF0904001F0CFFC0022CA
:1013200020214FF0904001F0C9FCB86903F0C6FFDE
:10133000FFE0FB7D132B21D100237B6314E001220E
:1013400020214FF0904001F0B9FCF86903F0B6FF9E
:10135000002220214FF0904001F0B0FCF86903F02A
:10136000ADFF7B6B01337B637B6B022BE7DD0122DF
:1013700001214FF0904001F0A1FCDAE0FB7D142B3D
:1013800039D100233B6314E0012220214FF090402B
:1013900001F094FCF86903F091FF002220214FF046
:1013A000904001F08BFCB86903F088FF3B6B013380
:1013B0003B633B6B012BE7DD002201214FF09040A6
:1013C00001F07CFC002210214FF0904001F076FCEF
:1013D000002220214FF0904001F070FC00220421F7
:1013E0004FF0904001F06AFC002202214FF0904043
:1013F00001F064FC9DE0FB7D162B27D10023FB62EE
:1014000020E0012204214FF0904001F057FC01221E
:1014100002214FF0904001F051FCF86903F04EFFBB
:10142000002204214FF0904001F048FC00220221EC
:101430004FF0904001F042FCB86903F03FFFFB6AB7
:101440000133FB62FB6A022BDBDD72E0FB7D172BB5
:101450001BD10023BB6214E0012210214FF0904009
:1014600001F02CFCF86903F029FF002210214FF055
:10147000904001F023FCB86903F020FFBB6A013300
:10148000BB62BB6A012BE7DD53E0FB7D182B50D11B
:1014900000237B622CE0012210214FF0904001F0EC
:1014A0000DFC012204214FF0904001F007FC0122C5
:1014B00002214FF0904001F001FCF86903F0FEFEBC
:1014C000002210214FF0904001F0F8FB002204218F
:1014D0004FF0904001F0F2FB002202214FF09040CB
:1014E00001F0ECFBB86903F0E9FE7B6A01337B6233
:1014F0007B6A012BCFDD002201214FF0904001F0EB
:10150000DDFB002210214FF0904001F0D7FB0022BC
:1015100020214FF0904001F0D1FB002204214FF038
:10152000904001F0CBFB002202214FF0904001F0EF
:10153000C5FB0A2003F0C2FE8AE600BF0004004893
:1015400080B58CB002AF7860002387F82730142371
:101550003B61C823FB6007F10B03012200920022CC
:101560000621102007F00AFCFB7A97F827209A4200
:1015700000F0B480FB7A102B1BD100233B6214E0F7
:10158000012204214FF0904001F098FB386903F0EC
:1015900095FE002204214FF0904001F08FFBF86887
:1015A00003F08CFE3B6A01333B623B6A012BE7DDB3
:1015B00091E0FB7A112B1BD10023FB6114E0012287
:1015C00002214FF0904001F079FB386903F076FE7C
:1015D000002202214FF0904001F070FBF86803F008
:1015E0006DFEFB690133FB61FB69022BE7DD72E0F5
:1015F000FB7A122B2DD10023BB6126E00122202192
:101600004FF0904001F05AFBF86803F057FE0022BB
:1016100020214FF0904001F051FBF86803F04EFE9E
:10162000012220214FF0904001F048FB386903F07F
:1016300045FE002220214FF0904001F03FFBF8686A
:1016400003F03CFEBB690133BB61BB69022BD5DDF6
:1016500041E0FB7A132B3ED100237B6138E001226D
:1016600020214FF0904001F029FB386903F026FE5D
:10167000002220214FF0904001F020FBF86803F099
:101680001DFE012220214FF0904001F017FB386928
:1016900003F014FE002220214FF0904001F00EFBD9
:1016A000F86803F00BFE012220214FF0904001F07A
:1016B00005FBF86803F002FE002220214FF0904065
:1016C00001F0FCFAF86803F0F9FD7B6901337B61F6
:1016D0007B69012BC3DDFB7A87F827300A2003F0F2
:1016E000EDFD41E780B586B002AF78600023BB73A3
:1016F0000023FB7307F10E03012200920022072151
:10170000102007F03BFBBB7BFA7B9A4211D0BB7BDE
:10171000012B06D101224FF40041084801F0CEFA16
:1017200005E000224FF40041044801F0C7FABB7BFA
:10173000FB730A2003F0C2FDE5E700BF0004004888
:1017400080B588B002AF78600023FB720023FB7580
:1017500014233B61C823FB6007F10B0301220092B5
:1017600000220821102007F009FBFB7A102B2FD153
:10177000012240211C4801F0A1FA012204214FF06E
:10178000904001F09BFA012202214FF0904001F0BD
:1017900095FA012220214FF0904001F08FFA38692C
:1017A00003F08CFD002204214FF0904001F086FAF6
:1017B000002202214FF0904001F080FA0022202107
:1017C0004FF0904001F07AFAF86803F077FD04E0FA
:1017D00000224021044801F071FAFB7AFB750A20CF
:1017E00003F06CFDC1E700BF0008004880B588B079
:1017F00002AF78600023FB720023FB7514233B616A
:10180000C823FB6007F10B0301220092002209218B
:10181000102007F0B3FAFB7AFA7D9A425FD0FB7A88
:10182000102B3ED101224FF400412F4801F046FA1F
:10183000002240212D4801F041FA012280212B484D
:1018400001F03CFA00224FF48071284801F036FA8A
:1018500001224FF40071254801F030FAF86803F0D6
:101860002DFD00224FF400411F4801F027FA01220C
:1018700040211E4801F022FA002280211B4801F07D
:101880001DFA01224FF48071184801F017FA002266
:101890004FF40071154801F011FAF86803F00EFDDD
:1018A0001BE000224FF400410F4801F007FA00222C
:1018B00040210E4801F002FA002280210B4801F07D
:1018C000FDF900224FF48071084801F0F7F9002279
:1018D0004FF40071054801F0F1F9FB7AFB750A201D
:1018E00003F0ECFC97E700BF000400480008004844
:1018F00080B58AB002AF78600023FB730023FB77CA
:1019000014237B61C8233B6107F10F03012200927E
:1019100000221021102007F031FAFB7BFA7F9A4257
:1019200039D0FB7B102B16D101224FF480711C485B
:1019300001F0C4F93A6913465B001344184603F0FA
:10194000BDFC00224FF48071154801F0B7F93869E9
:1019500003F0B4FC1DE0FB7B112B1AD10023BB610B
:1019600014E001224FF480710D4801F0A7F9786965
:1019700003F0A4FC00224FF48071094801F09EF9A5
:10198000386903F09BFCBB690133BB61BB69032B66
:10199000E7DD044BFB770A2003F090FCBDE700BFB6
:1019A00000080048F118000880B58AB002AF7860DE
:1019B0000023FB730023FB7714237B61C8233B6167
:1019C00007F10F030122009200221121102007F0DD
:1019D000D5F9FB7BFA7F9A4238D0FB7B102B14D1D0
:1019E000012280211B4801F069F93A6913465B0026
:1019F0001344184603F062FC00228021154801F0D0
:101A00005DF9386903F05AFC1EE0FB7B112B1BD1FA
:101A10000023BB6112E0012280210E4801F04EF943
:101A2000786903F04BFC002280210A4801F046F956
:101A3000386903F043FCBB690133BB61BB69032B0D
:101A4000E9DD0A2003F03AFCFB7BFB770A2003F078
:101A500035FCBEE70008004880B588B002AF78606A
:101A60000023FB720023FB7507F10B030122009298
:101A700000221221102007F081F914233B61C823B2
:101A8000FB60FB7AFA7D9A4227D0FB7A102B06D1B5
:101A900001224FF40071134801F010F91BE0FB7AAA
:101AA000112B12D101224FF400710E4801F006F9FA
:101AB000F86803F003FC00224FF40071094801F0BC
:101AC000FDF8F86803F0FAFB05E000224FF400711E
:101AD000044801F0F3F8FB7AFB750A2003F0EEFBF3
:101AE000CFE700BF0008004880B588B002AF78603B
:101AF0000023FB7507F11703012200920022132136
:101B0000102007F03BF9FB7D012B0DD1084B012282
:101B10001A7013233B7303237B7307F10C02022318
:101B20001321102007F098F80A2003F0C7FBEAE71A
:101B30006C01002080B582B000AF7860124B1B783A
:101B4000002B1CD0114B93F90030012B17D11049F9
:101B50001048FFF749F953EC102B10461946FEF7D1
:101B600005FF03460C4A13600B4BD3ED007AB0EE31
:101B7000670A052007F0EBFA044B00221A700A20CE
:101B800003F09CFBDAE700BF3A0100206C01002063
:101B900034010020DC0000206801002080B500AF87
:101BA0002C4A00212C4803F0F7FA03462B4A136015
:101BB0002B4A00212B4803F0EFFA03462A4A136010
:101BC0002A4A00212A4803F0E7FA0346294A13600B
:101BD000294A0021294803F0DFFA0346284A136006
:101BE000284A0021284803F0D7FA0346274A136001
:101BF000274A0021274803F0CFFA0346264A1360FC
:101C0000264A0021264803F0C7FA0346254A1360F6
:101C1000254A0021254803F0BFFA0346244A1360F1
:101C2000244A0021244803F0B7FA0346234A1360EC
:101C3000234A0021234803F0AFFA0346224A1360E7
:101C4000224A0021224803F0A7FA0346214A1360E2
:101C500000BF80BD1C9B0008251200084001002029
:101C6000F89A0008FB1100083C010020409B000886
:101C70004115000844010020649B0008E516000897
:101C800048010020889B0008411700084C010020F3
:101C9000AC9B0008ED17000850010020F49B0008E1
:101CA000A919000858010020D09B0008F11800086D
:101CB00054010020189C0008591A00085C010020FB
:101CC0003C9C0008E91A000860010020609C0008A4
:101CD000351B00086401002080B582B000AF114BB5
:101CE0001B6E104A43F0010313660E4B1B6E03F08C
:101CF00001037B607B680B4B9B6D0A4A43F080536A
:101D00009365084B9B6D03F080533B603B6800225A
:101D10000F216FF0010000F02EFE00BF0837BD4616
:101D200080BD00BF0010024080B58AB000AF78606F
:101D300007F1140300221A605A609A60DA601A618F
:101D40007B681B68184A934229D1184B9B6D174A30
:101D500043F000739365154B9B6D03F000733B617B
:101D60003B69124BDB6C114A43F00103D3640F4B08
:101D7000DB6C03F00103FB60FB684FF4C0537B6135
:101D80000223BB610023FB6103233B6209237B62C7
:101D900007F1140319464FF0904000F015FE00BF04
:101DA0002837BD4680BD00BF0064004000100240DF
:101DB00080B5A0B000AF786007F16C0300221A6014
:101DC0005A609A60DA601A6107F110035C22002100
:101DD000184607F0D7FC7B681B681E4A934235D132
:101DE00040233B6100233B6407F11003184601F0D8
:101DF000D7FF0346002B01D0FFF7FAF9164BDB6C37
:101E0000154A43F00203D364134BDB6C03F0020367
:101E1000FB60FB68C023FB6612233B6700237B67E4
:101E20000323BB670423FB6707F16C0319460B48C8
:101E300000F0CAFD084B9B6D074A43F400139365FD
:101E4000054B9B6D03F40013BB60BB6800BF80377C
:101E5000BD4680BD00540040001002400004004810
:101E600080B400AFFEE780B400AFFEE780B400AFFF
:101E7000FEE780B400AFFEE780B400AFFEE780B4B9
:101E800000AF00BFBD465DF8047B704780B500AF72
:101E900003F0E4F805F062FF0346012B01D003F0E4
:101EA0000BFF00BF80BD000080B400AF064BD3F82D
:101EB0008830054A43F47003C2F8883000BFBD463D
:101EC0005DF8047B704700BF00ED00E0DFF834D020
:101ED000FFF7EAFF0C480D490D4A002302E0D458F1
:101EE000C4500433C4188C42F9D30A4A0A4C002364
:101EF00001E013600432A242FBD307F00FFCFEF7AF
:101F0000B9FFFEE70000012000000020780000205B
:101F1000B89E000878000020A8860020FEE780B563
:101F200084B000AF78607B68002B01D10123EDE025
:101F30007B6893F82030DBB2002B02D17868FFF782
:101F4000F3FE7B681B681A687B681B6842F001021D
:101F50001A6003F097F8F86012E003F093F8024675
:101F6000FB68D31A0A2B0BD97B685B6A43F40032F7
:101F70007B685A627B68052283F820200123C5E034
:101F80007B681B685B6803F00103002BE5D07B686E
:101F90001B681A687B681B6822F002021A6003F053
:101FA00071F8F86012E003F06DF80246FB68D31A8E
:101FB0000A2B0BD97B685B6A43F400327B685A6258
:101FC0007B68052283F8202001239FE07B681B6843
:101FD0005B6803F00203002BE5D17B681B7E012BBD
:101FE00008D17B681B681A687B681B6842F0800216
:101FF0001A6007E07B681B681A687B681B6822F020
:1020000080021A607B685B7E012B08D17B681B68AD
:102010001A687B681B6842F040021A6007E07B6820
:102020001B681A687B681B6822F040021A607B6894
:102030009B7E012B08D17B681B681A687B681B6834
:1020400042F020021A6007E07B681B681A687B6810
:102050001B6822F020021A607B68DB7E012B08D10E
:102060007B681B681A687B681B6822F010021A6084
:1020700007E07B681B681A687B681B6842F01002E7
:102080001A607B681B7F012B08D17B681B681A686C
:102090007B681B6842F008021A6007E07B681B68D7
:1020A0001A687B681B6822F008021A607B685B7FF5
:1020B000012B08D17B681B681A687B681B6842F09B
:1020C00004021A6007E07B681B681A687B681B685B
:1020D00022F004021A607B689A687B68DB681A4306
:1020E0007B681B691A437B685B6942EA03017B6872
:1020F0005B685A1E7B681B680A43DA617B680022B2
:102100005A627B68012283F820200023184610378A
:10211000BD4680BD80B487B000AF786039607B6811
:102120001B687B617B6893F82030FB74FB7C012B80
:1021300003D0FB7C022B40F0AA807B69D3F80032ED
:1021400043F001027B69C3F800223B685B6903F03E
:102150001F03012202FA03F3FB607B69D3F81C2200
:10216000FB68DB431A407B69C3F81C223B68DB69D0
:10217000002B23D17B69D3F80C22FB68DB431A4088
:102180007B69C3F80C223B68DB6819043B685B6819
:102190009BB23A68526919437B69483243F832105E
:1021A0003B689B6819043B681B689AB23B685B6993
:1021B0000A4379694833DB000B445A603B68DB69AA
:1021C000012B22D17B69D3F80C22FB681A437B696F
:1021D000C3F80C223B681B6819043B685B689BB220
:1021E0003A68526919437B69483243F832103B68B8
:1021F0009B6819043B68DB689AB23B685B690A43D9
:1022000079694833DB000B445A603B689B69002BBB
:1022100009D17B69D3F80422FB68DB431A407B6950
:10222000C3F8042207E07B69D3F80422FB681A4351
:102230007B69C3F804223B681B69002B09D17B69C9
:10224000D3F81422FB68DB431A407B69C3F81422DD
:1022500007E07B69D3F81422FB681A437B69C3F853
:1022600014223B681B6A012B07D17B69D3F81C221F
:10227000FB681A437B69C3F81C227B69D3F80032E0
:1022800023F001027B69C3F80022002306E07B688B
:102290005B6A43F480227B685A62012318461C372C
:1022A000BD465DF8047B704780B584B000AF7860B0
:1022B0007B6893F82030DBB2012B2ED17B680222A1
:1022C00083F820207B681B681A687B681B6822F0F3
:1022D00001021A6002F0D6FEF86012E002F0D2FEAF
:1022E0000246FB68D31A0A2B0BD97B685B6A43F45E
:1022F00000327B685A627B68052283F82020012324
:1023000012E07B681B685B6803F00103002BE5D1DA
:102310007B6800225A62002306E07B685B6A43F414
:1023200000227B685A62012318461037BD4680BDE3
:1023300080B489B000AFF860B9607A603B60FB6838
:1023400093F82030FB77FB681B689B68BB61FB7FC1
:10235000012B03D0FB7F022B40F0AD80BB6903F063
:102360008063002B0AD1BB6903F00063002B05D109
:10237000BB6903F08053002B00F09580BB691B0EF6
:1023800003F003037B6101227B699A403B681A607A
:10239000BB689B68002B0DD1BB681B685A05BB68E6
:1023A000DB68F96809681A437B6918331B010B4421
:1023B0001A600FE0BB685B68DA00BB689B681A4371
:1023C000BB68DB68F96809681A437B6918331B012D
:1023D0000B441A60FB681968BB681A697B6918337B
:1023E0001B010B4404331A60BB681B7D012B11D108
:1023F000FB681A687B6918331B01134404331B689C
:10240000FA68116843F480727B6918331B010B442E
:1024100004331A607B6807331B781A067B6806331F
:102420001B781B041A437B6805331B781B0213437C
:102430007A68043212781046FA68116843EA00029A
:102440007B691B010B4403F5C6731A607B68033379
:102450001B781A067B6802331B781B041A437B68BF
:1024600001331B781B0213437A6812781046FA680E
:10247000116843EA00027B691B010B4403F5C47336
:102480001A60FB681A687B6918331B0113441B68C8
:10249000FA68116843F001027B6918331B010B4491
:1024A0001A6000230EE0FB685B6A43F40012FB68CD
:1024B0005A62012306E0FB685B6A43F48022FB68F2
:1024C0005A62012318462437BD465DF8047B7047E5
:1024D00080B485B000AF78600023FB607B6893F820
:1024E0002030FB72FB7A012B02D0FB7A022B1DD12C
:1024F0007B681B689B6803F08063002B02D0FB683D
:102500000133FB607B681B689B6803F00063002B52
:1025100002D0FB680133FB607B681B689B6803F09B
:102520008053002B02D0FB680133FB60FB68184628
:102530001437BD465DF8047B704780B487B000AFA8
:10254000F860B9607A603B60FB6893F82030FB75F7
:10255000FB7D012B03D0FB7D022B40F0F380BB6899
:10256000002B0ED1FB681B68DB6803F00303002B14
:1025700016D1FB685B6A43F40012FB685A620123C0
:10258000E7E0FB681B681B6903F00303002B07D11E
:10259000FB685B6A43F40012FB685A620123D8E0CF
:1025A000FB681A68BB681B331B0113441B6803F0EC
:1025B00004027B689A607B689B68002B0CD1FB68E7
:1025C0001A68BB681B331B0113441B685B0DC3F304
:1025D0000A027B681A600BE0FB681A68BB681B3351
:1025E0001B0113441B68DB0823F060427B685A60C0
:1025F000FB681A68BB681B331B0113441B6803F09C
:1026000002027B68DA60FB681A68BB681B331B0137
:10261000134404331B6803F00F027B681A61FB68E4
:102620001A68BB681B331B01134404331B681B0A65
:10263000DAB27B689A61FB681A68BB681B331B01BE
:10264000134404331B681B0C9AB27B685A61FB6805
:102650001A68BB681B01134403F5DC731B68DAB20C
:102660003B681A70FB681A68BB681B01134403F5CA
:10267000DC731B681A0A3B680133D2B21A70FB681C
:102680001A68BB681B01134403F5DC731B681A0C42
:102690003B680233D2B21A70FB681A68BB681B0130
:1026A000134403F5DC731B681A0E3B680333D2B284
:1026B0001A70FB681A68BB681B01134403F5DE73CC
:1026C0001A683B680433D2B21A70FB681A68BB6898
:1026D0001B01134403F5DE731B681A0A3B680533BC
:1026E000D2B21A70FB681A68BB681B01134403F569
:1026F000DE731B681A0C3B680633D2B21A70FB6893
:102700001A68BB681B01134403F5DE731B681A0EBD
:102710003B680733D2B21A70BB68002B08D1FB6844
:102720001B68DA68FB681B6842F02002DA6007E089
:10273000FB681B681A69FB681B6842F020021A617B
:10274000002306E0FB685B6A43F48022FB685A6260
:10275000012318461C37BD465DF8047B704780B4E2
:1027600085B000AF786039600023FB607B6893F828
:102770002030FB72FB7A012B02D0FB7A022B0FD1A7
:102780003B68002B06D17B681B68DB6803F0030302
:10279000FB6005E07B681B681B6903F00303FB60BB
:1027A000FB6818461437BD465DF8047B704780B45B
:1027B00085B000AF786039607B6893F82030FB7398
:1027C000FB7B012B02D0FB7B022B09D17B681B68B2
:1027D00059697B681B683A680A435A61002306E01E
:1027E0007B685B6A43F480227B685A620123184647
:1027F0001437BD465DF8047B7047000080B485B097
:1028000000AF78607B6803F00703FB600C4BDB686C
:10281000BB60BA684FF6FF031340BB60FB681A0247
:10282000BB68134343F0BF6343F40033BB60044A07
:10283000BB68D36000BF1437BD465DF8047B7047AA
:1028400000ED00E080B400AF044BDB681B0A03F02E
:1028500007031846BD465DF8047B704700ED00E0B5
:1028600080B483B000AF03463960FB7197F907303D
:10287000002B0ADB3B68DAB20C4997F907301201EA
:10288000D2B20B4483F800230AE03B68DAB208496D
:10289000FB7903F00F03043B1201D2B20B441A760A
:1028A00000BF0C37BD465DF8047B704700E100E0D7
:1028B00000ED00E080B489B000AFF860B9607A60E4
:1028C000FB6803F00703FB61FB69C3F10703042BFB
:1028D00028BF0423BB61FB690433062B02D9FB69C3
:1028E000033B00E000237B614FF0FF32BB6902FA3B
:1028F00003F3DA43BB681A407B699A404FF0FF311B
:102900007B6901FA03F3D9437B680B4013431846F4
:102910002437BD465DF8047B7047000080B582B067
:1029200000AF78607B68013BB3F1807F01D3012366
:102930000FE00A4A7B68013B53600F214FF0FF30E4
:10294000FFF78EFF054B00229A60044B07221A60A6
:10295000002318460837BD4680BD00BF10E000E0E8
:1029600080B582B000AF78607868FFF747FF00BF9E
:102970000837BD4680BD80B586B000AF0346B9605C
:102980007A60FB7300237B61FFF75CFF78617A68F4
:10299000B9687869FFF78EFF024697F90F30114644
:1029A0001846FFF75DFF00BF1837BD4680BD80B5F4
:1029B00082B000AF78607868FFF7B0FF0346184632
:1029C0000837BD4680BD000080B487B000AF786096
:1029D000396000237B6154E13B681A6801217B69FF
:1029E00001FA03F31340FB60FB68002B00F0468103
:1029F0003B685B6803F00303012B05D03B685B6811
:102A000003F00303022B30D17B689B683B617B6939
:102A10005B00032202FA03F3DB433A6913403B6194
:102A20003B68DA687B695B0002FA03F33A69134397
:102A30003B617B683A699A607B685B683B61012215
:102A40007B6902FA03F3DB433A6913403B613B685D
:102A50005B681B0903F001027B6902FA03F33A6920
:102A600013433B617B683A695A603B685B6803F0DB
:102A70000303032B17D07B68DB683B617B695B003A
:102A8000032202FA03F3DB433A6913403B613B68DC
:102A90009A687B695B0002FA03F33A6913433B616E
:102AA0007B683A69DA603B685B6803F00303022BDA
:102AB00023D17B69DA087B68083253F822303B6106
:102AC0007B6903F007039B000F2202FA03F3DB4349
:102AD0003A6913403B613B681A697B6903F007035D
:102AE0009B0002FA03F33A6913433B617B69DA08FE
:102AF0007B680832396943F822107B681B683B61A8
:102B00007B695B00032202FA03F3DB433A6913405B
:102B10003B613B685B6803F003027B695B0002FA80
:102B200003F33A6913433B617B683A691A603B6877
:102B30005B6803F44033002B00F0A080584B1B6E01
:102B4000574A43F001031366554B1B6E03F0010314
:102B5000BB60BB68534A7B699B08023352F8233041
:102B60003B617B6903F003039B000F2202FA03F32E
:102B7000DB433A6913403B617B68B3F1904F19D056
:102B80007B68494A934213D07B68484A93420DD0F0
:102B90007B68474A934207D07B68464A934201D1FB
:102BA000042308E0072306E0032304E0022302E0F5
:102BB000012300E000237A6902F0030292009340AF
:102BC0003A6913433B6137497B699B0802333A6991
:102BD00041F82320384B9B683B61FB68DB433A6933
:102BE00013403B613B685B6803F48013002B03D008
:102BF0003A69FB6813433B612F4A3B6993602E4B54
:102C0000DB683B61FB68DB433A6913403B613B682F
:102C10005B6803F40013002B03D03A69FB6813438D
:102C20003B61254A3B69D360234B5B683B61FB6892
:102C3000DB433A6913403B613B685B6803F4003354
:102C4000002B03D03A69FB6813433B611A4A3B6986
:102C50005360194B1B683B61FB68DB433A691340C7
:102C60003B613B685B6803F48033002B03D03A6917
:102C7000FB6813433B61104A3B6913607B69013376
:102C80007B613B681A687B6922FA03F3002B7FF4AF
:102C9000A3AE00BF00BF1C37BD465DF8047B704784
:102CA00000100240000001400004004800080048F5
:102CB000000C0048001000480004014080B483B0BC
:102CC00000AF78600B467B8013467B707B78002BCF
:102CD00003D07A887B689A6102E07A887B689A627E
:102CE00000BF0C37BD465DF8047B704780B483B0ED
:102CF00000AF786039607B6893F84130DBB2202BFD
:102D000038D17B6893F84030012B01D1022332E0A7
:102D10007B68012283F840207B68242283F84120CD
:102D20007B681B681A687B681B6822F001021A60C6
:102D30007B681B681A687B681B6822F480521A60E3
:102D40007B681B6819687B681B683A680A431A60CD
:102D50007B681B681A687B681B6842F001021A6076
:102D60007B68202283F841207B68002283F8402082
:102D7000002300E0022318460C37BD465DF8047BB3
:102D8000704780B485B000AF786039607B6893F895
:102D90004130DBB2202B39D17B6893F84030012BD6
:102DA00001D1022333E07B68012283F840207B6855
:102DB000242283F841207B681B681A687B681B68A3
:102DC00022F001021A607B681B681B68FB60FB68CD
:102DD00023F47063FB603B681B02FA681343FB60DB
:102DE0007B681B68FA681A607B681B681A687B68D6
:102DF0001B6842F001021A607B68202283F84120A0
:102E00007B68002283F84020002300E0022318465C
:102E10001437BD465DF8047B704780B582B000AFC3
:102E200078607B68002B01D1012381E07B6893F8F7
:102E30004130DBB2002B06D17B68002283F84020B2
:102E40007868FEF7B5FF7B68242283F841207B6811
:102E50001B681A687B681B6822F001021A607B6895
:102E60005A687B681B6822F070621A617B681B6875
:102E70009A687B681B6822F400429A607B68DB6872
:102E8000012B07D17B689A687B681B6842F400427B
:102E90009A6006E07B689A687B681B6842F404428B
:102EA0009A607B68DB68022B04D17B681B684FF457
:102EB00000625A607B681B685B687A68126843F03E
:102EC000007343F4004353607B681B68DA687B68D7
:102ED0001B6822F40042DA607B681A697B685B69D0
:102EE00042EA03017B689B691A027B681B680A43FC
:102EF000DA607B68D9697B681A6A7B681B680A4359
:102F00001A607B681B681A687B681B6842F00102C4
:102F10001A607B6800225A647B68202283F8412073
:102F20007B6800221A637B68002283F8422000231A
:102F300018460837BD4680BD80B588B002AFF8603E
:102F40007A601A460B467B8113463B81FB6893F8F7
:102F50004130DBB2202B40F0DA80FB6893F8403040
:102F6000012B01D10223D3E0FB68012283F840202A
:102F700002F088F878617B690093192301224FF4ED
:102F80000041F86800F0CEFC0346002B01D001237D
:102F9000BEE0FB68212283F84120FB68102283F801
:102FA0004220FB6800225A64FB687A685A62FB6818
:102FB0003A895A85FB6800225A63FB685B8D9BB295
:102FC000FF2B0ED9FB68FF221A85FB681B8DDAB236
:102FD0007989514B00934FF08073F86800F04AFEF6
:102FE0006CE0FB685B8D9AB2FB681A85FB681B8DF1
:102FF000DAB27989484B00934FF00073F86800F01B
:1030000039FE5BE07A69396AF86800F0CBFC034668
:10301000002B01D001237BE0FB685B6A1A78FB6818
:103020001B689A62FB685B6A5A1CFB685A62FB6801
:103030005B8D9BB2013B9AB2FB685A85FB681B8D86
:10304000013B9AB2FB681A85FB685B8D9BB2002B33
:1030500034D0FB681B8D002B30D17B6900933B6A19
:1030600000228021F86800F05DFC0346002B01D0AF
:1030700001234DE0FB685B8D9BB2FF2B0ED9FB68F3
:10308000FF221A85FB681B8DDAB279890023009331
:103090004FF08073F86800F0EDFD0FE0FB685B8D8A
:1030A0009AB2FB681A85FB681B8DDAB27989002316
:1030B00000934FF00073F86800F0DCFDFB685B8D57
:1030C0009BB2002B9ED17A69396AF86800F0AAFC9D
:1030D0000346002B01D001231AE0FB681B68202265
:1030E000DA61FB681B685968FB681A680B4B0B4078
:1030F0005360FB68202283F84120FB68002283F89C
:103100004220FB68002283F84020002300E00223D5
:1031100018461837BD4680BD0020008000E800FE3C
:1031200080B588B002AFF860084611461A460346DB
:103130007B810B463B811346FB80FB6893F8413053
:10314000DBB2202B40F0F9803B6A002B02D0BB8C15
:10315000002B05D1FB684FF400725A640123EDE0A7
:10316000FB6893F84030012B01D10223E6E0FB68B5
:10317000012283F8402001F085FF78617B6900938C
:10318000192301224FF40041F86800F0CBFB0346FD
:10319000002B01D00123D1E0FB68212283F84120DC
:1031A000FB68402283F84220FB6800225A64FB68D7
:1031B0003A6A5A62FB68BA8C5A85FB6800225A63E5
:1031C000F8883A8979897B690193BB6A0093034641
:1031D000F86800F0DBFA0346002B05D0FB680022FC
:1031E00083F840200123A9E0FB685B8D9BB2FF2B95
:1031F0000ED9FB68FF221A85FB681B8DDAB279892C
:10320000002300934FF08073F86800F033FD0FE067
:10321000FB685B8D9AB2FB681A85FB681B8DDAB27E
:103220007989002300934FF00073F86800F022FDC5
:103230007A69B96AF86800F0B5FB0346002B01D043
:1032400001237BE0FB685B6A1A78FB681B689A6263
:10325000FB685B6A5A1CFB685A62FB685B8D9BB219
:10326000013B9AB2FB685A85FB681B8D013B9AB201
:10327000FB681A85FB685B8D9BB2002B34D0FB6822
:103280001B8D002B30D17B690093BB6A002280210B
:10329000F86800F047FB0346002B01D001234DE006
:1032A000FB685B8D9BB2FF2B0ED9FB68FF221A8552
:1032B000FB681B8DDAB27989002300934FF080738D
:1032C000F86800F0D7FC0FE0FB685B8D9AB2FB68F2
:1032D0001A85FB681B8DDAB27989002300934FF0C1
:1032E0000073F86800F0C6FCFB685B8D9BB2002B96
:1032F0009ED17A69B96AF86800F094FB0346002B06
:1033000001D001231AE0FB681B682022DA61FB6808
:103310001B685968FB681A680A4B0B405360FB68CE
:10332000202283F84120FB68002283F84220FB68BA
:10333000002283F84020002300E0022318461837BB
:10334000BD4680BD00E800FE80B588B002AFF860E1
:10335000084611461A4603467B810B463B811346BD
:10336000FB80FB6893F84130DBB2202B40F0FD80FE
:103370003B6A002B02D0BB8C002B05D1FB684FF4BD
:1033800000725A640123F1E0FB6893F84030012B8E
:1033900001D10223EAE0FB68012283F8402001F01A
:1033A00071FE78617B690093192301224FF400417B
:1033B000F86800F0B7FA0346002B01D00123D5E0EE
:1033C000FB68222283F84120FB68402283F84220D8
:1033D000FB6800225A64FB683A6A5A62FB68BA8C3E
:1033E0005A85FB6800225A63F8883A8979897B6993
:1033F0000193BB6A00930346F86800F01BFA03468A
:10340000002B05D0FB68002283F840200123ADE0AB
:10341000FB685B8D9BB2FF2B0ED9FB68FF221A85E0
:10342000FB681B8DDAB27989524B00934FF08073A1
:10343000F86800F01FFC0FE0FB685B8D9AB2FB6838
:103440001A85FB681B8DDAB279894A4B00934FF0DD
:103450000073F86800F00EFC7B690093BB6A0022E1
:103460000421F86800F05EFA0346002B01D0012326
:103470007CE0FB681B685A6AFB685B6AD2B21A7010
:10348000FB685B6A5A1CFB685A62FB681B8D013B38
:103490009AB2FB681A85FB685B8D9BB2013B9AB2BE
:1034A000FB685A85FB685B8D9BB2002B34D0FB68B0
:1034B0001B8D002B30D17B690093BB6A00228021D9
:1034C000F86800F02FFA0346002B01D001234DE0ED
:1034D000FB685B8D9BB2FF2B0ED9FB68FF221A8520
:1034E000FB681B8DDAB27989002300934FF080735B
:1034F000F86800F0BFFB0FE0FB685B8D9AB2FB68D9
:103500001A85FB681B8DDAB27989002300934FF08E
:103510000073F86800F0AEFBFB685B8D9BB2002B7C
:103520009AD17A69B96AF86800F07CFA0346002BF0
:1035300001D001231AE0FB681B682022DA61FB68D6
:103540001B685968FB681A680B4B0B405360FB689B
:10355000202283F84120FB68002283F84220FB6888
:10356000002283F84020002300E002231846183789
:10357000BD4680BD0024008000E800FE80B58AB012
:1035800002AFF8607A603B600B467B8100237B6171
:10359000FB6893F84130DBB2202B40F0F180FB68F0
:1035A0001B689B6903F40043B3F5004F01D102236C
:1035B000E7E0FB6893F84030012B01D10223E0E003
:1035C000FB68012283F84020FB68242283F8412015
:1035D000FB6800225A64FB68DB68012B07D17B89FA
:1035E000C3F3090343F0007343F4005304E07B8901
:1035F000C3F3090343F42053FA681268536001F0DF
:1036000041FDB861FB681B689B6903F02003202B18
:103610000CBF01230023DBB2FB77FB681B689B69AF
:1036200003F01003102B0CBF01230023DBB2BB7788
:1036300034E03B68B3F1FF3F1AD001F023FD0246AE
:10364000BB69D31A3A689A4202D33B68002B0FD168
:10365000FB68202283F84120FB685B6C43F020026A
:10366000FB685A64FB68002283F84020012388E04D
:10367000FB681B689B6903F02003202B0CBF012310
:103680000023DBB2FB77FB681B689B6903F0100328
:10369000102B0CBF01230023DBB2BB77FB7F002B79
:1036A00002D1BB7F002BC4D0FB681B689B6903F071
:1036B0001003102B1AD0BB6900933B680022202115
:1036C000F86800F02FF90346002B01D0012358E0E1
:1036D000FB681B682022DA61FB68202283F8412006
:1036E000FB68002283F8402000234AE0BB69009376
:1036F0003B6800222021F86800F014F90346002BF3
:1037000001D001233DE0FB681B681022DA61FB68F1
:103710001B682022DA617B697A689A4218D1FB68BB
:103720001B685A68FB681B6842F480425A60BB6998
:1037300000933B6800222021F86800F0F3F803466C
:10374000002B01D001231CE0FB681B682022DA61FA
:103750007B6901337B617B697A689A423FF63BAFB4
:10376000FB68202283F84120FB685B6C43F0200259
:10377000FB685A64FB68002283F84020012300E0C4
:10378000022318462037BD4680BD000080B586B0B4
:1037900002AFF860084611461A4603467B810B4685
:1037A0003B811346FB80FB88DAB27989204B00937A
:1037B0004FF08073F86800F05DFAFA69B969F8684B
:1037C00000F0F0F80346002B01D001232CE0FB8829
:1037D000012B05D13B89DAB2FB681B689A6215E0C0
:1037E0003B891B0A9BB2DAB2FB681B689A62FA69D2
:1037F000B969F86800F0D6F80346002B01D0012320
:1038000012E03B89DAB2FB681B689A62FB6900939D
:10381000BB6900228021F86800F084F80346002B81
:1038200001D0012300E0002318461037BD4680BDBB
:103830000020008080B586B002AFF86008461146CF
:103840001A4603467B810B463B811346FB80FB886F
:10385000DAB27989204B00930023F86800F00AFA65
:10386000FA69B969F86800F09DF80346002B01D0A9
:1038700001232CE0FB88012B05D13B89DAB2FB68E0
:103880001B689A6215E03B891B0A9BB2DAB2FB689F
:103890001B689A62FA69B969F86800F083F8034610
:1038A000002B01D0012312E03B89DAB2FB681B68D0
:1038B0009A62FB690093BB6900224021F86800F01E
:1038C00031F80346002B01D0012300E00023184605
:1038D0001037BD4680BD00BF0020008080B483B09B
:1038E00000AF78607B681B689B6903F00203022BC2
:1038F00003D17B681B6800229A627B681B689B6906
:1039000003F00103012B07D07B681B689A697B6871
:103910001B6842F001029A6100BF0C37BD465DF89A
:10392000047B704780B584B000AFF860B9603B603D
:103930001346FB7122E03B68B3F1FF3F1ED001F05C
:10394000A1FB0246BB69D31A3A689A4202D33B688C
:10395000002B13D1FB685B6C43F02002FB685A64B8
:10396000FB68202283F84120FB68002283F8422074
:10397000FB68002283F8402001230FE0FB681B68EE
:103980009A69BB681340BA689A420CBF01230023AE
:10399000DBB21A46FB799A42CDD000231846103785
:1039A000BD4680BD80B584B000AFF860B9607A6074
:1039B0002CE07A68B968F86800F070F80346002BCC
:1039C00001D001232AE0BB68B3F1FF3F1ED001F014
:1039D00059FB02467B68D31ABA689A4202D3BB6885
:1039E000002B13D1FB685B6C43F02002FB685A6428
:1039F000FB68202283F84120FB68002283F84220E4
:103A0000FB68002283F84020012307E0FB681B6865
:103A10009B6903F00203022BCBD100231846103719
:103A2000BD4680BD80B584B000AFF860B9607A60F3
:103A300028E07A68B968F86800F030F80346002B8F
:103A400001D0012326E001F01DFB02467B68D31A5A
:103A5000BA689A4202D3BB68002B13D1FB685B6C37
:103A600043F02002FB685A64FB68202283F841205F
:103A7000FB68002283F84220FB68002283F8402084
:103A8000012307E0FB681B689B6903F02003202BE0
:103A9000CFD1002318461037BD4680BD80B58AB00F
:103AA00000AFF860B9607A60002387F82730FB68C0
:103AB0001B689B69BB6100233B627B68FB61BB6940
:103AC00003F01003002B75D0FB681B681022DA612D
:103AD00056E0BB68B3F1FF3F52D001F0D3FA024683
:103AE000FB69D31ABA689A4202D3BB68002B47D14C
:103AF000FB681B685B6803F480437B61FB6893F899
:103B00004230FB74FB681B689B6903F40043B3F508
:103B1000004F2ED17B69B3F5804F2AD0FB7C202B40
:103B200027D0FB681B685A68FB681B6842F4804218
:103B30005A6001F0A7FAF8611BE001F0A3FA02460F
:103B4000FB69D31A192B14D9FB685B6C43F0200274
:103B5000FB685A64FB68202283F84120FB6800223E
:103B600083F84220FB68002283F84020012387F875
:103B70002730FB681B689B6903F02003202BDCD1F6
:103B8000FB681B689B6903F02003202B03D097F888
:103B90002730002B9DD097F82730002B03D1FB68EE
:103BA0001B682022DA613B6A43F004033B62012375
:103BB00087F82730FB681B689B69BB61BB6903F40E
:103BC0008073002B0BD03B6A43F001033B62FB6820
:103BD0001B684FF48072DA61012387F82730BB69D4
:103BE00003F48063002B0BD03B6A43F008033B6275
:103BF000FB681B684FF48062DA61012387F8273085
:103C0000BB6903F40073002B0BD03B6A43F0020343
:103C10003B62FB681B684FF40072DA61012387F88E
:103C2000273097F82730002B1CD0F868FFF756FE96
:103C3000FB681B685968FB681A680D4B0B405360A2
:103C4000FB685A6C3B6A1A43FB685A64FB68202283
:103C500083F84120FB68002283F84220FB680022A1
:103C600083F8402097F8273018462837BD4680BD96
:103C700000E800FE80B487B000AFF8607B600B46C0
:103C80007B8113467B727B89C3F309027B7A1B0419
:103C900003F47F031A437B681A433B6A134323F000
:103CA00000437B61FB681B685A683B6A5B0D03F449
:103CB0008061084B0B43DB4302EA0301FB681B688E
:103CC0007A690A435A6000BF1C37BD465DF8047B21
:103CD000704700BFFF63FF0380B400AF044B1B6855
:103CE00003F4C0631846BD465DF8047B704700BF0F
:103CF0000070004080B485B000AF78607B68B3F599
:103D0000007F30D1234B1B6803F4C063B3F5007F01
:103D100038D0204B1B6823F4C0631E4A43F4007361
:103D200013601D4B1B68322202FB03F31B4AA2FBEC
:103D300003239B0C0133FB6002E0FB68013BFB604B
:103D4000144B5B6903F48063B3F5806F02D1FB68A9
:103D5000002BF2D10F4B5B6903F48063B3F5806FE6
:103D600010D103230FE00B4B1B6803F4C063B3F5C2
:103D7000806F07D0074B1B6823F4C063054A43F4E8
:103D800080631360002318461437BD465DF8047B3A
:103D9000704700BF007000400400002083DE1B431A
:103DA00080B586B000AF78600023FB740023BB743D
:103DB0007B681B6803F40063002B31D07B685B6C6D
:103DC000B3F5400F1AD0B3F5400F14D8002B09D02B
:103DD000B3F5000F0FD15D4BDB685C4A43F48033D1
:103DE000D3600CE07B6804330021184600F0F0F942
:103DF0000346FB7403E00123FB7400E000BFFB7C7F
:103E0000002B0BD1514BD3F8883023F440027B6850
:103E10005B6C4E491343C1F8883001E0FB7CBB74F6
:103E20007B681B6803F40033002B00F09E800023A6
:103E30007B74464B9B6D03F08053002B01D1012313
:103E400000E00023002B0DD0404B9B6D3F4A43F018
:103E5000805393653D4B9B6D03F08053BB60BB6803
:103E600001237B743A4B1B68394A43F48073136017
:103E700001F008F9F86009E001F004F90246FB6876
:103E8000D31A022B02D90323FB7405E0304B1B68C5
:103E900003F48073002BEFD0FB7C002B5AD12B4B0B
:103EA000D3F8903003F440737B617B69002B1ED004
:103EB0007B689B6D7A699A4219D0244BD3F8903075
:103EC00023F440737B61214BD3F890301F4A43F4B5
:103ED0008033C2F890301D4BD3F890301B4A23F446
:103EE0008033C2F89030194A7B69C2F890307B6900
:103EF00003F00103002B16D001F0C4F8F8600BE0CA
:103F000001F0C0F80246FB68D31A41F288329342AE
:103F100002D90323FB7406E00C4BD3F8903003F076
:103F20000203002BECD0FB7C002B0BD1074BD3F80A
:103F3000903023F440727B689B6D04491343C1F8B1
:103F4000903009E0FB7CBB7406E000BF001002402B
:103F500000700040FB7CBB747B7C012B05D19B4B2C
:103F60009B6D9A4A23F0805393657B681B6803F02E
:103F70000103002B0AD0954BD3F8883023F00302BD
:103F80007B681B6A91491343C1F888307B681B68C2
:103F900003F00203002B0AD08C4BD3F8883023F0B7
:103FA0000C027B685B6A89491343C1F888307B68DF
:103FB0001B6803F00403002B0AD0844BD3F888302D
:103FC00023F030027B689B6A80491343C1F8883034
:103FD0007B681B6803F02003002B0AD07B4BD3F8CF
:103FE000883023F440627B68DB6A78491343C1F868
:103FF00088307B681B6803F40073002B0AD0734B76
:10400000D3F8883023F440227B68DB6B6F4913437D
:10401000C1F888307B681B6803F48063002B0AD0EA
:104020006A4BD3F8883023F440127B681B6C6749D5
:104030001343C1F888307B681B6803F04003002BF2
:104040000AD0624BD3F8883023F440527B681B6B54
:104050005E491343C1F888307B681B6803F0800316
:10406000002B0AD0594BD3F8883023F440427B68A8
:104070005B6B56491343C1F888307B681B6803F4B7
:104080008073002B0AD0514BD3F8883023F4403290
:104090007B689B6B4D491343C1F888307B681B6874
:1040A00003F40023002B28D0484BD3F8883023F0AA
:1040B00040627B689B6C45491343C1F888307B683C
:1040C0009B6CB3F1006F06D1404BDB683F4A43F471
:1040D0008013D36011E07B689B6CB3F1806F0CD1CF
:1040E0007B6804330121184600F072F80346FB7424
:1040F000FB7C002B01D0FB7CBB747B681B6803F44A
:104100008023002B28D0314BD3F8883023F0406235
:104110007B68DB6C2D491343C1F888307B68DB6C0E
:10412000B3F1006F06D1294BDB68284A43F48013B2
:10413000D36011E07B68DB6CB3F1806F0CD17B68DE
:1041400004330121184600F043F80346FB74FB7C5E
:10415000002B01D0FB7CBB747B681B6803F480439D
:10416000002B1CD0194BD3F8883023F040527B68C9
:104170001B6D16491343C1F888307B681B6DB3F182
:10418000805F0CD17B6804330221184600F020F8D0
:104190000346FB74FB7C002B01D0FB7CBB747B686B
:1041A0001B6803F40043002B0AD0084BD3F8883077
:1041B00023F080427B685B6D04491343C1F888306B
:1041C000BB7C18461837BD4680BD00BF00100240BA
:1041D00080B584B000AF786039600023FB73744B06
:1041E000DB6803F00303002B18D0714BDB6803F08E
:1041F00003027B681B689A420DD17B681B68002B09
:1042000009D06B4BDB681B0903F007035A1C7B6862
:104210005B689A4247D00123FB7344E07B681B68CC
:10422000032B18D0032B25D8012B02D0022B09D049
:1042300020E05F4B1B6803F00203002B1DD101231C
:10424000FB731AE05A4B1B6803F48063002B16D1F2
:104250000123FB7313E0564B1B6803F40033002B60
:104260000FD1534B1B6803F48023002B09D101238A
:10427000FB7306E00123FB7304E000BF02E000BF14
:1042800000E000BFFB7B002B0DD1494BDB6823F026
:1042900073027B6819687B685B68013B1B010B43F9
:1042A00043491343CB60FB7B002B7CD1404B1B6805
:1042B0003F4A23F08063136000F0E4FEB86009E039
:1042C00000F0E0FE0246BB68D31A022B02D903239A
:1042D000FB7305E0364B1B6803F00063002BEFD146
:1042E000FB7B002B5FD13B68002B10D1304B1B694F
:1042F00023F0784323F4FE437A68926811027A68C7
:10430000D268D2060A432A4913430B6127E03B686F
:10431000012B12D1264B1B6923F4C00323F4FE4367
:104320007A68926811027A6812695208013A520555
:104330000A431F4913430B6111E01D4B1B6923F016
:10434000C06323F4FE437A68926811027A68526966
:104350005208013A52060A43154913430B61144BA4
:104360001B68134A43F08063136000F08BFEB86053
:1043700009E000F087FE0246BB68D31A022B02D97F
:104380000323FB7305E00A4B1B6803F00063002B5B
:10439000EFD0FB7B002B06D1054B1A697B689B692C
:1043A000034913430B61FB7B18461037BD4680BDA4
:1043B0000010024080B588B000AF78607B68002BA9
:1043C00002D1012300F002BC964B9B6803F00C0362
:1043D000BB61944BDB6803F003037B617B681B6864
:1043E00003F01003002B00F0E480BB69002B07D022
:1043F000BB690C2B40F08B807B69012B40F08780E0
:10440000884B1B6803F00203002B05D07B689B6977
:10441000002B01D10123D9E37B681A6A814B1B6809
:1044200003F00803002B04D07E4B1B6803F0F0035D
:1044300005E07C4BD3F894301B0903F0F003934262
:1044400023D27B681B6A184600F054FD0346002BFC
:1044500001D00123BAE3734B1B68724A43F008038F
:104460001360704B1B6823F0F0027B681B6A6D4978
:1044700013430B606B4B5B6823F47F427B68DB6903
:104480001B02684913434B6025E0664B1B68654A75
:1044900043F008031360634B1B6823F0F0027B6852
:1044A0001B6A604913430B605E4B5B6823F47F42D9
:1044B0007B68DB691B025B4913434B60BB69002BC4
:1044C00009D17B681B6A184600F014FD0346002BD7
:1044D00001D001237AE300F081FC0246514B9B6836
:1044E0001B0903F00F035049CB5C03F01F0322FAB2
:1044F00003F34E4A13604E4B1B68184600F072FDE2
:104500000346FB73FB7B002B52D0FB7B5EE37B6897
:104510009B69002B32D0434B1B68424A43F0010396
:10452000136000F0AFFD386108E000F0ABFD02461B
:104530003B69D31A022B01D9032347E3394B1B688C
:1045400003F00203002BF0D0364B1B68354A43F0D2
:1045500008031360334B1B6823F0F0027B681B6A6F
:10456000304913430B602F4B5B6823F47F427B6819
:10457000DB691B022B4913434B601AE0294B1B6874
:10458000284A23F00103136000F07CFD386108E045
:1045900000F078FD02463B69D31A022B01D90323B0
:1045A00014E3204B1B6803F00203002BF0D100E062
:1045B00000BF7B681B6803F00103002B73D0BB694D
:1045C000082B05D0BB690C2B0ED17B69032B0BD1BB
:1045D000144B1B6803F40033002B63D07B685B68CB
:1045E000002B5FD10123F1E27B685B68B3F5803F6C
:1045F00006D10C4B1B680B4A43F48033136025E053
:104600007B685B68B3F5A02F14D1064B1B68054A85
:1046100043F480231360034B1B68024A43F4803346
:10462000136013E000100240849C00080400002086
:1046300008000020A04B1B689F4A23F480331360BE
:104640009D4B1B689C4A23F4802313607B685B6846
:10465000002B13D000F016FD386108E000F012FDC9
:1046600002463B69D31A642B01D90323AEE2924B75
:104670001B6803F40033002BF0D014E000F002FDBF
:10468000386108E000F0FEFC02463B69D31A642B57
:1046900001D903239AE2884B1B6803F40033002BF3
:1046A000F0D100E000BF7B681B6803F00203002B21
:1046B00060D0BB69042B05D0BB690C2B19D17B6979
:1046C000022B16D17C4B1B6803F48063002B05D0B2
:1046D0007B68DB68002B01D1012377E2764B5B68B6
:1046E00023F0F8527B681B691B06734913434B6028
:1046F00040E07B68DB68002B23D06F4B1B686E4A61
:1047000043F48073136000F0BDFC386108E000F0F2
:10471000B9FC02463B69D31A022B01D9032355E2A7
:10472000654B1B6803F48063002BF0D0624B5B6821
:1047300023F0F8527B681B691B065F4913434B60EB
:1047400018E05D4B1B685C4A23F48073136000F033
:1047500099FC386108E000F095FC02463B69D31AE9
:10476000022B01D9032331E2534B1B6803F480630E
:10477000002BF0D17B681B6803F00803002B3CD0B2
:104780007B685B69002B1CD04B4BD3F894304A4AB2
:1047900043F00103C2F8943000F074FC386108E083
:1047A00000F070FC02463B69D31A022B01D90323A7
:1047B0000CE2414BD3F8943003F00203002BEFD00E
:1047C0001BE03D4BD3F894303B4A23F00103C2F881
:1047D000943000F057FC386108E000F053FC0246CA
:1047E0003B69D31A022B01D90323EFE1324BD3F8F3
:1047F000943003F00203002BEFD17B681B6803F0B9
:104800000403002B00F0A6800023FB772A4B9B6D4E
:1048100003F08053002B0DD1274B9B6D264A43F0AC
:1048200080539365244B9B6D03F08053BB60BB6842
:104830000123FB77214B1B6803F48073002B18D1F5
:104840001E4B1B681D4A43F48073136000F01AFC72
:10485000386108E000F016FC02463B69D31A022BCF
:1048600001D90323B2E1154B1B6803F48073002BBD
:10487000F0D07B689B68012B08D10F4BD3F89030A8
:104880000D4A43F00103C2F8903029E07B689B6831
:10489000052B15D1084BD3F89030074A43F0040399
:1048A000C2F89030044BD3F89030034A43F0010330
:1048B000C2F8903014E000BF0010024000700040C9
:1048C0009A4BD3F89030994A23F00103C2F8903004
:1048D000964BD3F89030954A23F00403C2F89030F9
:1048E0007B689B68002B16D000F0CCFB38610AE097
:1048F00000F0C8FB02463B69D31A41F2883293426A
:1049000001D9032362E1894BD3F8903003F002030D
:10491000002BEDD015E000F0B5FB38610AE000F0A7
:10492000B1FB02463B69D31A41F28832934201D966
:1049300003234BE17D4BD3F8903003F00203002BAF
:10494000EDD1FB7F012B05D1784B9B6D774A23F08E
:10495000805393657B681B6803F02003002B3CD0D9
:104960007B685B6A002B1CD0704BD3F898306F4A81
:1049700043F00103C2F8983000F084FB386108E08E
:1049800000F080FB02463B69D31A022B01D90323B6
:104990001CE1664BD3F8983003F00203002BEFD0F4
:1049A0001BE0624BD3F89830604A23F00103C2F851
:1049B000983000F067FB386108E000F063FB0246C6
:1049C0003B69D31A022B01D90323FFE0574BD3F8DD
:1049D000983003F00203002BEFD17B689B6A002B19
:1049E00000F0F3807B689B6A022B40F0C9804F4B3C
:1049F000DB687B617B6903F003027B68DB6A9A42B8
:104A00002CD17B6903F070027B681B6B013B1B019F
:104A10009A4223D17B6903F4FE427B685B6B1B02E5
:104A20009A421BD17B6903F078427B689B6BDB0663
:104A30009A4213D17B6903F4C0027B68DB6B5B088D
:104A4000013B5B059A4209D17B6903F0C0627B6838
:104A50001B6C5B08013B5B069A426BD0BB690C2B5D
:104A600062D0324B1B6803F08063002B01D001231E
:104A7000ACE02E4B1B682D4A23F08073136000F0CE
:104A800001FB386108E000F0FDFA02463B69D31AE9
:104A9000022B01D9032399E0244B1B6803F0007318
:104AA000002BF0D1214BDA68214B13407A68D16A90
:104AB0007A68126B013A120111437A68526B120242
:104AC00011437A68D26B5208013A520511437A6851
:104AD000126C5208013A520611437A68926BD20660
:104AE0000A4312491343CB60104B1B680F4A43F033
:104AF000807313600D4BDB680C4A43F08073D36006
:104B000000F0C0FA386108E000F0BCFA02463B69E8
:104B1000D31A022B01D9032358E0044B1B6803F07E
:104B20000073002BF0D050E001234FE00010024052
:104B30008C809D01274B1B6803F00073002B44D130
:104B4000244B1B68234A43F080731360214BDB68BE
:104B5000204A43F08073D36000F094FA386108E093
:104B600000F090FA02463B69D31A022B01D90323C5
:104B70002CE0184B1B6803F00073002BF0D024E0EE
:104B8000BB690C2B1FD0134B1B68124A23F0807398
:104B9000136000F077FA386108E000F073FA02461B
:104BA0003B69D31A022B01D903230FE0094B1B6881
:104BB00003F00073002BF0D1064BDA680549064B71
:104BC0001340CB6001E0012300E0002318462037AA
:104BD000BD4680BD00100240FCFFEEFE80B584B0F3
:104BE00000AF786039607B68002B01D10123E7E0DA
:104BF000754B1B6803F007033A689A4210D9724B51
:104C00001B6823F0070270493B6813430B606E4B2F
:104C10001B6803F007033A689A4201D00123CFE0F2
:104C20007B681B6803F00203002B10D07B689A6836
:104C3000664B9B6803F0F0039A4208D9634B9B686C
:104C400023F0F0027B689B68604913438B607B68AC
:104C50001B6803F00103002B4CD07B685B68032BBF
:104C600007D15A4B1B6803F00073002B21D101239D
:104C7000A6E07B685B68022B07D1544B1B6803F4EA
:104C80000033002B15D101239AE07B685B68002B71
:104C900007D14E4B1B6803F00203002B09D10123FF
:104CA0008EE04A4B1B6803F48063002B01D1012383
:104CB00086E0464B9B6823F003027B685B684349B0
:104CC00013438B6000F0DEF9F8600AE000F0DAF9D7
:104CD0000246FB68D31A41F28832934201D903237A
:104CE0006EE03A4B9B6803F00C027B685B689B00AC
:104CF0009A42EBD17B681B6803F00203002B10D0B3
:104D00007B689A68314B9B6803F0F0039A4208D2A3
:104D10002E4B9B6823F0F0027B689B682B49134362
:104D20008B60294B1B6803F007033A689A4210D244
:104D3000254B1B6823F0070223493B6813430B6094
:104D4000214B1B6803F007033A689A4201D0012304
:104D500036E07B681B6803F00403002B08D01B4B74
:104D60009B6823F4E0627B68DB68184913438B601F
:104D70007B681B6803F00803002B09D0134B9B686A
:104D800023F460527B681B69DB00104913438B607E
:104D900000F024F802460D4B9B681B0903F00F033B
:104DA0000B49CB5C03F01F0322FA03F3094A13609B
:104DB000094B1B68184600F015F90346FB72FB7A95
:104DC00018461037BD4680BD00200240001002404A
:104DD000849C0008040000200800002080B489B0F2
:104DE00000AF0023FB610023BB613E4B9B6803F0D7
:104DF0000C033B613B4BDB6803F00303FB603B6947
:104E0000002B05D03B690C2B21D1FB68012B1ED157
:104E1000344B1B6803F00803002B07D1314BD3F848
:104E200094301B0A03F00F03FB6105E02D4B1B6858
:104E30001B0903F00F03FB612B4AFB6952F8233077
:104E4000FB613B69002B0DD1FB69BB610AE03B694B
:104E5000042B02D1254BBB6104E03B69082B01D137
:104E6000234BBB613B690C2B34D11E4BDB6803F039
:104E70000303BB60BB68022B03D0BB68032B03D0CA
:104E800005E01A4B7B6105E0194B7B6102E0FB6991
:104E90007B6100BF134BDB681B0903F00703013381
:104EA0007B60104BDB681B0A03F07F037A6903FB0E
:104EB00002F27B68B2FBF3F37B610A4BDB685B0EAB
:104EC00003F0030301335B003B607A693B68B2FB8C
:104ED000F3F3BB61BB6918462437BD465DF8047B1C
:104EE000704700BF00100240949C00080024F400AA
:104EF00000127A0080B586B000AF786000233B6175
:104F00002A4B9B6D03F08053002B03D0FEF7E4FE89
:104F1000786114E0254B9B6D244A43F080539365E0
:104F2000224B9B6D03F08053FB60FB68FEF7D4FEC1
:104F300078611E4B9B6D1D4A23F0805393657B69FE
:104F4000B3F5007F0BD17B68802B19D97B68A02B30
:104F500002D902233B6113E001233B6110E07B682F
:104F6000802B02D903233B610AE07B68802B02D1AE
:104F700002233B6104E07B68702B01D101233B617C
:104F80000B4B1B6823F0070209493B6913430B6075
:104F9000074B1B6803F007033A699A4201D00123CB
:104FA00000E0002318461837BD4680BD00100240BF
:104FB0000020024080B582B000AF0023FB710320C7
:104FC000FDF7CEFC0F2000F00DF80346002B02D0B9
:104FD0000123FB7101E0FCF77FFEFB7918460837DF
:104FE000BD4680BD80B584B000AF78600023FB7300
:104FF000174B1B78002B23D0164B1A68144B1B78C9
:1050000019464FF47A73B3FBF1F3B2FBF3F318468E
:10501000FDF7CDFC0346002B0FD17B680F2B09D881
:10502000002279684FF0FF30FDF7A5FC0A4A7B6843
:10503000136007E00123FB7304E00123FB7301E02D
:105040000123FB73FB7B18461037BD4680BD00BFB4
:105050000C000020040000200800002080B400AFF5
:10506000064B1B781A46064B1B681344044A136010
:1050700000BFBD465DF8047B704700BF0C000020F8
:105080007001002080B400AF034B1B681846BD467A
:105090005DF8047B704700BF7001002080B483B0CE
:1050A00000AF03463960FB7197F90730002B0ADB2C
:1050B0003B68DAB20C4997F907301201D2B20B44BF
:1050C00083F800230AE03B68DAB20849FB7903F071
:1050D0000F03043B1201D2B20B441A7600BF0C3707
:1050E000BD465DF8047B704700E100E000ED00E0A4
:1050F00080B500AF00216FF00400FFF7CFFF00BFC5
:1051000080BD000080B483B000AFEFF305833B6047
:105110003B68002B03D06FF005037B600CE00A4B6B
:105120001B68002B05D1084B01221A6000237B600D
:1051300002E04FF0FF337B607B6818460C37BD46BA
:105140005DF8047B704700BF7401002080B582B019
:1051500000AFEFF305833B603B68002B03D06FF09B
:1051600005037B6010E00B4B1B68012B09D1FFF797
:10517000BFFF084B02221A6002F084F900237B6013
:1051800002E04FF0FF337B607B6818460837BD466E
:1051900080BD00BF7401002080B58EB004AFF86000
:1051A000B9607A6000233B61EFF305837B617B6923
:1051B000002B7ED1FB68002B7BD080233B62182321
:1051C000FB6100237B624FF0FF33BB617B68002BE8
:1051D00045D07B681B68002B02D07B681B687B6214
:1051E0007B689B69002B02D07B689B69FB61FB6934
:1051F000002B08D0FB69382B05D87B685B6803F06F
:105200000103002B01D0002354E07B685B69002B75
:1052100003D07B685B699B083B627B689B68002BC3
:105220000ED07B68DB68BB2B0AD97B681B69002B1F
:1052300006D07B685B69002B02D00123BB6110E0C4
:105240007B689B68002B0CD17B68DB68002B08D146
:105250007B681B69002B04D10023BB6101E00023A4
:10526000BB61BB69012B10D17B681B697A689268AE
:1052700002920193FB690093BB683A6A796AF86805
:1052800001F014FF03463B6113E0BB69002B10D112
:105290003B6A9AB207F110030193FB690093BB6864
:1052A000796AF86801F05FFF0346012B01D0002303
:1052B0003B613B6918462837BD4680BD80B584B048
:1052C00000AF7860EFF30583BB60BB68002B03D0B1
:1052D0006FF00503FB6007E00023FB607B68002B99
:1052E00002D0786802F09AF8FB6818461037BD467D
:1052F00080BD80B588B000AF78600023FB61EFF31C
:105300000583BB60BB68002B74D17B68002B03D086
:105310007B685B68BB6101E00023BB61BB6903F094
:105320000103002B02D001237B6101E000237B619C
:10533000BB6903F00803002B5CD14FF0FF333B61E6
:105340007B68002B15D07B689B68002B06D07B68A0
:10535000DB684F2B02D901233B610CE07B689B6823
:10536000002B08D17B68DB68002B04D100233B6154
:1053700001E000233B613B69012B12D17B69002BCB
:1053800007D07B689B681946042001F07EF8F8611D
:1053900016E07B689B681946012001F076F8F861F9
:1053A0000EE03B69002B0BD17B69002B04D004205D
:1053B00001F053F8F86103E0012001F04EF8F861C4
:1053C000FB69002B0CD07B68002B03D07B681B682B
:1053D000FB6001E00023FB60F968F86901F008FE5A
:1053E000FB69002B06D07B69002B03D0FB6943F0DF
:1053F0000103FB61FB6918462037BD4680BD80B5BF
:1054000086B000AF786039607B6823F001033B61B0
:105410007B6803F00103FB6000237B61EFF30583EE
:10542000BB60BB68002B03D06FF005037B612CE0F1
:105430003B69002B03D16FF003037B6125E0FB6820
:10544000002B11D03968386901F06EF80346012B42
:105450001BD03B68002B03D06FF001037B6114E08D
:105460006FF002037B6110E03968386901F00CFBD2
:105470000346012B09D03B68002B03D06FF00103DA
:105480007B6102E06FF002037B617B69184618378D
:10549000BD4680BD80B586B000AF78607B6823F0E4
:1054A00001033B617B6803F00103FB6000237B6128
:1054B000EFF30583BB60BB68002B03D06FF00503DF
:1054C0007B611FE03B69002B03D16FF003037B611D
:1054D00018E0FB68002B09D0386900F0F1FF0346A3
:1054E000012B0FD06FF002037B610BE00023002241
:1054F0000021386901F04EF80346012B02D06FF00D
:1055000002037B617B6918461837BD4680BD80B5B4
:105510008AB002AFF860B9607A600023FB61EFF3F4
:1055200005833B613B69002B5FD1FB68002B5CD09E
:10553000BB68002B59D04FF0FF33BB617B68002B59
:1055400029D07B689B68002B12D07B68DB684F2BCF
:105550000ED97B681B69002B0AD07B685A69FB68EF
:10556000B96801FB03F39A4202D30123BB6114E043
:105570007B689B68002B10D17B68DB68002B0CD10B
:105580007B681B69002B08D17B685B69002B04D109
:105590000023BB6101E00023BB61BB69012B0BD180
:1055A0007B681A697B689B6800210091B968F8687C
:1055B00000F064FEF86108E0BB69002B05D1002211
:1055C000B968F86800F0D2FEF861FB69002B0CD0D6
:1055D0007B68002B03D07B681B687B6101E00023A4
:1055E0007B617969F86901F003FDFB691846203792
:1055F000BD4680BD80B588B000AFF860B9603B6043
:105600001346FB71FB68BB610023FB61EFF305836D
:105610007B617B69002B28D0BB69002B05D0BB6860
:10562000002B02D03B68002B03D06FF00303FB611B
:1056300038E000233B6107F110020023B968B86924
:1056400001F0A6F80346012B03D06FF00203FB61C3
:1056500028E03B69002B25D0154B4FF080521A6093
:10566000BFF34F8FBFF36F8F1CE0BB69002B02D0DD
:10567000BB68002B03D16FF00303FB6112E0002332
:105680003A68B968B86900F085FF0346012B09D074
:105690003B68002B03D06FF00103FB6102E06FF069
:1056A0000203FB61FB6918462037BD4680BD00BF81
:1056B00004ED00E080B588B000AFF860B9607A60B2
:1056C0003B60FB68BB610023FB61EFF305837B61FB
:1056D0007B69002B28D0BB69002B05D0BB68002B51
:1056E00002D03B68002B03D06FF00303FB6137E06F
:1056F00000233B6107F110031A46B968B86901F04D
:10570000CFFA0346012B03D06FF00203FB6127E0C1
:105710003B69002B24D0154B4FF080521A60BFF329
:105720004F8FBFF36F8F1BE0BB69002B02D0BB68AC
:10573000002B03D16FF00303FB6111E03A68B968F5
:10574000B86901F0C1F80346012B09D03B68002B72
:1057500003D06FF00103FB6102E06FF00203FB6115
:10576000FB6918462037BD4680BD00BF04ED00E050
:1057700080B485B000AFF860B9607A60FB68074A12
:105780001A60BB68064A1A607B6880221A6000BFF4
:105790001437BD465DF8047B704700BF78010020D8
:1057A0003402002080B485B000AFF860B9607A6040
:1057B000FB68074A1A60BB68064A1A607B684FF4A8
:1057C00080721A6000BF1437BD465DF8047B7047D5
:1057D00034040020F004002080B483B000AF78606F
:1057E0007B6803F108027B685A607B684FF0FF32E8
:1057F0009A607B6803F108027B68DA607B6803F1DA
:1058000008027B681A617B6800221A6000BF0C37AF
:10581000BD465DF8047B704780B483B000AF78600C
:105820007B6800221A6100BF0C37BD465DF8047B1F
:10583000704780B485B000AF786039607B685B6882
:10584000FB603B68FA685A60FB689A683B689A603C
:10585000FB689B683A685A60FB683A689A603B68E4
:105860007A681A617B681B685A1C7B681A6000BFE3
:105870001437BD465DF8047B704780B485B000AF37
:10588000786039603B681B68BB60BB68B3F1FF3F61
:1058900003D17B681B69FB600CE07B680833FB600D
:1058A00002E0FB685B68FB60FB685B681B68BA68CA
:1058B0009A42F6D2FB685A683B685A603B685B685C
:1058C0003A689A603B68FA689A60FB683A685A607E
:1058D0003B687A681A617B681B685A1C7B681A608F
:1058E00000BF1437BD465DF8047B704780B485B0B7
:1058F00000AF78607B681B69FB607B685B687A68D7
:1059000092689A607B689B687A6852685A60FB6804
:105910005B687A689A4203D17B689A68FB685A6030
:105920007B6800221A61FB681B685A1EFB681A60BC
:10593000FB681B6818461437BD465DF8047B70474A
:1059400080B485B000AFF860B9607A60FB68043B52
:10595000FB60FB684FF080721A60FB68043BFB60E1
:10596000BB6823F00102FB681A60FB68043BFB6024
:105970000C4AFB681A60FB68143BFB607A68FB68A2
:105980001A60FB68043BFB60FB686FF002021A6060
:10599000FB68203BFB60FB6818461437BD465DF88A
:1059A000047B7047A959000880B485B000AF00237C
:1059B0007B60124B1B68B3F1FF3F0AD04FF05003DE
:1059C00083F31188BFF36F8FBFF34F8FFB6000BF6E
:1059D000FEE74FF0500383F31188BFF36F8FBFF3DF
:1059E0004F8FBB6000BF00BF7B68002BFCD000BFA7
:1059F00000BF1437BD465DF8047B704710000020DF
:105A0000074B19680868B0E8F04F80F30988BFF3C6
:105A10006F8F4FF0000080F311887047AFF3008064
:105A2000887E002000BF00BF08480068006880F33F
:105A300008884FF0000080F3148862B661B6BFF3A7
:105A40004F8FBFF36F8F00DF00BF00BF08ED00E096
:105A500080B586B000AF464B1B68464A93420AD1D8
:105A60004FF0500383F31188BFF36F8FBFF34F8F55
:105A70003B6100BFFEE73E4B1B683F4A93420AD1A1
:105A80004FF0500383F31188BFF36F8FBFF34F8F35
:105A9000FB6000BFFEE7394B7B617B691B78DBB2A3
:105AA0007B607B69FF221A707B691B78DBB2FB701D
:105AB000FB78DBB203F05003DAB2314B1A70314B92
:105AC00007221A6009E02F4B1B68013B2D4A136027
:105AD000FB78DBB25B00DBB2FB70FB78DBB203F080
