:020000040800F2
:1000000000000120792F00080D2F0008132F000891
:10001000192F00081F2F0008252F000800000000DE
:10002000000000000000000000000000313900085E
:100030002B2F000800000000813B0008392F00082A
:10004000C92F0008C92F0008C92F0008C92F0008B0
:10005000C92F0008C92F0008C92F0008C92F0008A0
:10006000C92F0008C92F0008C92F0008C92F000890
:10007000C92F0008C92F0008C92F0008C92F000880
:10008000C92F0008C92F0008C92F0008C92F000870
:10009000C92F0008C92F0008C92F0008C92F000860
:1000A000C92F0008C92F0008C92F0008C92F000850
:1000B000C92F00080000000000000000C92F000840
:1000C000C92F0008C92F0008C92F0008C92F000830
:1000D000C92F0008C92F0008C92F0008C92F000820
:1000E000C92F0008C92F0008000000000000000010
:1000F0000000000000000000000000000000000000
:1001000000000000C92F000800000000C92F0008EF
:100110000000000000000000C92F0008C92F0008DF
:10012000C92F0008C92F0008C92F0008C92F0008CF
:10013000C92F0008000000000000000000000000BF
:10014000C92F0008C92F0008C92F000800000000AF
:10015000C92F0008C92F0008C92F0008C92F00089F
:10016000C92F0008C92F0008C92F0008000000008F
:10017000C92F0008C92F000800000000000000007F
:0C018000C92F0008C92F0008C92F000873
:1001900010B5054C237833B9044B13B10448AFF3C1
:1001A00000800123237010BD7800002000000000B3
:1001B000DC9B000808B5034B1BB103490348AFF3B0
:1001C000008008BD000000007C000020DC9B0008CF
:1001D00081F0004102E000BF83F0004330B54FEAF8
:1001E00041044FEA430594EA050F08BF90EA020F65
:1001F0001FBF54EA000C55EA020C7FEA645C7FEAF8
:10020000655C00F0E2804FEA5454D4EB5555B8BF1A
:100210006D420CDD2C4480EA020281EA030382EA8B
:10022000000083EA010180EA020281EA0303362D1D
:1002300088BF30BD11F0004F4FEA01314FF4801CF0
:100240004CEA113102D0404261EB410113F0004F02
:100250004FEA03334CEA133302D0524263EB4303B9
:1002600094EA050F00F0A780A4F10104D5F1200E57
:100270000DDB02FA0EFC22FA05F2801841F10001B2
:1002800003FA0EF2801843FA05F359410EE0A5F186
:1002900020050EF1200E012A03FA0EFC28BF4CF0B7
:1002A000020C43FA05F3C01851EBE37101F000456D
:1002B00007D54FF0000EDCF1000C7EEB00006EEB7A
:1002C0000101B1F5801F1BD3B1F5001F0CD3490804
:1002D0005FEA30004FEA3C0C04F101044FEA44525B
:1002E00012F5800F80F09A80BCF1004F08BF5FEAE2
:1002F000500C50F1000041EB045141EA050130BDC2
:100300005FEA4C0C404141EB0101013C28BFB1F5D3
:10031000801FE9D291F0000F04BF01460020B1FA1E
:1003200081F308BF2033A3F10B03B3F120020CDAF1
:100330000C3208DD02F1140CC2F10C0201FA0CF0CF
:1003400021FA02F10CE002F11402D8BFC2F1200C34
:1003500001FA02F120FA0CFCDCBF41EA0C019040EA
:10036000E41AA2BF01EB0451294330BD6FEA040433
:100370001F3C1CDA0C340EDC04F11404C4F120021E
:1003800020FA04F001FA02F340EA030021FA04F330
:1003900045EA030130BDC4F10C04C4F1200220FA87
:1003A00002F001FA04F340EA0300294630BD21FAC5
:1003B00004F0294630BD94F0000F83F4801306BF8B
:1003C00081F480110134013D4EE77FEA645C18BF7F
:1003D0007FEA655C29D094EA050F08BF90EA020F16
:1003E00005D054EA000C04BF1946104630BD91EA0E
:1003F000030F1EBF0021002030BD5FEA545C05D111
:100400004000494128BF41F0004130BD14F580044F
:100410003CBF01F5801130BD01F0004545F0FE41C3
:1004200041F470014FF0000030BD7FEA645C1ABFF8
:10043000194610467FEA655C1CBF0B46024650EA2F
:10044000013406BF52EA033591EA030F41F400215B
:1004500030BD00BF90F0000F04BF0021704730B5E1
:100460004FF4806404F132044FF000054FF00001B6
:1004700050E700BF90F0000F04BF0021704730B577
:100480004FF4806404F1320410F0004548BF40424C
:100490004FF000013EE700BF42004FEAE2014FEAA1
:1004A00031014FEA02701FBF12F07F4393F07F4F7C
:1004B00081F06051704732F07F4208BF704793F07F
:1004C0007F4F04BF41F40021704730B54FF4607492
:1004D00001F0004521F000411CE700BF50EA010295
:1004E00008BF704730B54FF000050AE050EA01023E
:1004F00008BF704730B511F0004502D5404261EBAE
:1005000041014FF4806404F132045FEA915C3FF4EE
:10051000D8AE4FF003025FEADC0C18BF03325FEA8B
:10052000DC0C18BF033202EBDC02C2F1200300FA3C
:1005300003FC20FA02F001FA03FE40EA0E0021FA61
:1005400002F11444BDE600BF70B54FF0FF0C4CF44F
:10055000E06C1CEA11541DBF1CEA135594EA0C0F01
:1005600095EA0C0F00F0DEF82C4481EA030621EA3C
:100570004C5123EA4C5350EA013518BF52EA033577
:1005800041F4801143F4801338D0A0FB02CE4FF029
:100590000005E1FB02E506F00042E0FB03E54FF059
:1005A0000006E1FB03569CF0000F18BF4EF0010E51
:1005B000A4F1FF04B6F5007F64F5407404D25FEA4D
:1005C0004E0E6D4146EB060642EAC62141EA555100
:1005D0004FEAC52040EA5E504FEACE2EB4F1FD0C42
:1005E00088BFBCF5E06F1ED8BEF1004F08BF5FEAC0
:1005F000500E50F1000041EB045170BD06F0004672
:1006000046EA010140EA020081EA0301B4EB5C041E
:10061000C2BFD4EB0C0541EA045170BD41F4801116
:100620004FF0000E013C00F3AB8014F1360FDEBF3B
:10063000002001F0004170BDC4F10004203C35DA17
:100640000C341BDC04F11404C4F1200500FA05F39A
:1006500020FA04F001FA05F240EA020001F000423B
:1006600021F0004110EBD37021FA04F642EB0601B1
:100670005EEA430E08BF20EAD37070BDC4F10C04DB
:10068000C4F1200500FA04F320FA05F001FA04F29F
:1006900040EA020001F0004110EBD37041F100018B
:1006A0005EEA430E08BF20EAD37070BDC4F1200596
:1006B00000FA05F24EEA020E20FA04F301FA05F2FE
:1006C00043EA020321FA04F001F0004121FA04F2A6
:1006D00020EA020000EBD3705EEA430E08BF20EA76
:1006E000D37070BD94F0000F0FD101F000464000B0
:1006F00041EB010111F4801F08BF013CF7D041EA32
:10070000060195F0000F18BF704703F00046520035
:1007100043EB030313F4801F08BF013DF7D043EA06
:100720000603704794EA0C0F0CEA135518BF95EABC
:100730000C0F0CD050EA410618BF52EA4306D1D143
:1007400081EA030101F000414FF0000070BD50EA62
:10075000410606BF1046194652EA430619D094EAEC
:100760000C0F02D150EA013613D195EA0C0F05D1D6
:1007700052EA03361CBF104619460AD181EA03012A
:1007800001F0004141F0FE4141F470014FF00000E2
:1007900070BD41F0FE4141F4780170BD70B54FF07D
:1007A000FF0C4CF4E06C1CEA11541DBF1CEA1355FD
:1007B00094EA0C0F95EA0C0F00F0A7F8A4EB0504DF
:1007C00081EA030E52EA03354FEA013100F08880D6
:1007D0004FEA03334FF0805545EA131343EA12639F
:1007E0004FEA022245EA111545EA10654FEA002654
:1007F0000EF000419D4208BF964244F1FD0404F50D
:10080000407402D25B084FEA3202B61A65EB030568
:100810005B084FEA32024FF480104FF4002CB6EB25
:10082000020E75EB030E22BFB61A754640EA0C00A5
:100830005B084FEA3202B6EB020E75EB030E22BFE5
:10084000B61A754640EA5C005B084FEA3202B6EB26
:10085000020E75EB030E22BFB61A754640EA9C00E5
:100860005B084FEA3202B6EB020E75EB030E22BFB5
:10087000B61A754640EADC0055EA060E18D04FEA73
:10088000051545EA16754FEA06164FEAC30343EA13
:1008900052734FEAC2025FEA1C1CC0D111F4801FE0
:1008A0000BD141EA00014FF000004FF0004CB6E7D9
:1008B00011F4801F04BF01430020B4F1FD0C88BF78
:1008C000BCF5E06F3FF6AFAEB5EB030C04BFB6EB83
:1008D000020C5FEA500C50F1000041EB045170BD76
:1008E0000EF0004E4EEA113114EB5C04C2BFD4EBA3
:1008F0000C0541EA045170BD41F480114FF0000E27
:10090000013C90E645EA060E8DE60CEA135594EAA2
:100910000C0F08BF95EA0C0F3FF43BAF94EA0C0FA5
:100920000AD150EA01347FF434AF95EA0C0F7FF41A
:1009300025AF104619462CE795EA0C0F06D152EA6E
:1009400003353FF4FDAE1046194622E750EA410652
:1009500018BF52EA43067FF4C5AE50EA41047FF463
:100960000DAF52EA43057FF4EBAE12E74FEA4102C6
:10097000B2F1E04324BFB3F5001CDCF1FE5C0DD9FD
:1009800001F0004C4FEAC0024CEA5070B2F1004F47
:1009900040EB830008BF20F00100704711F0804F4A
:1009A00021D113F13872BCBF01F00040704741F40F
:1009B00080114FEA5252C2F11802C2F1200C10FA13
:1009C0000CF320FA02F018BF40F001004FEAC123F7
:1009D0004FEAD32303FA0CFC40EA0C0023FA02F39B
:1009E0004FEA4303CCE77FEA625307D150EA013371
:1009F0001EBF4FF0FE4040F44000704701F0004041
:100A000040F0FE4040F40000704700BF034613F87A
:100A1000012B002AFBD1181A0138704780B582B02B
:100A200000AF0023FB71064B1B681A68044B1B6860
:100A300042F040021A600A2002F0D8FBF3E700BF40
:100A40003402002080B500AF044A0021044802F0BF
:100A50003BFB0346034A136000BF80BD709D000846
:100A60001D0A00089400002080B500AFFFF7EAFFE0
:100A700000BF80BD80B400AFFEE7000080B500AFCE
:100A80004FF4C0720021104808F0CAFF0F4B00223B
:100A90001A6000220C21402002F0D1FC03460C4ACF
:100AA00013600C4A00210C4802F00EFB03460B4A6F
:100AB00013600B4A00210B4802F006FB03460A4A6A
:100AC000136000BF80BD00BF980000201802002006
:100AD0001C020020949D0008E50D00082002002063
:100AE000B89D0008D10E00082402002080B483B015
:100AF00000AF03460A46FB711346BB71FB79032B1B
:100B000026D801A252F823F0190B0008270B000881
:100B1000350B0008430B0008BB79012B0CBF0123E8
:100B20000023DBB215E0BB79022B0CBF01230023AD
:100B3000DBB20EE0BB79042B0CBF01230023DBB238
:100B400007E0BB79042B0CBF01230023DBB200E0DC
:100B5000002318460C37BD465DF8047B704700BF84
:100B600080B584B000AFB9607A601A460346FB7363
:100B70001346BB73FB7B032B32D801A252F823F040
:100B8000910B0008A50B0008B90B0008CB0B00085F
:100B9000BB7B1946786800F081FB03461A46BB68A8
:100BA0001A701DE0BB7B1946786800F0C7FB03464E
:100BB0001A46BB681A8013E0BB7B1946786800F0C0
:100BC000F3FB0246BB681A600AE0BB7B19467868F3
:100BD00000F092FBF0EE407ABB68C3ED007A00BFF4
:100BE00000BF1037BD4680BD80B58EB000AFBA6083
:100BF0007B600346FB730B46BB7300237B6376E08D
:100C000040497A6B13465B0013449B000B441B78EE
:100C1000FF2B0AD03B497A6B13465B0013449B00C1
:100C20000B441B78FA7B9A425ED136497A6B1346A5
:100C30005B0013449B000B4401331B78BA7B9A4240
:100C400052D130497A6B13465B0013449B000B442E
:100C500008331B785A1C7B689A4201D0FFF70AFFC1
:100C600028497A6B13465B0013449B000B440A33FC
:100C700018787B68DBB207F11401BA68FFF770FFE0
:100C800020497A6B13465B0013449B000B440933E5
:100C90001B78002B10D01B497A6B13465B00134462
:100CA0009B000B4404331B68186807F114010123EF
:100CB000012202F037FC17E012497A6B13465B0001
:100CC00013449B000B44043318680E497A6B134697
:100CD0005B0013449B000B4408331B781A4607F152
:100CE0001403194608F08EFE7B6B01337B63064BC1
:100CF0001B687A6B9A4283D300BF00BF3837BD466A
:100D000080BD00BF980000201802002080B582B08E
:100D100000AF3B600346FB710B46BB7113467B7112
:100D20002E4B1B68202B01D1FFF7A4FE3A7C7B7968
:100D300011461846FFF7DAFE034683F00103DBB2E3
:100D4000002B01D0FFF796FE244B1A682449134666
:100D50005B0013449B000B44FA791A701F4B1A680E
:100D60001F4913465B0013449B000B440133BA79BF
:100D70001A701A4B1A681A4913465B0013449B00F9
:100D80000B4404333A681A60144B1A68144913462A
:100D90005B0013449B000B4408333A7C1A700F4BE2
:100DA0001A680F4913465B0013449B000B44093338
:100DB00000221A70094B1A68094913465B00134454
:100DC0009B000B440A337A791A70044B1B68013379
:100DD000024A136000BF0837BD4680BD18020020DC
:100DE0009800002080B58EB000AF364B1B680A21FA
:100DF000184602F09CFA55E03B1D07F10C02002159
:100E0000314805F07DFF034687F8373097F83730D3
:100E1000002B47D1FB69002B00D143E0FB68B3F501
:100E2000D07F18D1112387F82930522387F8283032
:100E3000002387F82A3007F1280303330133FA69C6
:100E4000391D184608F0DEFDFB69DBB20133DBB269
:100E500087F833301DE03B7987F82930FB68DBB237
:100E600003F03F03DBB287F82830FB689B09DBB255
:100E700003F00303DBB287F82A30FA69391D07F162
:100E800028030333184608F0BDFDFB69DBB287F881
:100E900033300E4B186897F82A2007F128010A23EF
:100EA00002F040FB0021084806F03CF80346002B06
:100EB000A2D1044B1B68184602F084FA0A2002F003
:100EC00095F992E760020020340200201C02002005
:100ED00090B585B000AF0B4B1868FA1C391D0A237A
:100EE00002F080FB0346002B08D138797979FB7B2F
:100EF0001C463B1DDA1C2346FFF776FE0A2002F053
:100F000075F9E8E71C02002080B500AF0022092136
:100F10004FF4807002F093FA0346094A1360084BBD
:100F20001B68002B01D1FFF7A5FD064A00210648EA
:100F300002F0CAF80346054A136000BF80BD00BF37
:100F400028020020DC9D0008E10F00082C02002090
:100F500080B58CB000AF0023BB611D4B1B683B61AB
:100F60000023FB6125E03B7A3B621A4B1B680A2198
:100F7000184602F0DCF9184805F08DFEF86207F11A
:100F80000C033A4607F11001134805F0B4FD03467F
:100F900087F82B3097F82B30002B02D03B6A0133B7
:100FA0003B620C4B1B68184602F00CFA0A2002F058
:100FB0001DF90A4B186839466423002202F012FB1F
:100FC0000346002BCFD000BF00BF3037BD4680BDE9
:100FD0005C02002060020020340200202802002071
:100FE00080B584B000AF7860FFF7B2FF052002F053
:100FF000FDF8F9E780B586B000AF78600B46FB706E
:10100000FB78082B01D9FFF735FDFB783B74FA78A4
:1010100007F108037968184608F0F4FC094B1868D2
:1010200007F108010A23002202F07CFA78617B694B
:10103000002B02D0FB780133FB7000BF1837BD4690
:1010400080BD00BF2802002080B588B000AF786066
:101050007868FFF7DBFC786108F0F6FB0246204B6E
:101060001B68D31A092B02D84FF0FF3334E000235A
:10107000FB610023BB6125E07A69FB69D31A062B6B
:1010800002D90723BB6103E07A69FB69D31ABB610C
:10109000FA233B7307F10C0301337968FA691144B1
:1010A000BA69184608F07AFDBB69DBB20133DAB2DF
:1010B00007F10C0311461846FFF79CFFFA69BB695C
:1010C0001344FB61FA697B699A42D5D108F0BCFBF5
:1010D0000346034A1360002318462037BD4680BDEF
:1010E0003002002080B584B000AF03460A46FB7191
:1010F0001346BB7107F10C02B979F879022300F0AD
:10110000AFF807F10C0302211846FFF773FF00BF89
:101110001037BD4680BD80B584B000AF034687ED73
:10112000000AFB7107F10C01FB79042297ED000A1C
:10113000184600F0C7F807F10C0304211846FFF722
:1011400059FF00BF1037BD4680BD000084B0B0B568
:101150008CB000AF07F1400484E80F00304B1D460F
:1011600007F140040FCC0FC50FCC0FC594E8030066
:1011700085E803000323BB610023FB6101233B627D
:1011800000237B6101237B624FF400437B600023DB
:10119000BB604FF4F033FB6000233B610E23BB6266
:1011A0003B1D194607F1400005F097FB034687F801
:1011B0002F3097F82F30002B01D0FFF75BFC022176
:1011C00007F1400005F0D6FE034687F82F3097F868
:1011D0002F30002B01D0FFF74DFC07F1400005F048
:1011E00046FC034687F82F3097F82F30002B01D0AC
:1011F000FFF740FC97F868301BB243F480631BB2E2
:101200009AB2084B1A80002002F00BF80346064AF7
:10121000136000BF3037BD46BDE8B04004B0704732
:10122000340200205C0200206002002080B483B001
:1012300000AF78607B681BBA18460C37BD465DF876
:10124000047B704780B483B000AF0346FB80FB880B
:101250005BBA9BB218460C37BD465DF8047B7047FD
:1012600080B483B000AF3A601A460346FB710B4668
:10127000BB7113467B717B79012B01D8002307E0FA
:101280003B68FA791A703B680133BA791A70022305
:1012900018460C37BD465DF8047B704780B483B0B8
:1012A00000AF78600B46FB70FB78012B01D8002360
:1012B00002E07B6801331B7818460C37BD465DF8A9
:1012C000047B704780B586B000AF034687ED020A05
:1012D0007960FB731346BB7397ED020A00F006F9C1
:1012E0007861BB7BF87B7A68796900F03DF801236F
:1012F00018461837BD4680BD80B582B000AF786013
:101300000B46FB707B68002B02D0FB78042B02D8C5
:10131000DFED097A0BE07B680133184600F0BFF877
:101320000346184600F06CF8F0EE407A00BFB0EECD
:10133000670A0837BD4680BD0000C07F80B582B017
:1013400000AF78600B46FB70FB78022B01D80023BE
:1013500006E07B680133184600F088F8034600BFBA
:1013600018460837BD4680BD80B584B000AFB9606F
:101370007A601A460346FB731346BB737B68002BE7
:1013800002D0BB7B032B01D8002309E07B68FA7BEA
:101390001A707B680133B968184600F0D7F8052346
:1013A00018461037BD4680BD80B582B000AF78606A
:1013B0000B46FB707B68002B02D0FB78042B01D816
:1013C000002306E07B680133184600F068F8034606
:1013D00000BF18460837BD4680BD80B582B000AF5B
:1013E00087ED010A3860386897ED010A08F038FA8D
:1013F000F0EE407AB0EE670A0837BD4680BD0000C7
:1014000080B586B000AF78607B68DB0FFB757B68CA
:10141000DB0DBB757B68C3F316033B613B6907EECD
:10142000903AF8EE677ADFED106A87EEA67ABB7D18
:101430007F3B1846B0EE470AFFF7CFFF87ED030A60
:10144000FB7D002B04D0D7ED037AF1EE677A01E043
:10145000D7ED037AC7ED037AFB6807EE903AB0EE5A
:10146000670A1837BD4680BDFEFFFF4A80B584B0CD
:1014700000AF78607B681B789BB21B02FB817B68A6
:1014800001331B789AB2FB891343FB81FB89184611
:10149000FFF7D8FE034618461037BD4680BD80B51D
:1014A00084B000AF78607B681B781B06FB607B68AC
:1014B00001331B781B041A46FB681343FB607B68EF
:1014C00002331B781B021A46FB681343FB607B68E0
:1014D00003331B781A46FB681343FB60F868FFF779
:1014E000A5FE034618461037BD4680BD80B489B0BE
:1014F00000AF87ED010A0023FB613B1DBB61BB69A7
:101500001B687B617B69DB0F3B617B69DB0DDBB2B9
:10151000FB607B69C3F31603BB603B69DB071A46BC
:10152000FB691343FB61FB68DB051A46FB69134348
:10153000FB61BB68C3F31603FA691343FB61FB69E4
:1015400018462437BD465DF8047B704780B483B0ED
:1015500000AF786039603B681B0EDAB27B681A70A6
:101560003B681A0C7B680133D2B21A703B681A0AC6
:101570007B680233D2B21A707B6803333A68D2B206
:101580001A7000BF0C37BD465DF8047B7047000041
:1015900080B582B000AF0A4B1B7899B20A230322B0
:1015A000084806F0CDFB0346FB71FB79002B02D106
:1015B000054B01221A7000BF0837BD4680BD00BF31
:1015C00000000020AC0200200A03002080B588B093
:1015D00002AFBA607B600346FB730B46BB737B684C
:1015E000202B01D900F0BEFBFB7B1B015AB297F9FF
:1015F0000E3003F003035BB213435BB2DAB2104B5D
:101600001A70104B7A68B968184608F0FBF90E4B4F
:101610001B7899B27B689BB201339BB24FF0FF32CB
:101620000092074A094806F069F80346FB75FB7DFE
:10163000002B01D000F096FB00BF1837BD4680BDDF
:10164000640200206502002000000020AC0200209F
:1016500080B584B000AF0346B9607A60FB73F87B55
:101660007B68BA680021FFF7B1FF00BF1037BD46A5
:1016700080BD000080B584B000AF78600B46FB7081
:101680001346BB70584B1B78002B00F0A8807F23BB
:10169000FB7307F10F03012219460020FFF7D8FF63
:1016A0007B6800221A707B6801225A707B680222D4
:1016B0009A707B681B78DBB2FA789A4209D17B6812
:1016C0005B78DBB2BA789A4203D17B6867229A8052
:1016D0007EE07B685B78DBB2FA789A4209D17B685E
:1016E0009B78DBB2BA789A4203D17B6868229A80F1
:1016F0006EE07B685B78DBB2FA789A4209D17B684E
:101700005B78DBB2BA789A4203D17B6869229A800F
:101710005EE07B689B78DBB2FA789A4209D17B68FD
:101720009B78DBB2BA789A4203D17B686A229A80AE
:101730004EE07B681B78DBB2FA789A4209D17B686D
:101740009B78DBB2BA789A4203D17B686B229A808D
:101750003EE07B685B78DBB2FA789A4209D17B681D
:101760001B78DBB2BA789A4203D17B686C229A80EC
:101770002EE07B689B78DBB2FA789A4209D17B68CD
:101780005B78DBB2BA789A4203D17B686D229A808B
:101790001EE07B689B78DBB2FA789A4209D17B68BD
:1017A0001B78DBB2BA789A4203D17B686E229A80AA
:1017B0000EE07B681B78DBB2FA789A4208D17B682E
:1017C0001B78DBB2BA789A4202D17B686F229A808A
:1017D0007B689B889BB25B009AB27B689A8000BF53
:1017E0001037BD4680BD00BF0A03002080B58CB015
:1017F00004AFF860B96011461A460B46FB801346E9
:10180000BB80BB689B8899B2FA884FF0FF33029384
:10181000BB88019307F1100300930123F86806F0D9
:1018200075F9BB88012B02D13B7CFB610CE0BB88C6
:10183000022B09D13B7CBB617B7C7B61BB691A01BC
:101840007B691B091343FB61FB6918462037BD46C2
:1018500080BD80B58CB004AFF860B9601346FB80E2
:101860000023FB7718E0BB689B8899B2FA884FF099
:10187000FF3302930223019307F114030093012322
:10188000F86806F043F97B7D03F00803002B0CBFDA
:1018900001230023DBB2FB77FB7F002BE3D03B7DF2
:1018A0001B017A7D1209D2B21343BB61BB69184692
:1018B0002037BD4680BD80B58AB004AFF860B960FE
:1018C0001346FB71FB793B75BB689B8899B24FF05F
:1018D000FF3302930123019307F1140300930123C3
:1018E0000622F86805F0FEFF00BF1837BD4680BD30
:1018F00080B582B000AF7860396001230622396874
:101900007868FFF773FF0346DBB218460837BD4619
:1019100080BD80B584B000AFF860B9601346FB713C
:10192000FB7903F08003002B11DDFB7903F07F03CB
:10193000FB71FB7923F02003FB71FB7923F040035B
:10194000FB71FB791A46B968F868FFF7B4FF00BF6E
:101950001037BD4680BD000080B584B000AF786010
:10196000396039687868FFF7C3FF0346FB73FB7B78
:101970001A4639687868FFF7CCFFFB7B43F02003F9
:10198000FB73FB7B1A4639687868FFF794FF0222E5
:1019900039687868FFF75DFF03461846FEF76AFD71
:1019A0000EA3D3E90023FEF7CFFD02460B461046F7
:1019B00019464FF00002084BFEF7F0FE02460B46B8
:1019C00043EC172BB0EE470AF0EE670A1037BD461E
:1019D00080BD00BFAFF300800000B0409A99999994
:1019E00099995940F0B589B008AF07F0C5FE00F0ED
:1019F0003FF800F005F900F08DF800F0C1F8174E3F
:101A0000092306936D4606F110040FCC0FC594E828
:101A1000030085E8030096E80F00FFF797FBFFF748
:101A200073FAFFF72BF8FFF71FF8FFF7B1FD00225D
:101A300000210B48FFF71EFE01F04CF900F0AAFF51
:101A400001F0F8FA074A0021074801F03DFB034680
:101A5000064A136001F012FBFEE700BF840200207B
:101A600004030020009E0008551D0008000300200C
:101A700080B596B000AF07F1140344220021184648
:101A800007F0CEFF3B4600221A605A609A60DA6087
:101A90001A614FF4007006F00FFD0346002B01D0D1
:101AA00000F060F910237B610123FB6200233B639C
:101AB00060237B630223FB6301233B6401237B647C
:101AC0002823BB640723FB6402233B6502237B6559
:101AD00007F11403184607F04FF80346002B01D016
:101AE00000F040F90F233B6003237B600023BB60C1
:101AF0000023FB6000233B613B460421184607F0AE
:101B00004FFC0346002B01D000F02CF900BF5837E2
:101B1000BD4680BD80B500AF174B184A1A60164B02
:101B200028225A60144B00229A60134B0022DA607C
:101B3000114B4FF440221A610F4B4FF480125A613F
:101B40000D4B00221A760C4B00225A760A4B0022CB
:101B50009A76094B0022DA76074B00221A77064B59
:101B600000225A77044804F0BDFD0346002B01D043
:101B700000F0F8F800BF80BD84020020006400403F
:101B800080B500AF1B4B1C4A1A601A4B1B4A5A60A7
:101B9000184B00229A60174B0122DA60154B002285
:101BA0001A61144B00225A61124B00229A61114BA8
:101BB0000022DA610F4B00221A620E4805F00FFD79
:101BC0000346002B01D000F0CDF80021094805F0B4
:101BD0006FFC0346002B01D000F0C4F8002105483B
:101BE00005F0B1FC0346002B01D000F0BBF800BFAC
:101BF00080BD00BFAC02002000540040EC9C90105F
:101C000080B58AB000AF07F1140300221A605A6051
:101C10009A60DA601A614B4BDB6C4A4A43F004036A
:101C2000D364484BDB6C03F004033B613B69454BD9
:101C3000DB6C444A43F00103D364424BDB6C03F09A
:101C40000103FB60FB683F4BDB6C3E4A43F0020341
:101C5000D3643C4BDB6C03F00203BB60BB68394BC5
:101C6000DB6C384A43F00803D364364BDB6C03F07B
:101C700008037B607B6800224FF4FC71324805F05A
:101C8000FFFB002240F23F114FF0904005F0F8FBBF
:101C9000002248F237312D4805F0F2FB00220421E2
:101CA0002B4805F0EDFB4FF4FC737B610123BB6116
:101CB0000023FB6100233B6207F11403194622480D
:101CC00005F064FA40F23F137B610123BB610023FE
:101CD000FB6100233B6207F1140319464FF090406B
:101CE00005F054FA48F237337B610123BB610023CE
:101CF000FB6100233B6207F114031946134805F00A
:101D000045FA4FF400737B614FF48813BB610023E5
:101D1000FB6107F1140319460B4805F037FA042359
:101D20007B610123BB610023FB6100233B6207F160
:101D300014031946064805F029FA00BF2837BD46A6
:101D400080BD00BF001002400008004800040048A9
:101D5000000C004880B582B000AF7860012001F02F
:101D600045FAFBE780B400AF72B600BFFEE70000A3
:101D700080B586B000AF78600023FB7514233B610B
:101D8000C823FB6001224FF480714FF0904005F0B2
:101D900077FB01220221044805F072FB4FF47A70B0
:101DA00001F024FAEEE700BF0004004880B58EB0D1
:101DB00002AF78600023FB740023FB774FF4967327
:101DC000BB614FF496637B6107F11303012200921C
:101DD000002205211020FEF799FFFB7C102B1DD15E
:101DE000012204214FF0904005F04AFB012202211C
:101DF0004FF0904005F044FB012201214FF090404C
:101E000005F03EFB05233B7200237B7207F10802BD
:101E1000022305211020FEF7E7FEA1E1FB7C112B38
:101E200047D1012208214FF0904005F029FB002303
:101E3000FB622CE0012220214FF0904005F020FBB6
:101E4000012202214FF0904005F01AFB01220421EB
:101E50004FF0904005F014FBB86901F0C7F900227B
:101E600020214FF0904005F00BFB002202214FF0A3
:101E7000904005F005FB002204214FF0904005F052
:101E8000FFFAB86901F0B2F9FB6A0133FB62FB6A41
:101E9000012BCFDD012201214FF0904005F0F0FA37
:101EA000002208214FF0904005F0EAFA0523FB7468
:101EB00056E1FB7C122B40F082800023BB6238E0AD
:101EC000012220214FF0904005F0DAFA0122022190
:101ED0004FF0904005F0D4FA012204214FF09040D9
:101EE00005F0CEFA012208214FF0904005F0C8FA23
:101EF000B86901F07BF9002220214FF0904005F0F5
:101F0000BFFA002202214FF0904005F0B9FA0022FA
:101F100004214FF0904005F0B3FA002208214FF061
:101F2000904005F0ADFAB86901F060F9BB6A013381
:101F3000BB62BB6A022BC3DD002201214FF090403F
:101F400005F09EFA002202214FF0904005F098FA29
:101F5000002204214FF0904005F092FA002208215F
:101F60004FF0904005F08CFA002210214FF0904085
:101F700005F086FA00224FF400417B4805F080FA14
:101F800000224021794805F07BFA00228021774821
:101F900005F076FA00224FF48071744805F070FA6B
:101FA00000224FF40071714805F06AFA00222021E6
:101FB0004FF0904005F064FA0523FB74D0E0FB7C01
:101FC000132B1ED1012204214FF0904005F058FA46
:101FD000012202214FF0904005F052FAB86901F059
:101FE00005F9002204214FF0904005F049FA002243
:101FF00002214FF0904005F043FAB86901F0F6F87D
:10200000AEE0FB7C142B1DD100237B6214E0012287
:1020100010214FF0904005F033FAB86901F0E6F86E
:10202000002210214FF0904005F02AFAB86901F023
:10203000DDF87B6A01337B627B6A012BE7DD0523D8
:10204000FB748DE0FB7C152B75D100233B622CE0EB
:10205000012202214FF0904005F012FA01220421E2
:102060004FF0904005F00CFA012208214FF090400B
:1020700005F006FAB86901F0B9F8002202214FF024
:10208000904005F0FDF9002204214FF0904005F04A
:10209000F7F9002208214FF0904005F0F1F9B869F6
:1020A00001F0A4F83B6A01333B623B6A022BCFDDAF
:1020B000002201214FF0904005F0E2F900220221B8
:1020C0004FF0904005F0DCF9002204214FF09040E1
:1020D00005F0D6F9002208214FF0904005F0D0F924
:1020E000002210214FF0904005F0CAF900224FF471
:1020F00000411D4805F0C4F9002240211B4805F0AD
:10210000BFF900228021194805F0BAF900224FF4E6
:102110008071164805F0B4F900224FF4007113489D
:1021200005F0AEF9002220214FF0904005F0A8F90B
:102130000523FB7414E0FB7C0A2B11D10022012142
:102140004FF0904005F09CF9002204214FF09040A0
:1021500005F096F9002202214FF0904005F090F929
:102160000A2001F043F838E600040048000800485F
:1021700080B58CB002AF78600023FB720023FB7542
:102180004FF496733B614FF41673FB6007F10B033A
:1021900001220092002206211020FEF7B7FDFB7AF3
:1021A000FA7D9A4200F07B81FB7A102B29D1002323
:1021B0007B6220E0012204214FF0904005F060F99D
:1021C000012220214FF0904005F05AF9386901F0C2
:1021D0000DF8002204214FF0904005F051F9002243
:1021E00020214FF0904005F04BF9F86800F0FEFF19
:1021F0007B6A01337B627B6A032BDBDD0523FB7289
:102200004DE1FB7A112B29D100233B6220E0012212
:1022100002214FF0904005F033F9012220214FF0C8
:10222000904005F02DF9386900F0E0FF002202210E
:102230004FF0904005F024F9002220214FF090400B
:1022400005F01EF9F86800F0D1FF3B6A01333B62EC
:102250003B6A032BDBDD0523FB7220E1FB7A122BAB
:102260003CD1012204214FF0904005F009F90122F0
:1022700002214FF0904005F003F9012220214FF098
:10228000904005F0FDF8F86800F0B0FF0022202132
:102290004FF0904005F0F4F8F86800F0A7FF002236
:1022A00004214FF0904005F0EBF8002202214FF09E
:1022B000904005F0E5F8012220214FF0904005F014
:1022C000DFF8386900F092FF002220214FF09040A3
:1022D00005F0D6F8F86800F089FFE0E0FB7A132BF0
:1022E00065D10023FB615CE0012220214FF090408A
:1022F00005F0C6F8012204214FF0904005F0C0F827
:10230000386900F073FF002220214FF0904005F063
:10231000B7F8002204214FF0904005F0B1F8F868BA
:1023200000F064FF012220214FF0904005F0A8F852
:10233000012204214FF0904005F0A2F8386900F026
:1023400055FF002220214FF0904005F099F800221F
:1023500004214FF0904005F093F8F86800F046FF34
:10236000012220214FF0904005F08AF8012204213B
:102370004FF0904005F084F8F86800F037FF002235
:1023800020214FF0904005F07BF8002204214FF00F
:10239000904005F075F8F86800F028FFFB690133FC
:1023A000FB61FB69012B9FDD0523FB7277E0FB7A64
:1023B000142B65D10023BB615CE0012220214FF08A
:1023C000904005F05DF8012202214FF0904005F0A9
:1023D00057F8386900F00AFF002220214FF09040A2
:1023E00005F04EF8002202214FF0904005F048F829
:1023F000F86800F0FBFE012220214FF0904005F02C
:102400003FF8012202214FF0904005F039F8386979
:1024100000F0ECFE002220214FF0904005F030F853
:10242000002202214FF0904005F02AF8F86800F0F1
:10243000DDFE012220214FF0904005F021F801221D
:1024400002214FF0904005F01BF8F86800F0CEFE36
:10245000002220214FF0904005F012F800220221C6
:102460004FF0904005F00CF8F86800F0BFFEBB6933
:102470000133BB61BB69012B9FDD0523FB720EE0BD
:10248000FB7A0A2B0BD1002204214FF0904004F07C
:10249000F7FF002202214FF0904004F0F1FF0A20E4
:1024A00000F0A4FE7BE6000080B586B002AF786045
:1024B0000023BB730023FB7307F10E03012200927C
:1024C000002207211020FEF721FCBB7BFA7B9A42F9
:1024D00011D0BB7B012B06D101224FF400410848EB
:1024E00004F0CEFF05E000224FF40041044804F060
:1024F000C7FFBB7BFB730A2000F078FEE5E700BF57
:102500000004004880B588B002AF78600023FB72F9
:102510000023FB754FF416733B614FF49663FB6029
:1025200007F10B0301220092002208211020FEF780
:10253000EDFBFB7A102B2FD1012240211C4804F027
:102540009FFF012204214FF0904004F099FF0122E7
:1025500002214FF0904004F093FF012220214FF020
:10256000904004F08DFF386900F040FE0022042105
:102570004FF0904004F084FF002202214FF0904081
:1025800004F07EFF002220214FF0904004F078FFFD
:10259000F86800F02BFE04E000224021044804F01B
:1025A0006FFFFB7AFB750A2000F020FEC1E700BF39
:1025B0000008004880B588B002AF78600023FB7245
:1025C0000023FB754FF416733B614FF49663FB6079
:1025D00007F10B0301220092002209211020FEF7CF
:1025E00095FBFB7AFA7D9A4200F0CE80FB7A102BA5
:1025F00040F08780012201214FF0904004F040FF1D
:10260000012202214FF0904004F03AFF0122042100
:102610004FF0904004F034FF012208214FF0904029
:1026200004F02EFF012210214FF0904004F028FF0B
:1026300001224FF40041564804F022FF01224021BC
:10264000544804F01DFF01228021524804F018FF75
:1026500001224FF480714F4804F012FF01224FF421
:1026600000714C4804F00CFF012220214FF09040F3
:1026700004F006FFF86800F0B9FD002201214FF0D8
:10268000904004F0FDFE002202214FF0904004F043
:10269000F7FE002204214FF0904004F0F1FE0022EA
:1026A00008214FF0904004F0EBFE002210214FF083
:1026B000904004F0E5FE00224FF40041344804F05D
:1026C000DFFE00224021334804F0DAFE00228021A0
:1026D000304804F0D5FE00224FF480712D4804F0FC
:1026E000CFFE00224FF400712A4804F0C9FE0022F8
:1026F00020214FF0904004F0C3FEF86800F076FD12
:1027000042E0FB7A112B3FD1002201214FF0904093
:1027100004F0B6FE002202214FF0904004F0B0FE1B
:10272000002204214FF0904004F0AAFE002208216C
:102730004FF0904004F0A4FE002210214FF0904092
:1027400004F09EFE00224FF40041114804F098FE70
:10275000002240210F4804F093FE002280210D4802
:1027600004F08EFE00224FF480710A4804F088FEC7
:1027700000224FF40071074804F082FE002220215D
:102780004FF0904004F07CFE0A2000F02FFD28E777
:10279000000400480008004880B588B002AF7860A7
:1027A0000023FB720023FB754FF416733B614FF45B
:1027B0009663FB6007F10B030122009200221021B7
:1027C0001020FEF7A3FAFB7AFA7D9A423CD0FB7AFE
:1027D000102B17D1012280211D4804F051FE012247
:1027E00020214FF0904004F04BFE386900F0FEFCD1
:1027F000002220214FF0904004F042FEF86800F0E3
:10280000F5FC21E0FB7A112B10D101228021104828
:1028100004F036FE386900F0E9FC002280210C4803
:1028200004F02EFEF86800F0E1FC0DE0FB7A122BBC
:102830000AD100228021064804F022FE0022202135
:102840004FF0904004F01CFE0A2000F0CFFCBAE7E5
:102850000008004880B588B002AF78600023FB72A2
:102860000023FB754FF416733B614FF49663FB60D6
:1028700007F10B0301220092002211211020FEF724
:1028800045FAFB7AFA7D9A4224D0FB7A102B05D1C7
:1028900001228021114804F0F3FD1BE0FB7A112B8B
:1028A00010D1012280210D4804F0EAFD386900F0C2
:1028B0009DFC00228021094804F0E2FDF86800F048
:1028C00095FC07E0FB7A0A2B04D100228021034803
:1028D00004F0D6FD0A2000F089FCD2E70008004889
:1028E00080B588B002AF78600023FB7507F117034D
:1028F00001220092002213211020FEF707FAFB7D2F
:10290000012B0DD1084B01221A7013233B730323B3
:102910007B7307F10C02022313211020FEF764F9E8
:102920000A2000F063FCEAE73803002080B582B09B
:1029300000AF7860124B1B78002B1CD0114B93F921
:102940000030012B17D110491048FFF705F853EC60
:10295000102B10461946FEF709F803460C4A13607F
:102960000B4BD3ED007AB0EE670A0520FEF7D3FBE0
:10297000044B00221A700A2000F038FCDAE700BF8E
:102980000A0300203803002004030020AC020020CA
:102990003403002080B500AF284A0021284800F009
:1029A00093FB0346274A1360274A0021274800F07B
:1029B0008BFB0346264A1360264A0021264800F076
:1029C00083FB0346254A1360254A0021254800F071
:1029D0007BFB0346244A1360244A0021244800F06C
:1029E00073FB0346234A1360234A0021234800F067
:1029F0006BFB0346224A1360224A0021224800F062
:102A000063FB0346214A1360214A0021214800F05C
:102A10005BFB0346204A1360204A0021204800F057
:102A200053FB03461F4A13601F4A00211F4800F052
:102A30004BFB03461E4A136000BF80BD489E000842
:102A4000AD1D000810030020249E0008711D000821
:102A50000C0300206C9E0008712100081403002064
:102A6000909E0008A924000818030020B49E0008C6
:102A7000052500081C030020D89E0008B525000885
:102A800020030020209F000855280008280300206C
:102A9000FC9E00089927000824030020449F00089A
:102AA000E12800082C030020689F00082D29000859
:102AB0003003002080B588B002AF78600023FB733C
:102AC00007F10F0301220092002200210120FEF7EE
:102AD0001DF9FB7B012B15D109233B7410237B745B
:102AE00007F11002022309211020FEF77DF80023D0
:102AF0003B7400237B7407F11002022300210120A4
:102B0000FEF772F80A2000F071FBE2E780B584B0AE
:102B100000AF78600023FB730748FEF795FAFB7B54
:102B200019460120FEF7DEFAFB7B0133FB734FF4FD
:102B30007A7000F05BFBEFE7509D000880B588B02D
:102B400002AF78600323FB7307F10F0301220092A9
:102B5000002202210120FEF7D9F8FB7B012B16D1C0
:102B600007233B7401237B7407F110020223072122
:102B70001020FEF739F802233B7403237B7407F11E
:102B80001002022302210120FEF72EF818E0FB7B41
:102B9000002B15D107233B7400237B7407F110022F
:102BA000022307211020FEF71FF802233B740323A2
:102BB0007B7407F11002022302210120FEF714F8B2
:102BC0000A2000F013FBC8E780B588B002AF786038
:102BD0000023FB7307F10F0301220092002204215E
:102BE0000120FEF793F8FB7B012B15D108233B74E2
:102BF00010237B7407F11002022308211020FDF737
:102C0000F3FF04233B7400237B7407F110020223BB
:102C100004210120FDF7E8FF0A2000F0E7FAE2E7CF
:102C200080B588B002AF78600023FB7307F10F0313
:102C300001220092002205210120FEF767F8FB7BAC
:102C4000012B15D105233B7410237B7407F110026F
:102C5000022305211020FDF7C7FF05233B74002345
:102C60007B7407F11002022305210120FDF7BCFF50
:102C70000A2000F0BBFAE2E780B588B002AF7860C6
:102C80000023FB720023FB7507F10B030122009266
:102C9000002206210120FEF739F8FB7A012B15D11D
:102CA00009233B7310237B7307F10C0202230921D4
:102CB0001020FDF799FF06233B7300237B7307F178
:102CC0000C02022306210120FDF78EFF0A2000F0EE
:102CD0008DFAE2E780B500AF184A0021184800F0ED
:102CE000F3F90346174A1360174A0021174800F00A
:102CF000EBF90346164A1360164A0021164800F005
:102D0000E3F90346154A1360154A0021154800F0FF
:102D1000DBF90346144A1360144A0021144800F0FA
:102D2000D3F90346134A1360134A0021134800F0F5
:102D3000CBF90346124A136000BF80BD8C9F000888
:102D4000B52A00083C030020B09F00080D2B0008A6
:102D500040030020D49F00083D2B000844030020BE
:102D6000F89F0008C92B0008480300201CA0000899
:102D7000212C00084C03002040A00008792C0008FA
:102D80005003002080B582B000AF114B1B6E104A7B
:102D900043F0010313660E4B1B6E03F001037B60CF
:102DA0007B680B4B9B6D0A4A43F080539365084B3D
:102DB0009B6D03F080533B603B6800220F216FF056
:102DC000010004F0BAF900BF0837BD4680BD00BF5E
:102DD0000010024080B58AB000AF786007F114039C
:102DE00000221A605A609A60DA601A617B681B6878
:102DF000184A934229D1184B9B6D174A43F0007330
:102E00009365154B9B6D03F000733B613B69124B5F
:102E1000DB6C114A43F00103D3640F4BDB6C03F00E
:102E20000103FB60FB684FF4C0537B610223BB616D
:102E30000023FB6103233B6209237B6207F1140338
:102E400019464FF0904004F0A1F900BF2837BD4665
:102E500080BD00BF006400400010024080B5A0B0FB
:102E600000AF786007F16C0300221A605A609A6024
:102E7000DA601A6107F110035C220021184606F09F
:102E8000CFFD7B681B681E4A934235D140233B61CE
:102E900000233B6407F11003184605F063FB03466B
:102EA000002B01D0FEF75EFF164BDB6C154A43F09A
:102EB0000203D364134BDB6C03F00203FB60FB687B
:102EC000C023FB6612233B6700237B670323BB679A
:102ED0000423FB6707F16C0319460B4804F056F90D
:102EE000084B9B6D074A43F400139365054B9B6D9C
:102EF00003F40013BB60BB6800BF8037BD4680BDD4
:102F000000540040001002400004004880B400AFAC
:102F1000FEE780B400AFFEE780B400AFFEE780B408
:102F200000AFFEE780B400AFFEE780B400AF00BFA3
:102F3000BD465DF8047B704780B500AF06F070FCBD
:102F400002F0A4FE0346012B01D000F04DFE00BFAD
:102F500080BD000080B400AF064BD3F88830054A2E
:102F600043F47003C2F8883000BFBD465DF8047BAF
:102F7000704700BF00ED00E0DFF834D0FFF7EAFF54
:102F80000C480D490D4A002302E0D458C4500433C4
:102F9000C4188C42F9D30A4A0A4C002301E013609A
:102FA0000432A242FBD306F007FDFEF71BFDFEE74D
:102FB0000000012000000020780000200CA1000883
:102FC00078000020A0860020FEE7000080B483B0D7
:102FD00000AF03463960FB7197F90730002B0ADB1D
:102FE0003B68DAB20C4997F907301201D2B20B44B0
:102FF00083F800230AE03B68DAB20849FB7903F062
:103000000F03043B1201D2B20B441A7600BF0C37F7
:10301000BD465DF8047B704700E100E000ED00E094
:1030200080B500AF00216FF00400FFF7CFFF00BFB5
:1030300080BD000080B483B000AFEFF305833B6038
:103040003B68002B03D06FF005037B600CE00A4B5C
:103050001B68002B05D1084B01221A6000237B60FE
:1030600002E04FF0FF337B607B6818460C37BD46AB
:103070005DF8047B704700BF5403002080B582B028
:1030800000AFEFF305833B603B68002B03D06FF08C
:1030900005037B6010E00B4B1B68012B09D1FFF788
:1030A000BFFF084B02221A6002F084F900237B6004
:1030B00002E04FF0FF337B607B6818460837BD465F
:1030C00080BD00BF5403002080B58EB004AFF8600F
:1030D000B9607A6000233B61EFF305837B617B6914
:1030E000002B7ED1FB68002B7BD080233B62182312
:1030F000FB6100237B624FF0FF33BB617B68002BD9
:1031000045D07B681B68002B02D07B681B687B6204
:103110007B689B69002B02D07B689B69FB61FB6924
:10312000002B08D0FB69382B05D87B685B6803F05F
:103130000103002B01D0002354E07B685B69002B66
:1031400003D07B685B699B083B627B689B68002BB4
:103150000ED07B68DB68BB2B0AD97B681B69002B10
:1031600006D07B685B69002B02D00123BB6110E0B5
:103170007B689B68002B0CD17B68DB68002B08D137
:103180007B681B69002B04D10023BB6101E0002395
:10319000BB61BB69012B10D17B681B697A6892689F
:1031A00002920193FB690093BB683A6A796AF868F6
:1031B00001F014FF03463B6113E0BB69002B10D103
:1031C0003B6A9AB207F110030193FB690093BB6855
:1031D000796AF86801F05FFF0346012B01D00023F4
:1031E0003B613B6918462837BD4680BD80B584B039
:1031F00000AF7860EFF30583BB60BB68002B03D0A2
:103200006FF00503FB6007E00023FB607B68002B89
:1032100002D0786802F09AF8FB6818461037BD466D
:1032200080BD80B588B000AF78600023FB61EFF30C
:103230000583BB60BB68002B74D17B68002B03D077
:103240007B685B68BB6101E00023BB61BB6903F085
:103250000103002B02D001237B6101E000237B618D
:10326000BB6903F00803002B5CD14FF0FF333B61D7
:103270007B68002B15D07B689B68002B06D07B6891
:10328000DB684F2B02D901233B610CE07B689B6814
:10329000002B08D17B68DB68002B04D100233B6145
:1032A00001E000233B613B69012B12D17B69002BBC
:1032B00007D07B689B681946042001F07EF8F8610E
:1032C00016E07B689B681946012001F076F8F861EA
:1032D0000EE03B69002B0BD17B69002B04D004204E
:1032E00001F053F8F86103E0012001F04EF8F861B5
:1032F000FB69002B0CD07B68002B03D07B681B681C
:10330000FB6001E00023FB60F968F86901F008FE4A
:10331000FB69002B06D07B69002B03D0FB6943F0CF
:103320000103FB61FB6918462037BD4680BD80B5AF
:1033300086B000AF786039607B6823F001033B61A1
:103340007B6803F00103FB6000237B61EFF30583DF
:10335000BB60BB68002B03D06FF005037B612CE0E2
:103360003B69002B03D16FF003037B6125E0FB6811
:10337000002B11D03968386901F06EF80346012B33
:103380001BD03B68002B03D06FF001037B6114E07E
:103390006FF002037B6110E03968386901F00CFBC3
:1033A0000346012B09D03B68002B03D06FF00103CB
:1033B0007B6102E06FF002037B617B69184618377E
:1033C000BD4680BD80B586B000AF78607B6823F0D5
:1033D00001033B617B6803F00103FB6000237B6119
:1033E000EFF30583BB60BB68002B03D06FF00503D0
:1033F0007B611FE03B69002B03D16FF003037B610E
:1034000018E0FB68002B09D0386900F0F1FF034693
:10341000012B0FD06FF002037B610BE00023002231
:103420000021386901F04EF80346012B02D06FF0FD
:1034300002037B617B6918461837BD4680BD80B5A5
:103440008AB002AFF860B9607A600023FB61EFF3E5
:1034500005833B613B69002B5FD1FB68002B5CD08F
:10346000BB68002B59D04FF0FF33BB617B68002B4A
:1034700029D07B689B68002B12D07B68DB684F2BC0
:103480000ED97B681B69002B0AD07B685A69FB68E0
:10349000B96801FB03F39A4202D30123BB6114E034
:1034A0007B689B68002B10D17B68DB68002B0CD1FC
:1034B0007B681B69002B08D17B685B69002B04D1FA
:1034C0000023BB6101E00023BB61BB69012B0BD171
:1034D0007B681A697B689B6800210091B968F8686D
:1034E00000F064FEF86108E0BB69002B05D1002202
:1034F000B968F86800F0D2FEF861FB69002B0CD0C7
:103500007B68002B03D07B681B687B6101E0002394
:103510007B617969F86901F003FDFB691846203782
:10352000BD4680BD80B588B000AFF860B9603B6033
:103530001346FB71FB68BB610023FB61EFF305835E
:103540007B617B69002B28D0BB69002B05D0BB6851
:10355000002B02D03B68002B03D06FF00303FB610C
:1035600038E000233B6107F110020023B968B86915
:1035700001F0A6F80346012B03D06FF00203FB61B4
:1035800028E03B69002B25D0154B4FF080521A6084
:10359000BFF34F8FBFF36F8F1CE0BB69002B02D0CE
:1035A000BB68002B03D16FF00303FB6112E0002323
:1035B0003A68B968B86900F085FF0346012B09D065
:1035C0003B68002B03D06FF00103FB6102E06FF05A
:1035D0000203FB61FB6918462037BD4680BD00BF72
:1035E00004ED00E080B588B000AFF860B9607A60A3
:1035F0003B60FB68BB610023FB61EFF305837B61EC
:103600007B69002B28D0BB69002B05D0BB68002B41
:1036100002D03B68002B03D06FF00303FB6137E05F
:1036200000233B6107F110031A46B968B86901F03D
:10363000CFFA0346012B03D06FF00203FB6127E0B2
:103640003B69002B24D0154B4FF080521A60BFF31A
:103650004F8FBFF36F8F1BE0BB69002B02D0BB689D
:10366000002B03D16FF00303FB6111E03A68B968E6
:10367000B86901F0C1F80346012B09D03B68002B63
:1036800003D06FF00103FB6102E06FF00203FB6106
:10369000FB6918462037BD4680BD00BF04ED00E041
:1036A00080B485B000AFF860B9607A60FB68074A03
:1036B0001A60BB68064A1A607B6880221A6000BFE5
:1036C0001437BD465DF8047B704700BF58030020E7
:1036D0001404002080B485B000AFF860B9607A604F
:1036E000FB68074A1A60BB68064A1A607B684FF499
:1036F00080721A6000BF1437BD465DF8047B7047C6
:1037000014060020D006002080B483B000AF78609B
:103710007B6803F108027B685A607B684FF0FF32D8
:103720009A607B6803F108027B68DA607B6803F1CA
:1037300008027B681A617B6800221A6000BF0C37A0
:10374000BD465DF8047B704780B483B000AF7860FD
:103750007B6800221A6100BF0C37BD465DF8047B10
:10376000704780B485B000AF786039607B685B6873
:10377000FB603B68FA685A60FB689A683B689A602D
:10378000FB689B683A685A60FB683A689A603B68D5
:103790007A681A617B681B685A1C7B681A6000BFD4
:1037A0001437BD465DF8047B704780B485B000AF28
:1037B000786039603B681B68BB60BB68B3F1FF3F52
:1037C00003D17B681B69FB600CE07B680833FB60FE
:1037D00002E0FB685B68FB60FB685B681B68BA68BB
:1037E0009A42F6D2FB685A683B685A603B685B684D
:1037F0003A689A603B68FA689A60FB683A685A606F
:103800003B687A681A617B681B685A1C7B681A607F
:1038100000BF1437BD465DF8047B704780B485B0A7
:1038200000AF78607B681B69FB607B685B687A68C7
:1038300092689A607B689B687A6852685A60FB68F5
:103840005B687A689A4203D17B689A68FB685A6021
:103850007B6800221A61FB681B685A1EFB681A60AD
:10386000FB681B6818461437BD465DF8047B70473B
:1038700080B485B000AFF860B9607A60FB68043B43
:10388000FB60FB684FF080721A60FB68043BFB60D2
:10389000BB6823F00102FB681A60FB68043BFB6015
:1038A0000C4AFB681A60FB68143BFB607A68FB6893
:1038B0001A60FB68043BFB60FB686FF002021A6051
:1038C000FB68203BFB60FB6818461437BD465DF87B
:1038D000047B7047D938000880B485B000AF00235E
:1038E0007B60124B1B68B3F1FF3F0AD04FF05003CF
:1038F00083F31188BFF36F8FBFF34F8FFB6000BF5F
:10390000FEE74FF0500383F31188BFF36F8FBFF3CF
:103910004F8FBB6000BF00BF7B68002BFCD000BF97
:1039200000BF1437BD465DF8047B704708000020D7
:10393000074B19680868B0E8F04F80F30988BFF3B7
:103940006F8F4FF0000080F311887047AFF3008055
:103950006880002000BF00BF08480068006880F34E
:1039600008884FF0000080F3148862B661B6BFF398
:103970004F8FBFF36F8F00DF00BF00BF08ED00E087
:1039800080B586B000AF464B1B68464A93420AD1C9
:103990004FF0500383F31188BFF36F8FBFF34F8F46
:1039A0003B6100BFFEE73E4B1B683F4A93420AD192
:1039B0004FF0500383F31188BFF36F8FBFF34F8F26
:1039C000FB6000BFFEE7394B7B617B691B78DBB294
:1039D0007B607B69FF221A707B691B78DBB2FB700E
:1039E000FB78DBB203F05003DAB2314B1A70314B83
:1039F00007221A6009E02F4B1B68013B2D4A136018
:103A0000FB78DBB25B00DBB2FB70FB78DBB203F070
:103A10008003802BEFD0274B1B68C3F10703042BD7
:103A20000AD04FF0500383F31188BFF36F8FBFF3B9
:103A30004F8FBB6000BFFEE71E4B1B681B021D4A79
:103A400013601C4B1B6803F4E0631A4A13607B6825
:103A5000DAB27B691A70184B1B68174A43F470037B
:103A60001360154B1B68144A43F07043136000F059
:103A7000DDF8124B00221A6000F0FCF8104B1B68B6
:103A80000F4A43F040431360FFF766FF01F078FEF2
:103A9000FFF722FF002318461837BD4680BD00BF40
:103AA00000ED00E071C20F4170C20F4100E400E080
:103AB000D00A0020D40A002020ED00E008000020F9
:103AC00034EF00E080B483B000AF4FF0500383F3D5
:103AD0001188BFF36F8FBFF34F8F7B6000BF0F4B19
:103AE0001B6801330D4A13600C4B1B68012B0FD16F
:103AF0000B4B1B68DBB2002B0AD04FF0500383F353
:103B00001188BFF36F8FBFF34F8F3B6000BFFEE79D
:103B100000BF0C37BD465DF8047B704708000020ED
:103B200004ED00E080B483B000AF124B1B68002BA3
:103B30000AD14FF0500383F31188BFF36F8FBFF3A7
:103B40004F8F7B6000BFFEE70A4B1B68013B094AB1
:103B50001360084B1B68002B05D100233B603B68BA
:103B600083F3118800BF00BF0C37BD465DF8047BAE
:103B7000704700BF080000200000000000000000A7
:103B8000EFF30980BFF36F8F154B1A681EF0100F0B
:103B900008BF20ED108A20E9F04F10602DE90900E0
:103BA0004FF0500080F31188BFF34F8FBFF36F8F3A
:103BB00001F0E6FD4FF0000080F3118809BC1968A0
:103BC0000868B0E8F04F1EF0100F08BFB0EC108A84
:103BD00080F30988BFF36F8F704700BFAFF3008099
:103BE0006880002000BF00BF80B582B000AF4FF0FA
:103BF000500383F31188BFF36F8FBFF34F8F7B6048
:103C000000BF01F003FD0346002B03D0064B4FF02D
:103C100080521A6000233B603B6883F3118800BF29
:103C200000BF0837BD4680BD04ED00E080B400AFA2
:103C30000B4B00221A600B4B00221A600A4B1B68C8
:103C40000A4AA2FB03239B09094A013B1360044B68
:103C500007221A6000BFBD465DF8047B704700BFB5
:103C600010E000E018E000E004000020D34D6210F6
:103C700014E000E0DFF80C00016841F4700101601D
:103C8000704700BF88ED00E080B485B000AFEFF36F
:103C90000583FB60FB680F2B14D9174AFB6813449C
:103CA0001B78FB72154B1B78FA7A9A420AD24FF0B6
:103CB000500383F31188BFF36F8FBFF34F8F7B6087
:103CC00000BFFEE70E4B1B6803F4E0620D4B1B6860
:103CD0009A420AD94FF0500383F31188BFF36F8FD4
:103CE000BFF34F8F3B6000BFFEE700BF1437BD46F8
:103CF0005DF8047B704700BFF0E300E0D00A0020CD
:103D00000CED00E0D40A002080B58AB000AF7860E6
:103D10000023FB6101F0BEFB5B4B1B68002B01D154
:103D200000F020F9594B1A687B681340002B40F0D3
:103D300093807B68002B1DD008227B6813447B6036
:103D40007B6803F00703002B14D07B6823F0070384
:103D500008337B607B6803F00703002B0AD04FF029
:103D6000500383F31188BFF36F8FBFF34F8F7B61D5
:103D700000BFFEE77B68002B6ED0454B1B687A685E
:103D80009A4269D8434B3B62424B1B687B6204E01A
:103D90007B6A3B627B6A1B687B627B6A5B687A68D2
:103DA0009A4203D97B6A1B68002BF1D1364B1B6802
:103DB0007A6A9A4250D03B6A1B6808221344FB611E
:103DC0007B6A1A683B6A1A607B6A5A687B68D21AF7
:103DD00008235B009A421FD97A6A7B681344BB614F
:103DE000BB6903F00703002B0AD04FF0500383F3A5
:103DF0001188BFF36F8FBFF34F8F3B6100BFFEE7AA
:103E00007B6A5A687B68D21ABB695A607B6A7A6897
:103E10005A60B86900F008F91D4B1A687B6A5B6844
:103E2000D31A1B4A13601A4B1A681B4B1B689A4221
:103E300003D2174B1B68184A13607B6A5A68134BEE
:103E40001B681A437B6A5A607B6A00221A60134B14
:103E50001B680133114A136001F02AFBFB6903F070
:103E60000703002B0AD04FF0500383F31188BFF3F0
:103E70006F8FBFF34F8FFB6000BFFEE7FB691846F3
:103E80002837BD4680BD00BF108000202480002060
:103E90001480002008800020188000201C80002052
:103EA00080B586B000AF78607B687B617B68002B53
:103EB0004DD008235B427A6913447B617B693B6187
:103EC0003B695A68244B1B681340002B0AD14FF002
:103ED000500383F31188BFF36F8FBFF34F8FFB60E5
:103EE00000BFFEE73B691B68002B0AD04FF0500370
:103EF00083F31188BFF36F8FBFF34F8FBB6000BF99
:103F0000FEE73B695A68144B1B681340002B1ED018
:103F10003B691B68002B1AD13B695A680E4B1B6822
:103F2000DB431A403B695A6001F0B4FA3B695A68B6
:103F30000A4B1B681344094A1360386900F074F88F
:103F4000074B1B680133064A136001F0B1FA00BF4A
:103F50001837BD4680BD00BF24800020148000209B
:103F60002080002080B485B000AF47F23053BB60A2
:103F7000274BFB60FB6803F00703002B0CD0FB68AA
:103F80000733FB60FB6823F00703FB60BA68FB683C
:103F9000D31A1F4A1344BB60FB687B601D4A7B68D1
:103FA00013601C4B00225A607B68BA681344FB60A4
:103FB0000822FB689B1AFB60FB6823F00703FB6089
:103FC000FB68154A1360144B1B6800225A60124BA1
:103FD0001B6800221A607B683B603B68FA68D21A53
:103FE0003B685A600C4B1A683B681A603B685B6818
:103FF0000A4A13603B685B68094A1360094B4FF03B
:1040000000421A6000BF1437BD465DF8047B70475C
:10401000D80A00200880002010800020188000208E
:10402000148000202480002080B485B000AF786028
:10403000284BFB6002E0FB681B68FB60FB681B68A9
:104040007A689A42F7D8FB68BB60FB685B68BA681D
:1040500013447A689A4208D1FB685A687B685B68A7
:104060001A44FB685A60FB687B607B68BB607B68B6
:104070005B68BA681A44FB681B689A4218D1FB68EF
:104080001A68154B1B689A420DD07B685A68FB680A
:104090001B685B681A447B685A60FB681B681A6877
:1040A0007B681A6008E00C4B1A687B681A6003E0B2
:1040B000FB681A687B681A60FA687B689A4202D0CB
:1040C000FB687A681A6000BF1437BD465DF8047B50
:1040D000704700BF088000201080002080B584B0A9
:1040E00000AF786039607B68FB60FB68002B0AD109
:1040F0004FF0500383F31188BFF36F8FBFF34F8FDF
:10410000BB6000BFFEE7FFF7DDFCFB681A68FB68D9
:10411000DB6BF968096C01FB03F31A44FB689A60D6
:10412000FB6800229A63FB681A68FB685A60FB68A8
:104130001A68FB68DB6B013BF968096C01FB03F350
:104140001A44FB68DA60FB68FF2283F84420FB68AE
:10415000FF2283F845203B68002B14D1FB681B69C4
:10416000002B1AD0FB681033184601F0BDFB034644
:10417000002B12D00C4B4FF080521A60BFF34F8FC0
:10418000BFF36F8F09E0FB6810331846FFF7BCFAE6
:10419000FB6824331846FFF7B7FAFFF7C3FC012387
:1041A00018461037BD4680BD04ED00E080B58EB0E6
:1041B00002AFF860B9607A603B60FB68002B0AD1FF
:1041C0004FF0500383F31188BFF36F8FBFF34F8F0E
:1041D000BB6200BFFEE73B68002B0AD14FF05003E3
:1041E00083F31188BFF36F8FBFF34F8F7B6200BFE4
:1041F000FEE77B68002B02D0BB68002B01D00123B7
:1042000000E00023002B0AD14FF0500383F3118804
:10421000BFF36F8FBFF34F8F3B6200BFFEE77B683A
:10422000002B02D1BB68002B01D1012300E0002349
:10423000002B0AD14FF0500383F31188BFF36F8F27
:10424000BFF34F8FFB6100BFFEE750237B617B69AB
:10425000502B0AD04FF0500383F31188BFF36F8FB8
:10426000BFF34F8FBB6100BFFEE77B693B68FB621A
:10427000FB6A002B0DD0FB6A012283F8462097F8D9
:104280003820FB6A009313467A68B968F86800F032
:104290003FF8FB6A18463037BD4680BD80B58AB00E
:1042A00002AFF860B9601346FB71FB68002B0AD1BE
:1042B0004FF0500383F31188BFF36F8FBFF34F8F1D
:1042C0003B6100BFFEE7FB68BA6802FB03F3FB61DA
:1042D000FB6950331846FFF717FDB861BB69002B27
:1042E00011D0BB697B617B6950337B61BB69002264
:1042F00083F84620FA79BB69009313467A69B96856
:10430000F86800F005F8BB6918462037BD4680BD47
:1043100080B584B000AFF860B9607A60FB70BB68AC
:10432000002B03D1BB69BA691A6002E0BB697A68E5
:104330001A60BB69FA68DA63BB69BA681A6401215A
:10434000B869FFF7CBFEBB69FA7883F84C2000BF51
:104350001037BD4680BD80B582B000AF78607B6805
:10436000002B0ED07B6800229A607B6800221A60C6
:104370007B680022DA60002300220021786800F0C8
:10438000A1F800BF0837BD4680BD80B586B000AF3C
:104390000346FB7101237B6100233B61FB791A46D5
:1043A00039697869FFF77AFFF860F868FFF7D3FF9B
:1043B000FB6818461837BD4680BD80B588B002AF8F
:1043C00003463960FB7101237B6100233B61FB796C
:1043D00000933B68002239697869FFF7E7FEF860CF
:1043E000F868FFF7B8FFFB6818461837BD4680BD70
:1043F00090B587B000AF78607B683B613B69002B6C
:104400000AD14FF0500383F31188BFF36F8FBFF3CE
:104410004F8FFB6000BFFEE73B699C6801F026FC04
:1044200003469C4211D13B69DB685A1E3B69DA6046
:104430003B69DB68002B05D100230022002138698D
:1044400000F040F801237B6101E000237B617B6980
:1044500018461C37BD4690BD90B587B000AF786058
:1044600039607B683B613B69002B0AD14FF05003F8
:1044700083F31188BFF36F8FBFF34F8FFB6000BFD3
:10448000FEE73B699C6801F0F1FB03469C4207D1C3
:104490003B69DB685A1C3B69DA6001237B610CE0F5
:1044A0003968386900F088FA78617B69002B04D09C
:1044B0003B69DB685A1C3B69DA607B6918461C372C
:1044C000BD4690BD80B58EB000AFF860B9607A602F
:1044D0003B6000237B63FB683B633B6B002B0AD193
:1044E0004FF0500383F31188BFF36F8FBFF34F8FEB
:1044F000BB6200BFFEE7BB68002B03D13B6B1B6CAC
:10450000002B01D1012300E00023002B0AD14FF042
:10451000500383F31188BFF36F8FBFF34F8F7B621C
:1045200000BFFEE73B68022B03D13B6BDB6B012B2B
:1045300001D1012300E00023002B0AD14FF05003EA
:1045400083F31188BFF36F8FBFF34F8F3B6200BFC0
:10455000FEE701F09BFB0346002B02D17B68002B9A
:1045600001D1012300E00023002B0AD14FF05003BA
:1045700083F31188BFF36F8FBFF34F8FFB6100BFD1
:10458000FEE7FFF79FFA3B6B9A6B3B6BDB6B9A4244
:1045900002D33B68022B29D13A68B968386B00F026
:1045A000AFFBF8623B6B5B6A002B10D03B6B243394
:1045B000184601F099F90346002B13D03F4B4FF0FA
:1045C00080521A60BFF34F8FBFF36F8F0AE0FB6A10
:1045D000002B07D0394B4FF080521A60BFF34F8F3A
:1045E000BFF36F8FFFF79EFA012363E07B68002B18
:1045F00003D1FFF797FA00235CE07B6B002B06D119
:1046000007F11403184601F0D3F901237B63FFF788
:1046100089FA00F03FFFFFF755FA3B6B93F84430FF
:104620005BB2B3F1FF3F03D13B6B002283F8442020
:104630003B6B93F845305BB2B3F1FF3F03D13B6B6B
:10464000002283F84520FFF76DFA3A1D07F11403A5
:104650001146184601F0C2F90346002B24D1386BED
:1046600000F046FC0346002B18D03B6B10337A68F1
:104670001146184601F0E8F8386B00F0D1FB00F065
:1046800017FF0346002B7FF47CAF0C4B4FF080529A
:104690001A60BFF34F8FBFF36F8F72E7386B00F074
:1046A000BFFB00F005FF6CE7386B00F0B9FB00F0D2
:1046B000FFFE002318463837BD4680BD04ED00E0FC
:1046C00080B590B000AFF860B9607A603B60FB687D
:1046D000BB63BB6B002B0AD14FF0500383F31188EF
:1046E000BFF36F8FBFF34F8FBB6200BFFEE7BB68A6
:1046F000002B03D1BB6B1B6C002B01D1012300E00D
:104700000023002B0AD14FF0500383F31188BFF32D
:104710006F8FBFF34F8F7B6200BFFEE73B68022BBA
:1047200003D1BB6BDB6B012B01D1012300E0002324
:10473000002B0AD14FF0500383F31188BFF36F8F22
:10474000BFF34F8F3B6200BFFEE7FFF79DFAEFF329
:1047500011824FF0500383F31188BFF36F8FBFF3C3
:104760004F8FFA61BB61FB697B63BB6B9A6BBB6B61
:10477000DB6B9A4202D33B68022B2FD1BB6B93F8C1
:10478000453087F83330BB6B9B6BFB623A68B96886
:10479000B86B00F0B5FA97F93330B3F1FF3F12D19F
:1047A000BB6B5B6A002B16D0BB6B2433184601F041
:1047B0009BF80346002B0ED07B68002B0BD07B6848
:1047C00001221A6007E097F833300133DBB25AB2A6
:1047D000BB6B83F845200123FB6301E00023FB63EF
:1047E0007B6B7B617B6983F3118800BFFB6B184691
:1047F0004037BD4680BD000080B58CB000AFF8608A
:10480000B9607A600023FB62FB68BB62BB6A002B65
:104810000AD14FF0500383F31188BFF36F8FBFF3BA
:104820004F8F3B6200BFFEE7BB68002B03D1BB6A22
:104830001B6C002B01D1012300E00023002B0AD1C7
:104840004FF0500383F31188BFF36F8FBFF34F8F87
:10485000FB6100BFFEE701F019FA0346002B02D10D
:104860007B68002B01D1012300E00023002B0AD13B
:104870004FF0500383F31188BFF36F8FBFF34F8F57
:10488000BB6100BFFEE7FFF71DF9BB6A9B6B7B6254
:104890007B6A002B1FD0B968B86A00F09BFA7B6A6C
:1048A0005A1EBB6A9A63BB6A1B69002B0FD0BB6A96
:1048B0001033184601F018F80346002B07D03D4B83
:1048C0004FF080521A60BFF34F8FBFF36F8FFFF727
:1048D00029F9012369E07B68002B03D1FFF722F956
:1048E000002362E0FB6A002B06D107F11003184693
:1048F00001F05EF80123FB62FFF714F900F0CAFD36
:10490000FFF7E0F8BB6A93F844305BB2B3F1FF3FC6
:1049100003D1BB6A002283F84420BB6A93F8453078
:104920005BB2B3F1FF3F03D1BB6A002283F845209D
:10493000FFF7F8F83A1D07F110031146184601F089
:104940004DF80346002B23D1B86A00F0BBFA0346AA
:10495000002B17D0BB6A24337A681146184600F042
:1049600073FFB86A00F05CFA00F0A2FD0346002B6A
:1049700089D1104B4FF080521A60BFF34F8FBFF3B5
:104980006F8F80E7B86A00F04BFA00F091FD7AE78C
:10499000B86A00F045FA00F08BFDB86A00F092FAB0
:1049A0000346002B3FF46FAF002318463037BD4657
:1049B00080BD00BF04ED00E080B58EB000AF786030
:1049C000396000237B637B68FB6200233B63FB6AE7
:1049D000002B0AD14FF0500383F31188BFF36F8F80
:1049E000BFF34F8F3B6200BFFEE7FB6A1B6C002BDF
:1049F0000AD04FF0500383F31188BFF36F8FBFF3DA
:104A00004F8FFB6100BFFEE701F040F90346002B2A
:104A100002D13B68002B01D1012300E00023002BD1
:104A20000AD14FF0500383F31188BFF36F8FBFF3A8
:104A30004F8FBB6100BFFEE7FFF744F8FB6A9B6B3B
:104A4000BB62BB6A002B24D0BB6A5A1EFB6A9A6306
:104A5000FB6A1B68002B04D101F08EFA0246FB6A48
:104A60009A60FB6A1B69002B0FD0FB6A1033184653
:104A700000F03AFF0346002B07D0544B4FF0805212
:104A80001A60BFF34F8FBFF36F8FFFF74BF801230F
:104A900097E03B68002B11D13B6B002B0AD04FF005
:104AA000500383F31188BFF36F8FBFF34F8F7B6188
:104AB00000BFFEE7FFF736F8002382E07B6B002B98
:104AC00006D107F10C03184600F072FF01237B6347
:104AD000FFF728F800F0DEFCFEF7F4FFFB6A93F81E
:104AE00044305BB2B3F1FF3F03D1FB6A002283F88D
:104AF0004420FB6A93F845305BB2B3F1FF3F03D12A
:104B0000FB6A002283F84520FFF70CF83A4607F1CC
:104B10000C031146184600F061FF0346002B32D10A
:104B2000F86A00F0CFF90346002B26D0FB6A1B6819
:104B3000002B09D1FEF7C6FFFB6A9B68184601F0FF
:104B4000C3F83863FEF7EEFFFB6A24333A68114678
:104B5000184600F079FEF86A00F062F900F0A8FC4F
:104B60000346002B7FF468AF184B4FF080521A6059
:104B7000BFF34F8FBFF36F8F5EE7F86A00F050F915
:104B800000F096FC58E7F86A00F04AF900F090FC53
:104B9000F86A00F097F90346002B3FF44DAF3B6BEA
:104BA000002B0DD0FEF78EFFF86A00F091F87862C6
:104BB000FB6A9B68796A184601F05CF9FEF7B2FF60
:104BC000002318463837BD4680BD00BF04ED00E025
:104BD00080B58EB000AFF860B9607A60FB683B6367
:104BE0003B6B002B0AD14FF0500383F31188BFF3C6
:104BF0006F8FBFF34F8F3B6200BFFEE7BB68002B98
:104C000003D13B6B1B6C002B01D1012300E000237F
:104C1000002B0AD14FF0500383F31188BFF36F8F3D
:104C2000BFF34F8FFB6100BFFEE7FFF72DF8EFF3F7
:104C300011824FF0500383F31188BFF36F8FBFF3DE
:104C40004F8FBA617B61BB69FB623B6B9B6BBB6245
:104C5000BB6A002B2FD03B6B93F8443087F827308A
:104C6000B968386B00F0B6F8BB6A5A1E3B6B9A63A2
:104C700097F92730B3F1FF3F12D13B6B1B69002B33
:104C800016D03B6B1033184600F02EFE0346002B67
:104C90000ED07B68002B0BD07B6801221A6007E0E6
:104CA00097F827300133DBB25AB23B6B83F84420CC
:104CB00001237B6301E000237B63FB6A3B613B696B
:104CC00083F3118800BF7B6B18463837BD4680BD23
:104CD00080B485B000AF78607B685B6A002B06D03B
:104CE0007B681B6B1B68C3F13803FB6001E000238A
:104CF000FB60FB6818461437BD465DF8047B7047BF
:104D000080B586B000AFF860B9607A6000237B613F
:104D1000FB689B6B3B61FB681B6C002B0DD1FB6838
:104D20001B68002B4DD1FB689B68184601F034F8D6
:104D30007861FB6800229A6043E07B68002B19D100
:104D4000FB685868FB681B6C1A46B96804F05AFE89
:104D5000FB685A68FB681B6C1A44FB685A60FB6866
:104D60005A68FB689B689A422BD3FB681A68FB68F9
:104D70005A6026E0FB68D868FB681B6C1A46B96865
:104D800004F040FEFB68DA68FB681B6C5B421A4467
:104D9000FB68DA60FB68DA68FB681B689A4207D236
:104DA000FB689A68FB681B6C5B421A44FB68DA601C
:104DB0007B68022B05D13B69002B02D03B69013B8C
:104DC0003B613B695A1CFB689A637B69184618373C
:104DD000BD4680BD80B582B000AF786039607B6829
:104DE0001B6C002B18D07B68DA687B681B6C1A443C
:104DF0007B68DA607B68DA687B689B689A4203D3D9
:104E00007B681A687B68DA607B68D9687B681B6C92
:104E10001A46386804F0F6FD00BF0837BD4680BD6D
:104E200080B584B000AF7860FEF74CFE7B6893F8E5
:104E30004530FB7311E07B685B6A002B12D07B6806
:104E40002433184600F050FD0346002B01D000F03B
:104E500027FEFB7B013BDBB2FB7397F90F30002B86
:104E6000E9DC00E000BF7B68FF2283F84520FEF705
:104E700059FEFEF727FE7B6893F84430BB7311E0C0
:104E80007B681B69002B12D07B681033184600F03A
:104E90002BFD0346002B01D000F002FEBB7B013B43
:104EA000DBB2BB7397F90E30002BE9DC00E000BFEA
:104EB0007B68FF2283F84420FEF734FE00BF1037E2
:104EC000BD4680BD80B584B000AF7860FEF7FAFDC6
:104ED0007B689B6B002B02D10123FB6001E0002368
:104EE000FB60FEF71FFEFB6818461037BD4680BD0D
:104EF00080B584B000AF7860FEF7E4FD7B689A6B04
:104F00007B68DB6B9A4202D10123FB6001E0002346
:104F1000FB60FEF707FEFB6818461037BD4680BDF4
:104F200080B485B000AF786039600023FB6014E086
:104F30000F4AFB6852F83330002B0BD10C49FB6849
:104F40003A6841F833200A4AFB68DB0013447A6868
:104F50005A6006E0FB680133FB60FB68072BE7D96A
:104F600000BF00BF1437BD465DF8047B704700BF2B
:104F70002880002080B586B000AFF860B9607A6004
:104F8000FB687B61FEF79EFD7B6993F844305BB262
:104F9000B3F1FF3F03D17B69002283F844207B6992
:104FA00093F845305BB2B3F1FF3F03D17B69002238
:104FB00083F84520FEF7B6FD7B699B6B002B06D17D
:104FC0007B6924337A68B968184600F061FC786917
:104FD000FFF726FF00BF1837BD4680BD80B58EB0F5
:104FE00004AFF860B9607A603B607B6B002B0AD13C
:104FF0004FF0500383F31188BFF36F8FBFF34F8FD0
:105000003B6200BFFEE7BB6B002B0AD14FF05003A1
:1050100083F31188BFF36F8FBFF34F8FFB6100BF26
:10502000FEE7BC233B613B69BC2B0AD04FF0500329
:1050300083F31188BFF36F8FBFF34F8FBB6100BF46
:10504000FEE73B69BB6B002B1ED07B6B002B1BD09C
:10505000BB6B7B627B6A7A6B1A637B6A022283F882
:10506000B920002303937B6A029307F11403019391
:105070003B6B00933B687A68B968F86800F050F8B9
:10508000786A00F0F3F801E000237B617B69184641
:105090002837BD4680BD80B58CB004AFF860B960DC
:1050A0003B601346FB80FB889B001846FEF72CFEF6
:1050B00078617B69002B0ED0BC20FEF725FEF861DD
:1050C000FB69002B03D0FB697A691A6305E07869F4
:1050D000FEF7E6FE01E00023FB61FB69002B17D021
:1050E000FB69002283F8B920FA8800230393FB6947
:1050F0000293FB6A0193BB6A00933B68B968F86846
:1051000000F00EF8F86900F0B1F80123BB6102E08D
:105110004FF0FF33BB61BB6918462037BD4680BDE9
:1051200080B588B000AFF860B9607A603B603B6BD7
:10513000186B7B689B001A46A52104F071FC3B6B41
:105140001A6B7B6803F18043013B9B001344BB61F6
:10515000BB6923F00703BB61BB6903F00703002BA6
:105160000AD04FF0500383F31188BFF36F8FBFF362
:105170004F8F7B6100BFFEE7BB68002B1FD0002371
:10518000FB6112E0BA68FB69134419783A6BFB695A
:10519000134434330A461A70BA68FB6913441B7807
:1051A000002B06D0FB690133FB61FB690F2BE9D9AA
:1051B00000E000BF3B6B002283F8432003E03B6B21
:1051C000002283F83420BB6A372B01D93723BB6216
:1051D0003B6BBA6ADA623B6BBA6ADA643B6B0022F9
:1051E0001A653B6B04331846FEF7AEFA3B6B183377
:1051F0001846FEF7A9FA3B6B3A6B1A61BB6AC3F11A
:1052000038023B6B9A613B6B3A6B5A623B6B0022F4
:10521000C3F8B4203B6B002283F8B8203B6B5433B7
:1052200060220021184604F0FBFB3B6B0C4A9A6598
:105230003B6B0C4ADA653B6B0B4A1A663A68F968B5
:10524000B869FEF715FB02463B6B1A60FB6A002B40
:1052500002D0FB6A3A6B1A6000BF2037BD4680BDA2
:10526000C4A00008E4A00008A4A0000880B582B093
:1052700000AF7860FEF726FC2D4B1B6801332C4AEB
:1052800013602C4B1B68002B09D12A4A7B681360E2
:10529000274B1B68012B10D100F026FC0DE0264B9C
:1052A0001B68002B09D1234B1B68DA6A7B68DB6A19
:1052B0009A4202D81F4A7B681360204B1B68013357
:1052C0001E4A13601D4B1A687B685A647B68DA6A51
:1052D0001B4B1B689A4203D97B68DB6A184A136030
:1052E0007B68DA6A13469B0013449B00154A1A44F4
:1052F0007B68043319461046FEF733FAFEF712FCBA
:105300000D4B1B68002B0ED00A4B1B68DA6A7B68BA
:10531000DB6A9A4207D20C4B4FF080521A60BFF3FF
:105320004F8FBFF36F8F00BF0837BD4680BD00BFF2
:105330003C8500206880002048850020588500209A
:10534000448500206C80002004ED00E080B584B02E
:1053500000AF78600023FB607B68002B17D0134BF5
:105360001B68002B0AD04FF0500383F31188BFF362
:105370006F8FBFF34F8FBB6000BFFEE700F08AF86E
:105380000021786800F00CFE00F092F8F860FB68ED
:10539000002B07D1064B4FF080521A60BFF34F8F9E
:1053A000BFF36F8F00BF1037BD4680BD64850020FE
:1053B00004ED00E080B58AB004AF0023BB60002399
:1053C0007B603A46391D07F108031846FEF768F975
:1053D00039687B68BA680292019300230093002326
:1053E0000A4624492448FFF7F9FD0346234A13607F
:1053F000224B1B68002B02D001237B6101E00023BC
:105400007B617B69012B02D100F01EFE78617B6914
:10541000012B1BD14FF0500383F31188BFF36F8F23
:10542000BFF34F8F3B6100BF154B1B685433154AC8
:105430001360154B4FF0FF321A60144B01221A60B3
:10544000134B00221A60FEF79BFA0EE07B69B3F162
:10545000FF3F0AD14FF0500383F31188BFF36F8FE2
:10546000BFF34F8FFB6000BFFEE700BF1837BD469C
:1054700080BD00BF589D0008B95A00086085002013
:1054800068800020140000205C85002048850020F2
:105490004085002080B400AF044B1B680133034AF1
:1054A000136000BFBD465DF8047B70476485002033
:1054B00080B584B000AF0023FB600023BB60424B8B
:1054C0001B68002B0AD14FF0500383F31188BFF300
:1054D0006F8FBFF34F8F3B6000BFFEE7FEF7F2FA1E
:1054E000394B1B68013B384A1360374B1B68002B54
:1054F00062D1364B1B68002B5ED02FE0344BDB684B
:10550000DB68FB60FB6818331846FEF787F9FB6819
:1055100004331846FEF782F9FB68DA6A2D4B1B68E4
:105520009A4203D9FB68DB6A2A4A1360FB68DA6A8D
:1055300013469B0013449B00274A1A44FB6804331C
:1055400019461046FEF70DF9FB68DA6A234B1B6813
:10555000DB6A9A4202D3224B01221A601C4B1B6861
:10556000002BCBD1FB68002B01D000F05FFB1D4B63
:105570001B687B607B68002B10D000F047F8034667
:10558000002B02D0164B01221A607B68013B7B6026
:105590007B68002BF1D1134B00221A60104B1B6863
:1055A000002B09D00123BB600F4B4FF080521A60D3
:1055B000BFF34F8FBFF36F8FFEF7B4FABB68184687
:1055C0001037BD4680BD00BF648500203C850020AB
:1055D000FC840020448500206C800020688000202E
:1055E000508500204C85002004ED00E080B483B09D
:1055F00000AF054B1B687B607B6818460C37BD46C7
:105600005DF8047B704700BF4085002080B586B000
:1056100000AF00237B614F4B1B68002B40F08F8055
:105620004D4B1B6801333B614B4A3B6913603B693F
:10563000002B20D1494B1B681B68002B0AD04FF070
:10564000500383F31188BFF36F8FBFF34F8F3B601D
:1056500000BFFEE7414B1B68FB60414B1B683F4AA4
:1056600013603F4AFB6813603E4B1B6801333D4AA1
:10567000136000F0DBFA3C4B1B683A699A4249D34D
:10568000364B1B681B68002B04D1374B4FF0FF32A1
:105690001A603FE0314B1B68DB68DB68BB60BB68AE
:1056A0005B687B603A697B689A4203D22E4A7B68CA
:1056B00013602FE0BB6804331846FEF7AFF8BB68F1
:1056C0009B6A002B04D0BB6818331846FEF7A6F877
:1056D000BB68DA6A254B1B689A4203D9BB68DB6A50
:1056E000224A1360BB68DA6A13469B0013449B008E
:1056F0001F4A1A44BB68043319461046FEF731F8B6
:10570000BB68DA6A1B4B1B68DB6A9A42B8D3012379
:105710007B61B5E7174B1B68DA6A154913469B0096
:1057200013449B000B441B68012B01D901237B61AF
:10573000114B1B68002B07D001237B6104E00F4B4A
:105740001B6801330D4A13607B6918461837BD4644
:1057500080BD00BF6485002040850020F4840020C7
:10576000F8840020548500205C85002044850020BA
:105770006C80002068800020508500204C8500202F
:1057800080B485B000AF2A4B1B68002B03D0294B97
:1057900001221A6046E0274B00221A60264B1B6844
:1057A000FB6010E0FB68002B0AD14FF0500383F33D
:1057B0001188BFF36F8FBFF34F8F7B6000BFFEE791
:1057C000FB68013BFB601D49FA6813469B001344CC
:1057D0009B000B441B68002BE4D0FA6813469B0027
:1057E00013449B00154A1344BB60BB685B685A684E
:1057F000BB685A60BB685A68BB6808339A4204D1D8
:10580000BB685B685A68BB685A60BB685B68DB68EA
:105810000B4A1360084AFB681360094B1B6854333A
:10582000084A136000BF1437BD465DF8047B70471B
:105830006485002050850020448500206C80002075
:10584000688000201400002080B584B000AF78602C
:1058500039607B68002B0AD14FF0500383F3118825
:10586000BFF36F8FBFF34F8FFB6000BFFEE7074BA7
:105870001B68183319467868FDF797FF01213868CF
:1058800000F08EFB00BF1037BD4680BD6880002051
:1058900080B586B000AFF860B9607A60FB68002B15
:1058A0000AD14FF0500383F31188BFF36F8FBFF31A
:1058B0004F8F7B6100BFFEE70A4B1B681833194608
:1058C000F868FDF74EFF7B68002B02D04FF0FF33E6
:1058D000BB607968B86800F063FB00BF1837BD464D
:1058E00080BD00BF6880002080B586B000AF7860C2
:1058F0007B68DB68DB683B613B69002B0AD14FF0BA
:10590000500383F31188BFF36F8FBFF34F8FFB609A
:1059100000BFFEE73B6918331846FDF77FFF1E4BBB
:105920001B68002B1DD13B6904331846FDF776FF39
:105930003B69DA6A194B1B689A4203D93B69DB6AF7
:10594000164A13603B69DA6A13469B0013449B00B6
:10595000134A1A443B69043319461046FDF701FF08
:1059600005E03B69183319460E48FDF7FAFE3B691E
:10597000DA6A0D4B1B68DB6A9A4205D901237B6109
:105980000A4B01221A6001E000237B617B69184603
:105990001837BD4680BD00BF6485002044850020C7
:1059A0006C800020FC84002068800020508500204E
:1059B00080B483B000AF7860064B1A687B681A60C9
:1059C000054B1A687B685A6000BF0C37BD465DF80E
:1059D000047B7047548500204085002080B588B046
:1059E00000AF786039607B68002B0AD14FF050031C
:1059F00083F31188BFF36F8FBFF34F8F3B6100BFFD
:105A0000FEE73B68002B0AD14FF0500383F3118867
:105A1000BFF36F8FBFF34F8FFB6000BFFEE7FEF752
:105A200051F81D4B1B68BB617B685B68BA69D31A70
:105A30007B613B681B68B3F1FF3F02D10023FB6130
:105A400023E07B681A68154B1B689A4207D07B6875
:105A50005B68BA699A4202D30123FB6115E03B6897
:105A60001B687A699A420BD23B681A687B69D21A22
:105A70003B681A607868FFF79BFF0023FB6104E036
:105A80003B6800221A600123FB61FEF74BF8FB69BB
:105A900018462037BD4680BD408500205485002033
:105AA00080B400AF034B01221A6000BFBD465DF811
:105AB000047B70475085002080B582B000AF7860CD
:105AC00000F052F8064B1B68012BF9D9054B4FF03B
:105AD00080521A60BFF34F8FBFF36F8FF0E700BFA4
