:020000040800F2
:1000000000000120091400089D130008A313000834
:10001000A9130008AF130008B51300080000000082
:1000200000000000000000000000000091490008EE
:10003000BB13000800000000E14B0008C9130008D2
:1000400059140008591400085914000859140008DC
:1000500059140008591400085914000859140008CC
:1000600059140008591400085914000859140008BC
:1000700059140008591400085914000859140008AC
:10008000591400085914000859140008591400089C
:10009000591400085914000859140008591400088C
:1000A000591400085914000859140008591400087C
:1000B0005914000800000000000000005914000856
:1000C000591400085914000859140008591400085C
:1000D000591400085914000859140008591400084C
:1000E0005914000859140008000000000000000026
:1000F0000000000000000000000000000000000000
:100100000000000059140008000000005914000805
:1001100000000000000000005914000859140008F5
:1001200059140008591400085914000859140008FB
:10013000591400080000000000000000000000004A
:100140005914000859140008591400080000000050
:1001500059140008591400085914000859140008CB
:100160005914000859140008591400080000000030
:100170005914000859140008000000000000000095
:0C01800059140008591400085914000814
:1001900010B5054C237833B9044B13B10448AFF3C1
:1001A00000800123237010BD7800002000000000B3
:1001B000C484000808B5034B1BB103490348AFF3DF
:1001C000008008BD000000007C000020C4840008FE
:1001D00080B582B000AF0A4B1B7899B20A23032284
:1001E000084802F03BFA0346FB71FB79002B02D171
:1001F000054B01221A7000BF0837BD4680BD00BF05
:1002000000000020DC0000203A01002080B588B00A
:1002100002AFBA607B600346FB730B46BB737B681F
:10022000202B01D900F0C0FAFB7B1B015AB297F9D1
:100230000E3003F003035BB213435BB2DAB2104B30
:100240001A70104B7A68B968184608F063F80E4BBC
:100250001B7899B27B689BB201339BB24FF0FF329F
:100260000092074A094802F005F90346FB75FB7D39
:10027000002B01D000F098FA00BF1837BD4680BDB2
:10028000940000209500002000000020DC000020E9
:1002900080B584B000AF0346B9607A60FB73F87B29
:1002A0007B68BA680021FFF7B1FF00BF1037BD4679
:1002B00080BD000080B584B000AF78600B46FB7055
:1002C0001346BB70584B1B78002B00F0A8807F238F
:1002D000FB7307F10F03012219460020FFF7D8FF37
:1002E0007B6800221A707B6801225A707B680222A8
:1002F0009A707B681B78DBB2FA789A4209D17B68E6
:100300005B78DBB2BA789A4203D17B6867229A8025
:100310007EE07B685B78DBB2FA789A4209D17B6831
:100320009B78DBB2BA789A4203D17B6868229A80C4
:100330006EE07B685B78DBB2FA789A4209D17B6821
:100340005B78DBB2BA789A4203D17B6869229A80E3
:100350005EE07B689B78DBB2FA789A4209D17B68D1
:100360009B78DBB2BA789A4203D17B686A229A8082
:100370004EE07B681B78DBB2FA789A4209D17B6841
:100380009B78DBB2BA789A4203D17B686B229A8061
:100390003EE07B685B78DBB2FA789A4209D17B68F1
:1003A0001B78DBB2BA789A4203D17B686C229A80C0
:1003B0002EE07B689B78DBB2FA789A4209D17B68A1
:1003C0005B78DBB2BA789A4203D17B686D229A805F
:1003D0001EE07B689B78DBB2FA789A4209D17B6891
:1003E0001B78DBB2BA789A4203D17B686E229A807E
:1003F0000EE07B681B78DBB2FA789A4208D17B6802
:100400001B78DBB2BA789A4202D17B686F229A805D
:100410007B689B889BB25B009AB27B689A8000BF26
:100420001037BD4680BD00BF3A010020F0B589B04D
:1004300008AF03F087FD00F03DF800F003F900F08D
:100440008BF800F0BFF8164E122306936D4606F1A6
:1004500010040FCC0FC594E8030085E8030096E86C
:100460000F0007F083FC07F0C7FB07F09BF907F0CC
:100470008FF9FFF7ADFE002200210A48FFF71AFFAF
:1004800000F038FE03F006FE074A0021074803F09B
:100490004BFE0346064A136003F020FEFEE700BF52
:1004A000B400002034010020F085000899070008FE
:1004B0003001002080B596B000AF07F1140344224C
:1004C0000021184607F034FF3B4600221A605A60AC
:1004D0009A60DA601A614FF4007002F0D3FB0346B1
:1004E000002B01D000F060F910237B610123FB6237
:1004F00000233B6360237B630223FB6301233B6494
:1005000001237B642823BB640723FB6402233B6530
:1005100002237B6507F11403184602F013FF03461C
:10052000002B01D000F040F90F233B6003237B60D8
:100530000023BB600023FB6000233B613B4604219A
:10054000184603F013FB0346002B01D000F02CF9F2
:1005500000BF5837BD4680BD80B500AF174B184A65
:100560001A60164B32225A60144B00229A60134BC9
:100570000022DA60114B4FF440221A610F4B4FF406
:1005800080125A610D4B00221A760C4B00225A76CB
:100590000A4B00229A76094B0022DA76074B00229A
:1005A0001A77064B00225A77044800F056FF03469C
:1005B000002B01D000F0F8F800BF80BDB40000208F
:1005C0000064004080B500AF1B4B1C4A1A601A4BF8
:1005D0001B4A5A60184B00229A60174B0122DA60BE
:1005E000154B00221A61144B00225A61124B002253
:1005F0009A61114B0022DA610F4B00221A620E48F9
:1006000001F0A9FE0346002B01D000F0CDF8002137
:10061000094801F009FE0346002B01D000F0C4F8A0
:100620000021054801F04BFE0346002B01D000F0ED
:10063000BBF800BF80BD00BFDC00002000540040BC
:10064000EC9C901080B58AB000AF07F11403002233
:100650001A605A609A60DA601A614B4BDB6C4A4A46
:1006600043F00403D364484BDB6C03F004033B61A9
:100670003B69454BDB6C444A43F00103D364424B76
:10068000DB6C03F00103FB60FB683F4BDB6C3E4A15
:1006900043F00203D3643C4BDB6C03F00203BB600A
:1006A000BB68394BDB6C384A43F00803D364364BE4
:1006B000DB6C03F008037B607B6800224FF4FC7165
:1006C000324801F099FD002240F23F114FF0904076
:1006D00001F092FD002248F237312D4801F08CFDE7
:1006E000002204212B4801F087FD4FF4FC737B614D
:1006F0000123BB610023FB6100233B6207F114036C
:100700001946224801F0FEFB40F23F137B610123B2
:10071000BB610023FB6100233B6207F11403194610
:100720004FF0904001F0EEFB48F237337B6101233C
:10073000BB610023FB6100233B6207F114031946F0
:10074000134801F0DFFB4FF400737B614FF4881313
:10075000BB610023FB6107F1140319460B4801F04C
:10076000D1FB04237B610123BB610023FB610023D8
:100770003B6207F114031946064801F0C3FB00BFB2
:100780002837BD4680BD00BF001002400008004869
:1007900000040048000C004880B582B000AF7860CB
:1007A000012003F053FDFBE780B400AF72B600BF39
:1007B000FEE780B586B000AF78600023FB75142398
:1007C0003B61C823FB6001224FF480714FF09040E1
:1007D00001F012FD0A2003F039FDF4E780B58EB078
:1007E00002AF78600023FB73002387F82F301423B7
:1007F0007B61C8233B6107F10F03012200920022B5
:100800000521112007F016F9FB7B97F82F209A425B
:1008100000F06981FB7B102B34D1012204214FF0C1
:10082000904001F0E9FC012202214FF0904001F0DC
:10083000E3FC012201214FF0904001F0DDFC012298
:100840000221AB4801F0D8FC386903F0FFFC00221C
:1008500004214FF0904001F0CFFC002202214FF024
:10086000904001F0C9FC002201214FF0904001F0BE
:10087000C3FC002202219E4801F0BEFC386903F04F
:10088000E5FC2DE1FB7B112B2AD1012204214FF045
:10089000904001F0B1FC012202214FF0904001F0A4
:1008A000ABFC012220214FF0904001F0A5FC7869BB
:1008B00003F0CCFC002204214FF0904001F09CFC9E
:1008C000002202214FF0904001F096FC00222021EE
:1008D0004FF0904001F090FC386903F0B7FCFFE066
:1008E000FB7B132B21D10023BB6214E001222021CA
:1008F0004FF0904001F080FC786903F0A7FC0022E3
:1009000020214FF0904001F077FC786903F09EFCC5
:10091000BB6A0133BB62BB6A022BE7DD0122012106
:100920004FF0904001F068FCDAE0FB7B142B39D1EA
:1009300000237B6214E0012220214FF0904001F05F
:100940005BFC786903F082FC002220214FF090408C
:1009500001F052FC386903F079FC7B6A01337B6259
:100960007B6A012BE7DD002201214FF0904001F06E
:1009700043FC002210214FF0904001F03DFC00228A
:1009800020214FF0904001F037FC002204214FF06D
:10099000904001F031FC002202214FF0904001F024
:1009A0002BFC9DE0FB7B162B27D100233B6220E034
:1009B000012204214FF0904001F01EFC012202218F
:1009C0004FF0904001F018FC786903F03FFC0022E2
:1009D00004214FF0904001F00FFC002202214FF063
:1009E000904001F009FC386903F030FC3B6A0133A8
:1009F0003B623B6A022BDBDD72E0FB7B172B1BD1DA
:100A00000023FB6114E0012210214FF0904001F01F
:100A1000F3FB786903F01AFC002210214FF090409C
:100A200001F0EAFB386903F011FCFB690133FB615B
:100A3000FB69012BE7DD53E0FB7B182B50D1002332
:100A4000BB612CE0012210214FF0904001F0D4FB5B
:100A5000012204214FF0904001F0CEFB012202213F
:100A60004FF0904001F0C8FB786903F0EFFB0022E3
:100A700010214FF0904001F0BFFB002204214FF005
:100A8000904001F0B9FB002202214FF0904001F0AC
:100A9000B3FB386903F0DAFBBB690133BB61BB69A7
:100AA000012BCFDD002201214FF0904001F0A4FB8B
:100AB000002210214FF0904001F09EFB00222021E7
:100AC0004FF0904001F098FB002204214FF090403D
:100AD00001F092FB002202214FF0904001F08CFBCC
:100AE000FB7B87F82F300A2003F0B0FB8CE600BFB9
:100AF0000004004880B58CB002AF7860002387F80E
:100B0000273014233B61C823FB6007F10B0301224C
:100B1000009200220621112006F08CFFFB7A97F844
:100B200027209A4200F0B480FB7A102B1BD10023BF
:100B30003B6214E0012204214FF0904001F05CFB85
:100B4000386903F083FB002204214FF0904001F04C
:100B500053FBF86803F07AFB3B6A01333B623B6A64
:100B6000012BE7DD91E0FB7A112B1BD10023FB6108
:100B700014E0012202214FF0904001F03DFB386962
:100B800003F064FB002202214FF0904001F034FB9F
:100B9000F86803F05BFBFB690133FB61FB69022B27
:100BA000E7DD72E0FB7A122B2DD10023BB6126E03A
:100BB000012220214FF0904001F01EFBF86803F065
:100BC00045FB002220214FF0904001F015FBF86812
:100BD00003F03CFB012220214FF0904001F00CFB80
:100BE000386903F033FB002220214FF0904001F0E0
:100BF00003FBF86803F02AFBBB690133BB61BB69E7
:100C0000022BD5DD41E0FB7A132B3ED100237B6123
:100C100038E0012220214FF0904001F0EDFA3869D0
:100C200003F014FB002220214FF0904001F0E4FA81
:100C3000F86803F00BFB012220214FF0904001F0F7
:100C4000DBFA386903F002FB002220214FF09040CC
:100C500001F0D2FAF86803F0F9FA012220214FF0EE
:100C6000904001F0C9FAF86803F0F0FA0022202160
:100C70004FF0904001F0C0FAF86803F0E7FA7B69A2
:100C800001337B617B69012BC3DDFB7A87F8273059
:100C90000A2003F0DBFA41E780B586B002AF786046
:100CA0000023BB730023FB7307F10E0301220092A4
:100CB00000220721112006F0BDFEBB7BFA7B9A4281
:100CC00011D0BB7B102B06D101224FF40041084804
:100CD00001F092FA05E000224FF40041044801F0CF
:100CE0008BFABB7BFB730A2003F0B0FAE5E700BF89
:100CF0000004004880B588B002AF78600023FB7222
:100D00000023FB7514233B61C823FB6007F10B0331
:100D10000122009200220821112006F08BFEFB7AAE
:100D2000102B2FD1012240211C4801F065FA01222D
:100D300004214FF0904001F05FFA012202214FF0B0
:100D4000904001F059FA012220214FF0904001F02B
:100D500053FA386903F07AFA002204214FF09040E8
:100D600001F04AFA002202214FF0904001F044FACB
:100D7000002220214FF0904001F03EFAF86803F085
:100D800065FA04E000224021044801F035FAFB7ABC
:100D9000FB750A2003F05AFAC1E700BF00080048BB
:100DA00080B588B002AF78600023FB720023FB752A
:100DB00014233B61C823FB6007F10B03012200925F
:100DC00000220921112006F035FEFB7AFA7D9A42B5
:100DD0005FD0FB7A102B3ED101224FF400412F4807
:100DE00001F00AFA002240212D4801F005FA012203
:100DF00080212B4801F000FA00224FF4807128482E
:100E000001F0FAF901224FF40071254801F0F4F9DC
:100E1000F86803F01BFA00224FF400411F4801F06C
:100E2000EBF9012240211E4801F0E6F90022802161
:100E30001B4801F0E1F901224FF48071184801F0DC
:100E4000DBF900224FF40071154801F0D5F9F8687C
:100E500003F0FCF91BE000224FF400410F4801F0C1
:100E6000CBF9002240210E4801F0C6F90022802172
:100E70000B4801F0C1F900224FF48071084801F0DD
:100E8000BBF900224FF40071054801F0B5F9FB7A77
:100E9000FB750A2003F0DAF997E700BF0004004869
:100EA0000008004880B58AB002AF78600023FB7369
:100EB0000023FB7714237B61C8233B6107F10F03F9
:100EC0000122009200221021112006F0B3FDFB7BCD
:100ED000FA7F9A4239D0FB7B102B16D101224FF4B6
:100EE00080711C4801F088F93A6913465B0013448D
:100EF000184603F0ABF900224FF48071154801F059
:100F00007BF9386903F0A2F91DE0FB7B112B1AD1A4
:100F10000023BB6114E001224FF480710D4801F001
:100F20006BF9786903F092F900224FF48071094857
:100F300001F062F9386903F089F9BB690133BB61DB
:100F4000BB69032BE7DD044BFB770A2003F07EF936
:100F5000BDE700BF00080048A50E000880B58AB0B4
:100F600002AF78600023FB730023FB7714237B61BF
:100F7000C8233B6107F10F030122009200221121D7
:100F8000112006F057FDFB7BFA7F9A4238D0FB7B9D
:100F9000102B14D1012280211B4801F02DF93A6950
:100FA00013465B001344184603F050F900228021D9
:100FB000154801F021F9386903F048F91EE0FB7B80
:100FC000112B1BD10023BB6112E0012280210E48AE
:100FD00001F012F9786903F039F9002280210A48FA
:100FE00001F00AF9386903F031F9BB690133BB61DB
:100FF000BB69032BE9DD0A2003F028F9FB7BFB77B3
:101000000A2003F023F9BEE70008004880B588B045
:1010100002AF78600023FB720023FB7507F10B031E
:101020000122009200221221112006F003FD142358
:101030003B61C823FB60FB7AFA7D9A4227D0FB7A9A
:10104000102B06D101224FF40071134801F0D4F89F
:101050001BE0FB7A112B12D101224FF400710E48D4
:1010600001F0CAF8F86803F0F1F800224FF40071BB
:10107000094801F0C1F8F86803F0E8F805E000223B
:101080004FF40071044801F0B7F8FB7AFB750A20B1
:1010900003F0DCF8CFE700BF0008004880B588B057
:1010A00002AF78600023FB744FF000037B6107F10F
:1010B00013030122009200221321112006F0BAFC32
:1010C0000B4B7B6197ED050A052006F035FE1323D7
:1010D0003B7200237B7207F10802022313211120C7
:1010E00006F016FC4FF47A7003F0B0F8E8E700BFA2
:1010F00000004A4280B500AF284A0021284803F08A
:1011000013F80346274A1360274A0021274803F0B3
:101110000BF80346264A1360264A0021264803F0AE
:1011200003F80346254A1360254A0021254802F0AA
:10113000FBFF0346244A1360244A0021244802F09E
:10114000F3FF0346234A1360234A0021234802F099
:10115000EBFF0346224A1360224A0021224802F094
:10116000E3FF0346214A1360214A0021214802F08F
:10117000DBFF0346204A1360204A0021204802F08A
:10118000D3FF03461F4A13601F4A00211F4802F085
:10119000CBFF03461E4A136000BF80BD388600089F
:1011A000DD0700084001002014860008B30700088E
:1011B0003C0100205C860008F50A0008440100207C
:1011C00080860008990C000848010020A4860008C9
:1011D000F50C00084C010020C8860008A10D00088D
:1011E00050010020108700085D0F00085801002002
:1011F000EC860008A50E0008540100203487000882
:101200000D1000085C010020588700089D100008A0
:101210006001002080B582B000AF114B1B6E104AF8
:1012200043F0010313660E4B1B6E03F001037B605A
:101230007B680B4B9B6D0A4A43F080539365084BC8
:101240009B6D03F080533B603B6800220F216FF0E1
:10125000010000F02EFE00BF0837BD4680BD00BF74
:101260000010024080B58AB000AF786007F1140327
:1012700000221A605A609A60DA601A617B681B6803
:10128000184A934229D1184B9B6D174A43F00073BB
:101290009365154B9B6D03F000733B613B69124BEB
:1012A000DB6C114A43F00103D3640F4BDB6C03F09A
:1012B0000103FB60FB684FF4C0537B610223BB61F9
:1012C0000023FB6103233B6209237B6207F11403C4
:1012D00019464FF0904000F015FE00BF2837BD467C
:1012E00080BD00BF006400400010024080B5A0B087
:1012F00000AF786007F16C0300221A605A609A60B0
:10130000DA601A6107F110035C220021184607F029
:101310000FF87B681B681E4A934235D140233B611E
:1013200000233B6407F11003184601F001FD03465A
:10133000002B01D0FFF738FA164BDB6C154A43F04F
:101340000203D364134BDB6C03F00203FB60FB6806
:10135000C023FB6612233B6700237B670323BB6725
:101360000423FB6707F16C0319460B4800F0CAFD24
:10137000084B9B6D074A43F400139365054B9B6D27
:1013800003F40013BB60BB6800BF8037BD4680BD5F
:1013900000540040001002400004004880B400AF38
:1013A000FEE780B400AFFEE780B400AFFEE780B494
:1013B00000AFFEE780B400AFFEE780B400AF00BF2F
:1013C000BD465DF8047B704780B500AF02F00EFEAD
:1013D00005F08CFC0346012B01D003F035FC00BF67
:1013E00080BD000080B400AF064BD3F88830054ABA
:1013F00043F47003C2F8883000BFBD465DF8047B3B
:10140000704700BF00ED00E0DFF834D0FFF7EAFFDF
:101410000C480D490D4A002302E0D458C45004334F
:10142000C4188C42F9D30A4A0A4C002301E0136025
:101430000432A242FBD306F047FFFEF7F7FFFEE7B8
:10144000000001200000002078000020B48800087F
:10145000780000207C860020FEE780B584B000AFD5
:1014600078607B68002B01D10123EDE07B6893F865
:101470002030DBB2002B02D17868FFF7F3FE7B68E7
:101480001B681A687B681B6842F001021A6002F050
:10149000C1FDF86012E002F0BDFD0246FB68D31A00
:1014A0000A2B0BD97B685B6A43F400327B685A6273
:1014B0007B68052283F820200123C5E07B681B6838
:1014C0005B6803F00103002BE5D07B681B681A689A
:1014D0007B681B6822F002021A6002F09BFDF86034
:1014E00012E002F097FD0246FB68D31A0A2B0BD9D3
:1014F0007B685B6A43F400327B685A627B68052232
:1015000083F8202001239FE07B681B685B6803F061
:101510000203002BE5D17B681B7E012B08D17B6881
:101520001B681A687B681B6842F080021A6007E03B
:101530007B681B681A687B681B6822F080021A604F
:101540007B685B7E012B08D17B681B681A687B680F
:101550001B6842F040021A6007E07B681B681A684B
:101560007B681B6822F040021A607B689B7E012B1F
:1015700008D17B681B681A687B681B6842F02002F0
:101580001A6007E07B681B681A687B681B6822F09A
:1015900020021A607B68DB7E012B08D17B681B6808
:1015A0001A687B681B6822F010021A6007E07B68EB
:1015B0001B681A687B681B6842F010021A607B681F
:1015C0001B7F012B08D17B681B681A687B681B682E
:1015D00042F008021A6007E07B681B681A687B68A3
:1015E0001B6822F008021A607B685B7F012B08D120
:1015F0007B681B681A687B681B6842F004021A60EB
:1016000007E07B681B681A687B681B6822F004028D
:101610001A607B689A687B68DB681A437B681B6981
:101620001A437B685B6942EA03017B685B685A1E68
:101630007B681B680A43DA617B6800225A627B6818
:10164000012283F82020002318461037BD4680BDB4
:1016500080B487B000AF786039607B681B687B61BD
:101660007B6893F82030FB74FB7C012B03D0FB7C60
:10167000022B40F0AA807B69D3F8003243F00102CC
:101680007B69C3F800223B685B6903F01F030122FA
:1016900002FA03F3FB607B69D3F81C22FB68DB438F
:1016A0001A407B69C3F81C223B68DB69002B23D1FD
:1016B0007B69D3F80C22FB68DB431A407B69C3F8D3
:1016C0000C223B68DB6819043B685B689BB23A6894
:1016D000526919437B69483243F832103B689B6872
:1016E00019043B681B689AB23B685B690A437969D5
:1016F0004833DB000B445A603B68DB69012B22D185
:101700007B69D3F80C22FB681A437B69C3F80C226F
:101710003B681B6819043B685B689BB23A68526976
:1017200019437B69483243F832103B689B681904BF
:101730003B68DB689AB23B685B690A437969483366
:10174000DB000B445A603B689B69002B09D17B6925
:10175000D3F80422FB68DB431A407B69C3F80422F8
:1017600007E07B69D3F80422FB681A437B69C3F85E
:1017700004223B681B69002B09D17B69D3F8142232
:10178000FB68DB431A407B69C3F8142207E07B69DE
:10179000D3F81422FB681A437B69C3F814223B6810
:1017A0001B6A012B07D17B69D3F81C22FB681A4303
:1017B0007B69C3F81C227B69D3F8003223F0010255
:1017C0007B69C3F80022002306E07B685B6A43F470
:1017D00080227B685A62012318461C37BD465DF89B
:1017E000047B704780B584B000AF78607B6893F865
:1017F0002030DBB2012B2ED17B68022283F820201F
:101800007B681B681A687B681B6822F001021A60FB
:1018100002F000FCF86012E002F0FCFB0246FB68FC
:10182000D31A0A2B0BD97B685B6A43F400327B68BE
:101830005A627B68052283F82020012312E07B682E
:101840001B685B6803F00103002BE5D17B68002275
:101850005A62002306E07B685B6A43F400227B68DF
:101860005A62012318461037BD4680BD80B489B046
:1018700000AFF860B9607A603B60FB6893F8203095
:10188000FB77FB681B689B68BB61FB7F012B03D068
:10189000FB7F022B40F0AD80BB6903F08063002B1F
:1018A0000AD1BB6903F00063002B05D1BB6903F0CB
:1018B0008053002B00F09580BB691B0E03F00303DF
:1018C0007B6101227B699A403B681A60BB689B6818
:1018D000002B0DD1BB681B685A05BB68DB68F96833
:1018E00009681A437B6918331B010B441A600FE027
:1018F000BB685B68DA00BB689B681A43BB68DB683F
:10190000F96809681A437B6918331B010B441A6094
:10191000FB681968BB681A697B6918331B010B44A3
:1019200004331A60BB681B7D012B11D1FB681A6858
:101930007B6918331B01134404331B68FA68116870
:1019400043F480727B6918331B010B4404331A6023
:101950007B6807331B781A067B6806331B781B04E9
:101960001A437B6805331B781B0213437A680432E1
:1019700012781046FA68116843EA00027B691B017D
:101980000B4403F5C6731A607B6803331B781A0691
:101990007B6802331B781B041A437B6801331B7876
:1019A0001B0213437A6812781046FA68116843EAFA
:1019B00000027B691B010B4403F5C4731A60FB68CA
:1019C0001A687B6918331B0113441B68FA68116895
:1019D00043F001027B6918331B010B441A6000239A
:1019E0000EE0FB685B6A43F40012FB685A62012355
:1019F00006E0FB685B6A43F48022FB685A620123BD
:101A000018462437BD465DF8047B704780B485B026
:101A100000AF78600023FB607B6893F82030FB7296
:101A2000FB7A012B02D0FB7A022B1DD17B681B684D
:101A30009B6803F08063002B02D0FB680133FB60DE
:101A40007B681B689B6803F00063002B02D0FB6877
:101A50000133FB607B681B689B6803F08053002B9D
:101A600002D0FB680133FB60FB6818461437BD46A3
:101A70005DF8047B704780B487B000AFF860B96050
:101A80007A603B60FB6893F82030FB75FB7D012B8F
:101A900003D0FB7D022B40F0F380BB68002B0ED1FE
:101AA000FB681B68DB6803F00303002B16D1FB689F
:101AB0005B6A43F40012FB685A620123E7E0FB68AB
:101AC0001B681B6903F00303002B07D1FB685B6AEB
:101AD00043F40012FB685A620123D8E0FB681A68DD
:101AE000BB681B331B0113441B6803F004027B68B3
:101AF0009A607B689B68002B0CD1FB681A68BB68F6
:101B00001B331B0113441B685B0DC3F30A027B6884
:101B10001A600BE0FB681A68BB681B331B01134497
:101B20001B68DB0823F060427B685A60FB681A6818
:101B3000BB681B331B0113441B6803F002027B6864
:101B4000DA60FB681A68BB681B331B01134404335B
:101B50001B6803F00F027B681A61FB681A68BB6898
:101B60001B331B01134404331B681B0ADAB27B6866
:101B70009A61FB681A68BB681B331B01134404336A
:101B80001B681B0C9AB27B685A61FB681A68BB68B9
:101B90001B01134403F5DC731B68DAB23B681A704F
:101BA000FB681A68BB681B01134403F5DC731B68F0
:101BB0001A0A3B680133D2B21A70FB681A68BB6814
:101BC0001B01134403F5DC731B681A0C3B680233DA
:101BD000D2B21A70FB681A68BB681B01134403F584
:101BE000DC731B681A0E3B680333D2B21A70FB68B1
:101BF0001A68BB681B01134403F5DE731A683B685F
:101C00000433D2B21A70FB681A68BB681B01134414
:101C100003F5DE731B681A0A3B680533D2B21A70EB
:101C2000FB681A68BB681B01134403F5DE731B686D
:101C30001A0C3B680633D2B21A70FB681A68BB688C
:101C40001B01134403F5DE731B681A0E3B68073350
:101C5000D2B21A70BB68002B08D1FB681B68DA6827
:101C6000FB681B6842F02002DA6007E0FB681B6833
:101C70001A69FB681B6842F020021A61002306E023
:101C8000FB685B6A43F48022FB685A6201231846B2
:101C90001C37BD465DF8047B704780B485B000AF4B
:101CA000786039600023FB607B6893F82030FB721A
:101CB000FB7A012B02D0FB7A022B0FD13B68002B61
:101CC00006D17B681B68DB6803F00303FB6005E05B
:101CD0007B681B681B6903F00303FB60FB68184605
:101CE0001437BD465DF8047B704780B485B000AF03
:101CF000786039607B6893F82030FB73FB7B012BA5
:101D000002D0FB7B022B09D17B681B6859697B6879
:101D10001B683A680A435A61002306E07B685B6AE5
:101D200043F480227B685A62012318461437BD466B
:101D30005DF8047B7047000080B485B000AF786028
:101D40007B6803F00703FB600C4BDB68BB60BA6881
:101D50004FF6FF031340BB60FB681A02BB681343D6
:101D600043F0BF6343F40033BB60044ABB68D360F5
:101D700000BF1437BD465DF8047B704700ED00E0FE
:101D800080B400AF044BDB681B0A03F0070318465E
:101D9000BD465DF8047B704700ED00E080B483B081
:101DA00000AF03463960FB7197F90730002B0ADB5F
:101DB0003B68DAB20C4997F907301201D2B20B44F2
:101DC00083F800230AE03B68DAB20849FB7903F0A4
:101DD0000F03043B1201D2B20B441A7600BF0C373A
:101DE000BD465DF8047B704700E100E000ED00E0D7
:101DF00080B489B000AFF860B9607A60FB6803F026
:101E00000703FB61FB69C3F10703042B28BF04230D
:101E1000BB61FB690433062B02D9FB69033B00E07D
:101E200000237B614FF0FF32BB6902FA03F3DA4310
:101E3000BB681A407B699A404FF0FF317B6901FA19
:101E400003F3D9437B680B40134318462437BD4640
:101E50005DF8047B7047000080B582B000AF786009
:101E60007B68013BB3F1807F01D301230FE00A4A75
:101E70007B68013B53600F214FF0FF30FFF78EFF6F
:101E8000054B00229A60044B07221A600023184673
:101E90000837BD4680BD00BF10E000E080B582B0CD
:101EA00000AF78607868FFF747FF00BF0837BD468E
:101EB00080BD80B586B000AF0346B9607A60FB7321
:101EC00000237B61FFF75CFF78617A68B968786905
:101ED000FFF78EFF024697F90F3011461846FFF7BD
:101EE0005DFF00BF1837BD4680BD80B582B000AF32
:101EF00078607868FFF7B0FF034618460837BD469C
:101F000080BD000080B487B000AF786039600023E6
:101F10007B6154E13B681A6801217B6901FA03F394
:101F20001340FB60FB68002B00F046813B685B6858
:101F300003F00303012B05D03B685B6803F0030348
:101F4000022B30D17B689B683B617B695B0003227D
:101F500002FA03F3DB433A6913403B613B68DA68FA
:101F60007B695B0002FA03F33A6913433B617B68C8
:101F70003A699A607B685B683B6101227B6902FA7F
:101F800003F3DB433A6913403B613B685B681B0921
:101F900003F001027B6902FA03F33A6913433B61E0
:101FA0007B683A695A603B685B6803F00303032B64
:101FB00017D07B68DB683B617B695B00032202FA18
:101FC00003F3DB433A6913403B613B689A687B69E2
:101FD0005B0002FA03F33A6913433B617B683A6999
:101FE000DA603B685B6803F00303022B23D17B6953
:101FF000DA087B68083253F822303B617B6903F0D2
:1020000007039B000F2202FA03F3DB433A691340F4
:102010003B613B681A697B6903F007039B0002FA86
:1020200003F33A6913433B617B69DA087B68083242
:10203000396943F822107B681B683B617B695B0050
:10204000032202FA03F3DB433A6913403B613B6826
:102050005B6803F003027B695B0002FA03F33A69F1
:1020600013433B617B683A691A603B685B6803F421
:102070004033002B00F0A080584B1B6E574A43F0B2
:1020800001031366554B1B6E03F00103BB60BB6875
:10209000534A7B699B08023352F823303B617B69CA
:1020A00003F003039B000F2202FA03F3DB433A69B8
:1020B00013403B617B68B3F1904F19D07B68494A6C
:1020C000934213D07B68484A93420DD07B68474ABD
:1020D000934207D07B68464A934201D1042308E02B
:1020E000072306E0032304E0022302E0012300E0CB
:1020F00000237A6902F00302920093403A69134385
:102100003B6137497B699B0802333A6941F82320D8
:10211000384B9B683B61FB68DB433A6913403B618A
:102120003B685B6803F48013002B03D03A69FB68BB
:1021300013433B612F4A3B6993602E4BDB683B6145
:10214000FB68DB433A6913403B613B685B6803F41F
:102150000013002B03D03A69FB6813433B61254A07
:102160003B69D360234B5B683B61FB68DB433A69A7
:1021700013403B613B685B6803F40033002B03D0E2
:102180003A69FB6813433B611A4A3B695360194B38
:102190001B683B61FB68DB433A6913403B613B686A
:1021A0005B6803F48033002B03D03A69FB68134368
:1021B0003B61104A3B6913607B6901337B613B687B
:1021C0001A687B6922FA03F3002B7FF4A3AE00BFE9
:1021D00000BF1C37BD465DF8047B7047001002400D
:1021E000000001400004004800080048000C0048BE
:1021F000001000480004014080B483B000AF786054
:102200000B467B8013467B707B78002B03D07A884B
:102210007B689A6102E07A887B689A6200BF0C371B
:10222000BD465DF8047B704780B483B000AF786032
:1022300039607B6893F84130DBB2202B38D17B6862
:1022400093F84030012B01D1022332E07B68012258
:1022500083F840207B68242283F841207B681B6838
:102260001A687B681B6822F001021A607B681B6891
:102270001A687B681B6822F480521A607B681B68AE
:1022800019687B681B683A680A431A607B681B6898
:102290001A687B681B6842F001021A607B68202282
:1022A00083F841207B68002283F84020002300E06F
:1022B000022318460C37BD465DF8047B704780B496
:1022C00085B000AF786039607B6893F84130DBB24D
:1022D000202B39D17B6893F84030012B01D10223A8
:1022E00033E07B68012283F840207B68242283F856
:1022F00041207B681B681A687B681B6822F001021A
:102300001A607B681B681B68FB60FB6823F47063C2
:10231000FB603B681B02FA681343FB607B681B6829
:10232000FA681A607B681B681A687B681B6842F051
:1023300001021A607B68202283F841207B6800221A
:1023400083F84020002300E0022318461437BD46DE
:102350005DF8047B704780B582B000AF78607B6821
:10236000002B01D1012381E07B6893F84130DBB27F
:10237000002B06D17B68002283F840207868FEF7A6
:10238000B5FF7B68242283F841207B681B681A68AC
:102390007B681B6822F001021A607B685A687B68C0
:1023A0001B6822F070621A617B681B689A687B6800
:1023B0001B6822F400429A607B68DB68012B07D11E
:1023C0007B689A687B681B6842F400429A6006E06A
:1023D0007B689A687B681B6842F404429A607B6859
:1023E000DB68022B04D17B681B684FF400625A60E3
:1023F0007B681B685B687A68126843F0007343F47B
:10240000004353607B681B68DA687B681B6822F4B2
:102410000042DA607B681A697B685B6942EA030103
:102420007B689B691A027B681B680A43DA607B68D9
:10243000D9697B681A6A7B681B680A431A607B68E3
:102440001B681A687B681B6842F001021A607B688F
:1024500000225A647B68202283F841207B68002296
:102460001A637B68002283F842200023184608374D
:10247000BD4680BD80B588B002AFF8607A601A466C
:102480000B467B8113463B81FB6893F84130DBB2FE
:10249000202B40F0DA80FB6893F84030012B01D10B
:1024A0000223D3E0FB68012283F8402001F0B2FD53
:1024B00078617B690093192301224FF40041F86889
:1024C00000F0F7F90346002B01D00123BEE0FB68C2
:1024D000212283F84120FB68102283F84220FB6808
:1024E00000225A64FB687A685A62FB683A895A8506
:1024F000FB6800225A63FB685B8D9BB2FF2B0ED9F1
:10250000FB68FF221A85FB681B8DDAB27989514B73
:1025100000934FF08073F86800F074FB6CE0FB6888
:102520005B8D9AB2FB681A85FB681B8DDAB27989DC
:10253000484B00934FF00073F86800F063FB5BE0DA
:102540007A69396AF86800F0F4F90346002B01D083
:1025500001237BE0FB685B6A1A78FB681B689A6260
:10256000FB685B6A5A1CFB685A62FB685B8D9BB216
:10257000013B9AB2FB685A85FB681B8D013B9AB2FE
:10258000FB681A85FB685B8D9BB2002B34D0FB681F
:102590001B8D002B30D17B6900933B6A0022802188
:1025A000F86800F086F90346002B01D001234DE0C6
:1025B000FB685B8D9BB2FF2B0ED9FB68FF221A854F
:1025C000FB681B8DDAB27989002300934FF080738A
:1025D000F86800F017FB0FE0FB685B8D9AB2FB68B0
:1025E0001A85FB681B8DDAB27989002300934FF0BE
:1025F0000073F86800F006FBFB685B8D9BB2002B54
:102600009ED17A69396AF86800F0D3F90346002B45
:1026100001D001231AE0FB681B682022DA61FB6805
:102620001B685968FB681A680B4B0B405360FB68CA
:10263000202283F84120FB68002283F84220FB68B7
:10264000002283F84020002300E0022318461837B8
:10265000BD4680BD0020008000E800FE80B58AB045
:1026600002AFF8607A603B600B467B8100237B61A0
:10267000FB6893F84130DBB2202B40F0F180FB681F
:102680001B689B6903F40043B3F5004F01D102239B
:10269000E7E0FB6893F84030012B01D10223E0E032
:1026A000FB68012283F84020FB68242283F8412044
:1026B000FB6800225A64FB68DB68012B07D17B8929
:1026C000C3F3090343F0007343F4005304E07B8930
:1026D000C3F3090343F42053FA681268536001F00E
:1026E00099FCB861FB681B689B6903F02003202BF1
:1026F0000CBF01230023DBB2FB77FB681B689B69DF
:1027000003F01003102B0CBF01230023DBB2BB77B7
:1027100034E03B68B3F1FF3F1AD001F07BFC024686
:10272000BB69D31A3A689A4202D33B68002B0FD197
:10273000FB68202283F84120FB685B6C43F0200299
:10274000FB685A64FB68002283F84020012388E07C
:10275000FB681B689B6903F02003202B0CBF01233F
:102760000023DBB2FB77FB681B689B6903F0100357
:10277000102B0CBF01230023DBB2BB77FB7F002BA8
:1027800002D1BB7F002BC4D0FB681B689B6903F0A0
:102790001003102B1AD0BB6900933B680022202144
:1027A000F86800F086F80346002B01D0012358E0BA
:1027B000FB681B682022DA61FB68202283F8412035
:1027C000FB68002283F8402000234AE0BB690093A5
:1027D0003B6800222021F86800F06BF80346002BCC
:1027E00001D001233DE0FB681B681022DA61FB6821
:1027F0001B682022DA617B697A689A4218D1FB68EB
:102800001B685A68FB681B6842F480425A60BB69C7
:1028100000933B6800222021F86800F04AF8034644
:10282000002B01D001231CE0FB681B682022DA6129
:102830007B6901337B617B697A689A423FF63BAFE3
:10284000FB68202283F84120FB685B6C43F0200288
:10285000FB685A64FB68002283F84020012300E0F3
:10286000022318462037BD4680BD80B483B000AF38
:1028700078607B681B689B6903F00203022B03D11D
:102880007B681B6800229A627B681B689B6903F067
:102890000103012B07D07B681B689A697B681B6862
:1028A00042F001029A6100BF0C37BD465DF8047B1F
:1028B000704780B584B000AFF860B9603B601346E4
:1028C000FB7122E03B68B3F1FF3F1ED001F0A2FB99
:1028D0000246BB69D31A3A689A4202D33B68002B7E
:1028E00013D1FB685B6C43F02002FB685A64FB6801
:1028F000202283F84120FB68002283F84220FB68F5
:10290000002283F8402001230FE0FB681B689A69CE
:10291000BB681340BA689A420CBF01230023DBB2A4
:102920001A46FB799A42CDD0002318461037BD468F
:1029300080BD80B584B000AFF860B9607A602CE0EB
:102940007A68B968F86800F071F80346002B01D086
:1029500001232AE0BB68B3F1FF3F1ED001F05AFB10
:1029600002467B68D31ABA689A4202D3BB68002B2E
:1029700013D1FB685B6C43F02002FB685A64FB6870
:10298000202283F84120FB68002283F84220FB6864
:10299000002283F84020012307E0FB681B689B6945
:1029A00003F00203022BCBD1002318461037BD469B
:1029B00080BD80B584B000AFF860B9607A6028E06F
:1029C0007A68B968F86800F031F80346002B01D046
:1029D000012326E001F01EFB02467B68D31ABA6889
:1029E0009A4202D3BB68002B13D1FB685B6C43F0A7
:1029F0002002FB685A64FB68202283F84120FB68B0
:102A0000002283F84220FB68002283F84020012343
:102A100007E0FB681B689B6903F02003202BCFD1E4
:102A2000002318461037BD4680BD000080B58AB02F
:102A300000AFF860B9607A60002387F82730FB6840
:102A40001B689B69BB6100233B627B68FB61BB69C0
:102A500003F01003002B75D0FB681B681022DA61AD
:102A600056E0BB68B3F1FF3F52D001F0D3FA024603
:102A7000FB69D31ABA689A4202D3BB68002B47D1CC
:102A8000FB681B685B6803F480437B61FB6893F819
:102A90004230FB74FB681B689B6903F40043B3F589
:102AA000004F2ED17B69B3F5804F2AD0FB7C202BC1
:102AB00027D0FB681B685A68FB681B6842F4804299
:102AC0005A6001F0A7FAF8611BE001F0A3FA024690
:102AD000FB69D31A192B14D9FB685B6C43F02002F5
:102AE000FB685A64FB68202283F84120FB680022BF
:102AF00083F84220FB68002283F84020012387F8F6
:102B00002730FB681B689B6903F02003202BDCD176
:102B1000FB681B689B6903F02003202B03D097F808
:102B20002730002B9DD097F82730002B03D1FB686E
:102B30001B682022DA613B6A43F004033B620123F5
:102B400087F82730FB681B689B69BB61BB6903F48E
:102B50008073002B0BD03B6A43F001033B62FB68A0
:102B60001B684FF48072DA61012387F82730BB6954
:102B700003F48063002B0BD03B6A43F008033B62F5
:102B8000FB681B684FF48062DA61012387F8273005
:102B9000BB6903F40073002B0BD03B6A43F00203C4
:102BA0003B62FB681B684FF40072DA61012387F80F
:102BB000273097F82730002B1CD0F868FFF755FE18
:102BC000FB681B685968FB681A680D4B0B40536023
:102BD000FB685A6C3B6A1A43FB685A64FB68202204
:102BE00083F84120FB68002283F84220FB68002222
:102BF00083F8402097F8273018462837BD4680BD17
:102C000000E800FE80B487B000AFF8607B600B4640
:102C10007B8113467B727B89C3F309027B7A1B0499
:102C200003F47F031A437B681A433B6A134323F080
:102C300000437B61FB681B685A683B6A5B0D03F4C9
:102C40008061084B0B43DB4302EA0301FB681B680E
:102C50007A690A435A6000BF1C37BD465DF8047BA1
:102C6000704700BFFF63FF0380B400AF044B1B68D5
:102C700003F4C0631846BD465DF8047B704700BF8F
:102C80000070004080B485B000AF78607B68B3F519
:102C9000007F30D1234B1B6803F4C063B3F5007F82
:102CA00038D0204B1B6823F4C0631E4A43F40073E2
:102CB00013601D4B1B68322202FB03F31B4AA2FB6D
:102CC00003239B0C0133FB6002E0FB68013BFB60CC
:102CD000144B5B6903F48063B3F5806F02D1FB682A
:102CE000002BF2D10F4B5B6903F48063B3F5806F67
:102CF00010D103230FE00B4B1B6803F4C063B3F543
:102D0000806F07D0074B1B6823F4C063054A43F468
:102D100080631360002318461437BD465DF8047BBA
:102D2000704700BF007000400400002083DE1B439A
:102D300080B586B000AF78600023FB740023BB74BD
:102D40007B681B6803F40063002B31D07B685B6CED
:102D5000B3F5400F1AD0B3F5400F14D8002B09D0AB
:102D6000B3F5000F0FD15D4BDB685C4A43F4803351
:102D7000D3600CE07B6804330021184600F0F0F9C2
:102D80000346FB7403E00123FB7400E000BFFB7CFF
:102D9000002B0BD1514BD3F8883023F440027B68D1
:102DA0005B6C4E491343C1F8883001E0FB7CBB7477
:102DB0007B681B6803F40033002B00F09E80002327
:102DC0007B74464B9B6D03F08053002B01D1012394
:102DD00000E00023002B0DD0404B9B6D3F4A43F099
:102DE000805393653D4B9B6D03F08053BB60BB6884
:102DF00001237B743A4B1B68394A43F48073136098
:102E000001F008F9F86009E001F004F90246FB68F6
:102E1000D31A022B02D90323FB7405E0304B1B6845
:102E200003F48073002BEFD0FB7C002B5AD12B4B8B
:102E3000D3F8903003F440737B617B69002B1ED084
:102E40007B689B6D7A699A4219D0244BD3F89030F5
:102E500023F440737B61214BD3F890301F4A43F435
:102E60008033C2F890301D4BD3F890301B4A23F4C6
:102E70008033C2F89030194A7B69C2F890307B6980
:102E800003F00103002B16D001F0C4F8F8600BE04A
:102E900001F0C0F80246FB68D31A41F2883293422F
:102EA00002D90323FB7406E00C4BD3F8903003F0F7
:102EB0000203002BECD0FB7C002B0BD1074BD3F88B
:102EC000903023F440727B689B6D04491343C1F832
:102ED000903009E0FB7CBB7406E000BF00100240AC
:102EE00000700040FB7CBB747B7C012B05D19B4BAD
:102EF0009B6D9A4A23F0805393657B681B6803F0AF
:102F00000103002B0AD0954BD3F8883023F003023D
:102F10007B681B6A91491343C1F888307B681B6842
:102F200003F00203002B0AD08C4BD3F8883023F037
:102F30000C027B685B6A89491343C1F888307B685F
:102F40001B6803F00403002B0AD0844BD3F88830AD
:102F500023F030027B689B6A80491343C1F88830B4
:102F60007B681B6803F02003002B0AD07B4BD3F84F
:102F7000883023F440627B68DB6A78491343C1F8E8
:102F800088307B681B6803F40073002B0AD0734BF6
:102F9000D3F8883023F440227B68DB6B6F491343FE
:102FA000C1F888307B681B6803F48063002B0AD06B
:102FB0006A4BD3F8883023F440127B681B6C674956
:102FC0001343C1F888307B681B6803F04003002B73
:102FD0000AD0624BD3F8883023F440527B681B6BD5
:102FE0005E491343C1F888307B681B6803F0800397
:102FF000002B0AD0594BD3F8883023F440427B6829
:103000005B6B56491343C1F888307B681B6803F437
:103010008073002B0AD0514BD3F8883023F4403210
:103020007B689B6B4D491343C1F888307B681B68F4
:1030300003F40023002B28D0484BD3F8883023F02A
:1030400040627B689B6C45491343C1F888307B68BC
:103050009B6CB3F1006F06D1404BDB683F4A43F4F1
:103060008013D36011E07B689B6CB3F1806F0CD14F
:103070007B6804330121184600F072F80346FB74A4
:10308000FB7C002B01D0FB7CBB747B681B6803F4CA
:103090008023002B28D0314BD3F8883023F04062B6
:1030A0007B68DB6C2D491343C1F888307B68DB6C8F
:1030B000B3F1006F06D1294BDB68284A43F4801333
:1030C000D36011E07B68DB6CB3F1806F0CD17B685F
:1030D00004330121184600F043F80346FB74FB7CDF
:1030E000002B01D0FB7CBB747B681B6803F480431E
:1030F000002B1CD0194BD3F8883023F040527B684A
:103100001B6D16491343C1F888307B681B6DB3F102
:10311000805F0CD17B6804330221184600F020F850
:103120000346FB74FB7C002B01D0FB7CBB747B68EB
:103130001B6803F40043002B0AD0084BD3F88830F7
:1031400023F080427B685B6D04491343C1F88830EB
:10315000BB7C18461837BD4680BD00BF001002403A
:1031600080B584B000AF786039600023FB73744B86
:10317000DB6803F00303002B18D0714BDB6803F00E
:1031800003027B681B689A420DD17B681B68002B89
:1031900009D06B4BDB681B0903F007035A1C7B68E3
:1031A0005B689A4247D00123FB7344E07B681B684D
:1031B000032B18D0032B25D8012B02D0022B09D0CA
:1031C00020E05F4B1B6803F00203002B1DD101239D
:1031D000FB731AE05A4B1B6803F48063002B16D173
:1031E0000123FB7313E0564B1B6803F40033002BE1
:1031F0000FD1534B1B6803F48023002B09D101230B
:10320000FB7306E00123FB7304E000BF02E000BF94
:1032100000E000BFFB7B002B0DD1494BDB6823F0A6
:1032200073027B6819687B685B68013B1B010B4379
:1032300043491343CB60FB7B002B7CD1404B1B6885
:103240003F4A23F08063136000F0E4FEB86009E0B9
:1032500000F0E0FE0246BB68D31A022B02D903231A
:10326000FB7305E0364B1B6803F00063002BEFD1C6
:10327000FB7B002B5FD13B68002B10D1304B1B69CF
:1032800023F0784323F4FE437A68926811027A6847
:10329000D268D2060A432A4913430B6127E03B68F0
:1032A000012B12D1264B1B6923F4C00323F4FE43E8
:1032B0007A68926811027A6812695208013A5205D6
:1032C0000A431F4913430B6111E01D4B1B6923F097
:1032D000C06323F4FE437A68926811027A685269E7
:1032E0005208013A52060A43154913430B61144B25
:1032F0001B68134A43F08063136000F08BFEB860D4
:1033000009E000F087FE0246BB68D31A022B02D9FF
:103310000323FB7305E00A4B1B6803F00063002BDB
:10332000EFD0FB7B002B06D1054B1A697B689B69AC
:10333000034913430B61FB7B18461037BD4680BD24
:103340000010024080B588B000AF78607B68002B29
:1033500002D1012300F002BC964B9B6803F00C03E2
:10336000BB61944BDB6803F003037B617B681B68E4
:1033700003F01003002B00F0E480BB69002B07D0A2
:10338000BB690C2B40F08B807B69012B40F0878060
:10339000884B1B6803F00203002B05D07B689B69F8
:1033A000002B01D10123D9E37B681A6A814B1B688A
:1033B00003F00803002B04D07E4B1B6803F0F003DE
:1033C00005E07C4BD3F894301B0903F0F0039342E3
:1033D00023D27B681B6A184600F054FD0346002B7D
:1033E00001D00123BAE3734B1B68724A43F0080310
:1033F0001360704B1B6823F0F0027B681B6A6D49F9
:1034000013430B606B4B5B6823F47F427B68DB6983
:103410001B02684913434B6025E0664B1B68654AF5
:1034200043F008031360634B1B6823F0F0027B68D2
:103430001B6A604913430B605E4B5B6823F47F4259
:103440007B68DB691B025B4913434B60BB69002B44
:1034500009D17B681B6A184600F014FD0346002B57
:1034600001D001237AE300F081FC0246514B9B68B6
:103470001B0903F00F035049CB5C03F01F0322FA32
:1034800003F34E4A13604E4B1B68184600F072FD62
:103490000346FB73FB7B002B52D0FB7B5EE37B6818
:1034A0009B69002B32D0434B1B68424A43F0010317
:1034B000136000F0AFFD386108E000F0ABFD02469C
:1034C0003B69D31A022B01D9032347E3394B1B680D
:1034D00003F00203002BF0D0364B1B68354A43F053
:1034E00008031360334B1B6823F0F0027B681B6AF0
:1034F000304913430B602F4B5B6823F47F427B689A
:10350000DB691B022B4913434B601AE0294B1B68F4
:10351000284A23F00103136000F07CFD386108E0C5
:1035200000F078FD02463B69D31A022B01D9032330
:1035300014E3204B1B6803F00203002BF0D100E0E2
:1035400000BF7B681B6803F00103002B73D0BB69CD
:10355000082B05D0BB690C2B0ED17B69032B0BD13B
:10356000144B1B6803F40033002B63D07B685B684B
:10357000002B5FD10123F1E27B685B68B3F5803FEC
:1035800006D10C4B1B680B4A43F48033136025E0D3
:103590007B685B68B3F5A02F14D1064B1B68054A06
:1035A00043F480231360034B1B68024A43F48033C7
:1035B000136013E0001002407C8700080400002024
:1035C00008000020A04B1B689F4A23F4803313603F
:1035D0009D4B1B689C4A23F4802313607B685B68C7
:1035E000002B13D000F016FD386108E000F012FD4A
:1035F00002463B69D31A642B01D90323AEE2924BF6
:103600001B6803F40033002BF0D014E000F002FD3F
:10361000386108E000F0FEFC02463B69D31A642BD7
:1036200001D903239AE2884B1B6803F40033002B73
:10363000F0D100E000BF7B681B6803F00203002BA1
:1036400060D0BB69042B05D0BB690C2B19D17B69F9
:10365000022B16D17C4B1B6803F48063002B05D032
:103660007B68DB68002B01D1012377E2764B5B6836
:1036700023F0F8527B681B691B06734913434B60A8
:1036800040E07B68DB68002B23D06F4B1B686E4AE1
:1036900043F48073136000F0BDFC386108E000F073
:1036A000B9FC02463B69D31A022B01D9032355E228
:1036B000654B1B6803F48063002BF0D0624B5B68A2
:1036C00023F0F8527B681B691B065F4913434B606C
:1036D00018E05D4B1B685C4A23F48073136000F0B4
:1036E00099FC386108E000F095FC02463B69D31A6A
:1036F000022B01D9032331E2534B1B6803F480638F
:10370000002BF0D17B681B6803F00803002B3CD032
:103710007B685B69002B1CD04B4BD3F894304A4A32
:1037200043F00103C2F8943000F074FC386108E003
:1037300000F070FC02463B69D31A022B01D9032327
:103740000CE2414BD3F8943003F00203002BEFD08E
:103750001BE03D4BD3F894303B4A23F00103C2F801
:10376000943000F057FC386108E000F053FC02464A
:103770003B69D31A022B01D90323EFE1324BD3F873
:10378000943003F00203002BEFD17B681B6803F039
:103790000403002B00F0A6800023FB772A4B9B6DCF
:1037A00003F08053002B0DD1274B9B6D264A43F02D
:1037B00080539365244B9B6D03F08053BB60BB68C3
:1037C0000123FB77214B1B6803F48073002B18D176
:1037D0001E4B1B681D4A43F48073136000F01AFCF3
:1037E000386108E000F016FC02463B69D31A022B50
:1037F00001D90323B2E1154B1B6803F48073002B3E
:10380000F0D07B689B68012B08D10F4BD3F8903028
:103810000D4A43F00103C2F8903029E07B689B68B1
:10382000052B15D1084BD3F89030074A43F0040319
:10383000C2F89030044BD3F89030034A43F00103B0
:10384000C2F8903014E000BF001002400070004049
:103850009A4BD3F89030994A23F00103C2F8903084
:10386000964BD3F89030954A23F00403C2F8903079
:103870007B689B68002B16D000F0CCFB38610AE017
:1038800000F0C8FB02463B69D31A41F288329342EA
:1038900001D9032362E1894BD3F8903003F002038E
:1038A000002BEDD015E000F0B5FB38610AE000F028
:1038B000B1FB02463B69D31A41F28832934201D9E7
:1038C00003234BE17D4BD3F8903003F00203002B30
:1038D000EDD1FB7F012B05D1784B9B6D774A23F00F
:1038E000805393657B681B6803F02003002B3CD05A
:1038F0007B685B6A002B1CD0704BD3F898306F4A02
:1039000043F00103C2F8983000F084FB386108E00E
:1039100000F080FB02463B69D31A022B01D9032336
:103920001CE1664BD3F8983003F00203002BEFD074
:103930001BE0624BD3F89830604A23F00103C2F8D1
:10394000983000F067FB386108E000F063FB024646
:103950003B69D31A022B01D90323FFE0574BD3F85D
:10396000983003F00203002BEFD17B689B6A002B99
:1039700000F0F3807B689B6A022B40F0C9804F4BBC
:10398000DB687B617B6903F003027B68DB6A9A4238
:103990002CD17B6903F070027B681B6B013B1B0120
:1039A0009A4223D17B6903F4FE427B685B6B1B0266
:1039B0009A421BD17B6903F078427B689B6BDB06E4
:1039C0009A4213D17B6903F4C0027B68DB6B5B080E
:1039D000013B5B059A4209D17B6903F0C0627B68B9
:1039E0001B6C5B08013B5B069A426BD0BB690C2BDE
:1039F00062D0324B1B6803F08063002B01D001239F
:103A0000ACE02E4B1B682D4A23F08073136000F04E
:103A100001FB386108E000F0FDFA02463B69D31A69
:103A2000022B01D9032399E0244B1B6803F0007398
:103A3000002BF0D1214BDA68214B13407A68D16A10
:103A40007A68126B013A120111437A68526B1202C2
:103A500011437A68D26B5208013A520511437A68D1
:103A6000126C5208013A520611437A68926BD206E0
:103A70000A4312491343CB60104B1B680F4A43F0B3
:103A8000807313600D4BDB680C4A43F08073D36086
:103A900000F0C0FA386108E000F0BCFA02463B6969
:103AA000D31A022B01D9032358E0044B1B6803F0FF
:103AB0000073002BF0D050E001234FE000100240D3
:103AC0008C809D01274B1B6803F00073002B44D1B1
:103AD000244B1B68234A43F080731360214BDB683F
:103AE000204A43F08073D36000F094FA386108E014
:103AF00000F090FA02463B69D31A022B01D9032346
:103B00002CE0184B1B6803F00073002BF0D024E06E
:103B1000BB690C2B1FD0134B1B68124A23F0807318
:103B2000136000F077FA386108E000F073FA02469B
:103B30003B69D31A022B01D903230FE0094B1B6801
:103B400003F00073002BF0D1064BDA680549064BF1
:103B50001340CB6001E0012300E00023184620372A
:103B6000BD4680BD00100240FCFFEEFE80B584B073
:103B700000AF786039607B68002B01D10123E7E05A
:103B8000754B1B6803F007033A689A4210D9724BD1
:103B90001B6823F0070270493B6813430B606E4BB0
:103BA0001B6803F007033A689A4201D00123CFE073
:103BB0007B681B6803F00203002B10D07B689A68B7
:103BC000664B9B6803F0F0039A4208D9634B9B68ED
:103BD00023F0F0027B689B68604913438B607B682D
:103BE0001B6803F00103002B4CD07B685B68032B40
:103BF00007D15A4B1B6803F00073002B21D101231E
:103C0000A6E07B685B68022B07D1544B1B6803F46A
:103C10000033002B15D101239AE07B685B68002BF1
:103C200007D14E4B1B6803F00203002B09D101237F
:103C30008EE04A4B1B6803F48063002B01D1012303
:103C400086E0464B9B6823F003027B685B68434930
:103C500013438B6000F0DEF9F8600AE000F0DAF957
:103C60000246FB68D31A41F28832934201D90323FA
:103C70006EE03A4B9B6803F00C027B685B689B002C
:103C80009A42EBD17B681B6803F00203002B10D033
:103C90007B689A68314B9B6803F0F0039A4208D224
:103CA0002E4B9B6823F0F0027B689B682B491343E3
:103CB0008B60294B1B6803F007033A689A4210D2C5
:103CC000254B1B6823F0070223493B6813430B6015
:103CD000214B1B6803F007033A689A4201D0012385
:103CE00036E07B681B6803F00403002B08D01B4BF5
:103CF0009B6823F4E0627B68DB68184913438B60A0
:103D00007B681B6803F00803002B09D0134B9B68EA
:103D100023F460527B681B69DB00104913438B60FE
:103D200000F024F802460D4B9B681B0903F00F03BB
:103D30000B49CB5C03F01F0322FA03F3094A13601B
:103D4000094B1B68184600F015F90346FB72FB7A15
:103D500018461037BD4680BD0020024000100240CA
:103D60007C870008040000200800002080B489B08F
:103D700000AF0023FB610023BB613E4B9B6803F057
:103D80000C033B613B4BDB6803F00303FB603B69C7
:103D9000002B05D03B690C2B21D1FB68012B1ED1D8
:103DA000344B1B6803F00803002B07D1314BD3F8C9
:103DB00094301B0A03F00F03FB6105E02D4B1B68D9
:103DC0001B0903F00F03FB612B4AFB6952F82330F8
:103DD000FB613B69002B0DD1FB69BB610AE03B69CC
:103DE000042B02D1254BBB6104E03B69082B01D1B8
:103DF000234BBB613B690C2B34D11E4BDB6803F0BA
:103E00000303BB60BB68022B03D0BB68032B03D04A
:103E100005E01A4B7B6105E0194B7B6102E0FB6911
:103E20007B6100BF134BDB681B0903F00703013301
:103E30007B60104BDB681B0A03F07F037A6903FB8E
:103E400002F27B68B2FBF3F37B610A4BDB685B0E2B
:103E500003F0030301335B003B607A693B68B2FB0C
:103E6000F3F3BB61BB6918462437BD465DF8047B9C
:103E7000704700BF001002408C8700080024F40047
:103E800000127A0080B586B000AF786000233B61F5
:103E90002A4B9B6D03F08053002B03D0FEF7E4FE0A
:103EA000786114E0254B9B6D244A43F08053936561
:103EB000224B9B6D03F08053FB60FB68FEF7D4FE42
:103EC00078611E4B9B6D1D4A23F0805393657B697F
:103ED000B3F5007F0BD17B68802B19D97B68A02BB1
:103EE00002D902233B6113E001233B6110E07B68B0
:103EF000802B02D903233B610AE07B68802B02D12F
:103F000002233B6104E07B68702B01D101233B61FC
:103F10000B4B1B6823F0070209493B6913430B60F5
:103F2000074B1B6803F007033A699A4201D001234B
:103F300000E0002318461837BD4680BD001002403F
:103F40000020024080B582B000AF0023FB71032047
:103F5000FDF7A4FF0F2000F00DF80346002B02D060
:103F60000123FB7101E0FDF755F9FB79184608378D
:103F7000BD4680BD80B584B000AF78600023FB7380
:103F8000174B1B78002B23D0164B1A68144B1B7849
:103F900019464FF47A73B3FBF1F3B2FBF3F318460F
:103FA000FDF7A3FF0346002B0FD17B680F2B09D829
:103FB000002279684FF0FF30FDF77BFF0A4A7B68EB
:103FC000136007E00123FB7304E00123FB7301E0AE
:103FD0000123FB73FB7B18461037BD4680BD00BF35
:103FE0000C000020040000200800002080B400AF76
:103FF000064B1B781A46064B1B681344044A136091
:1040000000BFBD465DF8047B704700BF0C00002078
:104010006401002080B400AF034B1B681846BD4606
:104020005DF8047B704700BF6401002080B483B05A
:1040300000AF03463960FB7197F90730002B0ADBAC
:104040003B68DAB20C4997F907301201D2B20B443F
:1040500083F800230AE03B68DAB20849FB7903F0F1
:104060000F03043B1201D2B20B441A7600BF0C3787
:10407000BD465DF8047B704700E100E000ED00E024
:1040800080B500AF00216FF00400FFF7CFFF00BF45
:1040900080BD000080B483B000AFEFF305833B60C8
:1040A0003B68002B03D06FF005037B600CE00A4BEC
:1040B0001B68002B05D1084B01221A6000237B608E
:1040C00002E04FF0FF337B607B6818460C37BD463B
:1040D0005DF8047B704700BF6801002080B582B0A6
:1040E00000AFEFF305833B603B68002B03D06FF01C
:1040F00005037B6010E00B4B1B68012B09D1FFF718
:10410000BFFF084B02221A6002F084F900237B6093
:1041100002E04FF0FF337B607B6818460837BD46EE
:1041200080BD00BF6801002080B58EB004AFF8608C
:10413000B9607A6000233B61EFF305837B617B69A3
:10414000002B7ED1FB68002B7BD080233B621823A1
:10415000FB6100237B624FF0FF33BB617B68002B68
:1041600045D07B681B68002B02D07B681B687B6294
:104170007B689B69002B02D07B689B69FB61FB69B4
:10418000002B08D0FB69382B05D87B685B6803F0EF
:104190000103002B01D0002354E07B685B69002BF6
:1041A00003D07B685B699B083B627B689B68002B44
:1041B0000ED07B68DB68BB2B0AD97B681B69002BA0
:1041C00006D07B685B69002B02D00123BB6110E045
:1041D0007B689B68002B0CD17B68DB68002B08D1C7
:1041E0007B681B69002B04D10023BB6101E0002325
:1041F000BB61BB69012B10D17B681B697A6892682F
:1042000002920193FB690093BB683A6A796AF86885
:1042100001F014FF03463B6113E0BB69002B10D192
:104220003B6A9AB207F110030193FB690093BB68E4
:10423000796AF86801F05FFF0346012B01D0002383
:104240003B613B6918462837BD4680BD80B584B0C8
:1042500000AF7860EFF30583BB60BB68002B03D031
:104260006FF00503FB6007E00023FB607B68002B19
:1042700002D0786802F09AF8FB6818461037BD46FD
:1042800080BD80B588B000AF78600023FB61EFF39C
:104290000583BB60BB68002B74D17B68002B03D007
:1042A0007B685B68BB6101E00023BB61BB6903F015
:1042B0000103002B02D001237B6101E000237B611D
:1042C000BB6903F00803002B5CD14FF0FF333B6167
:1042D0007B68002B15D07B689B68002B06D07B6821
:1042E000DB684F2B02D901233B610CE07B689B68A4
:1042F000002B08D17B68DB68002B04D100233B61D5
:1043000001E000233B613B69012B12D17B69002B4B
:1043100007D07B689B681946042001F07EF8F8619D
:1043200016E07B689B681946012001F076F8F86179
:104330000EE03B69002B0BD17B69002B04D00420DD
:1043400001F053F8F86103E0012001F04EF8F86144
:10435000FB69002B0CD07B68002B03D07B681B68AB
:10436000FB6001E00023FB60F968F86901F008FEDA
:10437000FB69002B06D07B69002B03D0FB6943F05F
:104380000103FB61FB6918462037BD4680BD80B53F
:1043900086B000AF786039607B6823F001033B6131
:1043A0007B6803F00103FB6000237B61EFF305836F
:1043B000BB60BB68002B03D06FF005037B612CE072
:1043C0003B69002B03D16FF003037B6125E0FB68A1
:1043D000002B11D03968386901F06EF80346012BC3
:1043E0001BD03B68002B03D06FF001037B6114E00E
:1043F0006FF002037B6110E03968386901F00CFB53
:104400000346012B09D03B68002B03D06FF001035A
:104410007B6102E06FF002037B617B69184618370D
:10442000BD4680BD80B586B000AF78607B6823F064
:1044300001033B617B6803F00103FB6000237B61A8
:10444000EFF30583BB60BB68002B03D06FF005035F
:104450007B611FE03B69002B03D16FF003037B619D
:1044600018E0FB68002B09D0386900F0F1FF034623
:10447000012B0FD06FF002037B610BE000230022C1
:104480000021386901F04EF80346012B02D06FF08D
:1044900002037B617B6918461837BD4680BD80B535
:1044A0008AB002AFF860B9607A600023FB61EFF375
:1044B00005833B613B69002B5FD1FB68002B5CD01F
:1044C000BB68002B59D04FF0FF33BB617B68002BDA
:1044D00029D07B689B68002B12D07B68DB684F2B50
:1044E0000ED97B681B69002B0AD07B685A69FB6870
:1044F000B96801FB03F39A4202D30123BB6114E0C4
:104500007B689B68002B10D17B68DB68002B0CD18B
:104510007B681B69002B08D17B685B69002B04D189
:104520000023BB6101E00023BB61BB69012B0BD100
:104530007B681A697B689B6800210091B968F868FC
:1045400000F064FEF86108E0BB69002B05D1002291
:10455000B968F86800F0D2FEF861FB69002B0CD056
:104560007B68002B03D07B681B687B6101E0002324
:104570007B617969F86901F003FDFB691846203712
:10458000BD4680BD80B588B000AFF860B9603B60C3
:104590001346FB71FB68BB610023FB61EFF30583EE
:1045A0007B617B69002B28D0BB69002B05D0BB68E1
:1045B000002B02D03B68002B03D06FF00303FB619C
:1045C00038E000233B6107F110020023B968B869A5
:1045D00001F0A6F80346012B03D06FF00203FB6144
:1045E00028E03B69002B25D0154B4FF080521A6014
:1045F000BFF34F8FBFF36F8F1CE0BB69002B02D05E
:10460000BB68002B03D16FF00303FB6112E00023B2
:104610003A68B968B86900F085FF0346012B09D0F4
:104620003B68002B03D06FF00103FB6102E06FF0E9
:104630000203FB61FB6918462037BD4680BD00BF01
:1046400004ED00E080B588B000AFF860B9607A6032
:104650003B60FB68BB610023FB61EFF305837B617B
:104660007B69002B28D0BB69002B05D0BB68002BD1
:1046700002D03B68002B03D06FF00303FB6137E0EF
:1046800000233B6107F110031A46B968B86901F0CD
:10469000CFFA0346012B03D06FF00203FB6127E042
:1046A0003B69002B24D0154B4FF080521A60BFF3AA
:1046B0004F8FBFF36F8F1BE0BB69002B02D0BB682D
:1046C000002B03D16FF00303FB6111E03A68B96876
:1046D000B86901F0C1F80346012B09D03B68002BF3
:1046E00003D06FF00103FB6102E06FF00203FB6196
:1046F000FB6918462037BD4680BD00BF04ED00E0D1
:1047000080B485B000AFF860B9607A60FB68074A92
:104710001A60BB68064A1A607B6880221A6000BF74
:104720001437BD465DF8047B704700BF6C01002064
:104730002802002080B485B000AFF860B9607A60CC
:10474000FB68074A1A60BB68064A1A607B684FF428
:1047500080721A6000BF1437BD465DF8047B704755
:1047600028040020E404002080B483B000AF786007
:104770007B6803F108027B685A607B684FF0FF3268
:104780009A607B6803F108027B68DA607B6803F15A
:1047900008027B681A617B6800221A6000BF0C3730
:1047A000BD465DF8047B704780B483B000AF78608D
:1047B0007B6800221A6100BF0C37BD465DF8047BA0
:1047C000704780B485B000AF786039607B685B6803
:1047D000FB603B68FA685A60FB689A683B689A60BD
:1047E000FB689B683A685A60FB683A689A603B6865
:1047F0007A681A617B681B685A1C7B681A6000BF64
:104800001437BD465DF8047B704780B485B000AFB7
:10481000786039603B681B68BB60BB68B3F1FF3FE1
:1048200003D17B681B69FB600CE07B680833FB608D
:1048300002E0FB685B68FB60FB685B681B68BA684A
:104840009A42F6D2FB685A683B685A603B685B68DC
:104850003A689A603B68FA689A60FB683A685A60FE
:104860003B687A681A617B681B685A1C7B681A600F
:1048700000BF1437BD465DF8047B704780B485B037
:1048800000AF78607B681B69FB607B685B687A6857
:1048900092689A607B689B687A6852685A60FB6885
:1048A0005B687A689A4203D17B689A68FB685A60B1
:1048B0007B6800221A61FB681B685A1EFB681A603D
:1048C000FB681B6818461437BD465DF8047B7047CB
:1048D00080B485B000AFF860B9607A60FB68043BD3
:1048E000FB60FB684FF080721A60FB68043BFB6062
:1048F000BB6823F00102FB681A60FB68043BFB60A5
:104900000C4AFB681A60FB68143BFB607A68FB6822
:104910001A60FB68043BFB60FB686FF002021A60E0
:10492000FB68203BFB60FB6818461437BD465DF80A
:10493000047B70473949000880B485B000AF00237C
:104940007B60124B1B68B3F1FF3F0AD04FF050035E
:1049500083F31188BFF36F8FBFF34F8FFB6000BFEE
:10496000FEE74FF0500383F31188BFF36F8FBFF35F
:104970004F8FBB6000BF00BF7B68002BFCD000BF27
:1049800000BF1437BD465DF8047B7047100000205F
:10499000074B19680868B0E8F04F80F30988BFF347
:1049A0006F8F4FF0000080F311887047AFF30080E5
:1049B0007C7E002000BF00BF08480068006880F3CC
:1049C00008884FF0000080F3148862B661B6BFF328
:1049D0004F8FBFF36F8F00DF00BF00BF08ED00E017
:1049E00080B586B000AF464B1B68464A93420AD159
:1049F0004FF0500383F31188BFF36F8FBFF34F8FD6
:104A00003B6100BFFEE73E4B1B683F4A93420AD121
:104A10004FF0500383F31188BFF36F8FBFF34F8FB5
:104A2000FB6000BFFEE7394B7B617B691B78DBB223
:104A30007B607B69FF221A707B691B78DBB2FB709D
:104A4000FB78DBB203F05003DAB2314B1A70314B12
:104A500007221A6009E02F4B1B68013B2D4A1360A7
:104A6000FB78DBB25B00DBB2FB70FB78DBB203F000
:104A70008003802BEFD0274B1B68C3F10703042B67
:104A80000AD04FF0500383F31188BFF36F8FBFF349
:104A90004F8FBB6000BFFEE71E4B1B681B021D4A09
:104AA00013601C4B1B6803F4E0631A4A13607B68B5
:104AB000DAB27B691A70184B1B68174A43F470030B
:104AC0001360154B1B68144A43F07043136000F0E9
:104AD000DDF8124B00221A6000F0FCF8104B1B6846
:104AE0000F4A43F040431360FFF766FF01F078FE82
:104AF000FFF722FF002318461837BD4680BD00BFD0
:104B000000ED00E071C20F4170C20F4100E400E00F
:104B1000E4080020E808002020ED00E0100000205C
:104B200034EF00E080B483B000AF4FF0500383F364
:104B30001188BFF36F8FBFF34F8F7B6000BF0F4BA8
:104B40001B6801330D4A13600C4B1B68012B0FD1FE
:104B50000B4B1B68DBB2002B0AD04FF0500383F3E2
:104B60001188BFF36F8FBFF34F8F3B6000BFFEE72D
:104B700000BF0C37BD465DF8047B70471000002075
:104B800004ED00E080B483B000AF124B1B68002B33
:104B90000AD14FF0500383F31188BFF36F8FBFF337
:104BA0004F8F7B6000BFFEE70A4B1B68013B094A41
:104BB0001360084B1B68002B05D100233B603B684A
:104BC00083F3118800BF00BF0C37BD465DF8047B3E
:104BD000704700BF1000002000000000000000002F
:104BE000EFF30980BFF36F8F154B1A681EF0100F9B
:104BF00008BF20ED108A20E9F04F10602DE9090070
:104C00004FF0500080F31188BFF34F8FBFF36F8FC9
:104C100001F0E6FD4FF0000080F3118809BC19682F
:104C20000868B0E8F04F1EF0100F08BFB0EC108A13
:104C300080F30988BFF36F8F704700BFAFF3008028
:104C40007C7E002000BF00BF80B582B000AF4FF077
:104C5000500383F31188BFF36F8FBFF34F8F7B60D7
:104C600000BF01F003FD0346002B03D0064B4FF0BD
:104C700080521A6000233B603B6883F3118800BFB9
:104C800000BF0837BD4680BD04ED00E080B400AF32
:104C90000B4B00221A600B4B00221A600A4B1B6858
:104CA0000A4AA2FB03239B09094A013B1360044BF8
:104CB00007221A6000BFBD465DF8047B704700BF45
:104CC00010E000E018E000E004000020D34D621086
:104CD00014E000E0DFF80C00016841F470010160AD
:104CE000704700BF88ED00E080B485B000AFEFF3FF
:104CF0000583FB60FB680F2B14D9174AFB6813442C
:104D00001B78FB72154B1B78FA7A9A420AD24FF045
:104D1000500383F31188BFF36F8FBFF34F8F7B6016
:104D200000BFFEE70E4B1B6803F4E0620D4B1B68EF
:104D30009A420AD94FF0500383F31188BFF36F8F63
:104D4000BFF34F8F3B6000BFFEE700BF1437BD4687
:104D50005DF8047B704700BFF0E300E0E40800204A
:104D60000CED00E0E808002080B58AB000AF786064
:104D70000023FB6101F0BEFB5B4B1B68002B01D1E4
:104D800000F020F9594B1A687B681340002B40F063
:104D900093807B68002B1DD008227B6813447B60C6
:104DA0007B6803F00703002B14D07B6823F0070314
:104DB00008337B607B6803F00703002B0AD04FF0B9
:104DC000500383F31188BFF36F8FBFF34F8F7B6165
:104DD00000BFFEE77B68002B6ED0454B1B687A68EE
:104DE0009A4269D8434B3B62424B1B687B6204E0AA
:104DF0007B6A3B627B6A1B687B627B6A5B687A6862
:104E00009A4203D97B6A1B68002BF1D1364B1B6891
:104E10007A6A9A4250D03B6A1B6808221344FB61AD
:104E20007B6A1A683B6A1A607B6A5A687B68D21A86
:104E300008235B009A421FD97A6A7B681344BB61DE
:104E4000BB6903F00703002B0AD04FF0500383F334
:104E50001188BFF36F8FBFF34F8F3B6100BFFEE739
:104E60007B6A5A687B68D21ABB695A607B6A7A6827
:104E70005A60B86900F008F91D4B1A687B6A5B68D4
:104E8000D31A1B4A13601A4B1A681B4B1B689A42B1
:104E900003D2174B1B68184A13607B6A5A68134B7E
:104EA0001B681A437B6A5A607B6A00221A60134BA4
:104EB0001B680133114A136001F02AFBFB6903F000
:104EC0000703002B0AD04FF0500383F31188BFF380
:104ED0006F8FBFF34F8FFB6000BFFEE7FB69184683
:104EE0002837BD4680BD00BF247E0020387E0020CC
:104EF000287E00201C7E00202C7E0020307E00209A
:104F000080B586B000AF78607B687B617B68002BE2
:104F10004DD008235B427A6913447B617B693B6116
:104F20003B695A68244B1B681340002B0AD14FF091
:104F3000500383F31188BFF36F8FBFF34F8FFB6074
:104F400000BFFEE73B691B68002B0AD04FF05003FF
:104F500083F31188BFF36F8FBFF34F8FBB6000BF28
:104F6000FEE73B695A68144B1B681340002B1ED0A8
:104F70003B691B68002B1AD13B695A680E4B1B68B2
:104F8000DB431A403B695A6001F0B4FA3B695A6846
:104F90000A4B1B681344094A1360386900F074F81F
:104FA000074B1B680133064A136001F0B1FA00BFDA
:104FB0001837BD4680BD00BF387E0020287E002007
:104FC000347E002080B485B000AF47F23053BB6020
:104FD000274BFB60FB6803F00703002B0CD0FB683A
:104FE0000733FB60FB6823F00703FB60BA68FB68CC
:104FF000D31A1F4A1344BB60FB687B601D4A7B6861
:1050000013601C4B00225A607B68BA681344FB6033
:105010000822FB689B1AFB60FB6823F00703FB6018
:10502000FB68154A1360144B1B6800225A60124B30
:105030001B6800221A607B683B603B68FA68D21AE2
:105040003B685A600C4B1A683B681A603B685B68A7
:105050000A4A13603B685B68094A1360094B4FF0CA
:1050600000421A6000BF1437BD465DF8047B7047EC
:10507000EC0800201C7E0020247E00202C7E0020D6
:10508000287E0020387E002080B485B000AF786094
:10509000284BFB6002E0FB681B68FB60FB681B6839
:1050A0007A689A42F7D8FB68BB60FB685B68BA68AD
:1050B00013447A689A4208D1FB685A687B685B6837
:1050C0001A44FB685A60FB687B607B68BB607B6846
:1050D0005B68BA681A44FB681B689A4218D1FB687F
:1050E0001A68154B1B689A420DD07B685A68FB689A
:1050F0001B685B681A447B685A60FB681B681A6807
:105100007B681A6008E00C4B1A687B681A6003E041
:10511000FB681A687B681A60FA687B689A4202D05A
:10512000FB687A681A6000BF1437BD465DF8047BDF
:10513000704700BF1C7E0020247E002080B584B014
:1051400000AF786039607B68FB60FB68002B0AD198
:105150004FF0500383F31188BFF36F8FBFF34F8F6E
:10516000BB6000BFFEE7FFF7DDFCFB681A68FB6869
:10517000DB6BF968096C01FB03F31A44FB689A6066
:10518000FB6800229A63FB681A68FB685A60FB6838
:105190001A68FB68DB6B013BF968096C01FB03F3E0
:1051A0001A44FB68DA60FB68FF2283F84420FB683E
:1051B000FF2283F845203B68002B14D1FB681B6954
:1051C000002B1AD0FB681033184601F0BDFB0346D4
:1051D000002B12D00C4B4FF080521A60BFF34F8F50
:1051E000BFF36F8F09E0FB6810331846FFF7BCFA76
:1051F000FB6824331846FFF7B7FAFFF7C3FC012317
:1052000018461037BD4680BD04ED00E080B58EB075
:1052100002AFF860B9607A603B60FB68002B0AD18E
:105220004FF0500383F31188BFF36F8FBFF34F8F9D
:10523000BB6200BFFEE73B68002B0AD14FF0500372
:1052400083F31188BFF36F8FBFF34F8F7B6200BF73
:10525000FEE77B68002B02D0BB68002B01D0012346
:1052600000E00023002B0AD14FF0500383F3118894
:10527000BFF36F8FBFF34F8F3B6200BFFEE77B68CA
:10528000002B02D1BB68002B01D1012300E00023D9
:10529000002B0AD14FF0500383F31188BFF36F8FB7
:1052A000BFF34F8FFB6100BFFEE750237B617B693B
:1052B000502B0AD04FF0500383F31188BFF36F8F48
:1052C000BFF34F8FBB6100BFFEE77B693B68FB62AA
:1052D000FB6A002B0DD0FB6A012283F8462097F869
:1052E0003820FB6A009313467A68B968F86800F0C2
:1052F0003FF8FB6A18463037BD4680BD80B58AB09E
:1053000002AFF860B9601346FB71FB68002B0AD14D
:105310004FF0500383F31188BFF36F8FBFF34F8FAC
:105320003B6100BFFEE7FB68BA6802FB03F3FB6169
:10533000FB6950331846FFF717FDB861BB69002BB6
:1053400011D0BB697B617B6950337B61BB690022F3
:1053500083F84620FA79BB69009313467A69B968E5
:10536000F86800F005F8BB6918462037BD4680BDD7
:1053700080B584B000AFF860B9607A60FB70BB683C
:10538000002B03D1BB69BA691A6002E0BB697A6875
:105390001A60BB69FA68DA63BB69BA681A640121EA
:1053A000B869FFF7CBFEBB69FA7883F84C2000BFE1
:1053B0001037BD4680BD80B582B000AF78607B6895
:1053C000002B0ED07B6800229A607B6800221A6056
:1053D0007B680022DA60002300220021786800F058
:1053E000A1F800BF0837BD4680BD80B586B000AFCC
:1053F0000346FB7101237B6100233B61FB791A4665
:1054000039697869FFF77AFFF860F868FFF7D3FF2A
:10541000FB6818461837BD4680BD80B588B002AF1E
:1054200003463960FB7101237B6100233B61FB79FB
:1054300000933B68002239697869FFF7E7FEF8605E
:10544000F868FFF7B8FFFB6818461837BD4680BDFF
:1054500090B587B000AF78607B683B613B69002BFB
:105460000AD14FF0500383F31188BFF36F8FBFF35E
:105470004F8FFB6000BFFEE73B699C6801F026FC94
:1054800003469C4211D13B69DB685A1E3B69DA60D6
:105490003B69DB68002B05D100230022002138691D
:1054A00000F040F801237B6101E000237B617B6910
:1054B00018461C37BD4690BD90B587B000AF7860E8
:1054C00039607B683B613B69002B0AD14FF0500388
:1054D00083F31188BFF36F8FBFF34F8FFB6000BF63
:1054E000FEE73B699C6801F0F1FB03469C4207D153
:1054F0003B69DB685A1C3B69DA6001237B610CE085
:105500003968386900F088FA78617B69002B04D02B
:105510003B69DB685A1C3B69DA607B6918461C37BB
:10552000BD4690BD80B58EB000AFF860B9607A60BE
:105530003B6000237B63FB683B633B6B002B0AD122
:105540004FF0500383F31188BFF36F8FBFF34F8F7A
:10555000BB6200BFFEE7BB68002B03D13B6B1B6C3B
:10556000002B01D1012300E00023002B0AD14FF0D2
:10557000500383F31188BFF36F8FBFF34F8F7B62AC
:1055800000BFFEE73B68022B03D13B6BDB6B012BBB
:1055900001D1012300E00023002B0AD14FF050037A
:1055A00083F31188BFF36F8FBFF34F8F3B6200BF50
:1055B000FEE701F09BFB0346002B02D17B68002B2A
:1055C00001D1012300E00023002B0AD14FF050034A
:1055D00083F31188BFF36F8FBFF34F8FFB6100BF61
:1055E000FEE7FFF79FFA3B6B9A6B3B6BDB6B9A42D4
:1055F00002D33B68022B29D13A68B968386B00F0B6
:10560000AFFBF8623B6B5B6A002B10D03B6B243323
:10561000184601F099F90346002B13D03F4B4FF089
:1056200080521A60BFF34F8FBFF36F8F0AE0FB6A9F
:10563000002B07D0394B4FF080521A60BFF34F8FC9
:10564000BFF36F8FFFF79EFA012363E07B68002BA7
:1056500003D1FFF797FA00235CE07B6B002B06D1A8
:1056600007F11403184601F0D3F901237B63FFF718
:1056700089FA00F03FFFFFF755FA3B6B93F844308F
:105680005BB2B3F1FF3F03D13B6B002283F84420B0
:105690003B6B93F845305BB2B3F1FF3F03D13B6BFB
:1056A000002283F84520FFF76DFA3A1D07F1140335
:1056B0001146184601F0C2F90346002B24D1386B7D
:1056C00000F046FC0346002B18D03B6B10337A6881
:1056D0001146184601F0E8F8386B00F0D1FB00F0F5
:1056E00017FF0346002B7FF47CAF0C4B4FF080522A
:1056F0001A60BFF34F8FBFF36F8F72E7386B00F004
:10570000BFFB00F005FF6CE7386B00F0B9FB00F061
:10571000FFFE002318463837BD4680BD04ED00E08B
:1057200080B590B000AFF860B9607A603B60FB680C
:10573000BB63BB6B002B0AD14FF0500383F311887E
:10574000BFF36F8FBFF34F8FBB6200BFFEE7BB6835
:10575000002B03D1BB6B1B6C002B01D1012300E09C
:105760000023002B0AD14FF0500383F31188BFF3BD
:105770006F8FBFF34F8F7B6200BFFEE73B68022B4A
:1057800003D1BB6BDB6B012B01D1012300E00023B4
:10579000002B0AD14FF0500383F31188BFF36F8FB2
:1057A000BFF34F8F3B6200BFFEE7FFF79DFAEFF3B9
:1057B00011824FF0500383F31188BFF36F8FBFF353
:1057C0004F8FFA61BB61FB697B63BB6B9A6BBB6BF1
:1057D000DB6B9A4202D33B68022B2FD1BB6B93F851
:1057E000453087F83330BB6B9B6BFB623A68B96816
:1057F000B86B00F0B5FA97F93330B3F1FF3F12D12F
:10580000BB6B5B6A002B16D0BB6B2433184601F0D0
:105810009BF80346002B0ED07B68002B0BD07B68D7
:1058200001221A6007E097F833300133DBB25AB235
:10583000BB6B83F845200123FB6301E00023FB637E
:105840007B6B7B617B6983F3118800BFFB6B184620
:105850004037BD4680BD000080B58CB000AFF86019
:10586000B9607A600023FB62FB68BB62BB6A002BF5
:105870000AD14FF0500383F31188BFF36F8FBFF34A
:105880004F8F3B6200BFFEE7BB68002B03D1BB6AB2
:105890001B6C002B01D1012300E00023002B0AD157
:1058A0004FF0500383F31188BFF36F8FBFF34F8F17
:1058B000FB6100BFFEE701F019FA0346002B02D19D
:1058C0007B68002B01D1012300E00023002B0AD1CB
:1058D0004FF0500383F31188BFF36F8FBFF34F8FE7
:1058E000BB6100BFFEE7FFF71DF9BB6A9B6B7B62E4
:1058F0007B6A002B1FD0B968B86A00F09BFA7B6AFC
:105900005A1EBB6A9A63BB6A1B69002B0FD0BB6A25
:105910001033184601F018F80346002B07D03D4B12
:105920004FF080521A60BFF34F8FBFF36F8FFFF7B6
:1059300029F9012369E07B68002B03D1FFF722F9E5
:10594000002362E0FB6A002B06D107F11003184622
:1059500001F05EF80123FB62FFF714F900F0CAFDC5
:10596000FFF7E0F8BB6A93F844305BB2B3F1FF3F56
:1059700003D1BB6A002283F84420BB6A93F8453008
:105980005BB2B3F1FF3F03D1BB6A002283F845202D
:10599000FFF7F8F83A1D07F110031146184601F019
:1059A0004DF80346002B23D1B86A00F0BBFA03463A
:1059B000002B17D0BB6A24337A681146184600F0D2
:1059C00073FFB86A00F05CFA00F0A2FD0346002BFA
:1059D00089D1104B4FF080521A60BFF34F8FBFF345
:1059E0006F8F80E7B86A00F04BFA00F091FD7AE71C
:1059F000B86A00F045FA00F08BFDB86A00F092FA40
:105A00000346002B3FF46FAF002318463037BD46E6
:105A100080BD00BF04ED00E080B58EB000AF7860BF
:105A2000396000237B637B68FB6200233B63FB6A76
:105A3000002B0AD14FF0500383F31188BFF36F8F0F
:105A4000BFF34F8F3B6200BFFEE7FB6A1B6C002B6E
:105A50000AD04FF0500383F31188BFF36F8FBFF369
:105A60004F8FFB6100BFFEE701F040F90346002BBA
:105A700002D13B68002B01D1012300E00023002B61
:105A80000AD14FF0500383F31188BFF36F8FBFF338
:105A90004F8FBB6100BFFEE7FFF744F8FB6A9B6BCB
:105AA000BB62BB6A002B24D0BB6A5A1EFB6A9A6396
:105AB000FB6A1B68002B04D101F08EFA0246FB6AD8
:105AC0009A60FB6A1B69002B0FD0FB6A10331846E3
:105AD00000F03AFF0346002B07D0544B4FF08052A2
