:020000040800F2
:1000000000000120A9140008E5120008EB12000806
:10001000F1120008F7120008FD12000800000000AD
:10002000000000000000000000000000611E000849
:100030000313000800000000B1200008111300089D
:10004000F9140008F9140008F9140008F91400085C
:10005000F9140008F9140008F9140008F91400084C
:10006000F9140008F9140008F9140008F91400083C
:10007000F9140008F9140008F9140008F91400082C
:10008000F9140008F9140008F9140008F91400081C
:10009000F9140008F9140008F9140008F91400080C
:1000A000F9140008F9140008F9140008F9140008FC
:1000B000F91400080000000000000000F914000816
:1000C000F9140008F9140008F9140008F9140008DC
:1000D000F9140008F9140008F9140008F9140008CC
:1000E000F9140008F91400080000000000000000E6
:1000F0000000000000000000000000000000000000
:1001000000000000F914000800000000F9140008C5
:100110000000000000000000F9140008F9140008B5
:10012000F9140008F9140008F9140008F91400087B
:10013000F9140008000000000000000000000000AA
:10014000F9140008F9140008F91400080000000070
:10015000F9140008F9140008F9140008F91400084B
:10016000F9140008F9140008F91400080000000050
:10017000F9140008F9140008000000000000000055
:0C018000F9140008F9140008F914000834
:1001900010B5054C237833B9044B13B10448AFF3C1
:1001A00000800123237010BD7800002000000000B3
:1001B000607B000808B5034B1BB103490348AFF34C
:1001C000008008BD000000007C000020607B00086B
:1001D000034613F8012B002AFBD1181A0138704787
:1001E00080B582B000AF0023FB71064B1B681A6814
:1001F000044B1B6842F040021A600A2001F08EFA9C
:10020000F3E700BF3802002080B500AF044A0021A8
:10021000044801F0F1F90346034A136000BF80BDB2
:10022000047C0008E10100089400002080B500AFC4
:1002300000F01CF8FFF7E8FF00BF80BD80B584B078
:1002400000AF78600023FB73074800F0EFFAFB7BF8
:100250001946002000F038FBFB7B0133FB734FF4A1
:100260007A7001F05BFAEFE7907B000880B500AF91
:10027000044A0021044801F0BFF90346034A136011
:1002800000BF80BD287C00083D02000898000020C7
:1002900080B400AFFEE7000080B500AF4FF4C0723D
:1002A0000021104807F07EFB0F4B00221A6000224D
:1002B0000C21402001F05BFB03460C4A13600C4A02
:1002C00000210C4801F098F903460B4A13600B4AD1
:1002D00000210B4801F090F903460A4A136000BF61
:1002E00080BD00BF9C0000201C02002020020020D6
:1002F0004C7C00080106000824020020707C0008E5
:10030000B50600082802002080B483B000AF034681
:100310000A46FB711346BB71FB79032B26D801A259
:1003200052F823F035030008430300085103000886
:100330005F030008BB79012B0CBF01230023DBB254
:1003400015E0BB79022B0CBF01230023DBB20EE0CA
:10035000BB79042B0CBF01230023DBB207E0BB7980
:10036000042B0CBF01230023DBB200E0002318465E
:100370000C37BD465DF8047B704700BF80B584B084
:1003800000AFB9607A601A460346FB731346BB732D
:10039000FB7B032B32D801A252F823F0AD030008F7
:1003A000C1030008D5030008E7030008BB7B19461A
:1003B000786800F049FB03461A46BB681A701DE0D6
:1003C000BB7B1946786800F075FB03461A46BB688C
:1003D0001A8013E0BB7B1946786800F081FB024667
:1003E000BB681A600AE0BB7B1946786800F040FBE6
:1003F000F0EE407ABB68C3ED007A00BF00BF103753
:10040000BD4680BD80B58EB000AFBA607B6003464C
:10041000FB730B46BB7300237B6376E040497A6B2A
:1004200013465B0013449B000B441B78FF2B0AD040
:100430003B497A6B13465B0013449B000B441B78CB
:10044000FA7B9A425ED136497A6B13465B001344BD
:100450009B000B4401331B78BA7B9A4252D130493E
:100460007A6B13465B0013449B000B4408331B78E4
:100470005A1C7B689A4201D0FFF70AFF28497A6B21
:1004800013465B0013449B000B440A3318787B68C7
:10049000DBB207F11401BA68FFF770FF20497A6BED
:1004A00013465B0013449B000B4409331B78002B5D
:1004B00010D01B497A6B13465B0013449B000B441E
:1004C00004331B68186807F114010123012201F0AD
:1004D000C1FA17E012497A6B13465B0013449B0084
:1004E0000B44043318680E497A6B13465B001344BF
:1004F0009B000B4408331B781A4607F11403194676
:1005000007F042FA7B6B01337B63064B1B687A6B07
:100510009A4283D300BF00BF3837BD4680BD00BFBD
:100520009C0000201C02002080B582B000AF3B6020
:100530000346FB710B46BB7113467B712E4B1B6848
:10054000202B01D1FFF7A4FE3A7C7B791146184697
:10055000FFF7DAFE034683F00103DBB2002B01D084
:10056000FFF796FE244B1A68244913465B00134498
:100570009B000B44FA791A701F4B1A681F491346E7
:100580005B0013449B000B440133BA791A701A4B79
:100590001A681A4913465B0013449B000B4404334A
:1005A0003A681A60144B1A68144913465B001344E6
:1005B0009B000B4408333A7C1A700F4B1A680F49A2
:1005C00013465B0013449B000B44093300221A704E
:1005D000094B1A68094913465B0013449B000B44FE
:1005E0000A337A791A70044B1B680133024A13608C
:1005F00000BF0837BD4680BD1C0200209C000020C3
:1006000080B58EB000AF284B1B680A21184601F058
:1006100026F938E03B1D07F10C020021234804F0C5
:1006200007FE034687F8373097F83730002B2AD17A
:10063000FB69002B00D126E03B7987F82930FB6865
:10064000DBB203F03F03DBB287F82830FB689B097D
:10065000DBB203F00303DBB287F82A30FA69391DF5
:1006600007F128030333184607F08EF9FB69DBB264
:1006700087F833300E4B186897F82A2007F12801C5
:100680000A2301F0E7F90021084804F0E3FE0346DD
:10069000002BBFD1044B1B68184601F02BF90A2030
:1006A00001F03CF8AFE700BF6402002038020020F0
:1006B0002002002090B585B000AF0B4B1868FA1CE3
:1006C000391D0A2301F026FA0346002B08D1387998
:1006D0007979FB7B1C463B1DDA1C2346FFF792FE13
:1006E0000A2001F01BF8E8E72002002080B500AFE7
:1006F000002209214FF4807001F039F90346094ABC
:100700001360084B1B68002B01D1FFF7C1FD064A9F
:100710000021064800F070FF0346054A136000BF41
:1007200080BD00BF2C020020947C0008C507000893
:100730003002002080B58CB000AF0023BB611D4BA0
:100740001B683B610023FB6125E03B7A3B621A4B4F
:100750001B680A21184601F082F8184804F033FD9E
:10076000F86207F10C033A4607F11001134804F050
:100770005AFC034687F82B3097F82B30002B02D019
:100780003B6A01333B620A2000F0C8FF0A4B1B683A
:10079000184601F0AFF80A4B186839466423002266
:1007A00001F0B8F90346002BCFD000BF00BF3037AF
:1007B000BD4680BD60020020640200203802002097
:1007C0002C02002080B584B000AF7860FFF7B2FF44
:1007D000052000F0A3FFF9E780B586B000AF786090
:1007E0000B46FB70FB78082B01D9FFF751FDFB7816
:1007F0003B74FA7807F108037968184607F0C4F8E3
:10080000094B186807F108010A23002201F022F9B8
:1008100078617B69002B02D0FB780133FB7000BF4D
:100820001837BD4680BD00BF2C02002080B588B0BF
:1008300000AF78607868FFF7CBFC786106F0C6FF00
:100840000246204B1B68D31A092B02D84FF0FF3306
:1008500034E00023FB610023BB6125E07A69FB697A
:10086000D31A062B02D90723BB6103E07A69FB691F
:10087000D31ABB61FA233B7307F10C030133796888
:10088000FA691144BA69184607F04AF9BB69DBB244
:100890000133DAB207F10C0311461846FFF79CFF4B
:1008A000FA69BB691344FB61FA697B699A42D5D145
:1008B00006F08CFF0346034A1360002318462037D6
:1008C000BD4680BD3402002080B584B000AF034631
:1008D0000A46FB711346BB7107F10C02B979F8792E
:1008E000022300F093F807F10C0302211846FFF7EA
:1008F00073FF00BF1037BD4680BD000084B0B0B5A7
:100900008CB000AF07F1400484E80F002F4B1D4668
:1009100007F140040FCC0FC50FCC0FC594E80300BE
:1009200085E803000323BB610023FB6101233B62D5
:1009300000237B6101237B6200237B600023BB607B
:100940000023FB6000233B610E23BB623B1D194665
:1009500007F1400004F059FA034687F82F3097F862
:100960002F30002B01D0FFF793FC022107F140004C
:1009700004F098FD034687F82F3097F82F30002BAE
:1009800001D0FFF785FC07F1400004F008FB0346A7
:1009900087F82F3097F82F30002B01D0FFF778FC25
:1009A00097F868301BB243F480631BB29AB2084BCD
:1009B0001A80002000F0CDFE0346064A136000BFF7
:1009C0003037BD46BDE8B04004B070473802002063
:1009D000600200206402002080B483B000AF786021
:1009E0007B681BBA18460C37BD465DF8047B704720
:1009F00080B483B000AF0346FB80FB885BBA9BB238
:100A000018460C37BD465DF8047B704780B483B050
:100A100000AF3A601A460346FB710B46BB711346A2
:100A20007B717B79012B01D8002307E03B68FA79C1
:100A30001A703B680133BA791A70022318460C37D2
:100A4000BD465DF8047B704780B483B000AF78602A
:100A50000B46FB70FB78012B01D8002302E07B687A
:100A600001331B7818460C37BD465DF8047B704790
:100A700080B582B000AF78600B46FB707B68002BBE
:100A800002D0FB78042B02D8DFED097A0BE07B68FB
:100A90000133184600F09FF80346184600F04CF862
:100AA000F0EE407A00BFB0EE670A0837BD4680BD61
:100AB0000000C07F80B582B000AF78600B46FB704D
:100AC000FB78022B01D8002306E07B68013318462F
:100AD00000F068F8034600BF18460837BD4680BDE1
:100AE00080B582B000AF78600B46FB707B68002B4E
:100AF00002D0FB78042B01D8002306E07B68013389
:100B0000184600F068F8034600BF18460837BD468F
:100B100080BD80B582B000AF87ED010A38603868CB
:100B200097ED010A06F05EFEF0EE407AB0EE670A3D
:100B30000837BD4680BD000080B586B000AF786044
:100B40007B68DB0FFB757B68DB0DBB757B68C3F3D4
:100B500016033B613B6907EE903AF8EE677ADFEDEA
:100B6000106A87EEA67ABB7D7F3B1846B0EE470A37
:100B7000FFF7CFFF87ED030AFB7D002B04D0D7EDF5
:100B8000037AF1EE677A01E0D7ED037AC7ED037AD5
:100B9000FB6807EE903AB0EE670A1837BD4680BD95
:100BA000FEFFFF4A80B584B000AF78607B681B7899
:100BB0009BB21B02FB817B6801331B789AB2FB89D5
:100BC0001343FB81FB891846FFF712FF03461846C3
:100BD0001037BD4680BD80B584B000AF78607B68BB
:100BE0001B781B06FB607B6801331B781B041A46CD
:100BF000FB681343FB607B6802331B781B021A46B9
:100C0000FB681343FB607B6803331B781A46FB6861
:100C10001343FB60F868FFF7DFFE03461846103702
:100C2000BD4680BDF0B589B008AF06F067FD00F0A5
:100C300037F800F0FDF800F085F800F0B9F8144E30
:100C4000302306936D4606F110040FCC0FC594E8CF
:100C5000030085E8030096E80F00FFF74FFEFFF75B
:100C600045FDFFF719FBFFF7E1FA00F065F900F029
:100C700081F900F0EBFB00F075FC064A0021064804
:100C800000F0BAFC0346054A136000F08FFCFEE753
:100C900068020020B87C00081D0F0008E402002054
:100CA00080B596B000AF07F1140344220021184626
:100CB00006F078FE3B4600221A605A609A60DA60BD
:100CC0001A614FF4007005F0B9FB0346002B01D008
:100CD00000F02CF910237B610123FB6200233B63AE
:100CE00060237B630223FB6301233B6401237B645A
:100CF0002823BB640723FB6402233B6502237B6537
:100D000007F11403184605F0F9FE0346002B01D045
:100D100000F00CF90F233B6003237B600023BB60D2
:100D20000023FB6000233B613B460421184606F08C
:100D3000F9FA0346002B01D000F0F8F800BF58374D
:100D4000BD4680BD80B500AF174B184A1A60164BE0
:100D500032225A60144B00229A60134B0022DA6050
:100D6000114B4FF440221A610F4B4FF480125A611D
:100D70000D4B00221A760C4B00225A760A4B0022A9
:100D80009A76094B0022DA76074B00221A77064B37
:100D900000225A77044803F03DFF0346002B01D0A0
:100DA00000F0C4F800BF80BD68020020006400406D
:100DB00080B500AF1B4B1C4A1A601A4B1B4A5A6085
:100DC000184B00229A60174B0122DA60154B002263
:100DD0001A61144B00225A61124B00229A61114B86
:100DE0000022DA610F4B00221A620E4804F08FFED7
:100DF0000346002B01D000F099F80021094804F0C7
:100E0000EFFD0346002B01D000F090F800210548CB
:100E100004F031FE0346002B01D000F087F800BF3C
:100E200080BD00BF9002002000540040EC9C901058
:100E300080B588B000AF07F10C0300221A605A6039
:100E40009A60DA601A61324BDB6C314A43F001037D
:100E5000D3642F4BDB6C03F00103BB60BB682C4BEE
:100E6000DB6C2B4A43F00403D364294BDB6C03F0A7
:100E700004037B607B68264BDB6C254A43F002034E
:100E8000D364234BDB6C03F002033B603B6800221E
:100E90004FF4F8614FF0904004F08AFD00223021B9
:100EA0001C4804F085FD002207211B4804F080FD4A
:100EB0004FF4F863FB6001233B6100237B61002357
:100EC000BB6107F10C0319464FF0904004F0F6FBAC
:100ED0003023FB6001233B6100237B610023BB6166
:100EE00007F10C0319460B4804F0E8FB0723FB60ED
:100EF00001233B6100237B610023BB6107F10C03ED
:100F00001946054804F0DAFB00BF2037BD4680BD16
:100F100000100240000800480004004880B582B07C
:100F200000AF7860012000F0F9FBFBE780B400AF70
:100F300072B600BFFEE7000080B582B000AF0A4B7A
:100F40001B7899B20A230322084804F063FF034682
:100F5000FB71FB79002B02D1054B01221A7000BFF7
:100F60000837BD4680BD00BF000000209002002071
:100F7000EC02002080B582B000AF0F4B1B78002B35
:100F800015D07F23FB71FB1D01221946002000F0C4
:100F90006FF8002240214FF0904004F009FD01223B
:100FA00080214FF0904004F003FD00F073F800BF83
:100FB0000837BD4680BD00BFEC02002080B582B07E
:100FC00000AF0346FB71074B1B78002B05D0FB1DC0
:100FD00001221946002000F04BF800BF0837BD463B
:100FE00080BD00BFEC02002080B588B002AFBA60BF
:100FF0007B600346FB730B46BB737B68202B01D9D8
:10100000FFF794FFFB7B1B015AB2BB7B9B005BB2DB
:1010100003F00C035BB213435BB2DAB2104B1A70ED
:10102000104B7A68B968184606F0AEFC0E4B1B7878
:1010300099B27B689BB201339BB24FF0FF320092B2
:10104000074A0A4804F0F2FD0346FB75FB7D002BBE
:1010500001D0FFF76BFF00BF1837BD4680BD00BF52
:10106000F0020020F1020020000000209002002089
:1010700080B584B000AF0346B9607A60FB73F87B3B
:101080007B68BA680021FFF7AFFF00BF1037BD468D
:1010900080BD000080B500AF074B01221A70064BDF
:1010A00001225A70044B01229A70034B0122DA701C
:1010B00000F004F800BF80BDE802002080B582B0D7
:1010C00000AFFF23FB71244B1B78002B05D0FB796D
:1010D00043F00803DBB2FB7104E0FB7983F0080303
:1010E000DBB2FB711C4B5B78002B05D0FB7943F026
:1010F0000403DBB2FB7104E0FB7983F00403DBB291
:10110000FB71154B9B78002B05D0FB7943F0010355
:10111000DBB2FB7104E0FB7983F00103DBB2FB710E
:101120000D4BDB78002B05D0FB7943F00203DBB2DB
:10113000FB7104E0FB7983F00203DBB2FB717F23D8
:10114000FB71FB1D012219460420FFF791FF00BF30
:101150000837BD4680BD00BFE802002080B582B0E0
:1011600000AF114B1B6E104A43F0010313660E4B88
:101170001B6E03F001037B607B680B4B9B6D0A4A7F
:1011800043F080539365084B9B6D03F080533B60A5
:101190003B6800220F216FF0010004F066FA00BFE7
:1011A0000837BD4680BD00BF0010024080B58AB040
:1011B00000AF786007F1140300221A605A609A6049
:1011C000DA601A617B681B68184A934229D1184B70
:1011D0009B6D174A43F000739365154B9B6D03F0AD
:1011E00000733B613B69124BDB6C114A43F0010316
:1011F000D3640F4BDB6C03F00103FB60FB684FF41F
:10120000C0537B610223BB610023FB6103233B626C
:1012100009237B6207F1140319464FF0904004F054
:101220004DFA00BF2837BD4680BD00BF00640040B6
:101230000010024080B5A0B000AF786007F16C03E9
:1012400000221A605A609A60DA601A6107F110038E
:101250005C220021184606F0A5FB7B681B681E4A2D
:10126000934235D140233B6100233B6407F11003D7
:10127000184605F039F90346002B01D0FFF756FE5A
:10128000164BDB6C154A43F00203D364134BDB6C43
:1012900003F00203FB60FB68C023FB6612233B677D
:1012A00000237B670323BB670423FB6707F16C0301
:1012B00019460B4804F002FA084B9B6D074A43F4A9
:1012C00000139365054B9B6D03F40013BB60BB6873
:1012D00000BF8037BD4680BD005400400010024072
:1012E0000004004880B400AFFEE780B400AFFEE722
:1012F00080B400AFFEE780B400AFFEE780B400AF7B
:10130000FEE780B400AF00BFBD465DF8047B7047C8
:1013100080B500AF06F046FA02F050FF0346012BFD
:1013200001D000F0F9FE00BF80BD000080B400AF26
:10133000064BD3F88830054A43F47003C2F888306E
:1013400000BFBD465DF8047B704700BF00ED00E0C4
:1013500080B586B002AF78600023BB730023FB73B7
:1013600007F10E0301220092002205213120FFF730
:10137000DBF8BB7BFA7B9A420AD0BB7B482B01D9B6
:101380004823BB73BB7B1846FFF718FEBB7BFB7380
:101390000A2000F0C3F9ECE780B586B002AF7860B0
:1013A0000023BB730023FB7307F10E03012200929D
:1013B000002206213120FFF7B7F8BB7BFA7B9A4267
:1013C00013D0BB7B012B07D101224FF480614FF07A
:1013D000904004F0EDFA06E000224FF480614FF0F7
:1013E000904004F0E5FABB7BFB730A2000F096F90D
:1013F000E3E780B586B002AF78600023BB730023BB
:10140000FB7307F10E030122009200220721312015
:10141000FFF78AF8BB7BFA7B9A4213D0BB7B012B88
:1014200007D101224FF400714FF0904004F0C0FA50
:1014300006E000224FF400714FF0904004F0B8FA3B
:10144000BB7BFB730A2000F069F9E3E780B500AFCE
:101450000C4A00210C4800F0CFF803460B4A1360F9
:101460000B4A00210B4800F0C7F803460A4A1360F4
:101470000A4A00210A4800F0BFF80346094A1360EF
:1014800000BF80BD1C7D0008511300081003002020
:10149000407D00089913000814030020647D0008B3
:1014A000F313000818030020DFF834D0FFF73EFFE5
:1014B0000C480D490D4A002302E0D458C4500433AF
:1014C000C4188C42F9D30A4A0A4C002301E0136085
:1014D0000432A242FBD306F031FAFFF7A3FBFEE78A
:1014E000000001200000002078000020F07D0008AE
:1014F0007800002068860020FEE7000080B483B0FA
:1015000000AF03463960FB7197F90730002B0ADB07
:101510003B68DAB20C4997F907301201D2B20B449A
:1015200083F800230AE03B68DAB20849FB7903F04C
:101530000F03043B1201D2B20B441A7600BF0C37E2
:10154000BD465DF8047B704700E100E000ED00E07F
:1015500080B500AF00216FF00400FFF7CFFF00BFA0
:1015600080BD000080B483B000AFEFF305833B6023
:101570003B68002B03D06FF005037B600CE00A4B47
:101580001B68002B05D1084B01221A6000237B60E9
:1015900002E04FF0FF337B607B6818460C37BD4696
:1015A0005DF8047B704700BF1C03002080B582B04B
:1015B00000AFEFF305833B603B68002B03D06FF077
:1015C00005037B6010E00B4B1B68012B09D1FFF773
:1015D000BFFF084B02221A6002F084F900237B60EF
:1015E00002E04FF0FF337B607B6818460837BD464A
:1015F00080BD00BF1C03002080B58EB004AFF86032
:10160000B9607A6000233B61EFF305837B617B69FE
:10161000002B7ED1FB68002B7BD080233B621823FC
:10162000FB6100237B624FF0FF33BB617B68002BC3
:1016300045D07B681B68002B02D07B681B687B62EF
:101640007B689B69002B02D07B689B69FB61FB690F
:10165000002B08D0FB69382B05D87B685B6803F04A
:101660000103002B01D0002354E07B685B69002B51
:1016700003D07B685B699B083B627B689B68002B9F
:101680000ED07B68DB68BB2B0AD97B681B69002BFB
:1016900006D07B685B69002B02D00123BB6110E0A0
:1016A0007B689B68002B0CD17B68DB68002B08D122
:1016B0007B681B69002B04D10023BB6101E0002380
:1016C000BB61BB69012B10D17B681B697A6892688A
:1016D00002920193FB690093BB683A6A796AF868E1
:1016E00001F014FF03463B6113E0BB69002B10D1EE
:1016F0003B6A9AB207F110030193FB690093BB6840
:10170000796AF86801F05FFF0346012B01D00023DE
:101710003B613B6918462837BD4680BD80B584B023
:1017200000AF7860EFF30583BB60BB68002B03D08C
:101730006FF00503FB6007E00023FB607B68002B74
:1017400002D0786802F09AF8FB6818461037BD4658
:1017500080BD80B588B000AF78600023FB61EFF3F7
:101760000583BB60BB68002B74D17B68002B03D062
:101770007B685B68BB6101E00023BB61BB6903F070
:101780000103002B02D001237B6101E000237B6178
:10179000BB6903F00803002B5CD14FF0FF333B61C2
:1017A0007B68002B15D07B689B68002B06D07B687C
:1017B000DB684F2B02D901233B610CE07B689B68FF
:1017C000002B08D17B68DB68002B04D100233B6130
:1017D00001E000233B613B69012B12D17B69002BA7
:1017E00007D07B689B681946042001F07EF8F861F9
:1017F00016E07B689B681946012001F076F8F861D5
:101800000EE03B69002B0BD17B69002B04D0042038
:1018100001F053F8F86103E0012001F04EF8F8619F
:10182000FB69002B0CD07B68002B03D07B681B6806
:10183000FB6001E00023FB60F968F86901F008FE35
:10184000FB69002B06D07B69002B03D0FB6943F0BA
:101850000103FB61FB6918462037BD4680BD80B59A
:1018600086B000AF786039607B6823F001033B618C
:101870007B6803F00103FB6000237B61EFF30583CA
:10188000BB60BB68002B03D06FF005037B612CE0CD
:101890003B69002B03D16FF003037B6125E0FB68FC
:1018A000002B11D03968386901F06EF80346012B1E
:1018B0001BD03B68002B03D06FF001037B6114E069
:1018C0006FF002037B6110E03968386901F00CFBAE
:1018D0000346012B09D03B68002B03D06FF00103B6
:1018E0007B6102E06FF002037B617B691846183769
:1018F000BD4680BD80B586B000AF78607B6823F0C0
:1019000001033B617B6803F00103FB6000237B6103
:10191000EFF30583BB60BB68002B03D06FF00503BA
:101920007B611FE03B69002B03D16FF003037B61F8
:1019300018E0FB68002B09D0386900F0F1FF03467E
:10194000012B0FD06FF002037B610BE0002300221C
:101950000021386901F04EF80346012B02D06FF0E8
:1019600002037B617B6918461837BD4680BD80B590
:101970008AB002AFF860B9607A600023FB61EFF3D0
:1019800005833B613B69002B5FD1FB68002B5CD07A
:10199000BB68002B59D04FF0FF33BB617B68002B35
:1019A00029D07B689B68002B12D07B68DB684F2BAB
:1019B0000ED97B681B69002B0AD07B685A69FB68CB
:1019C000B96801FB03F39A4202D30123BB6114E01F
:1019D0007B689B68002B10D17B68DB68002B0CD1E7
:1019E0007B681B69002B08D17B685B69002B04D1E5
:1019F0000023BB6101E00023BB61BB69012B0BD15C
:101A00007B681A697B689B6800210091B968F86857
:101A100000F064FEF86108E0BB69002B05D10022EC
:101A2000B968F86800F0D2FEF861FB69002B0CD0B1
:101A30007B68002B03D07B681B687B6101E000237F
:101A40007B617969F86901F003FDFB69184620376D
:101A5000BD4680BD80B588B000AFF860B9603B601E
:101A60001346FB71FB68BB610023FB61EFF3058349
:101A70007B617B69002B28D0BB69002B05D0BB683C
:101A8000002B02D03B68002B03D06FF00303FB61F7
:101A900038E000233B6107F110020023B968B86900
:101AA00001F0A6F80346012B03D06FF00203FB619F
:101AB00028E03B69002B25D0154B4FF080521A606F
:101AC000BFF34F8FBFF36F8F1CE0BB69002B02D0B9
:101AD000BB68002B03D16FF00303FB6112E000230E
:101AE0003A68B968B86900F085FF0346012B09D050
:101AF0003B68002B03D06FF00103FB6102E06FF045
:101B00000203FB61FB6918462037BD4680BD00BF5C
:101B100004ED00E080B588B000AFF860B9607A608D
:101B20003B60FB68BB610023FB61EFF305837B61D6
:101B30007B69002B28D0BB69002B05D0BB68002B2C
:101B400002D03B68002B03D06FF00303FB6137E04A
:101B500000233B6107F110031A46B968B86901F028
:101B6000CFFA0346012B03D06FF00203FB6127E09D
:101B70003B69002B24D0154B4FF080521A60BFF305
:101B80004F8FBFF36F8F1BE0BB69002B02D0BB6888
:101B9000002B03D16FF00303FB6111E03A68B968D1
:101BA000B86901F0C1F80346012B09D03B68002B4E
:101BB00003D06FF00103FB6102E06FF00203FB61F1
:101BC000FB6918462037BD4680BD00BF04ED00E02C
:101BD00080B485B000AFF860B9607A60FB68074AEE
:101BE0001A60BB68064A1A607B6880221A6000BFD0
:101BF0001437BD465DF8047B704700BF200300200A
:101C0000DC03002080B485B000AFF860B9607A6072
:101C1000FB68074A1A60BB68064A1A607B684FF483
:101C200080721A6000BF1437BD465DF8047B7047B0
:101C3000DC0500209806002080B483B000AF7860F7
:101C40007B6803F108027B685A607B684FF0FF32C3
:101C50009A607B6803F108027B68DA607B6803F1B5
:101C600008027B681A617B6800221A6000BF0C378B
:101C7000BD465DF8047B704780B483B000AF7860E8
:101C80007B6800221A6100BF0C37BD465DF8047BFB
:101C9000704780B485B000AF786039607B685B685E
:101CA000FB603B68FA685A60FB689A683B689A6018
:101CB000FB689B683A685A60FB683A689A603B68C0
:101CC0007A681A617B681B685A1C7B681A6000BFBF
:101CD0001437BD465DF8047B704780B485B000AF13
:101CE000786039603B681B68BB60BB68B3F1FF3F3D
:101CF00003D17B681B69FB600CE07B680833FB60E9
:101D000002E0FB685B68FB60FB685B681B68BA68A5
:101D10009A42F6D2FB685A683B685A603B685B6837
:101D20003A689A603B68FA689A60FB683A685A6059
:101D30003B687A681A617B681B685A1C7B681A606A
:101D400000BF1437BD465DF8047B704780B485B092
:101D500000AF78607B681B69FB607B685B687A68B2
:101D600092689A607B689B687A6852685A60FB68E0
:101D70005B687A689A4203D17B689A68FB685A600C
:101D80007B6800221A61FB681B685A1EFB681A6098
:101D9000FB681B6818461437BD465DF8047B704726
:101DA00080B485B000AFF860B9607A60FB68043B2E
:101DB000FB60FB684FF080721A60FB68043BFB60BD
:101DC000BB6823F00102FB681A60FB68043BFB6000
:101DD0000C4AFB681A60FB68143BFB607A68FB687E
:101DE0001A60FB68043BFB60FB686FF002021A603C
:101DF000FB68203BFB60FB6818461437BD465DF866
:101E0000047B7047091E000880B485B000AF002332
:101E10007B60124B1B68B3F1FF3F0AD04FF05003B9
:101E200083F31188BFF36F8FBFF34F8FFB6000BF49
:101E3000FEE74FF0500383F31188BFF36F8FBFF3BA
:101E40004F8FBB6000BF00BF7B68002BFCD000BF82
:101E500000BF1437BD465DF8047B704708000020C2
:101E6000074B19680868B0E8F04F80F30988BFF3A2
:101E70006F8F4FF0000080F311887047AFF3008040
:101E80003080002000BF00BF08480068006880F371
:101E900008884FF0000080F3148862B661B6BFF383
:101EA0004F8FBFF36F8F00DF00BF00BF08ED00E072
:101EB00080B586B000AF464B1B68464A93420AD1B4
:101EC0004FF0500383F31188BFF36F8FBFF34F8F31
:101ED0003B6100BFFEE73E4B1B683F4A93420AD17D
:101EE0004FF0500383F31188BFF36F8FBFF34F8F11
:101EF000FB6000BFFEE7394B7B617B691B78DBB27F
:101F00007B607B69FF221A707B691B78DBB2FB70F8
:101F1000FB78DBB203F05003DAB2314B1A70314B6D
:101F200007221A6009E02F4B1B68013B2D4A136002
:101F3000FB78DBB25B00DBB2FB70FB78DBB203F05B
:101F40008003802BEFD0274B1B68C3F10703042BC2
:101F50000AD04FF0500383F31188BFF36F8FBFF3A4
:101F60004F8FBB6000BFFEE71E4B1B681B021D4A64
:101F700013601C4B1B6803F4E0631A4A13607B6810
:101F8000DAB27B691A70184B1B68174A43F4700366
:101F90001360154B1B68144A43F07043136000F044
:101FA000DDF8124B00221A6000F0FCF8104B1B68A1
:101FB0000F4A43F040431360FFF766FF01F078FEDD
:101FC000FFF722FF002318461837BD4680BD00BF2B
:101FD00000ED00E071C20F4170C20F4100E400E06B
:101FE000980A00209C0A002020ED00E00800002054
:101FF00034EF00E080B483B000AF4FF0500383F3C0
:102000001188BFF36F8FBFF34F8F7B6000BF0F4B03
:102010001B6801330D4A13600C4B1B68012B0FD159
:102020000B4B1B68DBB2002B0AD04FF0500383F33D
:102030001188BFF36F8FBFF34F8F3B6000BFFEE788
:1020400000BF0C37BD465DF8047B704708000020D8
:1020500004ED00E080B483B000AF124B1B68002B8E
:102060000AD14FF0500383F31188BFF36F8FBFF392
:102070004F8F7B6000BFFEE70A4B1B68013B094A9C
:102080001360084B1B68002B05D100233B603B68A5
:1020900083F3118800BF00BF0C37BD465DF8047B99
:1020A000704700BF08000020000000000000000092
:1020B000EFF30980BFF36F8F154B1A681EF0100FF6
:1020C00008BF20ED108A20E9F04F10602DE90900CB
:1020D0004FF0500080F31188BFF34F8FBFF36F8F25
:1020E00001F0E6FD4FF0000080F3118809BC19688B
:1020F0000868B0E8F04F1EF0100F08BFB0EC108A6F
:1021000080F30988BFF36F8F704700BFAFF3008083
:102110003080002000BF00BF80B582B000AF4FF01C
:10212000500383F31188BFF36F8FBFF34F8F7B6032
:1021300000BF01F003FD0346002B03D0064B4FF018
:1021400080521A6000233B603B6883F3118800BF14
:1021500000BF0837BD4680BD04ED00E080B400AF8D
:102160000B4B00221A600B4B00221A600A4B1B68B3
:102170000A4AA2FB03239B09094A013B1360044B53
:1021800007221A6000BFBD465DF8047B704700BFA0
:1021900010E000E018E000E004000020D34D6210E1
:1021A00014E000E0DFF80C00016841F47001016008
:1021B000704700BF88ED00E080B485B000AFEFF35A
:1021C0000583FB60FB680F2B14D9174AFB68134487
:1021D0001B78FB72154B1B78FA7A9A420AD24FF0A1
:1021E000500383F31188BFF36F8FBFF34F8F7B6072
:1021F00000BFFEE70E4B1B6803F4E0620D4B1B684B
:102200009A420AD94FF0500383F31188BFF36F8FBE
:10221000BFF34F8F3B6000BFFEE700BF1437BD46E2
:102220005DF8047B704700BFF0E300E0980A0020EF
:102230000CED00E09C0A002080B58AB000AF786009
:102240000023FB6101F0BEFB5B4B1B68002B01D13F
:1022500000F020F9594B1A687B681340002B40F0BE
:1022600093807B68002B1DD008227B6813447B6021
:102270007B6803F00703002B14D07B6823F007036F
:1022800008337B607B6803F00703002B0AD04FF014
:10229000500383F31188BFF36F8FBFF34F8F7B61C0
:1022A00000BFFEE77B68002B6ED0454B1B687A6849
:1022B0009A4269D8434B3B62424B1B687B6204E005
:1022C0007B6A3B627B6A1B687B627B6A5B687A68BD
:1022D0009A4203D97B6A1B68002BF1D1364B1B68ED
:1022E0007A6A9A4250D03B6A1B6808221344FB6109
:1022F0007B6A1A683B6A1A607B6A5A687B68D21AE2
:1023000008235B009A421FD97A6A7B681344BB6139
:10231000BB6903F00703002B0AD04FF0500383F38F
:102320001188BFF36F8FBFF34F8F3B6100BFFEE794
:102330007B6A5A687B68D21ABB695A607B6A7A6882
:102340005A60B86900F008F91D4B1A687B6A5B682F
:10235000D31A1B4A13601A4B1A681B4B1B689A420C
:1023600003D2174B1B68184A13607B6A5A68134BD9
:102370001B681A437B6A5A607B6A00221A60134BFF
:102380001B680133114A136001F02AFBFB6903F05B
:102390000703002B0AD04FF0500383F31188BFF3DB
:1023A0006F8FBFF34F8FFB6000BFFEE7FB691846DE
:1023B0002837BD4680BD00BFD87F0020EC7F0020BD
:1023C000DC7F0020D07F0020E07F0020E47F002021
:1023D00080B586B000AF78607B687B617B68002B3E
:1023E0004DD008235B427A6913447B617B693B6172
:1023F0003B695A68244B1B681340002B0AD14FF0ED
:10240000500383F31188BFF36F8FBFF34F8FFB60CF
:1024100000BFFEE73B691B68002B0AD04FF050035A
:1024200083F31188BFF36F8FBFF34F8FBB6000BF83
:10243000FEE73B695A68144B1B681340002B1ED003
:102440003B691B68002B1AD13B695A680E4B1B680D
:10245000DB431A403B695A6001F0B4FA3B695A68A1
:102460000A4B1B681344094A1360386900F074F87A
:10247000074B1B680133064A136001F0B1FA00BF35
:102480001837BD4680BD00BFEC7F0020DC7F0020F8
:10249000E87F002080B485B000AF47F23053BB60C6
:1024A000274BFB60FB6803F00703002B0CD0FB6895
:1024B0000733FB60FB6823F00703FB60BA68FB6827
:1024C000D31A1F4A1344BB60FB687B601D4A7B68BC
:1024D00013601C4B00225A607B68BA681344FB608F
:1024E0000822FB689B1AFB60FB6823F00703FB6074
:1024F000FB68154A1360144B1B6800225A60124B8C
:102500001B6800221A607B683B603B68FA68D21A3D
:102510003B685A600C4B1A683B681A603B685B6802
:102520000A4A13603B685B68094A1360094B4FF025
:1025300000421A6000BF1437BD465DF8047B704747
:10254000A00A0020D07F0020D87F0020E07F00205C
:10255000DC7F0020EC7F002080B485B000AF786085
:10256000284BFB6002E0FB681B68FB60FB681B6894
:102570007A689A42F7D8FB68BB60FB685B68BA6808
:1025800013447A689A4208D1FB685A687B685B6892
:102590001A44FB685A60FB687B607B68BB607B68A1
:1025A0005B68BA681A44FB681B689A4218D1FB68DA
:1025B0001A68154B1B689A420DD07B685A68FB68F5
:1025C0001B685B681A447B685A60FB681B681A6862
:1025D0007B681A6008E00C4B1A687B681A6003E09D
:1025E000FB681A687B681A60FA687B689A4202D0B6
:1025F000FB687A681A6000BF1437BD465DF8047B3B
:10260000704700BFD07F0020D87F002080B584B005
:1026100000AF786039607B68FB60FB68002B0AD1F3
:102620004FF0500383F31188BFF36F8FBFF34F8FC9
:10263000BB6000BFFEE7FFF7DDFCFB681A68FB68C4
:10264000DB6BF968096C01FB03F31A44FB689A60C1
:10265000FB6800229A63FB681A68FB685A60FB6893
:102660001A68FB68DB6B013BF968096C01FB03F33B
:102670001A44FB68DA60FB68FF2283F84420FB6899
:10268000FF2283F845203B68002B14D1FB681B69AF
:10269000002B1AD0FB681033184601F0BDFB03462F
:1026A000002B12D00C4B4FF080521A60BFF34F8FAB
:1026B000BFF36F8F09E0FB6810331846FFF7BCFAD1
:1026C000FB6824331846FFF7B7FAFFF7C3FC012372
:1026D00018461037BD4680BD04ED00E080B58EB0D1
:1026E00002AFF860B9607A603B60FB68002B0AD1EA
:1026F0004FF0500383F31188BFF36F8FBFF34F8FF9
:10270000BB6200BFFEE73B68002B0AD14FF05003CD
:1027100083F31188BFF36F8FBFF34F8F7B6200BFCE
:10272000FEE77B68002B02D0BB68002B01D00123A1
:1027300000E00023002B0AD14FF0500383F31188EF
:10274000BFF36F8FBFF34F8F3B6200BFFEE77B6825
:10275000002B02D1BB68002B01D1012300E0002334
:10276000002B0AD14FF0500383F31188BFF36F8F12
:10277000BFF34F8FFB6100BFFEE750237B617B6996
:10278000502B0AD04FF0500383F31188BFF36F8FA3
:10279000BFF34F8FBB6100BFFEE77B693B68FB6205
:1027A000FB6A002B0DD0FB6A012283F8462097F8C4
:1027B0003820FB6A009313467A68B968F86800F01D
:1027C0003FF8FB6A18463037BD4680BD80B58AB0F9
:1027D00002AFF860B9601346FB71FB68002B0AD1A9
:1027E0004FF0500383F31188BFF36F8FBFF34F8F08
:1027F0003B6100BFFEE7FB68BA6802FB03F3FB61C5
:10280000FB6950331846FFF717FDB861BB69002B11
:1028100011D0BB697B617B6950337B61BB6900224E
:1028200083F84620FA79BB69009313467A69B96840
:10283000F86800F005F8BB6918462037BD4680BD32
:1028400080B584B000AFF860B9607A60FB70BB6897
:10285000002B03D1BB69BA691A6002E0BB697A68D0
:102860001A60BB69FA68DA63BB69BA681A64012145
:10287000B869FFF7CBFEBB69FA7883F84C2000BF3C
:102880001037BD4680BD80B582B000AF78607B68F0
:10289000002B0ED07B6800229A607B6800221A60B1
:1028A0007B680022DA60002300220021786800F0B3
:1028B000A1F800BF0837BD4680BD80B586B000AF27
:1028C0000346FB7101237B6100233B61FB791A46C0
:1028D00039697869FFF77AFFF860F868FFF7D3FF86
:1028E000FB6818461837BD4680BD80B588B002AF7A
:1028F00003463960FB7101237B6100233B61FB7957
:1029000000933B68002239697869FFF7E7FEF860B9
:10291000F868FFF7B8FFFB6818461837BD4680BD5A
:1029200090B587B000AF78607B683B613B69002B56
:102930000AD14FF0500383F31188BFF36F8FBFF3B9
:102940004F8FFB6000BFFEE73B699C6801F026FCEF
:1029500003469C4211D13B69DB685A1E3B69DA6031
:102960003B69DB68002B05D1002300220021386978
:1029700000F040F801237B6101E000237B617B696B
:1029800018461C37BD4690BD90B587B000AF786043
:1029900039607B683B613B69002B0AD14FF05003E3
:1029A00083F31188BFF36F8FBFF34F8FFB6000BFBE
:1029B000FEE73B699C6801F0F1FB03469C4207D1AE
:1029C0003B69DB685A1C3B69DA6001237B610CE0E0
:1029D0003968386900F088FA78617B69002B04D087
:1029E0003B69DB685A1C3B69DA607B6918461C3717
:1029F000BD4690BD80B58EB000AFF860B9607A601A
:102A00003B6000237B63FB683B633B6B002B0AD17D
:102A10004FF0500383F31188BFF36F8FBFF34F8FD5
:102A2000BB6200BFFEE7BB68002B03D13B6B1B6C96
:102A3000002B01D1012300E00023002B0AD14FF02D
:102A4000500383F31188BFF36F8FBFF34F8F7B6207
:102A500000BFFEE73B68022B03D13B6BDB6B012B16
:102A600001D1012300E00023002B0AD14FF05003D5
:102A700083F31188BFF36F8FBFF34F8F3B6200BFAB
:102A8000FEE701F09BFB0346002B02D17B68002B85
:102A900001D1012300E00023002B0AD14FF05003A5
:102AA00083F31188BFF36F8FBFF34F8FFB6100BFBC
:102AB000FEE7FFF79FFA3B6B9A6B3B6BDB6B9A422F
:102AC00002D33B68022B29D13A68B968386B00F011
:102AD000AFFBF8623B6B5B6A002B10D03B6B24337F
:102AE000184601F099F90346002B13D03F4B4FF0E5
:102AF00080521A60BFF34F8FBFF36F8F0AE0FB6AFB
:102B0000002B07D0394B4FF080521A60BFF34F8F24
:102B1000BFF36F8FFFF79EFA012363E07B68002B02
:102B200003D1FFF797FA00235CE07B6B002B06D103
:102B300007F11403184601F0D3F901237B63FFF773
:102B400089FA00F03FFFFFF755FA3B6B93F84430EA
:102B50005BB2B3F1FF3F03D13B6B002283F844200B
:102B60003B6B93F845305BB2B3F1FF3F03D13B6B56
:102B7000002283F84520FFF76DFA3A1D07F1140390
:102B80001146184601F0C2F90346002B24D1386BD8
:102B900000F046FC0346002B18D03B6B10337A68DC
:102BA0001146184601F0E8F8386B00F0D1FB00F050
:102BB00017FF0346002B7FF47CAF0C4B4FF0805285
:102BC0001A60BFF34F8FBFF36F8F72E7386B00F05F
:102BD000BFFB00F005FF6CE7386B00F0B9FB00F0BD
:102BE000FFFE002318463837BD4680BD04ED00E0E7
:102BF00080B590B000AFF860B9607A603B60FB6868
:102C0000BB63BB6B002B0AD14FF0500383F31188D9
:102C1000BFF36F8FBFF34F8FBB6200BFFEE7BB6890
:102C2000002B03D1BB6B1B6C002B01D1012300E0F7
:102C30000023002B0AD14FF0500383F31188BFF318
:102C40006F8FBFF34F8F7B6200BFFEE73B68022BA5
:102C500003D1BB6BDB6B012B01D1012300E000230F
:102C6000002B0AD14FF0500383F31188BFF36F8F0D
:102C7000BFF34F8F3B6200BFFEE7FFF79DFAEFF314
:102C800011824FF0500383F31188BFF36F8FBFF3AE
:102C90004F8FFA61BB61FB697B63BB6B9A6BBB6B4C
:102CA000DB6B9A4202D33B68022B2FD1BB6B93F8AC
:102CB000453087F83330BB6B9B6BFB623A68B96871
:102CC000B86B00F0B5FA97F93330B3F1FF3F12D18A
:102CD000BB6B5B6A002B16D0BB6B2433184601F02C
:102CE0009BF80346002B0ED07B68002B0BD07B6833
:102CF00001221A6007E097F833300133DBB25AB291
:102D0000BB6B83F845200123FB6301E00023FB63D9
:102D10007B6B7B617B6983F3118800BFFB6B18467B
:102D20004037BD4680BD000080B58CB000AFF86074
:102D3000B9607A600023FB62FB68BB62BB6A002B50
:102D40000AD14FF0500383F31188BFF36F8FBFF3A5
:102D50004F8F3B6200BFFEE7BB68002B03D1BB6A0D
:102D60001B6C002B01D1012300E00023002B0AD1B2
:102D70004FF0500383F31188BFF36F8FBFF34F8F72
:102D8000FB6100BFFEE701F019FA0346002B02D1F8
:102D90007B68002B01D1012300E00023002B0AD126
:102DA0004FF0500383F31188BFF36F8FBFF34F8F42
:102DB000BB6100BFFEE7FFF71DF9BB6A9B6B7B623F
:102DC0007B6A002B1FD0B968B86A00F09BFA7B6A57
:102DD0005A1EBB6A9A63BB6A1B69002B0FD0BB6A81
:102DE0001033184601F018F80346002B07D03D4B6E
:102DF0004FF080521A60BFF34F8FBFF36F8FFFF712
:102E000029F9012369E07B68002B03D1FFF722F940
:102E1000002362E0FB6A002B06D107F1100318467D
:102E200001F05EF80123FB62FFF714F900F0CAFD20
:102E3000FFF7E0F8BB6A93F844305BB2B3F1FF3FB1
:102E400003D1BB6A002283F84420BB6A93F8453063
:102E50005BB2B3F1FF3F03D1BB6A002283F8452088
:102E6000FFF7F8F83A1D07F110031146184601F074
:102E70004DF80346002B23D1B86A00F0BBFA034695
:102E8000002B17D0BB6A24337A681146184600F02D
:102E900073FFB86A00F05CFA00F0A2FD0346002B55
:102EA00089D1104B4FF080521A60BFF34F8FBFF3A0
:102EB0006F8F80E7B86A00F04BFA00F091FD7AE777
:102EC000B86A00F045FA00F08BFDB86A00F092FA9B
:102ED0000346002B3FF46FAF002318463037BD4642
:102EE00080BD00BF04ED00E080B58EB000AF78601B
:102EF000396000237B637B68FB6200233B63FB6AD2
:102F0000002B0AD14FF0500383F31188BFF36F8F6A
:102F1000BFF34F8F3B6200BFFEE7FB6A1B6C002BC9
:102F20000AD04FF0500383F31188BFF36F8FBFF3C4
:102F30004F8FFB6100BFFEE701F040F90346002B15
:102F400002D13B68002B01D1012300E00023002BBC
:102F50000AD14FF0500383F31188BFF36F8FBFF393
:102F60004F8FBB6100BFFEE7FFF744F8FB6A9B6B26
:102F7000BB62BB6A002B24D0BB6A5A1EFB6A9A63F1
:102F8000FB6A1B68002B04D101F08EFA0246FB6A33
:102F90009A60FB6A1B69002B0FD0FB6A103318463E
:102FA00000F03AFF0346002B07D0544B4FF08052FD
:102FB0001A60BFF34F8FBFF36F8FFFF74BF80123FA
:102FC00097E03B68002B11D13B6B002B0AD04FF0F0
:102FD000500383F31188BFF36F8FBFF34F8F7B6173
:102FE00000BFFEE7FFF736F8002382E07B6B002B83
:102FF00006D107F10C03184600F072FF01237B6332
:10300000FFF728F800F0DEFCFEF7F4FFFB6A93F808
:1030100044305BB2B3F1FF3F03D1FB6A002283F877
:103020004420FB6A93F845305BB2B3F1FF3F03D114
:10303000FB6A002283F84520FFF70CF83A4607F1B7
:103040000C031146184600F061FF0346002B32D1F5
:10305000F86A00F0CFF90346002B26D0FB6A1B6804
:10306000002B09D1FEF7C6FFFB6A9B68184601F0EA
:10307000C3F83863FEF7EEFFFB6A24333A68114663
:10308000184600F079FEF86A00F062F900F0A8FC3A
:103090000346002B7FF468AF184B4FF080521A6044
:1030A000BFF34F8FBFF36F8F5EE7F86A00F050F900
:1030B00000F096FC58E7F86A00F04AF900F090FC3E
:1030C000F86A00F097F90346002B3FF44DAF3B6BD5
:1030D000002B0DD0FEF78EFFF86A00F091F87862B1
:1030E000FB6A9B68796A184601F05CF9FEF7B2FF4B
:1030F000002318463837BD4680BD00BF04ED00E010
:1031000080B58EB000AFF860B9607A60FB683B6351
:103110003B6B002B0AD14FF0500383F31188BFF3B0
:103120006F8FBFF34F8F3B6200BFFEE7BB68002B82
:1031300003D13B6B1B6C002B01D1012300E000236A
:10314000002B0AD14FF0500383F31188BFF36F8F28
:10315000BFF34F8FFB6100BFFEE7FFF72DF8EFF3E2
:1031600011824FF0500383F31188BFF36F8FBFF3C9
:103170004F8FBA617B61BB69FB623B6B9B6BBB6230
:10318000BB6A002B2FD03B6B93F8443087F8273075
:10319000B968386B00F0B6F8BB6A5A1E3B6B9A638D
:1031A00097F92730B3F1FF3F12D13B6B1B69002B1E
:1031B00016D03B6B1033184600F02EFE0346002B52
:1031C0000ED07B68002B0BD07B6801221A6007E0D1
:1031D00097F827300133DBB25AB23B6B83F84420B7
:1031E00001237B6301E000237B63FB6A3B613B6956
:1031F00083F3118800BF7B6B18463837BD4680BD0E
:1032000080B485B000AF78607B685B6A002B06D025
:103210007B681B6B1B68C3F13803FB6001E0002374
:10322000FB60FB6818461437BD465DF8047B7047A9
:1032300080B586B000AFF860B9607A6000237B612A
:10324000FB689B6B3B61FB681B6C002B0DD1FB6823
:103250001B68002B4DD1FB689B68184601F034F8C1
:103260007861FB6800229A6043E07B68002B19D1EB
:10327000FB685868FB681B6C1A46B96804F084FB4D
:10328000FB685A68FB681B6C1A44FB685A60FB6851
:103290005A68FB689B689A422BD3FB681A68FB68E4
:1032A0005A6026E0FB68D868FB681B6C1A46B96850
:1032B00004F06AFBFB68DA68FB681B6C5B421A442B
:1032C000FB68DA60FB68DA68FB681B689A4207D221
:1032D000FB689A68FB681B6C5B421A44FB68DA6007
:1032E0007B68022B05D13B69002B02D03B69013B77
:1032F0003B613B695A1CFB689A637B691846183727
:10330000BD4680BD80B582B000AF786039607B6813
:103310001B6C002B18D07B68DA687B681B6C1A4426
:103320007B68DA607B68DA687B689B689A4203D3C3
:103330007B681A687B68DA607B68D9687B681B6C7D
:103340001A46386804F020FB00BF0837BD4680BD30
:1033500080B584B000AF7860FEF74CFE7B6893F8D0
:103360004530FB7311E07B685B6A002B12D07B68F1
:103370002433184600F050FD0346002B01D000F026
:1033800027FEFB7B013BDBB2FB7397F90F30002B71
:10339000E9DC00E000BF7B68FF2283F84520FEF7F0
:1033A00059FEFEF727FE7B6893F84430BB7311E0AB
:1033B0007B681B69002B12D07B681033184600F025
:1033C0002BFD0346002B01D000F002FEBB7B013B2E
:1033D000DBB2BB7397F90E30002BE9DC00E000BFD5
:1033E0007B68FF2283F84420FEF734FE00BF1037CD
:1033F000BD4680BD80B584B000AF7860FEF7FAFDB1
:103400007B689B6B002B02D10123FB6001E0002352
:10341000FB60FEF71FFEFB6818461037BD4680BDF7
:1034200080B584B000AF7860FEF7E4FD7B689A6BEE
:103430007B68DB6B9A4202D10123FB6001E0002331
:10344000FB60FEF707FEFB6818461037BD4680BDDF
:1034500080B485B000AF786039600023FB6014E071
:103460000F4AFB6852F83330002B0BD10C49FB6834
:103470003A6841F833200A4AFB68DB0013447A6853
:103480005A6006E0FB680133FB60FB68072BE7D955
:1034900000BF00BF1437BD465DF8047B704700BF16
:1034A000F07F002080B586B000AFF860B9607A6028
:1034B000FB687B61FEF79EFD7B6993F844305BB24D
:1034C000B3F1FF3F03D17B69002283F844207B697D
:1034D00093F845305BB2B3F1FF3F03D17B69002223
:1034E00083F84520FEF7B6FD7B699B6B002B06D168
:1034F0007B6924337A68B968184600F061FC786902
:10350000FFF726FF00BF1837BD4680BD80B58EB0DF
:1035100004AFF860B9607A603B607B6B002B0AD126
:103520004FF0500383F31188BFF36F8FBFF34F8FBA
:103530003B6200BFFEE7BB6B002B0AD14FF050038C
:1035400083F31188BFF36F8FBFF34F8FFB6100BF11
:10355000FEE7BC233B613B69BC2B0AD04FF0500314
:1035600083F31188BFF36F8FBFF34F8FBB6100BF31
:10357000FEE73B69BB6B002B1ED07B6B002B1BD087
:10358000BB6B7B627B6A7A6B1A637B6A022283F86D
:10359000B920002303937B6A029307F1140301937C
:1035A0003B6B00933B687A68B968F86800F050F8A4
:1035B000786A00F0F3F801E000237B617B6918462C
:1035C0002837BD4680BD80B58CB004AFF860B960C7
:1035D0003B601346FB80FB889B001846FEF72CFEE1
:1035E00078617B69002B0ED0BC20FEF725FEF861C8
:1035F000FB69002B03D0FB697A691A6305E07869DF
:10360000FEF7E6FE01E00023FB61FB69002B17D00B
:10361000FB69002283F8B920FA8800230393FB6931
:103620000293FB6A0193BB6A00933B68B968F86830
:1036300000F00EF8F86900F0B1F80123BB6102E078
:103640004FF0FF33BB61BB6918462037BD4680BDD4
:1036500080B588B000AFF860B9607A603B603B6BC2
:10366000186B7B689B001A46A52104F09BF93B6B05
:103670001A6B7B6803F18043013B9B001344BB61E1
:10368000BB6923F00703BB61BB6903F00703002B91
:103690000AD04FF0500383F31188BFF36F8FBFF34D
:1036A0004F8F7B6100BFFEE7BB68002B1FD000235C
:1036B000FB6112E0BA68FB69134419783A6BFB6945
:1036C000134434330A461A70BA68FB6913441B78F2
:1036D000002B06D0FB690133FB61FB690F2BE9D995
:1036E00000E000BF3B6B002283F8432003E03B6B0C
:1036F000002283F83420BB6A372B01D93723BB6201
:103700003B6BBA6ADA623B6BBA6ADA643B6B0022E3
:103710001A653B6B04331846FEF7AEFA3B6B183361
:103720001846FEF7A9FA3B6B3A6B1A61BB6AC3F104
:1037300038023B6B9A613B6B3A6B5A623B6B0022DF
:10374000C3F8B4203B6B002283F8B8203B6B5433A2
:1037500060220021184604F025F93B6B0C4A9A655B
:103760003B6B0C4ADA653B6B0B4A1A663A68F968A0
:10377000B869FEF715FB02463B6B1A60FB6A002B2B
:1037800002D0FB6A3A6B1A6000BF2037BD4680BD8D
:10379000A87D0008C87D0008887D000880B582B03B
:1037A00000AF7860FEF726FC2D4B1B6801332C4AD6
:1037B00013602C4B1B68002B09D12A4A7B681360CD
:1037C000274B1B68012B10D100F026FC0DE0264B87
:1037D0001B68002B09D1234B1B68DA6A7B68DB6A04
:1037E0009A4202D81F4A7B681360204B1B68013342
:1037F0001E4A13601D4B1A687B685A647B68DA6A3C
:103800001B4B1B689A4203D97B68DB6A184A13601A
:103810007B68DA6A13469B0013449B00154A1A44DE
:103820007B68043319461046FEF733FAFEF712FCA4
:103830000D4B1B68002B0ED00A4B1B68DA6A7B68A5
:10384000DB6A9A4207D20C4B4FF080521A60BFF3EA
:103850004F8FBFF36F8F00BF0837BD4680BD00BFDD
:103860000485002030800020108500202085002065
:103870000C8500203480002004ED00E080B584B089
:1038800000AF78600023FB607B68002B17D0134BE0
:103890001B68002B0AD04FF0500383F31188BFF34D
:1038A0006F8FBFF34F8FBB6000BFFEE700F08AF859
:1038B0000021786800F00CFE00F092F8F860FB68D8
:1038C000002B07D1064B4FF080521A60BFF34F8F89
:1038D000BFF36F8F00BF1037BD4680BD2C85002021
:1038E00004ED00E080B58AB004AF0023BB60002384
:1038F0007B603A46391D07F108031846FEF768F960
:1039000039687B68BA680292019300230093002310
:103910000A4624492448FFF7F9FD0346234A136069
:10392000224B1B68002B02D001237B6101E00023A6
:103930007B617B69012B02D100F01EFE78617B69FF
:10394000012B1BD14FF0500383F31188BFF36F8F0E
:10395000BFF34F8F3B6100BF154B1B685433154AB3
:103960001360154B4FF0FF321A60144B01221A609E
:10397000134B00221A60FEF79BFA0EE07B69B3F14D
:10398000FF3F0AD14FF0500383F31188BFF36F8FCD
:10399000BFF34F8FFB6000BFFEE700BF1837BD4687
:1039A00080BD00BFEC7B0008E93F000828850020AF
:1039B0003080002014000020248500201085002085
:1039C0000885002080B400AF044B1B680133034A14
:1039D000136000BFBD465DF8047B70472C85002056
:1039E00080B584B000AF0023FB600023BB60424B76
:1039F0001B68002B0AD14FF0500383F31188BFF3EB
:103A00006F8FBFF34F8F3B6000BFFEE7FEF7F2FA08
:103A1000394B1B68013B384A1360374B1B68002B3E
:103A200062D1364B1B68002B5ED02FE0344BDB6835
:103A3000DB68FB60FB6818331846FEF787F9FB6804
:103A400004331846FEF782F9FB68DA6A2D4B1B68CF
:103A50009A4203D9FB68DB6A2A4A1360FB68DA6A78
:103A600013469B0013449B00274A1A44FB68043307
:103A700019461046FEF70DF9FB68DA6A234B1B68FE
:103A8000DB6A9A4202D3224B01221A601C4B1B684C
:103A9000002BCBD1FB68002B01D000F05FFB1D4B4E
:103AA0001B687B607B68002B10D000F047F8034652
:103AB000002B02D0164B01221A607B68013B7B6011
:103AC0007B68002BF1D1134B00221A60104B1B684E
:103AD000002B09D00123BB600F4B4FF080521A60BE
:103AE000BFF34F8FBFF36F8FFEF7B4FABB68184672
:103AF0001037BD4680BD00BF2C8500200485002006
:103B0000C48400200C8500203480002030800020F8
:103B1000188500201485002004ED00E080B483B0F7
:103B200000AF054B1B687B607B6818460C37BD46B1
:103B30005DF8047B704700BF0885002080B586B023
:103B400000AF00237B614F4B1B68002B40F08F8040
:103B50004D4B1B6801333B614B4A3B6913603B692A
:103B6000002B20D1494B1B681B68002B0AD04FF05B
:103B7000500383F31188BFF36F8FBFF34F8F3B6008
:103B800000BFFEE7414B1B68FB60414B1B683F4A8F
:103B900013603F4AFB6813603E4B1B6801333D4A8C
:103BA000136000F0DBFA3C4B1B683A699A4249D338
:103BB000364B1B681B68002B04D1374B4FF0FF328C
:103BC0001A603FE0314B1B68DB68DB68BB60BB6899
:103BD0005B687B603A697B689A4203D22E4A7B68B5
:103BE00013602FE0BB6804331846FEF7AFF8BB68DC
:103BF0009B6A002B04D0BB6818331846FEF7A6F862
:103C0000BB68DA6A254B1B689A4203D9BB68DB6A3A
:103C1000224A1360BB68DA6A13469B0013449B0078
:103C20001F4A1A44BB68043319461046FEF731F8A0
:103C3000BB68DA6A1B4B1B68DB6A9A42B8D3012364
:103C40007B61B5E7174B1B68DA6A154913469B0081
:103C500013449B000B441B68012B01D901237B619A
:103C6000114B1B68002B07D001237B6104E00F4B35
:103C70001B6801330D4A13607B6918461837BD462F
:103C800080BD00BF2C85002008850020BC8400205A
:103C9000C08400201C850020248500200C85002085
:103CA00034800020308000201885002014850020FA
:103CB00080B485B000AF2A4B1B68002B03D0294B82
:103CC00001221A6046E0274B00221A60264B1B682F
:103CD000FB6010E0FB68002B0AD14FF0500383F328
:103CE0001188BFF36F8FBFF34F8F7B6000BFFEE77C
:103CF000FB68013BFB601D49FA6813469B001344B7
:103D00009B000B441B68002BE4D0FA6813469B0011
:103D100013449B00154A1344BB60BB685B685A6838
:103D2000BB685A60BB685A68BB6808339A4204D1C2
:103D3000BB685B685A68BB685A60BB685B68DB68D5
:103D40000B4A1360084AFB681360094B1B68543325
:103D5000084A136000BF1437BD465DF8047B704706
:103D60002C850020188500200C8500203480002040
:103D7000308000201400002080B584B000AF78604F
:103D800039607B68002B0AD14FF0500383F3118810
:103D9000BFF36F8FBFF34F8FFB6000BFFEE7074B92
:103DA0001B68183319467868FDF797FF01213868BA
:103DB00000F08EFB00BF1037BD4680BD3080002074
:103DC00080B586B000AFF860B9607A60FB68002B00
:103DD0000AD14FF0500383F31188BFF36F8FBFF305
:103DE0004F8F7B6100BFFEE70A4B1B6818331946F3
:103DF000F868FDF74EFF7B68002B02D04FF0FF33D1
:103E0000BB607968B86800F063FB00BF1837BD4637
:103E100080BD00BF3080002080B586B000AF7860E4
:103E20007B68DB68DB683B613B69002B0AD14FF0A4
:103E3000500383F31188BFF36F8FBFF34F8FFB6085
:103E400000BFFEE73B6918331846FDF77FFF1E4BA6
:103E50001B68002B1DD13B6904331846FDF776FF24
:103E60003B69DA6A194B1B689A4203D93B69DB6AE2
:103E7000164A13603B69DA6A13469B0013449B00A1
:103E8000134A1A443B69043319461046FDF701FFF3
:103E900005E03B69183319460E48FDF7FAFE3B6909
:103EA000DA6A0D4B1B68DB6A9A4205D901237B61F4
:103EB0000A4B01221A6001E000237B617B691846EE
:103EC0001837BD4680BD00BF2C8500200C85002022
:103ED00034800020C4840020308000201885002019
:103EE00080B483B000AF7860064B1A687B681A60B4
:103EF000054B1A687B685A6000BF0C37BD465DF8F9
:103F0000047B70471C8500200885002080B588B0A0
:103F100000AF786039607B68002B0AD14FF0500306
:103F200083F31188BFF36F8FBFF34F8F3B6100BFE7
:103F3000FEE73B68002B0AD14FF0500383F3118852
:103F4000BFF36F8FBFF34F8FFB6000BFFEE7FEF73D
:103F500051F81D4B1B68BB617B685B68BA69D31A5B
:103F60007B613B681B68B3F1FF3F02D10023FB611B
:103F700023E07B681A68154B1B689A4207D07B6860
:103F80005B68BA699A4202D30123FB6115E03B6882
:103F90001B687A699A420BD23B681A687B69D21A0D
:103FA0003B681A607868FFF79BFF0023FB6104E021
:103FB0003B6800221A600123FB61FEF74BF8FB69A6
:103FC00018462037BD4680BD088500201C8500208E
:103FD00080B400AF034B01221A6000BFBD465DF8FC
:103FE000047B70471885002080B582B000AF7860F0
:103FF00000F052F8064B1B68012BF9D9054B4FF026
:1040000080521A60BFF34F8FBFF36F8FF0E700BF8E
:104010003480002004ED00E080B582B000AF0023C2
:104020007B600CE07A6813469B0013449B00124AA5
:1040300013441846FDF700FE7B6801337B607B6804
:10404000372BEFD90D48FDF7F7FD0D48FDF7F4FDCF
:104050000C48FDF7F1FD0C48FDF7EEFD0B48FDF7B0
:10406000EBFD0B4B054A1A600A4B054A1A6000BF6C
:104070000837BD4680BD00BF3480002094840020F6
:10408000A8840020C4840020D8840020F08400206C
:10409000BC840020C084002080B582B000AF19E04D
:1040A000FDF7A8FF104BDB68DB687B607B6804339F
:1040B0001846FDF74BFE0D4B1B68013B0B4A136086
:1040C0000B4B1B68013B0A4A1360FDF7C3FF78687E
:1040D00000F010F8064B1B68002BE1D100BF00BFB9
:1040E0000837BD4680BD00BFD8840020048500206D
:1040F000EC84002080B584B000AF78607B685433D6
:10410000184603F0B1FC7B6893F8B930002B08D156
:104110007B681B6B1846FEF75BF97868FEF758F969
:1041200018E07B6893F8B930012B03D17868FEF76B
:104130004FF90FE07B6893F8B930022B0AD04FF0AB
:10414000500383F31188BFF36F8FBFF34F8FFB6072
:1041500000BFFEE700BF1037BD4680BD80B483B00E
:1041600000AF0C4B1B681B68002B04D10A4B4FF0AF
:10417000FF321A6008E0074B1B68DB68DB687B6076
:104180007B685B68044A136000BF0C37BD465DF86E
:10419000047B7047BC8400202485002080B483B059
:1041A00000AF054B1B687B607B6818460C37BD462B
:1041B0005DF8047B704700BF3080002080B483B07E
:1041C00000AF0B4B1B68002B02D101237B6008E082
:1041D000084B1B68002B02D102237B6001E0002307
:1041E0007B607B6818460C37BD465DF8047B7047E2
:1041F000108500202C85002080B584B000AF786049
:104200007B68BB600023FB607B68002B51D0BB68E0
:10421000DA6A2A4B1B68DB6A9A4241D2BB689B6907
:10422000002B06DB254B1B68DB6AC3F13802BB6839
:104230009A61BB685969BB68DA6A13469B001344EC
:104240009B001F4A1344994222D1BB68043318468D
:10425000FDF77CFD194B1B68DA6ABB68DA62BB6844
:10426000DA6A184B1B689A4203D9BB68DB6A154AA5
:104270001360BB68DA6A13469B0013449B00104A24
:104280001A44BB68043319461046FDF702FD04E0EA
:104290000A4B1B68DA6ABB68DA620123FB6008E03C
:1042A000BB68DA6C054B1B68DB6A9A4201D20123BA
:1042B000FB60FB6818461037BD4680BD308000208B
:1042C000348000200C85002080B586B000AF786077
:1042D0007B683B6100237B617B68002B56D02E4BB3
:1042E0001B683A699A420AD04FF0500383F3118851
:1042F000BFF36F8FBFF34F8FFB6000BFFEE73B69DB
:104300001B6D002B0AD14FF0500383F31188BFF3CC
:104310006F8FBFF34F8FBB6000BFFEE73B691B6D24
:104320005A1E3B691A653B69DA6A3B69DB6C9A4243
:104330002CD03B691B6D002B28D13B6904331846F8
:10434000FDF704FD3B69DA6C3B69DA623B69DB6AC5
:10435000C3F138023B699A613B69DA6A0F4B1B680B
:104360009A4203D93B69DB6A0C4A13603B69DA6AFB
:1043700013469B0013449B00094A1A443B690433CB
:1043800019461046FDF785FC01237B617B691846C1
:104390001837BD4680BD00BF308000200C8500204E
:1043A0003480002080B588B000AF786039607B68C9
:1043B000BB6101237B617B68002B6AD0BB691B6DED
:1043C000002B0AD14FF0500383F31188BFF36F8F96
:1043D000BFF34F8FFB6000BFFEE7BB69DB6C3A6841
:1043E0009A4202D93B68FB6102E0BB69DB6CFB616E
:1043F000BB69DB6AFA699A424BD0BB691B6D7A696B
:104400009A4246D1254B1B68BA699A420AD14FF0AD
:10441000500383F31188BFF36F8FBFF34F8FBB60DF
:1044200000BFFEE7BB69DB6A3B61BB69FA69DA6220
:10443000BB699B69002B04DBFB69C3F13802BB69D4
:104440009A61BB6959693A6913469B0013449B0002
:10445000134A134499421CD1BB6904331846FDF733
:1044600075FCBB69DA6A0F4B1B689A4203D9BB69BA
:10447000DB6A0C4A1360BB69DA6A13469B0013447B
:104480009B00074A1A44BB69043319461046FDF7DE
:1044900000FC00BF2037BD4680BD00BF308000203B
:1044A000348000200C85002080B400AF074B1B68CF
:1044B000002B04D0054B1B681A6D01321A65034BA3
:1044C0001B681846BD465DF8047B704730800020AD
:1044D00080B584B000AF78603960214B1B68FB6009
:1044E000204B1B6804331846FDF730FC7B68B3F1A2
:1044F000FF3F0AD13B68002B07D01A4B1B680433DF
:1045000019461948FDF7C5FB26E0FA687B68134495
:10451000BB60144B1B68BA685A60BA68FB689A4261
:1045200009D2124B1A680F4B1B6804331946104608
:10453000FDF7D3FB10E00E4B1A680A4B1B680433DF
:1045400019461046FDF7C9FB0A4B1B68BA689A4228
:1045500002D2084ABB68136000BF1037BD4680BD59
:104560000885002030800020F0840020C0840020D6
:10457000BC8400202485002080B58AB004AF0023CD
:104580007B6100F007FB1C4B1B68002B21D0002334
:10459000FB600023BB603A1D07F1080107F10C0323
:1045A0001846FDF72FFB7968BB68FA680292019301
:1045B0000223009300230A4610491148FEF7A6FF84
:1045C0000346104A13600F4B1B68002B01D00123D8
:1045D0007B617B69002B0AD14FF0500383F3118874
:1045E000BFF36F8FBFF34F8F3B6100BFFEE77B6967
:1045F00018461837BD4680BD60850020F47B000852
:104600003D4700086485002080B58AB000AFF8609F
:10461000B9607A603B6000237B62FB68002B0AD1A3
:104620004FF0500383F31188BFF36F8FBFF34F8FA9
:104630003B6200BFFEE71A4B1B68002B2AD0BB6809
:104640003B617B687B61FB68BB61BB68052B18DC49
:10465000FFF7B4FD0346022B09D1114B186807F18F
:10466000100100233A6BFEF7C5F9786212E00C4B9B
:10467000186807F1100100230022FEF7BBF97862E9
:1046800008E0074B186807F1100100233A68FEF7AD
:10469000AFFA78627B6A18462837BD4680BD00BFF6
:1046A0006085002080B588B002AF78603960224B09
:1046B0001B68DB68DB687B617B6904331846FDF7A8
:1046C00045FB7B6993F8283003F00403002B22D0CC
:1046D0007B699A697B68D1187B683A68786900F0D1
:1046E000D1F80346002B1FD00023009300237A68E3
:1046F00000217869FFF788FF38613B69002B13D1EF
:104700004FF0500383F31188BFF36F8FBFF34F8FC8
:10471000FB6000BFFEE77B6993F8283023F00103BC
:10472000DAB27B6983F828207B691B6A786998472D
:1047300000BF1837BD4680BD5885002080B584B0C5
:1047400000AF786007F10803184600F057F8F860EA
:10475000BB681946F86800F003F800F0D5F8F1E7F7
:1047600080B584B000AF78603960FFF72BF907F1AE
:104770000803184600F066F8F860BB68002B30D1DB
:104780003B68002B0AD17A68FB689A4206D8FFF78B
:1047900027F9F9687868FFF785FF24E03B68002B6C
:1047A00008D0134B1B681B68002B01D1012300E0CC
:1047B00000233B600F4B18687A68FB68D31A3A688D
:1047C0001946FEF76FFEFFF70BF90346002B0AD1DF
:1047D000094B4FF080521A60BFF34F8FBFF36F8FBA
:1047E00001E0FFF7FDF800BF1037BD4680BD00BFF8
:1047F0005C8500206085002004ED00E080B485B079
:1048000000AF78600E4B1B681B68002B01D10122A2
:1048100000E000227B681A607B681B68002B05D1D2
:10482000074B1B68DB681B68FB6001E00023FB6033
:10483000FB6818461437BD465DF8047B704700BF1F
:104840005885002080B584B000AF7860FFF766F926
:10485000F8600B4B1B68FA689A4205D200F036F9F3
:104860007B6801221A6002E07B6800221A60044A19
:10487000FB681360FB6818461037BD4680BD00BF5B
:104880006885002080B586B000AFF860B9607A60B6
:104890003B6000237B61FB68BA685A60FB68FA687A
:1048A0001A61BA687B689A4212D87A683B68D21A51
:1048B000FB689B699A4202D301237B611BE0104B8A
:1048C0001A68FB68043319461046FDF706FA12E031
:1048D0007A683B689A4206D2BA683B689A4202D329
:1048E00001237B6107E0074B1A68FB680433194614
:1048F0001046FDF7F2F97B6918461837BD4680BDB2
:104900005C8500205885002080B58EB002AFCAE0DB
:104910007B68002B18DA3B1D0433FB62FB6A002B1B
:104920000AD14FF0500383F31188BFF36F8FBFF3A9
:104930004F8FFB6100BFFEE7FB6A1B68FA6A506895
:10494000FA6A9268114698477B68002BC0F2AA80E9
:10495000FB68BB62BB6A5B69002B04D0BB6A043393
:104960001846FDF7F3F93B461846FFF76BFF7862F0
:104970007B68092B00F2978001A252F823F000BF58
:10498000A9490008A9490008A94900081D4A0008CA
:10499000314A00087B4A0008A9490008A9490008D3
:1049A0001D4A0008314A0008BB6A93F8283043F0DA
:1049B0000103DAB2BB6A83F82820BA68BB6A9B6934
:1049C000D118BB687A6AB86AFFF75CFF0346002B10
:1049D00069D0BB6A1B6AB86A9847BB6A93F82830EB
:1049E00003F00403002B5ED0BA68BB6A9B691A44CB
:1049F0000023009300230021B86AFFF705FE386208
:104A00003B6A002B4FD14FF0500383F31188BFF363
:104A10006F8FBFF34F8FBB6100BFFEE7BB6A93F898
:104A2000283023F00103DAB2BB6A83F828203AE089
:104A3000BB6A93F8283043F00103DAB2BB6A83F80B
:104A40002820BA68BB6A9A61BB6A9B69002B0AD1AD
:104A50004FF0500383F31188BFF36F8FBFF34F8F75
:104A60007B6100BFFEE7BB6A9A697B6AD1187B6AEB
:104A70007A6AB86AFFF706FF15E0BB6A93F8283038
:104A800003F00203002B03D1B86AFDF7A1FC0AE092
:104A9000BB6A93F8283023F00103DAB2BB6A83F8CB
:104AA000282000E000BF084B1B68391D0022184673
:104AB000FEF73AF90346002B7FF42AAF00BF00BF90
:104AC0003037BD4680BD00BF6085002080B588B00E
:104AD00002AF48E02D4B1B68DB681B683B612B4B2A
:104AE0001B68DB68DB68FB60FB6804331846FDF776
:104AF0002DF9FB681B6AF8689847FB6893F8283023
:104B000003F00403002B2ED0FB689B693A69134421
:104B1000BB60BA683B699A420ED9FB68BA685A60B2
:104B2000FB68FA681A61194B1A68FB680433194666
:104B30001046FDF7D2F816E00023009300233A69EF
:104B40000021F868FFF760FD78607B68002B0AD1D0
:104B50004FF0500383F31188BFF36F8FBFF34F8F74
:104B60003B6000BFFEE7094B1B681B68002BB1D1FF
:104B7000064B1B687B61064B1B68044A1360044AA2
:104B80007B69136000BF1837BD4680BD5885002083
:104B90005C85002080B582B002AFFDF72BFA154B83
:104BA0001B68002B20D11448FDF746F81348FDF789
:104BB00043F8134B104A1A60124B104A1A60002334
:104BC0000093114B114A10210A20FDF787FD03467F
:104BD000084A1360074B1B68002B05D0054B1B6868
:104BE0000B491846FEF734FCFDF734FA00BFBD460A
:104BF00080BD00BF608500203085002044850020F6
:104C0000588500205C8500200C8600206C850020E3
:104C1000FC7B000880B584B000AF78607B68002B17
:104C200001D10123EDE07B6893F82030DBB2002B4B
:104C300002D17868FCF7BAFA7B681B681A687B684F
:104C40001B6842F001021A6002F0C0FDF86012E039
:104C500002F0BCFD0246FB68D31A0A2B0BD97B6815
:104C60005B6A43F400327B685A627B68052283F8F2
:104C700020200123C5E07B681B685B6803F001030B
:104C8000002BE5D07B681B681A687B681B6822F0E4
:104C900002021A6002F09AFDF86012E002F096FD3E
:104CA0000246FB68D31A0A2B0BD97B685B6A43F474
:104CB00000327B685A627B68052283F8202001233A
:104CC0009FE07B681B685B6803F00203002BE5D163
:104CD0007B681B7E012B08D17B681B681A687B6888
:104CE0001B6842F080021A6007E07B681B681A6844
:104CF0007B681B6822F080021A607B685B7E012B58
:104D000008D17B681B681A687B681B6842F0400208
:104D10001A6007E07B681B681A687B681B6822F0D2
:104D200040021A607B689B7E012B08D17B681B6860
:104D30001A687B681B6842F020021A6007E07B68F3
:104D40001B681A687B681B6822F020021A607B6867
:104D5000DB7E012B08D17B681B681A687B681B68A7
:104D600022F010021A6007E07B681B681A687B68F3
:104D70001B6842F010021A607B681B7F012B08D170
:104D80007B681B681A687B681B6842F008021A601F
:104D900007E07B681B681A687B681B6822F00802C2
:104DA0001A607B685B7F012B08D17B681B681A68DF
:104DB0007B681B6842F004021A6007E07B681B688E
:104DC0001A687B681B6822F004021A607B689A6884
:104DD0007B68DB681A437B681B691A437B685B69E5
:104DE00042EA03017B685B685A1E7B681B680A43C2
:104DF000DA617B6800225A627B68012283F82020F6
:104E0000002318461037BD4680BD80B487B000AF80
:104E1000786039607B681B687B617B6893F8203021
:104E2000FB74FB7C012B03D0FB7C022B40F0AA809F
:104E30007B69D3F8003243F001027B69C3F800229A
:104E40003B685B6903F01F03012202FA03F3FB6076
:104E50007B69D3F81C22FB68DB431A407B69C3F8EB
:104E60001C223B68DB69002B23D17B69D3F80C2221
:104E7000FB68DB431A407B69C3F80C223B68DB68A4
:104E800019043B685B689BB23A68526919437B69B5
:104E9000483243F832103B689B6819043B681B6832
:104EA0009AB23B685B690A4379694833DB000B447B
:104EB0005A603B68DB69012B22D17B69D3F80C2255
:104EC000FB681A437B69C3F80C223B681B68190412
:104ED0003B685B689BB23A68526919437B69483208
:104EE00043F832103B689B6819043B68DB689AB250
:104EF0003B685B690A4379694833DB000B445A60BD
:104F00003B689B69002B09D17B69D3F80422FB68BD
:104F1000DB431A407B69C3F8042207E07B69D3F8BE
:104F20000422FB681A437B69C3F804223B681B69AF
:104F3000002B09D17B69D3F81422FB68DB431A40AC
:104F40007B69C3F8142207E07B69D3F81422FB685D
:104F50001A437B69C3F814223B681B6A012B07D1F3
:104F60007B69D3F81C22FB681A437B69C3F81C22B7
:104F70007B69D3F8003223F001027B69C3F8002279
:104F8000002306E07B685B6A43F480227B685A62F8
:104F9000012318461C37BD465DF8047B704780B579
:104FA00084B000AF78607B6893F82030DBB2012BCF
:104FB0002ED17B68022283F820207B681B681A6848
:104FC0007B681B6822F001021A6002F0FFFBF860A8
:104FD00012E002F0FBFB0246FB68D31A0A2B0BD946
:104FE0007B685B6A43F400327B685A627B68052207
:104FF00083F82020012312E07B681B685B6803F0C4
:105000000103002BE5D17B6800225A62002306E0F1
:105010007B685B6A43F400227B685A62012318466E
:105020001037BD4680BD80B489B000AFF860B9606C
:105030007A603B60FB6893F82030FB77FB681B6865
:105040009B68BB61FB7F012B03D0FB7F022B40F0F1
:10505000AD80BB6903F08063002B0AD1BB6903F00C
:105060000063002B05D1BB6903F08053002B00F0D7
:105070009580BB691B0E03F003037B6101227B69F2
:105080009A403B681A60BB689B68002B0DD1BB68D7
:105090001B685A05BB68DB68F96809681A437B69B5
:1050A00018331B010B441A600FE0BB685B68DA0021
:1050B000BB689B681A43BB68DB68F96809681A43D8
:1050C0007B6918331B010B441A60FB681968BB68C5
:1050D0001A697B6918331B010B4404331A60BB68DF
:1050E0001B7D012B11D1FB681A687B6918331B01EA
:1050F000134404331B68FA68116843F480727B69B7
:1051000018331B010B4404331A607B6807331B7888
:105110001A067B6806331B781B041A437B68053329
:105120001B781B0213437A68043212781046FA681F
:10513000116843EA00027B691B010B4403F5C67347
:105140001A607B6803331B781A067B6802331B786E
:105150001B041A437B6801331B781B0213437A68D4
:1051600012781046FA68116843EA00027B691B0155
:105170000B4403F5C4731A60FB681A687B69183323
:105180001B0113441B68FA68116843F001027B6934
:1051900018331B010B441A6000230EE0FB685B6AA6
:1051A00043F40012FB685A62012306E0FB685B6A65
:1051B00043F48022FB685A62012318462437BD4617
:1051C0005DF8047B704780B485B000AF7860002341
:1051D000FB607B6893F82030FB72FB7A012B02D0D6
:1051E000FB7A022B1DD17B681B689B6803F08063F0
:1051F000002B02D0FB680133FB607B681B689B6857
:1052000003F00063002B02D0FB680133FB607B6876
:105210001B689B6803F08053002B02D0FB680133AE
:10522000FB60FB6818461437BD465DF8047B704789
:1052300080B487B000AFF860B9607A603B60FB680B
:1052400093F82030FB75FB7D012B03D0FB7D022BF7
:1052500040F0F380BB68002B0ED1FB681B68DB6855
:1052600003F00303002B16D1FB685B6A43F40012C2
:10527000FB685A620123E7E0FB681B681B6903F0C7
:105280000303002B07D1FB685B6A43F40012FB6841
:105290005A620123D8E0FB681A68BB681B331B0104
:1052A00013441B6803F004027B689A607B689B6868
:1052B000002B0CD1FB681A68BB681B331B0113441D
:1052C0001B685B0DC3F30A027B681A600BE0FB6886
:1052D0001A68BB681B331B0113441B68DB0823F0EF
:1052E00060427B685A60FB681A68BB681B331B010D
:1052F00013441B6803F002027B68DA60FB681A68DB
:10530000BB681B331B01134404331B6803F00F02FB
:105310007B681A61FB681A68BB681B331B01134466
:1053200004331B681B0ADAB27B689A61FB681A684F
:10533000BB681B331B01134404331B681B0C9AB25C
:105340007B685A61FB681A68BB681B01134403F54C
:10535000DC731B68DAB23B681A70FB681A68BB68BA
:105360001B01134403F5DC731B681A0A3B68013305
:10537000D2B21A70FB681A68BB681B01134403F5AC
:10538000DC731B681A0C3B680233D2B21A70FB68DC
:105390001A68BB681B01134403F5DC731B681A0E03
:1053A0003B680333D2B21A70FB681A68BB681B01F2
:1053B000134403F5DE731A683B680433D2B21A70E3
:1053C000FB681A68BB681B01134403F5DE731B6896
:1053D0001A0A3B680533D2B21A70FB681A68BB68B8
:1053E0001B01134403F5DE731B681A0C3B6806337C
:1053F000D2B21A70FB681A68BB681B01134403F52C
:10540000DE731B681A0E3B680733D2B21A70BB6892
:10541000002B08D1FB681B68DA68FB681B6842F048
:105420002002DA6007E0FB681B681A69FB681B68EA
:1054300042F020021A61002306E0FB685B6A43F435
:105440008022FB685A62012318461C37BD465DF86E
:10545000047B704780B485B000AF7860396000236A
:10546000FB607B6893F82030FB72FB7A012B02D043
:10547000FB7A022B0FD13B68002B06D17B681B689F
:10548000DB6803F00303FB6005E07B681B681B69B6
:1054900003F00303FB60FB6818461437BD465DF854
:1054A000047B704780B485B000AF786039607B685A
:1054B00093F82030FB73FB7B012B02D0FB7B022B8C
:1054C00009D17B681B6859697B681B683A680A4385
:1054D0005A61002306E07B685B6A43F480227B68A4
:1054E0005A62012318461437BD465DF8047B7047A5
:1054F00080B485B000AF78607B6803F00703FB6081
:105500000C4BDB68BB60BA684FF6FF031340BB600F
:10551000FB681A02BB68134343F0BF6343F40033D4
:10552000BB60044ABB68D36000BF1437BD465DF85A
:10553000047B704700ED00E080B400AF044BDB68F3
:105540001B0A03F007031846BD465DF8047B70474D
:1055500000ED00E080B483B000AF03463960FB711A
:1055600097F90730002B0ADB3B68DAB20C4997F950
:1055700007301201D2B20B4483F800230AE03B68E3
:10558000DAB20849FB7903F00F03043B1201D2B2EF
:105590000B441A7600BF0C37BD465DF8047B70479C
:1055A00000E100E000ED00E080B489B000AFF860F9
:1055B000B9607A60FB6803F00703FB61FB69C3F124
:1055C0000703042B28BF0423BB61FB690433062BAC
:1055D00002D9FB69033B00E000237B614FF0FF32FF
:1055E000BB6902FA03F3DA43BB681A407B699A404D
:1055F0004FF0FF317B6901FA03F3D9437B680B401D
:10560000134318462437BD465DF8047B70470000FD
:1056100080B582B000AF78607B68013BB3F1807FDA
:1056200001D301230FE00A4A7B68013B53600F213D
:105630004FF0FF30FFF78EFF054B00229A60044BBE
:1056400007221A60002318460837BD4680BD00BFF8
:1056500010E000E080B582B000AF78607868FFF7B6
:1056600047FF00BF0837BD4680BD80B586B000AF9C
:105670000346B9607A60FB7300237B61FFF75CFF30
:1056800078617A68B9687869FFF78EFF024697F902
:105690000F3011461846FFF75DFF00BF1837BD46B3
:1056A00080BD80B582B000AF78607868FFF7B0FF4A
:1056B000034618460837BD4680BD000080B487B059
:1056C00000AF7860396000237B6154E13B681A6861
:1056D00001217B6901FA03F31340FB60FB68002B97
:1056E00000F046813B685B6803F00303012B05D0A3
:1056F0003B685B6803F00303022B30D17B689B6837
:105700003B617B695B00032202FA03F3DB433A69E6
:1057100013403B613B68DA687B695B0002FA03F384
:105720003A6913433B617B683A699A607B685B68BE
:105730003B6101227B6902FA03F3DB433A691340C0
:105740003B613B685B681B0903F001027B6902FA5D
:1057500003F33A6913433B617B683A695A603B68DB
:105760005B6803F00303032B17D07B68DB683B61A6
:105770007B695B00032202FA03F3DB433A691340BF
:105780003B613B689A687B695B0002FA03F33A6904
:1057900013433B617B683A69DA603B685B6803F0FE
:1057A0000303022B23D17B69DA087B68083253F8A4
:1057B00022303B617B6903F007039B000F2202FA52
:1057C00003F3DB433A6913403B613B681A697B6929
:1057D00003F007039B0002FA03F33A6913433B61AA
:1057E0007B69DA087B680832396943F822107B68E4
:1057F0001B683B617B695B00032202FA03F3DB4316
:105800003A6913403B613B685B6803F003027B69C4
:105810005B0002FA03F33A6913433B617B683A6920
:105820001A603B685B6803F44033002B00F0A080F3
:10583000584B1B6E574A43F001031366554B1B6EC2
:1058400003F00103BB60BB68534A7B699B080233CA
:1058500052F823303B617B6903F003039B000F2266
:1058600002FA03F3DB433A6913403B617B68B3F10F
:10587000904F19D07B68494A934213D07B68484ABD
:1058800093420DD07B68474A934207D07B68464AD3
:10589000934201D1042308E0072306E0032304E038
:1058A000022302E0012300E000237A6902F00302F0
:1058B000920093403A6913433B6137497B699B08E7
:1058C00002333A6941F82320384B9B683B61FB68FF
:1058D000DB433A6913403B613B685B6803F4801328
:1058E000002B03D03A69FB6813433B612F4A3B69A5
:1058F00093602E4BDB683B61FB68DB433A691340E6
:105900003B613B685B6803F40013002B03D03A69EA
:10591000FB6813433B61254A3B69D360234B5B68BB
:105920003B61FB68DB433A6913403B613B685B6862
:1059300003F40033002B03D03A69FB6813433B6147
:105940001A4A3B695360194B1B683B61FB68DB4398
:105950003A6913403B613B685B6803F48033002B7A
:1059600003D03A69FB6813433B61104A3B691360FB
:105970007B6901337B613B681A687B6922FA03F318
:10598000002B7FF4A3AE00BF00BF1C37BD465DF8FF
:10599000047B7047001002400000014000040048F2
:1059A00000080048000C00480010004800040140B6
:1059B00080B483B000AF78600B467B8013467B7069
:1059C0007B78002B03D07A887B689A6102E07A8822
:1059D0007B689A6200BF0C37BD465DF8047B704758
:1059E00080B483B000AF786039607B6893F8413051
:1059F000DBB2202B38D17B6893F84030012B01D1EA
:105A0000022332E07B68012283F840207B68242255
:105A100083F841207B681B681A687B681B6822F04A
:105A200001021A607B681B681A687B681B6822F495
:105A300080521A607B681B6819687B681B683A682B
:105A40000A431A607B681B681A687B681B6842F00F
:105A500001021A607B68202283F841207B680022C3
:105A600083F84020002300E0022318460C37BD468F
:105A70005DF8047B704780B485B000AF7860396012
:105A80007B6893F84130DBB2202B39D17B6893F8E7
:105A90004030012B01D1022333E07B68012283F8DF
:105AA00040207B68242283F841207B681B681A68A9
:105AB0007B681B6822F001021A607B681B681B6808
:105AC000FB60FB6823F47063FB603B681B02FA68B1
:105AD0001343FB607B681B68FA681A607B681B686D
