:020000040800F2
:100000000000012035130008D1120008D7120008A3
:10001000DD120008E3120008E912000800000000E9
:10002000000000000000000000000000B1690008AE
:10003000EF12000800000000016C00087960000861
:100040008513000885130008851300088513000830
:100050008513000885130008851300088513000820
:100060008513000885130008851300088513000810
:100070008513000885130008851300088513000800
:1000800085130008851300088513000885130008F0
:1000900085130008851300088513000885130008E0
:1000A00085130008851300088513000885130008D0
:1000B0008513000800000000000000008513000800
:1000C00085130008851300088513000885130008B0
:1000D00085130008851300088513000885130008A0
:1000E00085130008851300080000000000000000D0
:1000F0000000000000000000000000000000000000
:1001000000000000851300080000000085130008AF
:100110000000000000000000FD1200088513000828
:10012000851300088513000885130008851300084F
:10013000851300080000000000000000000000001F
:1001400085130008851300088513000800000000CF
:10015000851300088513000885130008851300081F
:1001600085130008851300088513000800000000AF
:10017000851300088513000800000000000000003F
:0C01800085130008851300088513000893
:1001900010B5054C237833B9044B13B10448AFF3C1
:1001A00000800123237010BD980000200000000093
:1001B000ECAB000808B5034B1BB103490348AFF390
:1001C000008008BD000000009C000020ECAB00088F
:1001D00053B94AB9002908BF00281CBF4FF0FF31AE
:1001E0004FF0FF3000F070B9ADF1080C6DE904CEAE
:1001F00000F006F8DDF804E0DDE9022304B0704702
:100200002DE9F047089E0D4604460F46002B4AD1C3
:100210008A42944665D9B2FA82F343B102FA03FCEA
:10022000C3F120029F4020FA02F217439C404FEA9C
:100230001C4E1FFA8CF5B7FBFEF1220C0EFB11775A
:1002400042EA074201FB05F090420AD91CEB020288
:1002500001F1FF3780F01C81904240F21981023990
:100260006244121AA4B2B2FBFEF00EFB102244EA62
:10027000024400FB05F5A5420AD91CEB040400F179
:10028000FF3280F00781A54240F2048164440238C5
:1002900040EA0140641B00211EB1DC400023C6E996
:1002A0000043BDE8F0878B4208D9002E00F0ED80B6
:1002B0000021C6E900050846BDE8F087B3FA83F1DE
:1002C000002949D1AB4202D3824200F2F880841A5D
:1002D00065EB030201201746002EE2D0C6E9004775
:1002E000DFE702B9FFDEB2FA82F3002B40F0908024
:1002F0008A1A4FEA1C471FFA8CFE0121B2FBF7F560
:1003000007FB1520220C42EA00420EFB05F090424A
:1003100008D91CEB020205F1FF3802D2904200F22C
:10032000CB804546121AA4B2B2FBF7F007FB1022AD
:1003300044EA02440EFB00FEA64508D91CEB040467
:1003400000F1FF3202D2A64500F2BB801046A4EBBA
:100350000E0440EA05409FE7C1F120078B4022FAD6
:1003600007FC4CEA030C05FA01F420FA07F3FD4000
:100370004FEA1C492343B5FBF9F81FFA8CFE09FB31
:1003800018551C0C44EA054408FB0EF5A54202FA78
:1003900001F200FA01F00BD91CEB040408F1FF3A5A
:1003A00080F08880A54240F28580A8F1020864446C
:1003B000641B9DB2B4FBF9F309FB134445EA044402
:1003C00003FB0EFEA64508D91CEB040403F1FF3520
:1003D0006CD2A6456AD9023B644443EA0843A3FBB6
:1003E0000295A4EB0E04AC42C846AE4656D353D099
:1003F00056B1B0EB080264EB0E0404FA07F7CA40EA
:10040000CC401743C6E9007418460021BDE8F087C8
:10041000C3F1200102FA03FC20FA01F225FA01F1EE
:100420009D402A434FEA1C471FFA8CFEB1FBF7F0B0
:1004300007FB1015110C41EA054100FB0EF58D423A
:1004400004FA03F408D91CEB010100F1FF382FD2A4
:100450008D422DD902386144491B92B2B1FBF7F5A8
:1004600007FB151142EA014205FB0EF1914208D942
:100470001CEB020205F1FF3816D2914214D9023D5D
:100480006244521A45EA004138E73146304608E7EF
:100490003946E6E61046FBE64845A9D2B9EB020824
:1004A00065EB0C0E013BA3E74546EAE72B4694E7D4
:1004B0004046D1E7D0467BE7023D624432E708463A
:1004C0000AE76444023842E7704700BF80B400AFD7
:1004D00000BFBD465DF8047B704780B400AF0023C9
:1004E0001846BD465DF8047B70470000F0B589B042
:1004F00008AF05F05EFD00F03BF800F081FA00F077
:100500004FFA00F0CBF900F01DF900F081F800F08F
:10051000E3F8134E112306936D4606F110040FCC39
:100520000FC594E8030085E8030096E80F000AF081
:100530003BF809F07FFF09F019FD09F00DFD00F00F
:100540001FFC09F011FA05F0B1FD064A002106482A
:1005500005F0F6FD0346054A136005F0CBFDFEE706
:100560001801002010AD0008810B00085C0200207B
:1005700080B596B000AF07F114034422002118465D
:100580000AF050FA3B4600221A605A609A60DA601C
:100590001A614FF4007002F0B5FC0346002B01D045
:1005A00000F008FB01237B614FF48033BB61022321
:1005B000FB6303233B6401237B641423BB64072395
:1005C000FB6402233B6504237B6507F11403184693
:1005D00002F0F8FF0346002B01D000F0EBFA0F23E6
:1005E0003B6003237B600023BB600023FB60002390
:1005F0003B613B460421184603F0F8FB0346002B01
:1006000001D000F0D7FA00BF5837BD4680BD0000CA
:1006100080B586B000AF3B4600221A605A609A60EF
:10062000DA601A615A61294B294A1A60274B002265
:100630005A60264B00229A60244B0022DA60234B3A
:1006400000221A61214B04225A61204B00221A76A3
:100650001E4B01225A761D4B0122DA611B4B0022F0
:1006600083F82020194B00229A62184B0022DA628C
:10067000164B002283F83020144B00225A63134B90
:10068000002283F83820114801F00AF80346002BB5
:1006900001D000F08FFA0F4B3B6006237B600023F4
:1006A000BB607F23FB6004233B6100237B613B46EF
:1006B0001946064801F03CF90346002B01D000F032
:1006C00079FA00BF1837BD4680BD00BFB4000020D6
:1006D00000000450000052C780B500AF174B184A05
:1006E0001A60164B28225A60144B00229A60134B52
:1006F0000022DA60114B4FF440221A610F4B4FF485
:1007000080125A610D4B00221A760C4B00225A7649
:100710000A4B00229A76094B0022DA76074B002218
:100720001A77064B00225A77044801F0E1FC034691
:10073000002B01D000F03EFA00BF80BD1801002060
:100740000064004080B59AB000AF07F15803002262
:100750001A605A609A60DA6007F14C0300221A604E
:100760005A609A6007F1300300221A605A609A605A
:10077000DA601A615A619A613B1D2C2200211846E9
:100780000AF050F9434B444A1A60424B4F225A60D8
:10079000404B00229A603F4B6322DA603D4B0022BF
:1007A0001A613C4B00225A613A4B00229A61394847
:1007B00003F06CFE0346002B01D000F0FBF94FF470
:1007C0008053BB6507F158031946324804F006FB15
:1007D0000346002B01D000F0EDF92E4803F002FF94
:1007E0000346002B01D000F0E5F90023FB64002351
:1007F0003B6500237B6507F14C031946254803F050
:1008000049FD0346002B01D000F0D4F960233B637F
:1008100000237B630023BB630023FB6300233B6453
:1008200000237B640023BB6407F1300300221946D8
:10083000184804F0BFF90346002B01D000F0BAF9C4
:1008400000237B600023BB600023FB6000233B612F
:1008500000237B614FF40053BB610023FB61002345
:100860003B624FF000737B620023BB620023FB629C
:100870003B1D1946074803F073FD0346002B01D0CA
:1008800000F098F9034800F0D7FB00BF6837BD4679
:1008900080BD00BF40010020002C014080B58EB01B
:1008A00000AF07F1280300221A605A609A60DA60EC
:1008B00007F11C0300221A605A609A603B4600222E
:1008C0001A605A609A60DA601A615A619A61334B11
:1008D0004FF080421A60314B4F225A602F4B00225A
:1008E0009A602E4B40F21F32DA602C4B00221A61C4
:1008F0002A4B00229A61294803F0C8FD0346002BC9
:1009000001D000F057F94FF48053BB6207F1280380
:100910001946224804F062FA0346002B01D000F089
:1009200049F91E4803F05EFE0346002B01D000F09B
:1009300041F90023FB6100237B6207F11C03194688
:10094000164803F0A7FC0346002B01D000F032F953
:1009500060233B6000237B600023BB6000233B617E
:100960003B46002219460D4804F024F90346002BAB
:1009700001D000F01FF93B460C221946074804F04D
:1009800019F90346002B01D000F014F9034800F0D8
:1009900053FB00BF3837BD4680BD00BF8C0100202F
:1009A00080B500AF144B154A1A60134B4FF4165222
:1009B0005A60114B00229A600F4B0022DA600E4BF6
:1009C00000221A610C4B0C225A610B4B00229A61D7
:1009D000094B0022DA61084B00221A62064B002202
:1009E0005A62054804F08DFE0346002B01D000F04A
:1009F000E1F800BF80BD00BFD801002000380140F1
:100A000080B58AB000AF07F1140300221A605A6063
:100A10009A60DA601A61564BDB6C554A43F08003EA
:100A2000D364534BDB6C03F080033B613B69504B59
:100A3000DB6C4F4A43F00403D3644D4BDB6C03F093
:100A40000403FB60FB684A4BDB6C494A43F001033B
:100A5000D364474BDB6C03F00103BB60BB68444BC2
:100A6000DB6C434A43F00203D364414BDB6C03F07D
:100A700002037B607B683E4BDB6C3D4A43F008031E
:100A8000D3643B4BDB6C03F008033B603B68002204
:100A900040F60F41374802F0F5F9002203214FF0EC
:100AA000904002F0EFF9002240F20541324802F096
:100AB000E9F900220421314802F0E4F940F60F433D
:100AC0007B610123BB610023FB6100233B6207F1D3
:100AD00014031946274802F05BF803237B610123C6
:100AE000BB610023FB6100233B6207F1140319463D
:100AF0004FF0904002F04CF840F205437B61012337
:100B0000BB610023FB6100233B6207F1140319461C
:100B1000194802F03DF84FF202237B610023BB61CC
:100B20000023FB6107F114031946134802F030F863
:100B30004FF490537B610023BB610023FB6107F1FD
:100B4000140319460B4802F023F804237B610123A8
:100B5000BB610023FB6100233B6207F114031946CC
:100B6000064802F015F800BF2837BD4680BD00BF1B
:100B7000001002400008004800040048000C004833
:100B800080B582B000AF7860012005F06BFBFBE719
:100B900080B582B000AF78607B681B68044A9342DE
:100BA00001D105F01FFA00BF0837BD4680BD00BF68
:100BB0000010004080B400AF72B600BFFEE780B501
:100BC00088B002AF78600023FB7307F10F030122A6
:100BD000009200220021032009F010FBFB7B012B77
:100BE00015D103233B7400237B7407F11002022309
:100BF0000321122009F070FA00233B7400237B7458
:100C000007F1100202230021032009F065FA0A20EF
:100C100005F028FBE2E780B584B000AF78600023E0
:100C2000FB73FB7B1946012009F0A4FC01214FF066
:100C3000904002F03FF9FB7B0133FB734FF47A7075
:100C400005F010FBEDE780B588B002AF78600323B4
:100C5000FB7307F10F0301220092002202210320FF
:100C600009F0CCFAFB7B012B16D104233B74012342
:100C70007B7407F1100202230421122009F02CFAE0
:100C800002233B7403237B7407F110020223022129
:100C9000032009F021FA18E0FB7B002B15D1042377
:100CA0003B7400237B7407F11002022304211220FD
:100CB00009F012FA02233B7403237B7407F110023C
:100CC00002230221032009F007FA0A2005F0CAFADC
:100CD000C8E780B588B002AF78600023FB7307F1E6
:100CE0000F030122009200220421032009F086FA5A
:100CF000FB7B012B0AD104233B7400237B7407F197
:100D0000100202230421032009F0E6F90A2005F06D
:100D1000A9FAEDE780B588B002AF78600023FB73D5
:100D200007F10F030122009200220521052009F09E
:100D300065FA0A2005F096FAFBE780B588B002AFA5
:100D400078600023FB720023FB7507F10B0301227F
:100D5000009200220621072009F050FAFB7A012BAD
:100D60000AD106233B7300237B7307F10C02022395
:100D70000621072009F0B0F90A2005F073FAEDE723
:100D800080B500AF184A0021184805F0D9F903468C
:100D9000174A1360174A0021174805F0D1F9034696
:100DA000164A1360164A0021164805F0C9F9034691
:100DB000154A1360154A0021154805F0C1F903468C
:100DC000144A1360144A0021144805F0B9F9034687
:100DD000134A1360134A0021134805F0B1F9034682
:100DE000124A136000BF80BD34AD0008BF0B00087D
:100DF0006002002058AD0008170C000864020020B3
:100E00007CAD0008470C000868020020A0AD000877
:100E1000D30C00086C020020C4AD0008150D0008BA
:100E200070020020E8AD00083B0D000874020020AD
:100E300080B582B000AF114B1B6E104A43F0010326
:100E400013660E4B1B6E03F001037B607B680B4B3C
:100E50009B6D0A4A43F080539365084B9B6D03F0EA
:100E600080533B603B6800220F216FF0010001F0CE
:100E700065FE00BF0837BD4680BD00BF00100240C0
:100E800080B5A0B000AF786007F16C0300221A6053
:100E90005A609A60DA601A6107F110035C2200213F
:100EA000184609F0BFFD7B681B68254A934242D172
:100EB0004FF480433B614FF080533B6603237B61DB
:100EC0000123BB611423FB6107233B6202237B6286
:100ED0000423BB624FF08073FB6207F110031846D6
:100EE00002F066F80346002B01D0FFF763FE154BB6
:100EF000DB6C144A43F40053D364124BDB6C03F4F1
:100F00000053FB60FB680F4BDB6C0E4A43F004039D
:100F1000D3640C4BDB6C03F00403BB60BB68102391
:100F2000FB6603233B6700237B6707F16C031946CD
:100F3000054801F02DFE00BF8037BD4680BD00BFD3
:100F400000000450001002400008004880B58AB03C
:100F500000AF786007F1140300221A605A609A60AB
:100F6000DA601A617B681B68184A934229D1184BD2
:100F70009B6D174A43F000739365154B9B6D03F00F
:100F800000733B613B69124BDB6C114A43F0010378
:100F9000D3640F4BDB6C03F00103FB60FB684FF481
:100FA000C0537B610223BB610023FB6103233B62CF
:100FB00009237B6207F1140319464FF0904001F0BA
:100FC000E7FD00BF2837BD4680BD00BF006400407C
:100FD0000010024080B485B000AF78607B681B6869
:100FE000134A93420CD1134B1B6E124A43F4006315
:100FF0001366104B1B6E03F40063FB60FB6810E08C
:101000007B681B68B3F1804F0BD10A4B9B6D094A7B
:1010100043F001039365074B9B6D03F00103BB6035
:10102000BB6800BF1437BD465DF8047B704700BF46
:10103000002C01400010024080B58AB000AF7860FB
:1010400007F1140300221A605A609A60DA601A618C
:101050007B681B68324A93421ED1324BDB6C314AAB
:1010600043F00103D3642F4BDB6C03F001033B61BE
:101070003B694FF480737B610223BB610023FB61FA
:1010800000233B6201237B6207F1140319464FF0F2
:10109000904001F07DFD3FE07B681B68B3F1804F1D
:1010A0003AD1204BDB6C1F4A43F00203D3641D4B43
:1010B000DB6C03F00203FB60FB681A4BDB6C194A24
:1010C00043F00103D364174BDB6C03F00103BB60F7
:1010D000BB684FF400637B610223BB610023FB61AB
:1010E00000233B6201237B6207F1140319460E487B
:1010F00001F04EFD4FF400437B610223BB610023EE
:10110000FB6100233B6201237B6207F11403194654
:101110004FF0904001F03CFD00BF2837BD4680BD38
:10112000002C0140001002400004004880B5A0B02F
:1011300000AF786007F16C0300221A605A609A6071
:10114000DA601A6107F110035C220021184609F0E9
:1011500069FC7B681B681F4A934237D101233B61BE
:1011600000233B6307F11003184601F021FF0346FB
:10117000002B01D0FFF71EFD174B1B6E164A43F4E0
:1011800080431366144B1B6E03F48043FB60FB68C3
:10119000114BDB6C104A43F00103D3640E4BDB6C44
:1011A00003F00103BB60BB684FF4C063FB6602231E
:1011B0003B6700237B670323BB670723FB6707F1BC
:1011C0006C0319464FF0904001F0E2FC00BF8037FD
:1011D000BD4680BD003801400010024080B58EB091
:1011E00000AF7860002387F83330344B9B6D334A6F
:1011F00043F010039365314B9B6D03F01003FB60CC
:10120000FB6807F1100207F114031146184602F0BB
:10121000AFFF3B6AFB62FB6A002B03D102F07CFF4D
:10122000786304E002F078FF03465B007B637B6B2E
:10123000234AA2FB03239B0C013BBB62214B224AA6
:101240001A60204B40F2E732DA601E4ABB6A5360F4
:101250001C4B00221A611B4B00229A60194B002282
:101260009A61184803F012F9034687F8333097F86B
:101270003330002B1BD1134803F060F9034687F885
:10128000333097F83330002B11D1362001F072FC47
:101290007B680F2B08D800227968362001F04EFCBD
:1012A0000A4A7B68136002E0012387F8333097F81D
:1012B000333018463837BD4680BD00BF00100240AD
:1012C00083DE1B4378020020001000400400002051
:1012D00080B400AFFEE780B400AFFEE780B400AF9B
:1012E000FEE780B400AFFEE780B400AFFEE780B455
:1012F00000AF00BFBD465DF8047B704780B500AF0E
:10130000024803F037FB00BF80BD00BF7802002019
:1013100080B400AF064BD3F88830054A43F470031D
:10132000C2F8883000BFBD465DF8047B704700BF3F
:1013300000ED00E0DFF834D0FFF7EAFF0C480D497C
:101340000D4A002302E0D458C4500433C4188C4220
:10135000F9D30A4A0A4C002301E013600432A24286
:10136000FBD309F0C3FBFFF7C1F8FEE70000012043
:10137000000000209800002018AF0008980000200E
:1013800020620020FEE780B483B000AF786039604F
:101390007B689B6823F47C123B681A437B689A60E5
:1013A00000BF0C37BD465DF8047B704780B483B046
:1013B00000AF786039607B689B6823F0E0723B681F
:1013C0001A437B689A6000BF0C37BD465DF8047B0A
:1013D000704780B483B000AF78607B689B6803F08F
:1013E000E07318460C37BD465DF8047B704700007B
:1013F00080B487B000AFF860B9607A603B60FB688A
:1014000060331A46BB689B0013447B617B691A6892
:10141000084B13407A6802F0F8413A680A431343D4
:1014200043F000427B691A6000BF1C37BD465DF87F
:10143000047B704700F0FF0380B485B000AF786094
:1014400039607B6860331A463B689B001344FB603D
:10145000FB681B6803F0F84318461437BD465DF877
:10146000047B704780B487B000AFF860B9607A60E1
:10147000FB6860331A46BB689B0013447B617B6941
:101480001B6823F000427B681A437B691A6000BF27
:101490001C37BD465DF8047B704780B487B000AF51
:1014A000F860B9607A60FB6830331A46BB681B0A83
:1014B0009B0003F00C0313447B617B691A68BB68D3
:1014C00003F01F031F2101FA03F3DB431A407B687B
:1014D0009B0E03F01F01BB6803F01F0301FA03F327
:1014E0001A437B691A6000BF1C37BD465DF8047B58
:1014F000704780B487B000AFF860B9607A60FB686D
:1015000014331A46BB685B0E9B0003F004031344BC
:101510007B617B691A68BB681B0D03F01F03072101
:1015200001FA03F3DB431A40BB681B0D03F01F03F2
:10153000796801FA03F31A437B691A6000BF1C370C
:10154000BD465DF8047B704780B485B000AFF8609D
:10155000B9607A60FB68D3F8B020BB68C3F31203AC
:10156000DB431A407B6803F018030849D940BB6885
:101570000B40C3F312031A43FB68C3F8B02000BF4B
:101580001437BD465DF8047B704700BFFFFF0700BE
:1015900080B483B000AF78607B689B6823F0204301
:1015A00023F03F037A68936000BF0C37BD465DF8B7
:1015B000047B704780B483B000AF78607B689B6821
:1015C00003F00053B3F1005F01D1012300E00023D9
:1015D00018460C37BD465DF8047B704780B483B075
:1015E00000AF78607B689B6823F0104323F03F03D3
:1015F00043F080527B689A6000BF0C37BD465DF8AF
:10160000047B704780B483B000AF78607B689B68D0
:1016100003F08053B3F1805F01D1012300E0002388
:1016200018460C37BD465DF8047B704780B483B024
:1016300000AF78607B689B6803F00103012B01D148
:10164000012300E0002318460C37BD465DF8047BFB
:10165000704780B483B000AF78607B689B6803F00C
:101660000403042B01D1012300E0002318460C37AA
:10167000BD465DF8047B704780B483B000AF7860EE
:101680007B689B6803F00803082B01D1012300E06D
:10169000002318460C37BD465DF8047B70470000F8
:1016A00080B588B000AF78600023FB770023BB6073
:1016B0007B68002B01D101232CE17B681B69002B87
:1016C0007B685B6D002B09D17868FFF7D9FB7B68DD
:1016D00000229A657B68002283F850207B681B6893
:1016E0001846FFF767FF0346002B04D07B681B6892
:1016F0001846FFF74DFF7B681B681846FFF782FF0F
:101700000346002B15D17B681B681846FFF766FF60
:10171000824B1B689B09824AA2FB03239B0901336E
:101720005B00BB6002E0BB68013BBB60BB68002B99
:10173000F9D17B681B681846FFF764FF0346002B4E
:101740000DD17B685B6D43F010027B685A657B6846
:101750009B6D43F001027B689A650123FB777B68F0
:101760001B681846FFF775FF78617B685B6D03F0B7
:101770001003002B40F0C5807B69002B40F0C18036
:101780007B685B6D23F4817343F002027B685A65CA
:101790007B681B681846FFF749FF0346002B0BD1F7
:1017A0006048FFF743FF0346002B05D17B685B6869
:1017B00019465D48FFF7E7FD7B685B7E5A037B684F
:1017C0005B6B1A437B68DB681A437B689B681A4330
:1017D0007B6893F820301B041343BB617B6893F84C
:1017E0002030012B06D17B685B6A013B5B04BA6940
:1017F0001343BB617B689B6A002B09D07B689B6AA3
:1018000003F470727B68DB6A1343BA691343BB61EC
:101810007B681B68DA68454B13407A681268B969BF
:101820000B43D3607B681B681846FFF712FF3861D3
:101830007B681B681846FFF71FFFF8603B69002BA9
:101840003DD1FB68002B3AD17B681B7E9A037B68F5
:1018500093F830305B001343BB617B681B68DB6827
:1018600023F4804323F002037A681268B9690B43BA
:10187000D3607B6893F83830012B18D17B681B68E4
:101880001B6923F4FF6323F004037A68D16B7A6841
:10189000126C11437A68526C11437A68926C0A4355
:1018A0001A437B681B6842F001021A6107E07B68FB
:1018B0001B681A697B681B6822F001021A617B6849
:1018C0001B69012B0CD17B681B681B6B23F00F017C
:1018D0007B68DB695A1E7B681B680A431A6307E052
:1018E0007B681B681A6B7B681B6822F00F021A6307
:1018F0007B685B6D23F0030343F001027B685A654C
:1019000007E07B685B6D43F010027B685A6501233A
:10191000FB77FB7F18462037BD4680BD00000020C6
:10192000632D3E05000004500003045007C0F0FF83
:1019300080B5B6B000AF78603960002387F8D73043
:101940000023FB607B6893F85030012B01D1022308
:10195000B9E37B68012283F850207B681B68184636
:10196000FFF777FE0346002B40F09E833B685B68E1
:10197000052B24D83B685B68023B032B1BD801A2D4
:1019800052F823F0951900089D190008A5190008C0
:10199000AD1900083B680C225A6010E03B68122227
:1019A0005A600CE03B6818225A6008E03B684FF42C
:1019B00080725A6003E03B6806225A6000BF7B6871
:1019C00018683B6859683B681B681A46FFF765FD55
:1019D0007B681B681846FFF73CFEC7F8D0007B68A1
:1019E0001B681846FFF748FEC7F8CC00D7F8D03080
:1019F000002B40F0A681D7F8CC30002B40F0A1811D
:101A00007B6818683B6819683B689B681A46FFF753
:101A100070FD3B685A697B681B68DB68DB0803F074
:101A200003035B0002FA03F3C7F8C8303B681B6985
:101A3000042B0AD07B6818683B6819693B681A68F0
:101A4000D7F8C830FFF7D4FC7BE17B681B68002126
:101A50001846FFF7F1FC0346C3F31203002B0AD12B
:101A60007B681B6800211846FFF7E6FC03469B0EC7
:101A700003F01F021EE07B681B6800211846FFF779
:101A8000DBFC0346C7F8BC30D7F8BC3093FAA3F3AD
:101A9000C7F8B830D7F8B830C7F8C030D7F8C0307A
:101AA000002B01D1202304E0D7F8C030B3FA83F330
:101AB000DBB21A463B681B68C3F31203002B05D147
:101AC0003B681B689B0E03F01F0318E03B681B6814
:101AD000C7F8B030D7F8B03093FAA3F3C7F8AC30FA
:101AE000D7F8AC30C7F8B430D7F8B430002B01D1F8
:101AF000202304E0D7F8B430B3FA83F3DBB29A4280
:101B000006D17B681B68002200211846FFF7AAFC5B
:101B10007B681B6801211846FFF78EFC0346C3F360
:101B20001203002B0AD17B681B6801211846FFF7BE
:101B300083FC03469B0E03F01F021EE07B681B68BC
:101B400001211846FFF778FC0346C7F8A430D7F800
:101B5000A43093FAA3F3C7F8A030D7F8A030C7F8A1
:101B6000A830D7F8A830002B01D1202304E0D7F803
:101B7000A830B3FA83F3DBB21A463B681B68C3F3A1
:101B80001203002B05D13B681B689B0E03F01F035B
:101B900018E03B681B68C7F89830D7F8983093FA7C
:101BA000A3F3C7F89430D7F89430C7F89C30D7F82F
:101BB0009C30002B01D1202304E0D7F89C30B3FAED
:101BC00083F3DBB29A4206D17B681B6800220121B5
:101BD0001846FFF747FC7B681B6802211846FFF791
:101BE0002BFC0346C3F31203002B0AD17B681B684E
:101BF00002211846FFF720FC03469B0E03F01F024C
:101C00001EE07B681B6802211846FFF715FC03469F
:101C1000C7F88C30D7F88C3093FAA3F3C7F8883024
:101C2000D7F88830C7F89030D7F89030002B01D122
:101C3000202304E0D7F89030B3FA83F3DBB21A46DE
:101C40003B681B68C3F31203002B05D13B681B687C
:101C50009B0E03F01F0316E03B681B68C7F880303B
:101C6000D7F8803093FAA3F3FB67FB6FC7F8843093
:101C7000D7F88430002B01D1202304E0D7F884303A
:101C8000B3FA83F3DBB29A4206D17B681B68002269
:101C900002211846FFF7E6FB7B681B680321184604
:101CA000FFF7CAFB0346C3F31203002B0AD17B687C
:101CB0001B6803211846FFF7BFFB03469B0E03F08A
:101CC0001F0217E07B681B6803211846FFF7B4FB6F
:101CD00003467B677B6F93FAA3F33B673B6FBB675E
:101CE000BB6F002B01D1202303E0BB6FB3FA83F35A
:101CF000DBB21A463B681B68C3F31203002B05D105
:101D00003B681B689B0E03F01F0311E03B681B68D8
:101D1000BB66BB6E93FAA3F37B667B6EFB66FB6EC2
:101D2000002B01D1202303E0FB6EB3FA83F3DBB277
:101D30009A4206D17B681B68002203211846FFF7F0
:101D400091FB7B681B681846FFF770FC0346002B6D
:101D500040F040817B6818683B6819683B68DB6825
:101D60001A46FFF7F1FB3B68DB688F4A934240F06D
:101D700031817B6818683B681B68C3F31203002B32
:101D80000BD13B681B689B0E013303F01F03092B2B
:101D900094BF01230023DBB219E03B681B68FB659D
:101DA000FB6D93FAA3F3BB65BB6D3B663B6E002BEB
:101DB00001D1202303E03B6EB3FA83F3DBB201339E
:101DC00003F01F03092B94BF01230023DBB2002B78
:101DD00079D03B681B68C3F31203002B07D13B6823
:101DE0001B689B0E01339B0603F0F84215E03B682D
:101DF0001B683B653B6D93FAA3F3FB64FB6C7B654F
:101E00007B6D002B01D1202303E07B6DB3FA83F3BC
:101E1000DBB201339B0603F0F8423B681B68C3F357
:101E20001203002B09D13B681B689B0E013303F0A2
:101E30001F03012101FA03F317E03B681B687B6471
:101E40007B6C93FAA3F33B643B6CBB64BB6C002BD1
:101E500001D1202303E0BB6CB3FA83F3DBB201337F
:101E600003F01F03012101FA03F342EA03013B6877
:101E70001B68C3F31203002B0AD13B681B689B0E3F
:101E8000013303F01F0213465B0013441B0518E0E7
:101E90003B681B68BB63BB6B93FAA3F37B637B6BF1
:101EA000FB63FB6B002B01D1202303E0FB6BB3FA38
:101EB00083F3DBB2013303F01F0213465B001344CC
:101EC0001B050B4381E03B681B68C3F31203002B27
:101ED00007D13B681B689B0E01339B0603F0F84259
:101EE00015E03B681B68FB62FB6A93FAA3F3BB62D5
:101EF000BB6A3B633B6B002B01D1202303E03B6BB0
:101F0000B3FA83F3DBB201339B0603F0F8423B687C
:101F10001B68C3F31203002B09D13B681B689B0E9F
:101F2000013303F01F03012101FA03F317E03B68BB
:101F30001B683B623B6A93FAA3F3FB61FB697B621C
:101F40007B6A002B01D1202303E07B6AB3FA83F381
:101F5000DBB2013303F01F03012101FA03F342EA6C
:101F600003013B681B68C3F31203002B0DD13B68D0
:101F70001B689B0E013303F01F0213465B001344E2
:101F80001E3B1B0543F000731EE03B681B687B6132
:101F90007B6993FAA3F33B613B69BB61BB69002B8F
:101FA00004D1202306E000BF00007F40BB69B3FAE4
:101FB00083F3DBB2013303F01F0213465B001344CB
:101FC0001E3B1B0543F000730B433A6892681946A9
:101FD000FFF78FFA3B681A683D4B1340002B6CD01B
:101FE0003C48FFF7F6F9C7F8C4003B681B683A4A5B
:101FF000934227D1D7F8C43003F40003002B21D13A
:102000007B681B68354A934257D1D7F8C43043F4F4
:10201000000319462F48FFF7C9F9314B1B689B098C
:10202000304AA2FB03239B095A1C13465B0013444E
:102030009B00FB6002E0FB68013BFB60FB68002B40
:10204000F9D13AE03B681B68274A934213D1D7F88D
:10205000C43003F08073002B0DD17B681B681F4ACE
:1020600093422AD1D7F8C43043F0807319461948F7
:10207000FFF79CF921E03B681B681C4A93421CD186
:10208000D7F8C43003F48003002B16D17B681B689B
:10209000124A934211D1D7F8C43043F48003194651
:1020A0000C48FFF783F908E07B685B6D43F0200282
:1020B0007B685A65012387F8D7307B68002283F854
:1020C000502097F8D7301846D837BD4680BD00BF9E
:1020D0000000088000030450000052C700000450B4
:1020E00000000020632D3E05000084CB010000802D
:1020F00080B584B000AF78607B68002B01D10123EC
:10210000EDE07B6893F82030DBB2002B02D17868D9
:10211000FEF71CFF7B681B681A687B681B6842F02F
:1021200001021A6003F072FFF86012E003F06EFF24
:102130000246FB68D31A0A2B0BD97B685B6A43F40F
:1021400000327B685A627B68052283F820200123D5
:10215000C5E07B681B685B6803F00103002BE5D0DA
:102160007B681B681A687B681B6822F002021A6091
:1021700003F04CFFF86012E003F048FF0246FB68F2
:10218000D31A0A2B0BD97B685B6A43F400327B6855
:102190005A627B68052283F8202001239FE07B6838
:1021A0001B685B6803F00203002BE5D17B681B7E94
:1021B000012B08D17B681B681A687B681B6842F09A
:1021C00080021A6007E07B681B681A687B681B68DE
:1021D00022F080021A607B685B7E012B08D17B684D
:1021E0001B681A687B681B6842F040021A6007E0AF
:1021F0007B681B681A687B681B6822F040021A60C3
:102200007B689B7E012B08D17B681B681A687B6802
:102210001B6842F020021A6007E07B681B681A689E
:102220007B681B6822F020021A607B68DB7E012B32
:1022300008D17B681B681A687B681B6822F0100253
:102240001A6007E07B681B681A687B681B6842F0AD
:1022500010021A607B681B7F012B08D17B681B680A
:102260001A687B681B6842F008021A6007E07B6806
:102270001B681A687B681B6822F008021A607B687A
:102280005B7F012B08D17B681B681A687B681B6821
:1022900042F004021A6007E07B681B681A687B68DA
:1022A0001B6822F004021A607B689A687B68DB680E
:1022B0001A437B681B691A437B685B6942EA030126
:1022C0007B685B685A1E7B681B680A43DA617B681F
:1022D00000225A627B68012283F8202000231846DE
:1022E0001037BD4680BD80B487B000AF78603960DC
:1022F0007B681B687B617B6893F82030FB74FB7CF8
:10230000012B03D0FB7C022B40F0AA807B69D3F821
:10231000003243F001027B69C3F800223B685B692D
:1023200003F01F03012202FA03F3FB607B69D3F879
:102330001C22FB68DB431A407B69C3F81C223B6804
:10234000DB69002B23D17B69D3F80C22FB68DB43CC
:102350001A407B69C3F80C223B68DB6819043B68B0
:102360005B689BB23A68526919437B69483243F80B
:1023700032103B689B6819043B681B689AB23B6843
:102380005B690A4379694833DB000B445A603B6858
:10239000DB69012B22D17B69D3F80C22FB681A433D
:1023A0007B69C3F80C223B681B6819043B685B68B7
:1023B0009BB23A68526919437B69483243F832103C
:1023C0003B689B6819043B68DB689AB23B685B69B1
:1023D0000A4379694833DB000B445A603B689B69C8
:1023E000002B09D17B69D3F80422FB68DB431A4038
:1023F0007B69C3F8042207E07B69D3F80422FB68F9
:102400001A437B69C3F804223B681B69002B09D17E
:102410007B69D3F81422FB68DB431A407B69C3F85D
:10242000142207E07B69D3F81422FB681A437B6906
:10243000C3F814223B681B6A012B07D17B69D3F8D0
:102440001C22FB681A437B69C3F81C227B69D3F802
:10245000003223F001027B69C3F80022002306E06A
:102460007B685B6A43F480227B685A6201231846CA
:102470001C37BD465DF8047B704780B584B000AF63
:1024800078607B6893F82030DBB2012B2ED17B681B
:10249000022283F820207B681B681A687B681B680F
:1024A00022F001021A6003F0B1FDF86012E003F0BF
:1024B000ADFD0246FB68D31A0A2B0BD97B685B6A19
:1024C00043F400327B685A627B68052283F820203F
:1024D000012312E07B681B685B6803F00103002B9B
:1024E000E5D17B6800225A62002306E07B685B6AC4
:1024F00043F400227B685A62012318461037BD4618
:1025000080BD80B489B000AFF860B9607A603B608C
:10251000FB6893F82030FB77FB681B689B68BB6106
:10252000FB7F012B03D0FB7F022B40F0AD80BB690A
:1025300003F08063002B0AD1BB6903F00063002B1A
:1025400005D1BB6903F08053002B00F09580BB6977
:102550001B0E03F003037B6101227B699A403B68F9
:102560001A60BB689B68002B0DD1BB681B685A05BD
:10257000BB68DB68F96809681A437B6918331B017B
:102580000B441A600FE0BB685B68DA00BB689B68AD
:102590001A43BB68DB68F96809681A437B6918331A
:1025A0001B010B441A60FB681968BB681A697B69D8
:1025B00018331B010B4404331A60BB681B7D012BCD
:1025C00011D1FB681A687B6918331B01134404336B
:1025D0001B68FA68116843F480727B6918331B0129
:1025E0000B4404331A607B6807331B781A067B6838
:1025F00006331B781B041A437B6805331B781B02C8
:1026000013437A68043212781046FA68116843EA74
:1026100000027B691B010B4403F5C6731A607B68DB
:1026200003331B781A067B6802331B781B041A439A
:102630007B6801331B781B0213437A6812781046BB
:10264000FA68116843EA00027B691B010B4403F539
:10265000C4731A60FB681A687B6918331B01134442
:102660001B68FA68116843F001027B6918331B018B
:102670000B441A6000230EE0FB685B6A43F400120F
:10268000FB685A62012306E0FB685B6A43F4802220
:10269000FB685A62012318462437BD465DF8047B67
:1026A000704780B485B000AF78600023FB607B6822
:1026B00093F82030FB72FB7A012B02D0FB7A022BBD
:1026C0001DD17B681B689B6803F08063002B02D0E0
:1026D000FB680133FB607B681B689B6803F0006349
:1026E000002B02D0FB680133FB607B681B689B6892
:1026F00003F08053002B02D0FB680133FB60FB68C2
:1027000018461437BD465DF8047B704780B487B027
:1027100000AFF860B9607A603B60FB6893F82030E6
:10272000FB75FB7D012B03D0FB7D022B40F0F3807A
:10273000BB68002B0ED1FB681B68DB6803F003034A
:10274000002B16D1FB685B6A43F40012FB685A62E7
:102750000123E7E0FB681B681B6903F00303002B00
:1027600007D1FB685B6A43F40012FB685A620123DD
:10277000D8E0FB681A68BB681B331B0113441B6855
:1027800003F004027B689A607B689B68002B0CD185
:10279000FB681A68BB681B331B0113441B685B0D85
:1027A000C3F30A027B681A600BE0FB681A68BB6817
:1027B0001B331B0113441B68DB0823F060427B685A
:1027C0005A60FB681A68BB681B331B0113441B6803
:1027D00003F002027B68DA60FB681A68BB681B338F
:1027E0001B01134404331B6803F00F027B681A615A
:1027F000FB681A68BB681B331B01134404331B6856
:102800001B0ADAB27B689A61FB681A68BB681B33E3
:102810001B01134404331B681B0C9AB27B685A617A
:10282000FB681A68BB681B01134403F5DC731B6863
:10283000DAB23B681A70FB681A68BB681B01134464
:1028400003F5DC731B681A0A3B680133D2B21A70B5
:10285000FB681A68BB681B01134403F5DC731B6833
:102860001A0C3B680233D2B21A70FB681A68BB6854
:102870001B01134403F5DC731B681A0E3B6803331A
:10288000D2B21A70FB681A68BB681B01134403F5C7
:10289000DE731A683B680433D2B21A70FB681A6898
:1028A000BB681B01134403F5DE731B681A0A3B68FF
:1028B0000533D2B21A70FB681A68BB681B01134457
:1028C00003F5DE731B681A0C3B680633D2B21A702C
:1028D000FB681A68BB681B01134403F5DE731B68B1
:1028E0001A0E3B680733D2B21A70BB68002B08D1AE
:1028F000FB681B68DA68FB681B6842F02002DA603C
:1029000007E0FB681B681A69FB681B6842F020023D
:102910001A61002306E0FB685B6A43F48022FB68CF
:102920005A62012318461C37BD465DF8047B704788
:1029300080B485B000AF786039600023FB607B68AD
:1029400093F82030FB72FB7A012B02D0FB7A022B2A
:102950000FD13B68002B06D17B681B68DB6803F056
:102960000303FB6005E07B681B681B6903F003033E
:10297000FB60FB6818461437BD465DF8047B704762
:1029800080B485B000AF786039607B6893F8203000
:10299000FB73FB7B012B02D0FB7B022B09D17B68F5
:1029A0001B6859697B681B683A680A435A610023AF
:1029B00006E07B685B6A43F480227B685A620123ED
:1029C00018461437BD465DF8047B704780B485B067
:1029D00000AF78607B6803F00703FB600C4BDB689B
:1029E000BB60BA684FF6FF031340BB60FB681A0276
:1029F000BB68134343F0BF6343F40033BB60044A36
:102A0000BB68D36000BF1437BD465DF8047B7047D8
:102A100000ED00E080B400AF044BDB681B0A03F05C
:102A200007031846BD465DF8047B704700ED00E0E3
:102A300080B483B000AF0346FB7197F90730002BD9
:102A40000BDBFB7903F01F02074997F907305B099D
:102A5000012000FA02F241F8232000BF0C37BD46E6
:102A60005DF8047B704700BF00E100E080B483B0F4
:102A700000AF03463960FB7197F90730002B0ADB82
:102A80003B68DAB20C4997F907301201D2B20B4415
:102A900083F800230AE03B68DAB20849FB7903F0C7
:102AA0000F03043B1201D2B20B441A7600BF0C375D
:102AB000BD465DF8047B704700E100E000ED00E0FA
:102AC00080B489B000AFF860B9607A60FB6803F049
:102AD0000703FB61FB69C3F10703042B28BF042331
:102AE000BB61FB690433062B02D9FB69033B00E0A1
:102AF00000237B614FF0FF32BB6902FA03F3DA4334
:102B0000BB681A407B699A404FF0FF317B6901FA3C
:102B100003F3D9437B680B40134318462437BD4663
:102B20005DF8047B704780B582B000AF786078684C
:102B3000FFF74CFF00BF0837BD4680BD80B586B0AB
:102B400000AF0346B9607A60FB7300237B61FFF737
:102B500061FF78617A68B9687869FFF7B1FF02466A
:102B600097F90F3011461846FFF780FF00BF18375E
:102B7000BD4680BD80B582B000AF0346FB7197F9BA
:102B800007301846FFF754FF00BF0837BD4680BD29
:102B900080B487B000AF7860396000237B6154E176
:102BA0003B681A6801217B6901FA03F31340FB605B
:102BB000FB68002B00F046813B685B6803F0030371
:102BC000012B05D03B685B6803F00303022B30D177
:102BD0007B689B683B617B695B00032202FA03F31D
:102BE000DB433A6913403B613B68DA687B695B0011
:102BF00002FA03F33A6913433B617B683A699A60CE
:102C00007B685B683B6101227B6902FA03F3DB436B
:102C10003A6913403B613B685B681B0903F00102A2
:102C20007B6902FA03F33A6913433B617B683A69B3
:102C30005A603B685B6803F00303032B17D07B6883
:102C4000DB683B617B695B00032202FA03F3DB4331
:102C50003A6913403B613B689A687B695B0002FA02
:102C600003F33A6913433B617B683A69DA603B6876
:102C70005B6803F00303022B23D17B69DA087B68CE
:102C8000083253F822303B617B6903F007039B0055
:102C90000F2202FA03F3DB433A6913403B613B68BE
:102CA0001A697B6903F007039B0002FA03F33A6990
:102CB00013433B617B69DA087B680832396943F862
:102CC00022107B681B683B617B695B00032202FA70
:102CD00003F3DB433A6913403B613B685B6803F0F5
:102CE00003027B695B0002FA03F33A6913433B6119
:102CF0007B683A691A603B685B6803F44033002BD9
:102D000000F0A080584B1B6E574A43F00103136636
:102D1000554B1B6E03F00103BB60BB68534A7B69D4
:102D20009B08023352F823303B617B6903F00303B5
:102D30009B000F2202FA03F3DB433A6913403B6125
:102D40007B68B3F1904F19D07B68494A934213D006
:102D50007B68484A93420DD07B68474A934207D02C
:102D60007B68464A934201D1042308E0072306E02A
:102D7000032304E0022302E0012300E000237A6938
:102D800002F00302920093403A6913433B613749D2
:102D90007B699B0802333A6941F82320384B9B68D2
:102DA0003B61FB68DB433A6913403B613B685B680E
:102DB00003F48013002B03D03A69FB6813433B6193
:102DC0002F4A3B6993602E4BDB683B61FB68DB431A
:102DD0003A6913403B613B685B6803F40013002BC6
:102DE00003D03A69FB6813433B61254A3B69D360D2
:102DF000234B5B683B61FB68DB433A6913403B61F3
:102E00003B685B6803F40033002B03D03A69FB682E
:102E100013433B611A4A3B695360194B1B683B6182
:102E2000FB68DB433A6913403B613B685B6803F432
:102E30008033002B03D03A69FB6813433B61104A8F
:102E40003B6913607B6901337B613B681A687B696E
:102E500022FA03F3002B7FF4A3AE00BF00BF1C37A0
:102E6000BD465DF8047B7047001002400000014041
:102E70000004004800080048000C0048001000480A
:102E80000004014080B483B000AF78600B467B80C3
:102E900013467B707B78002B03D07A887B689A611D
:102EA00002E07A887B689A6200BF0C37BD465DF805
:102EB000047B704780B485B000AF78600B467B80A0
:102EC0007B685B69FB607A88FB6813401A04FB68C7
:102ED000D9437B880B401A437B689A6100BF143743
:102EE000BD465DF8047B704780B400AF044B1B689F
:102EF00003F4C0631846BD465DF8047B704700BF0D
:102F00000070004080B485B000AF78607B68B3F596
:102F1000007F30D1234B1B6803F4C063B3F5007FFF
:102F200038D0204B1B6823F4C0631E4A43F400735F
:102F300013601D4B1B68322202FB03F31B4AA2FBEA
:102F400003239B0C0133FB6002E0FB68013BFB6049
:102F5000144B5B6903F48063B3F5806F02D1FB68A7
:102F6000002BF2D10F4B5B6903F48063B3F5806FE4
:102F700010D103230FE00B4B1B6803F4C063B3F5C0
:102F8000806F07D0074B1B6823F4C063054A43F4E6
:102F900080631360002318461437BD465DF8047B38
:102FA000704700BF007000400000002083DE1B431C
:102FB00080B586B000AF78600023FB740023BB743B
:102FC0007B681B6803F40063002B31D07B685B6C6B
:102FD000B3F5400F1AD0B3F5400F14D8002B09D029
:102FE000B3F5000F0FD15D4BDB685C4A43F48033CF
:102FF000D3600CE07B6804330021184600F0F0F940
:103000000346FB7403E00123FB7400E000BFFB7C7C
:10301000002B0BD1514BD3F8883023F440027B684E
:103020005B6C4E491343C1F8883001E0FB7CBB74F4
:103030007B681B6803F40033002B00F09E800023A4
:103040007B74464B9B6D03F08053002B01D1012311
:1030500000E00023002B0DD0404B9B6D3F4A43F016
:10306000805393653D4B9B6D03F08053BB60BB6801
:1030700001237B743A4B1B68394A43F48073136015
:1030800002F0C4FFF86009E002F0C0FF0246FB68EE
:10309000D31A022B02D90323FB7405E0304B1B68C3
:1030A00003F48073002BEFD0FB7C002B5AD12B4B09
:1030B000D3F8903003F440737B617B69002B1ED002
:1030C0007B689B6D7A699A4219D0244BD3F8903073
:1030D00023F440737B61214BD3F890301F4A43F4B3
:1030E0008033C2F890301D4BD3F890301B4A23F444
:1030F0008033C2F89030194A7B69C2F890307B69FE
:1031000003F00103002B16D002F080FFF8600BE003
:1031100002F07CFF0246FB68D31A41F288329342E8
:1031200002D90323FB7406E00C4BD3F8903003F074
:103130000203002BECD0FB7C002B0BD1074BD3F808
:10314000903023F440727B689B6D04491343C1F8AF
:10315000903009E0FB7CBB7406E000BF0010024029
:1031600000700040FB7CBB747B7C012B05D19B4B2A
:103170009B6D9A4A23F0805393657B681B6803F02C
:103180000103002B0AD0954BD3F8883023F00302BB
:103190007B681B6A91491343C1F888307B681B68C0
:1031A00003F00203002B0AD08C4BD3F8883023F0B5
:1031B0000C027B685B6A89491343C1F888307B68DD
:1031C0001B6803F00403002B0AD0844BD3F888302B
:1031D00023F030027B689B6A80491343C1F8883032
:1031E0007B681B6803F02003002B0AD07B4BD3F8CD
:1031F000883023F440627B68DB6A78491343C1F866
:1032000088307B681B6803F40073002B0AD0734B73
:10321000D3F8883023F440227B68DB6B6F4913437B
:10322000C1F888307B681B6803F48063002B0AD0E8
:103230006A4BD3F8883023F440127B681B6C6749D3
:103240001343C1F888307B681B6803F04003002BF0
:103250000AD0624BD3F8883023F440527B681B6B52
:103260005E491343C1F888307B681B6803F0800314
:10327000002B0AD0594BD3F8883023F440427B68A6
:103280005B6B56491343C1F888307B681B6803F4B5
:103290008073002B0AD0514BD3F8883023F440328E
:1032A0007B689B6B4D491343C1F888307B681B6872
:1032B00003F40023002B28D0484BD3F8883023F0A8
:1032C00040627B689B6C45491343C1F888307B683A
:1032D0009B6CB3F1006F06D1404BDB683F4A43F46F
:1032E0008013D36011E07B689B6CB3F1806F0CD1CD
:1032F0007B6804330121184600F072F80346FB7422
:10330000FB7C002B01D0FB7CBB747B681B6803F447
:103310008023002B28D0314BD3F8883023F0406233
:103320007B68DB6C2D491343C1F888307B68DB6C0C
:10333000B3F1006F06D1294BDB68284A43F48013B0
:10334000D36011E07B68DB6CB3F1806F0CD17B68DC
:1033500004330121184600F043F80346FB74FB7C5C
:10336000002B01D0FB7CBB747B681B6803F480439B
:10337000002B1CD0194BD3F8883023F040527B68C7
:103380001B6D16491343C1F888307B681B6DB3F180
:10339000805F0CD17B6804330221184600F020F8CE
:1033A0000346FB74FB7C002B01D0FB7CBB747B6869
:1033B0001B6803F40043002B0AD0084BD3F8883075
:1033C00023F080427B685B6D04491343C1F8883069
:1033D000BB7C18461837BD4680BD00BF00100240B8
:1033E00080B584B000AF786039600023FB73744B04
:1033F000DB6803F00303002B18D0714BDB6803F08C
:1034000003027B681B689A420DD17B681B68002B06
:1034100009D06B4BDB681B0903F007035A1C7B6860
:103420005B689A4247D00123FB7344E07B681B68CA
:10343000032B18D0032B25D8012B02D0022B09D047
:1034400020E05F4B1B6803F00203002B1DD101231A
:10345000FB731AE05A4B1B6803F48063002B16D1F0
:103460000123FB7313E0564B1B6803F40033002B5E
:103470000FD1534B1B6803F48023002B09D1012388
:10348000FB7306E00123FB7304E000BF02E000BF12
:1034900000E000BFFB7B002B0DD1494BDB6823F024
:1034A00073027B6819687B685B68013B1B010B43F7
:1034B00043491343CB60FB7B002B7CD1404B1B6803
:1034C0003F4A23F08063136002F0A0FDB86009E07A
:1034D00002F09CFD0246BB68D31A022B02D90323DB
:1034E000FB7305E0364B1B6803F00063002BEFD144
:1034F000FB7B002B5FD13B68002B10D1304B1B694D
:1035000023F0784323F4FE437A68926811027A68C4
:10351000D268D2060A432A4913430B6127E03B686D
:10352000012B12D1264B1B6923F4C00323F4FE4365
:103530007A68926811027A6812695208013A520553
:103540000A431F4913430B6111E01D4B1B6923F014
:10355000C06323F4FE437A68926811027A68526964
:103560005208013A52060A43154913430B61144BA2
:103570001B68134A43F08063136002F047FDB86094
:1035800009E002F043FD0246BB68D31A022B02D9C0
:103590000323FB7305E00A4B1B6803F00063002B59
:1035A000EFD0FB7B002B06D1054B1A697B689B692A
:1035B000034913430B61FB7B18461037BD4680BDA2
:1035C0000010024080B588B000AF78607B68002BA7
:1035D00002D1012300F002BC964B9B6803F00C0360
:1035E000BB61944BDB6803F003037B617B681B6862
:1035F00003F01003002B00F0E480BB69002B07D020
:10360000BB690C2B40F08B807B69012B40F08780DD
:10361000884B1B6803F00203002B05D07B689B6975
:10362000002B01D10123D9E37B681A6A814B1B6807
:1036300003F00803002B04D07E4B1B6803F0F0035B
:1036400005E07C4BD3F894301B0903F0F003934260
:1036500023D27B681B6A184600F0BCFD0346002B92
:1036600001D00123BAE3734B1B68724A43F008038D
:103670001360704B1B6823F0F0027B681B6A6D4976
:1036800013430B606B4B5B6823F47F427B68DB6901
:103690001B02684913434B6025E0664B1B68654A73
:1036A00043F008031360634B1B6823F0F0027B6850
:1036B0001B6A604913430B605E4B5B6823F47F42D7
:1036C0007B68DB691B025B4913434B60BB69002BC2
:1036D00009D17B681B6A184600F07CFD0346002B6D
:1036E00001D001237AE300F081FC0246514B9B6834
:1036F0001B0903F00F035049CB5C03F01F0322FAB0
:1037000003F34E4A13604E4B1B681846FDF766FDE7
:103710000346FB73FB7B002B52D0FB7B5EE37B6895
:103720009B69002B32D0434B1B68424A43F0010394
:10373000136002F06BFC386108E002F067FC02469F
:103740003B69D31A022B01D9032347E3394B1B688A
:1037500003F00203002BF0D0364B1B68354A43F0D0
:1037600008031360334B1B6823F0F0027B681B6A6D
:10377000304913430B602F4B5B6823F47F427B6817
:10378000DB691B022B4913434B601AE0294B1B6872
:10379000284A23F00103136002F038FC386108E086
:1037A00002F034FC02463B69D31A022B01D90323F1
:1037B00014E3204B1B6803F00203002BF0D100E060
:1037C00000BF7B681B6803F00103002B73D0BB694B
:1037D000082B05D0BB690C2B0ED17B69032B0BD1B9
:1037E000144B1B6803F40033002B63D07B685B68C9
:1037F000002B5FD10123F1E27B685B68B3F5803F6A
:1038000006D10C4B1B680B4A43F48033136025E050
:103810007B685B68B3F5A02F14D1064B1B68054A83
:1038200043F480231360034B1B68024A43F4803344
:10383000136013E0001002400CAE000800000020EE
:1038400004000020A04B1B689F4A23F480331360C0
:103850009D4B1B689C4A23F4802313607B685B6844
:10386000002B13D002F0D2FB386108E002F0CEFB4F
:1038700002463B69D31A642B01D90323AEE2924B73
:103880001B6803F40033002BF0D014E002F0BEFB01
:10389000386108E002F0BAFB02463B69D31A642B98
:1038A00001D903239AE2884B1B6803F40033002BF1
:1038B000F0D100E000BF7B681B6803F00203002B1F
:1038C00060D0BB69042B05D0BB690C2B19D17B6977
:1038D000022B16D17C4B1B6803F48063002B05D0B0
:1038E0007B68DB68002B01D1012377E2764B5B68B4
:1038F00023F0F8527B681B691B06734913434B6026
:1039000040E07B68DB68002B23D06F4B1B686E4A5E
:1039100043F48073136002F079FB386108E002F031
:1039200075FB02463B69D31A022B01D9032355E2EA
:10393000654B1B6803F48063002BF0D0624B5B681F
:1039400023F0F8527B681B691B065F4913434B60E9
:1039500018E05D4B1B685C4A23F48073136002F02F
:1039600055FB386108E002F051FB02463B69D31A6F
:10397000022B01D9032331E2534B1B6803F480630C
:10398000002BF0D17B681B6803F00803002B3CD0B0
:103990007B685B69002B1CD04B4BD3F894304A4AB0
:1039A00043F00103C2F8943002F030FB386108E0C4
:1039B00002F02CFB02463B69D31A022B01D90323E8
:1039C0000CE2414BD3F8943003F00203002BEFD00C
:1039D0001BE03D4BD3F894303B4A23F00103C2F87F
:1039E000943002F013FB386108E002F00FFB02464E
:1039F0003B69D31A022B01D90323EFE1324BD3F8F1
:103A0000943003F00203002BEFD17B681B6803F0B6
:103A10000403002B00F0A6800023FB772A4B9B6D4C
:103A200003F08053002B0DD1274B9B6D264A43F0AA
:103A300080539365244B9B6D03F08053BB60BB6840
:103A40000123FB77214B1B6803F48073002B18D1F3
:103A50001E4B1B681D4A43F48073136002F0D6FAB4
:103A6000386108E002F0D2FA02463B69D31A022B11
:103A700001D90323B2E1154B1B6803F48073002BBB
:103A8000F0D07B689B68012B08D10F4BD3F89030A6
:103A90000D4A43F00103C2F8903029E07B689B682F
:103AA000052B15D1084BD3F89030074A43F0040397
:103AB000C2F89030044BD3F89030034A43F001032E
:103AC000C2F8903014E000BF0010024000700040C7
:103AD0009A4BD3F89030994A23F00103C2F8903002
:103AE000964BD3F89030954A23F00403C2F89030F7
:103AF0007B689B68002B16D002F088FA38610AE0D8
:103B000002F084FA02463B69D31A41F288329342AA
:103B100001D9032362E1894BD3F8903003F002030B
:103B2000002BEDD015E002F071FA38610AE002F0E6
:103B30006DFA02463B69D31A41F28832934201D9A9
:103B400003234BE17D4BD3F8903003F00203002BAD
:103B5000EDD1FB7F012B05D1784B9B6D774A23F08C
:103B6000805393657B681B6803F02003002B3CD0D7
:103B70007B685B6A002B1CD0704BD3F898306F4A7F
:103B800043F00103C2F8983002F040FA386108E0CF
:103B900002F03CFA02463B69D31A022B01D90323F7
:103BA0001CE1664BD3F8983003F00203002BEFD0F2
:103BB0001BE0624BD3F89830604A23F00103C2F84F
:103BC000983002F023FA386108E002F01FFA02464A
:103BD0003B69D31A022B01D90323FFE0574BD3F8DB
:103BE000983003F00203002BEFD17B689B6A002B17
:103BF00000F0F3807B689B6A022B40F0C9804F4B3A
:103C0000DB687B617B6903F003027B68DB6A9A42B5
:103C10002CD17B6903F070027B681B6B013B1B019D
:103C20009A4223D17B6903F4FE427B685B6B1B02E3
:103C30009A421BD17B6903F078427B689B6BDB0661
:103C40009A4213D17B6903F4C0027B68DB6B5B088B
:103C5000013B5B059A4209D17B6903F0C0627B6836
:103C60001B6C5B08013B5B069A426BD0BB690C2B5B
:103C700062D0324B1B6803F08063002B01D001231C
:103C8000ACE02E4B1B682D4A23F08073136002F0CA
:103C9000BDF9386108E002F0B9F902463B69D31A70
:103CA000022B01D9032399E0244B1B6803F0007316
:103CB000002BF0D1214BDA68214B13407A68D16A8E
:103CC0007A68126B013A120111437A68526B120240
:103CD00011437A68D26B5208013A520511437A684F
:103CE000126C5208013A520611437A68926BD2065E
:103CF0000A4312491343CB60104B1B680F4A43F031
:103D0000807313600D4BDB680C4A43F08073D36003
:103D100002F07CF9386108E002F078F902463B696C
:103D2000D31A022B01D9032358E0044B1B6803F07C
:103D30000073002BF0D050E001234FE00010024050
:103D40008C809D01274B1B6803F00073002B44D12E
:103D5000244B1B68234A43F080731360214BDB68BC
:103D6000204A43F08073D36002F050F9386108E0D4
:103D700002F04CF902463B69D31A022B01D9032306
:103D80002CE0184B1B6803F00073002BF0D024E0EC
:103D9000BB690C2B1FD0134B1B68124A23F0807396
:103DA000136002F033F9386108E002F02FF902469F
:103DB0003B69D31A022B01D903230FE0094B1B687F
:103DC00003F00073002BF0D1064BDA680549064B6F
:103DD0001340CB6001E0012300E0002318462037A8
:103DE000BD4680BD00100240FCFFEEFE80B584B0F1
:103DF00000AF786039607B68002B01D10123E7E0D8
:103E0000754B1B6803F007033A689A4210D9724B4E
:103E10001B6823F0070270493B6813430B606E4B2D
:103E20001B6803F007033A689A4201D00123CFE0F0
:103E30007B681B6803F00203002B10D07B689A6834
:103E4000664B9B6803F0F0039A4208D9634B9B686A
:103E500023F0F0027B689B68604913438B607B68AA
:103E60001B6803F00103002B4CD07B685B68032BBD
:103E700007D15A4B1B6803F00073002B21D101239B
:103E8000A6E07B685B68022B07D1544B1B6803F4E8
:103E90000033002B15D101239AE07B685B68002B6F
:103EA00007D14E4B1B6803F00203002B09D10123FD
:103EB0008EE04A4B1B6803F48063002B01D1012381
:103EC00086E0464B9B6823F003027B685B684349AE
:103ED00013438B6002F09AF8F8600AE002F096F85B
:103EE0000246FB68D31A41F28832934201D9032378
:103EF0006EE03A4B9B6803F00C027B685B689B00AA
:103F00009A42EBD17B681B6803F00203002B10D0B0
:103F10007B689A68314B9B6803F0F0039A4208D2A1
:103F20002E4B9B6823F0F0027B689B682B49134360
:103F30008B60294B1B6803F007033A689A4210D242
:103F4000254B1B6823F0070223493B6813430B6092
:103F5000214B1B6803F007033A689A4201D0012302
:103F600036E07B681B6803F00403002B08D01B4B72
:103F70009B6823F4E0627B68DB68184913438B601D
:103F80007B681B6803F00803002B09D0134B9B6868
:103F900023F460527B681B69DB00104913438B607C
:103FA00000F024F802460D4B9B681B0903F00F0339
:103FB0000B49CB5C03F01F0322FA03F3094A136099
:103FC000094B1B681846FDF709F90346FB72FB7A9B
:103FD00018461037BD4680BD002002400010024048
:103FE0000CAE0008000000200400002080B489B05E
:103FF00000AF0023FB610023BB613E4B9B6803F0D5
:104000000C033B613B4BDB6803F00303FB603B6944
:10401000002B05D03B690C2B21D1FB68012B1ED155
:10402000344B1B6803F00803002B07D1314BD3F846
:1040300094301B0A03F00F03FB6105E02D4B1B6856
:104040001B0903F00F03FB612B4AFB6952F8233075
:10405000FB613B69002B0DD1FB69BB610AE03B6949
:10406000042B02D1254BBB6104E03B69082B01D135
:10407000224BBB613B690C2B34D11E4BDB6803F038
:104080000303BB60BB68022B03D0BB68032B03D0C8
:1040900005E01A4B7B6105E0184B7B6102E0FB6990
:1040A0007B6100BF134BDB681B0903F0070301337F
:1040B0007B60104BDB681B0A03F07F037A6903FB0C
:1040C00002F27B68B2FBF3F37B610A4BDB685B0EA9
:1040D00003F0030301335B003B607A693B68B2FB8A
:1040E000F3F3BB61BB6918462437BD465DF8047B1A
:1040F000704700BF0010024024AE00080024F40006
:1041000080B400AF034B1B681846BD465DF8047BC6
:10411000704700BF0000002080B500AFFFF7F0FF40
:104120000246064B9B681B0A03F007030449CB5C5D
:1041300003F01F0322FA03F3184680BD001002406B
:104140001CAE000880B500AFFFF7DAFF0246064B51
:104150009B68DB0A03F007030449CB5C03F01F03F1
:1041600022FA03F3184680BD001002401CAE00087E
:1041700080B483B000AF786039607B680F221A602A
:10418000124B9B6803F003027B685A600F4B9B68DD
:1041900003F0F0027B689A600C4B9B6803F4E062CA
:1041A0007B68DA60094B9B68DB0803F4E0627B689C
:1041B0001A61074B1B6803F007023B681A6000BFD7
:1041C0000C37BD465DF8047B704700BF001002400D
:1041D0000020024080B586B000AF786000233B61CC
:1041E0002A4B9B6D03F08053002B03D0FEF77CFE1F
:1041F000786114E0254B9B6D244A43F0805393650E
:10420000224B9B6D03F08053FB60FB68FEF76CFE56
:1042100078611E4B9B6D1D4A23F0805393657B692B
:10422000B3F5007F0BD17B68802B19D97B68A02B5D
:1042300002D902233B6113E001233B6110E07B685C
:10424000802B02D903233B610AE07B68802B02D1DB
:1042500002233B6104E07B68702B01D101233B61A9
:104260000B4B1B6823F0070209493B6913430B60A2
:10427000074B1B6803F007033A699A4201D00123F8
:1042800000E0002318461837BD4680BD00100240EC
:104290000020024080B485B000AF786039607B6850
:1042A00093F83C30012B01D102234FE07B680122BF
:1042B00083F83C207B68022283F83D207B681B68E2
:1042C0005B68FB607B681B689B68BB607B681B68E6
:1042D000214A934208D1FB6823F47003FB603B68DA
:1042E0005B68FA681343FB60FB6823F07003FB60B4
:1042F0003B681B68FA681343FB607B681B68FA68BD
:104300005A607B681B68144A934209D07B681B681B
:10431000B3F1804F04D07B681B68104A93420CD1E4
:10432000BB6823F08003BB603B689B68BA6813439B
:10433000BB607B681B68BA689A607B68012283F85F
:104340003D207B68002283F83C2000231846143768
:10435000BD465DF8047B7047002C014000400140E1
:1043600080B485B000AF786039600023FB607B6863
:1043700093F83C30012B01D1022360E07B680122DD
:1043800083F83C20FB6823F0FF023B68DB681343A3
:10439000FB60FB6823F440723B689B681343FB603F
:1043A000FB6823F480623B685B681343FB60FB6837
:1043B00023F400623B681B681343FB60FB6823F433
:1043C00080523B681B691343FB60FB6823F4005277
:1043D0003B685B691343FB60FB6823F480423B68E6
:1043E0009B6A1343FB60FB6823F470223B689B6964
:1043F0001B041343FB607B681B68144A934215D16E
:10440000FB6823F470023B685B6A1B051343FB6087
:10441000FB6823F080723B68DB691343FB60FB6839
:1044200023F000723B681B6A1343FB607B681B68C8
:10443000FA685A647B68002283F83C2000231846FF
:104440001437BD465DF8047B704700BF002C014067
:1044500080B483B000AF786000BF0C37BD465DF814
:10446000047B704780B483B000AF786000BF0C3726
:10447000BD465DF8047B704780B483B000AF7860C0
:1044800000BF0C37BD465DF8047B704780B582B035
:1044900000AF78607B68002B01D1012349E07B6885
:1044A00093F83D30DBB2002B06D17B68002283F805
:1044B0003C207868FCF78EFD7B68022283F83D2063
:1044C0007B681A687B6804331946104600F078FD53
:1044D0007B68012283F848207B68012283F83E2014
:1044E0007B68012283F83F207B68012283F840200B
:1044F0007B68012283F841207B68012283F84220F7
:104500007B68012283F843207B68012283F84420E2
:104510007B68012283F845207B68012283F84620CE
:104520007B68012283F847207B68012283F83D20C5
:10453000002318460837BD4680BD000080B485B012
:1045400000AF78607B6893F83D30DBB2012B01D07F
:1045500001233BE07B68022283F83D207B681B68D7
:10456000DA687B681B6842F00102DA607B681B68CE
:10457000194A934209D07B681B68B3F1804F04D07D
:104580007B681B68154A934215D17B681B689A6843
:10459000134B1340FB60FB68062B15D0FB68B3F58B
:1045A000803F11D07B681B681A687B681B6842F0EB
:1045B00001021A6008E07B681B681A687B681B6848
:1045C00042F001021A6000E000BF002318461437D1
:1045D000BD465DF8047B7047002C0140004001405F
:1045E0000700010080B582B000AF78607B68002BC7
:1045F00001D1012349E07B6893F83D30DBB2002B09
:1046000006D17B68002283F83C20786800F041F8EE
:104610007B68022283F83D207B681A687B6804333C
:104620001946104600F0CCFC7B68012283F8482034
:104630007B68012283F83E207B68012283F83F20BB
:104640007B68012283F840207B68012283F84120A7
:104650007B68012283F842207B68012283F8432093
:104660007B68012283F844207B68012283F845207F
:104670007B68012283F846207B68012283F847206B
:104680007B68012283F83D20002318460837BD4689
:1046900080BD80B483B000AF786000BF0C37BD46EA
:1046A0005DF8047B7047000080B584B000AF78608F
:1046B00039603B68002B09D17B6893F83E30DBB250
:1046C000012B14BF01230023DBB23CE03B68042B29
:1046D00009D17B6893F83F30DBB2012B14BF012373
:1046E0000023DBB22FE03B68082B09D17B6893F8ED
:1046F0004030DBB2012B14BF01230023DBB222E0E8
:104700003B680C2B09D17B6893F84130DBB2012B5D
:1047100014BF01230023DBB215E03B68102B09D145
:104720007B6893F84230DBB2012B14BF01230023D6
:10473000DBB208E07B6893F84330DBB2012B14BF97
:1047400001230023DBB2002B01D001237EE03B6874
:10475000002B04D17B68022283F83E2023E03B68D3
:10476000042B04D17B68022283F83F201BE03B68C6
:10477000082B04D17B68022283F8402013E03B68B9
:104780000C2B04D17B68022283F841200BE03B68AC
:10479000102B04D17B68022283F8422003E07B685F
:1047A000022283F843207B681B680122396818467F
:1047B00000F082FF7B681B68264A934209D07B6821
:1047C0001B68254A934204D07B681B68234A9342A6
:1047D00001D1012300E00023002B07D07B681B6878
:1047E0005A6C7B681B6842F400425A647B681B6801
:1047F000184A934209D07B681B68B3F1804F04D0FC
:104800007B681B68144A934215D17B681B689A68C1
:10481000134B1340FB60FB68062B15D0FB68B3F508
:10482000803F11D07B681B681A687B681B6842F068
:1048300001021A6008E07B681B681A687B681B68C5
:1048400042F001021A6000E000BF00231846103752
:10485000BD4680BD002C01400040014000440140A5
:104860000700010080B582B000AF786039607B68D6
:104870001B6800223968184600F01EFF7B681B6821
:10488000394A934209D07B681B68384A934204D066
:104890007B681B68364A934201D1012300E0002364
:1048A000002B17D07B681B681A6A41F21113134062
:1048B000002B0FD17B681B681A6A40F244431340F7
:1048C000002B07D17B681B685A6C7B681B6822F43D
:1048D00000425A647B681B681A6A41F21113134044
:1048E000002B0FD17B681B681A6A40F244431340C7
:1048F000002B07D17B681B681A687B681B6822F055
:1049000001021A603B68002B04D17B68012283F806
:104910003E2023E03B68042B04D17B68012283F80E
:104920003F201BE03B68082B04D17B68012283F801
:10493000402013E03B680C2B04D17B68012283F8F4
:1049400041200BE03B68102B04D17B68012283F8E7
:10495000422003E07B68012283F8432000231846AD
:104960000837BD4680BD00BF002C0140004001401B
:104970000044014080B582B000AF78607B681B685E
:104980001B6903F00203022B22D17B681B68DB68E2
:1049900003F00203022B1BD17B681B686FF002023D
:1049A0001A617B6801221A777B681B689B6903F098
:1049B0000303002B03D0786800F0E3FA05E0786881
:1049C00000F0D5FA786800F0E6FA7B6800221A77E2
:1049D0007B681B681B6903F00403042B22D17B68EE
:1049E0001B68DB6803F00403042B1BD17B681B6886
:1049F0006FF004021A617B6802221A777B681B68D9
:104A00009B6903F44073002B03D0786800F0B9FA77
:104A100005E0786800F0ABFA786800F0BCFA7B68D3
:104A200000221A777B681B681B6903F00803082BB8
:104A300022D17B681B68DB6803F00803082B1BD1BD
:104A40007B681B686FF008021A617B6804221A7782
:104A50007B681B68DB6903F00303002B03D07868D5
:104A600000F08FFA05E0786800F081FA786800F0CD
:104A700092FA7B6800221A777B681B681B6903F037
:104A80001003102B22D17B681B68DB6803F0100336
:104A9000102B1BD17B681B686FF010021A617B68BA
:104AA00008221A777B681B68DB6903F44073002BCC
:104AB00003D0786800F065FA05E0786800F057FAEE
:104AC000786800F068FA7B6800221A777B681B68B8
:104AD0001B6903F00103012B0ED17B681B68DB68A7
:104AE00003F00103012B07D17B681B686FF0010203
:104AF0001A617868FCF74CF87B681B681B6903F047
:104B00008003802B0ED17B681B68DB6803F0800379
:104B1000802B07D17B681B686FF080021A61786870
:104B2000FFF7A0FC7B681B681B6903F48073B3F577
:104B3000807F0ED17B681B68DB6803F08003802BCD
:104B400007D17B681B686FF480721A617868FFF781
:104B500093FC7B681B681B6903F04003402B0ED15C
:104B60007B681B68DB6803F04003402B07D17B6840
:104B70001B686FF040021A61786800F016FA7B68D3
:104B80001B681B6903F02003202B0ED17B681B6878
:104B9000DB6803F02003202B07D17B681B686FF0D4
:104BA00020021A617868FFF753FC00BF0837BD4642
:104BB00080BD000080B586B000AFF860B9607A6053
:104BC0000023FB75FB6893F83C30012B01D10223D5
:104BD000FFE0FB68012283F83C207B68142B00F285
:104BE000F08001A252F823F03D4C0008C34D0008AC
:104BF000C34D0008C34D00087D4C0008C34D00089C
:104C0000C34D0008C34D0008BF4C0008C34D000849
:104C1000C34D0008C34D0008FF4C0008C34D0008F9
:104C2000C34D0008C34D0008414D0008C34D0008A6
:104C3000C34D0008C34D0008814D0008FB681B6888
:104C4000B968184600F020FAFB681B689A69FB688F
:104C50001B6842F008029A61FB681B689A69FB684E
:104C60001B6822F004029A61FB681B689969BB68A3
:104C70001A69FB681B680A439A61A5E0FB681B6818
:104C8000B968184600F07CFAFB681B689A69FB68F3
:104C90001B6842F400629A61FB681B689A69FB68B2
:104CA0001B6822F480629A61FB681B689969BB6883
:104CB0001B691A02FB681B680A439A6184E0FB685F
:104CC0001B68B968184600F0D5FAFB681B68DA69FA
:104CD000FB681B6842F00802DA61FB681B68DA694E
:104CE000FB681B6822F00402DA61FB681B68D96963
:104CF000BB681A69FB681B680A43DA6164E0FB68F9
:104D00001B68B968184600F02DFBFB681B68DA6960
:104D1000FB681B6842F40062DA61FB681B68DA69B1
:104D2000FB681B6822F48062DA61FB681B68D96942
:104D3000BB681B691A02FB681B680A43DA6143E01F
:104D4000FB681B68B968184600F06AFBFB681B68C3
:104D50005A6DFB681B6842F008025A65FB681B68C5
:104D60005A6DFB681B6822F004025A65FB681B68D9
:104D7000596DBB681A69FB681B680A435A6523E0D2
:104D8000FB681B68B968184600F0A2FBFB681B684B
:104D90005A6DFB681B6842F400625A65FB681B6829
:104DA0005A6DFB681B6822F480625A65FB681B68B9
:104DB000596DBB681B691A02FB681B680A435A6578
:104DC00002E00123FB7500BFFB68002283F83C2052
:104DD000FB7D18461837BD4680BD00BF80B584B046
:104DE00000AF786039600023FB737B6893F83C3038
:104DF000012B01D10223B6E07B68012283F83C201D
:104E00007B68022283F83D207B681B689B68BB603F
:104E1000BB6823F4803323F07703BB60BB6823F4C3
:104E20007F43BB607B681B68BA689A603B681B68FD
:104E3000B3F5005F3ED0B3F5005F00F28780B3F5B5
:104E4000805F00F08680B3F5805F7FD8702B1AD02A
:104E5000702B7BD8602B50D0602B77D8502B3CD058
:104E6000502B73D8402B58D0402B6FD8302B64D0A8
:104E7000302B6BD8202B60D0202B67D8002B5CD038
:104E8000102B5AD062E07B6818683B6899683B68D1
:104E90005A683B68DB6800F0EFFB7B681B689B6827
:104EA000BB60BB6843F07703BB607B681B68BA6874
:104EB0009A604FE07B6818683B6899683B685A685D
:104EC0003B68DB6800F0D8FB7B681B689A687B68EE
:104ED0001B6842F480429A603CE07B6818683B683B
:104EE00059683B68DB681A4600F04CFB7B681B681E
:104EF0005021184600F0A5FB2CE07B6818683B6841
:104F000059683B68DB681A4600F06BFB7B681B68DE
:104F10006021184600F095FB1CE07B6818683B6830
:104F200059683B68DB681A4600F02CFB7B681B68FD
:104F30004021184600F085FB0CE07B681A683B684E
:104F40001B681946104600F07CFB03E00123FB734D
:104F500000E000BF7B68012283F83D207B680022CF
:104F600083F83C20FB7B18461037BD4680BD80B4DB
:104F700083B000AF786000BF0C37BD465DF8047B9E
:104F8000704780B483B000AF786000BF0C37BD4677
:104F90005DF8047B704780B483B000AF786000BFD9
:104FA0000C37BD465DF8047B704780B483B000AF1A
:104FB000786000BF0C37BD465DF8047B7047000089
:104FC00080B485B000AF786039607B681B68FB6097
:104FD0007B682A4A934203D07B68B3F1804F08D1A3
:104FE000FB6823F07003FB603B685B68FA6813435F
:104FF000FB607B68214A93420BD07B68B3F1804F02
:1050000007D07B681E4A934203D07B681D4A9342B7
:1050100008D1FB6823F44073FB603B68DB68FA68E7
:105020001343FB60FB6823F080023B685B6913431A
:10503000FB607B68FA681A603B689A687B68DA6292
:105040003B681A687B689A627B680C4A934207D077
:105050007B680B4A934203D07B680A4A934203D190
:105060003B681A697B681A637B6801225A6100BF3A
:105070001437BD465DF8047B704700BF002C01402B
:10508000004001400044014080B487B000AF786028
:1050900039607B681B6A23F001027B681A627B68B7
:1050A0001B6A7B617B685B683B617B689B69FB601B
:1050B000FB6823F4803323F07003FB60FB6823F06C
:1050C0000303FB603B681B68FA681343FB607B6962
:1050D00023F002037B613B689B687A6913437B6121
:1050E0007B68244A934207D07B68234A934203D0CB
:1050F0007B68224A93420CD17B6923F008037B61D1
:105100003B68DB687A6913437B617B6923F00403A6
:105110007B617B68174A934207D07B68164A9342AB
:1051200003D07B68154A934211D13B6923F4807305
:105130003B613B6923F400733B613B685B693A69FF
:1051400013433B613B689B693A6913433B617B684E
:105150003A695A607B68FA689A613B685A687B686A
:105160005A637B687A691A6200BF1C37BD465DF8D6
:10517000047B7047002C0140004001400044014086
:1051800080B487B000AF786039607B681B6A23F019
:1051900010027B681A627B681B6A7B617B685B68B4
:1051A0003B617B689B69FB60FB6823F0807323F4A1
:1051B000E043FB60FB6823F44073FB603B681B68C3
:1051C0001B02FA681343FB607B6923F020037B61B9
:1051D0003B689B681B017A6913437B617B68224AA9
:1051E00093420DD17B6923F080037B613B68DB68D0
:1051F0001B017A6913437B617B6923F040037B6168
:105200007B68194A934207D07B68184A934203D0BF
:105210007B68174A934213D13B6923F480633B6157
:105220003B6923F400633B613B685B699B003A691F
:1052300013433B613B689B699B003A6913433B61A5
:105240007B683A695A607B68FA689A613B685A6879
:105250007B689A637B687A691A6200BF1C37BD4617
:105260005DF8047B704700BF002C01400040014006
:105270000044014080B487B000AF786039607B683B
:105280001B6A23F480727B681A627B681B6A7B61ED
:105290007B685B683B617B68DB69FB60FB6823F4D0
:1052A000803323F07003FB60FB6823F00303FB6093
:1052B0003B681B68FA681343FB607B6923F4007347
:1052C0007B613B689B681B027A6913437B617B6847
:1052D000214A93420DD17B6923F400637B613B68D3
:1052E000DB681B027A6913437B617B6923F480636B
:1052F0007B617B68184A934207D07B68174A9342C8
:1053000003D07B68164A934213D13B6923F4805340
:105310003B613B6923F400533B613B685B691B01C4
:105320003A6913433B613B689B691B013A6913432C
:105330003B617B683A695A607B68FA68DA613B686E
:105340005A687B68DA637B687A691A6200BF1C3727
:10535000BD465DF8047B7047002C014000400140D1
:105360000044014080B487B000AF786039607B684A
:105370001B6A23F480527B681A627B681B6A3B615C
:105380007B685B687B617B68DB69FB60FB6823F0A3
:10539000807323F4E043FB60FB6823F44073FB60FD
:1053A0003B681B681B02FA681343FB603B6923F4EC
:1053B00000533B613B689B681B033A6913433B61A5
:1053C0007B68144A934207D07B68134A934203D008
:1053D0007B68124A934209D17B6923F480437B6145
:1053E0003B685B699B017A6913437B617B687A69DF
:1053F0005A607B68FA68DA613B685A687B681A64AD
:105400007B683A691A6200BF1C37BD465DF8047BB1
:10541000704700BF002C01400040014000440140A3
:1054200080B487B000AF786039607B681B6A23F472
:1054300080327B681A627B681B6A3B617B685B68B1
:105440007B617B685B6DFB60FB6823F4803323F03A
:105450007003FB603B681B68FA681343FB603B69A1
:1054600023F400333B613B689B681B043A69134398
:105470003B617B68134A934207D07B68124A934290
:1054800003D07B68114A934209D17B6923F48033AE
:105490007B613B685B691B027A6913437B617B68B4
:1054A0007A695A607B68FA685A653B685A687B6813
:1054B0009A657B683A691A6200BF1C37BD465DF881
:1054C000047B7047002C0140004001400044014033
:1054D00080B487B000AF786039607B681B6A23F4C2
:1054E00080127B681A627B681B6A3B617B685B6821
:1054F0007B617B685B6DFB60FB6823F0807323F44A
:10550000E043FB603B681B681B02FA681343FB60C7
:105510003B6923F400133B613B689B681B053A69B8
:1055200013433B617B68144A934207D07B68134A5C
:10553000934203D07B68124A934209D17B6923F4DA
:1055400080237B613B685B699B027A6913437B61C3
:105550007B687A695A607B68FA685A653B685A6862
:105560007B68DA657B683A691A6200BF1C37BD4602
:105570005DF8047B704700BF002C014000400140F3
:105580000044014080B487B000AFF860B9607A6031
:10559000FB681B6A7B61FB681B6A23F00102FB68E6
:1055A0001A62FB689B693B613B6923F0F0033B6136
:1055B0007B681B013A6913433B617B6923F00A0353
:1055C0007B617A69BB6813437B61FB683A699A61C6
:1055D000FB687A691A6200BF1C37BD465DF8047B20
:1055E000704780B487B000AFF860B9607A60FB683C
:1055F0001B6A23F01002FB681A62FB689B697B61DF
:10560000FB681B6A3B617B6923F470437B617B68A9
:105610001B037A6913437B613B6923F0A0033B6161
:10562000BB681B013A6913433B61FB687A699A6165
:10563000FB683A691A6200BF1C37BD465DF8047BFF
:10564000704780B485B000AF786039607B689B6834
:10565000FB60FB6823F07003FB603A68FB68134350
:1056600043F00703FB607B68FA689A6000BF143759
:10567000BD465DF8047B704780B487B000AFF8602A
:10568000B9607A603B60FB689B687B617B6923F44F
:105690007F437B613B681A027B681A43BB681343F4
:1056A0007A6913437B61FB687A699A6000BF1C3793
:1056B000BD465DF8047B704780B487B000AFF860EA
:1056C000B9607A60BB6803F01F03012202FA03F39A
:1056D0007B61FB681A6A7B69DB431A40FB681A62CC
:1056E000FB681A6ABB6803F01F03796801FA03F3C9
:1056F0001A43FB681A6200BF1C37BD465DF8047B85
:10570000704780B582B000AF78607B68002B01D114
:10571000012340E07B689B6F002B06D17B68002251
:1057200083F874207868FBF701FD7B6824229A6770
:105730007B681B681A687B681B6822F001021A608C
:10574000786800F02DF80346012B01D1012322E0F7
:105750007B685B6A002B02D0786800F07BFA7B687C
:105760001B685A687B681B6822F490425A607B6809
:105770001B689A687B681B6822F02A029A607B6823
:105780001B681A687B681B6842F001021A6078681F
:1057900000F002FB034618460837BD4680BD0000F6
:1057A0002DE9B04F8AB000AFF860002387F82230AF
:1057B000FB689A68FB681B691A43FB685B691A43BC
:1057C000FB68DB6913437B62FB681B681A689E4BAE
:1057D0001340FA681268796A0B431360FB681B6810
:1057E0005B6823F44051FB68DA68FB681B680A4376
:1057F0005A60FB689B697B62FB681B68934A934213
:1058000004D0FB681B6A7A6A13437B62FB681B68DF
:105810009B6823F43061FB681B687A6A0A439A60CC
:10582000FB681B688A4A934226D18A4BD3F888309A
:1058300003F00303032B1BD801A252F823F000BF8F
:105840005158000861580008595800086958000864
:10585000012387F82330ABE0022387F82330A7E049
:10586000042387F82330A3E0082387F823309FE040
:10587000102387F823309BE0FB681B68764A93422D
:1058800038D1744BD3F8883003F00C030C2B2DD88F
:1058900001A252F823F000BFCD580008ED580008CF
:1058A000ED580008ED580008DD580008ED580008D4
:1058B000ED580008ED580008D5580008ED580008CC
:1058C000ED580008ED580008E5580008002387F857
:1058D00023306DE0022387F8233069E0042387F842
:1058E000233065E0082387F8233061E0102387F830
:1058F00023305DE0FB681B68584A934225D1554B25
:10590000D3F8883003F03003302B16D0302B18D862
:10591000202B0AD0202B14D8002B02D0102B08D01B
:105920000FE0002387F8233042E0022387F823307A
:105930003EE0042387F823303AE0082387F8233039
:1059400036E0102387F8233032E0FB681B683F4ABB
:1059500093422AD13F4BD3F8883003F44063B3F528
:10596000406F1AD0B3F5406F1BD8B3F5006F0CD061
:10597000B3F5006F15D8002B03D0B3F5806F08D0B6
:105980000FE0002387F8233012E0022387F823304A
:105990000EE0042387F823300AE0082387F8233039
:1059A00006E0102387F8233002E0102387F8233025
:1059B000FB681B68254A934240F08A8097F82330A1
:1059C000082B24D801A252F823F000BFF159000897
:1059D0000F5A0008F95900080F5A0008FF5900082B
:1059E0000F5A00080F5A00080F5A0008075A0008FB
:1059F000FEF792FBF86110E0194BFB610DE0FEF73A
:105A0000F5FAF86109E04FF40043FB6105E000237B
:105A1000FB61012387F8223000BFFB69002B00F0F7
:105A20000981FB685A6813465B001344FA699A427D
:105A300005D3FB685B681B03FA699A4212D90123FC
:105A400087F82230F6E000BFF369FFEF00800040E6
:105A5000003801400010024000440040004800406F
:105A60000024F400FB6900221C4615464FF000029A
:105A70004FF000032B0243EA14632202F9684968DD
:105A8000490800208846814612EB080A43EB090BBF
:105A9000FB685B6800223B607A60D7E900235046D0
:105AA0005946FAF795FB02460B461346BB61BB69A4
:105AB000B3F5407F08D3BB69B3F5801F04D2FB6800
:105AC0001B68BA69DA60B5E0012387F82230B1E0DB
:105AD000FB68DB69B3F5004F5DD197F82330082BE5
